{
	"contracts/shareable/Streaming.sol": {
		"Streaming": {
			"abi": [
				{
					"inputs": [],
					"stateMutability": "nonpayable",
					"type": "constructor"
				},
				{
					"inputs": [],
					"name": "AccessControlBadConfirmation",
					"type": "error"
				},
				{
					"inputs": [
						{
							"internalType": "address",
							"name": "account",
							"type": "address"
						},
						{
							"internalType": "bytes32",
							"name": "neededRole",
							"type": "bytes32"
						}
					],
					"name": "AccessControlUnauthorizedAccount",
					"type": "error"
				},
				{
					"anonymous": false,
					"inputs": [
						{
							"indexed": true,
							"internalType": "bytes32",
							"name": "role",
							"type": "bytes32"
						},
						{
							"indexed": true,
							"internalType": "bytes32",
							"name": "previousAdminRole",
							"type": "bytes32"
						},
						{
							"indexed": true,
							"internalType": "bytes32",
							"name": "newAdminRole",
							"type": "bytes32"
						}
					],
					"name": "RoleAdminChanged",
					"type": "event"
				},
				{
					"anonymous": false,
					"inputs": [
						{
							"indexed": true,
							"internalType": "bytes32",
							"name": "role",
							"type": "bytes32"
						},
						{
							"indexed": true,
							"internalType": "address",
							"name": "account",
							"type": "address"
						},
						{
							"indexed": true,
							"internalType": "address",
							"name": "sender",
							"type": "address"
						}
					],
					"name": "RoleGranted",
					"type": "event"
				},
				{
					"anonymous": false,
					"inputs": [
						{
							"indexed": true,
							"internalType": "bytes32",
							"name": "role",
							"type": "bytes32"
						},
						{
							"indexed": true,
							"internalType": "address",
							"name": "account",
							"type": "address"
						},
						{
							"indexed": true,
							"internalType": "address",
							"name": "sender",
							"type": "address"
						}
					],
					"name": "RoleRevoked",
					"type": "event"
				},
				{
					"anonymous": false,
					"inputs": [
						{
							"indexed": true,
							"internalType": "bytes32",
							"name": "sessionId",
							"type": "bytes32"
						},
						{
							"indexed": false,
							"internalType": "string",
							"name": "streamName",
							"type": "string"
						},
						{
							"indexed": false,
							"internalType": "string",
							"name": "streamUrl",
							"type": "string"
						},
						{
							"indexed": true,
							"internalType": "address",
							"name": "streamer",
							"type": "address"
						},
						{
							"indexed": false,
							"internalType": "uint256",
							"name": "startTime",
							"type": "uint256"
						}
					],
					"name": "StreamCreated",
					"type": "event"
				},
				{
					"anonymous": false,
					"inputs": [
						{
							"indexed": true,
							"internalType": "bytes32",
							"name": "sessionId",
							"type": "bytes32"
						},
						{
							"indexed": false,
							"internalType": "uint256",
							"name": "endTime",
							"type": "uint256"
						}
					],
					"name": "StreamEnded",
					"type": "event"
				},
				{
					"anonymous": false,
					"inputs": [
						{
							"indexed": true,
							"internalType": "bytes32",
							"name": "sessionId",
							"type": "bytes32"
						},
						{
							"indexed": false,
							"internalType": "string",
							"name": "streamName",
							"type": "string"
						},
						{
							"indexed": false,
							"internalType": "string",
							"name": "streamUrl",
							"type": "string"
						},
						{
							"indexed": false,
							"internalType": "uint256",
							"name": "endTime",
							"type": "uint256"
						},
						{
							"indexed": false,
							"internalType": "bool",
							"name": "isActive",
							"type": "bool"
						}
					],
					"name": "StreamUpdated",
					"type": "event"
				},
				{
					"inputs": [],
					"name": "ADMIN_ROLE",
					"outputs": [
						{
							"internalType": "bytes32",
							"name": "",
							"type": "bytes32"
						}
					],
					"stateMutability": "view",
					"type": "function"
				},
				{
					"inputs": [],
					"name": "DEFAULT_ADMIN_ROLE",
					"outputs": [
						{
							"internalType": "bytes32",
							"name": "",
							"type": "bytes32"
						}
					],
					"stateMutability": "view",
					"type": "function"
				},
				{
					"inputs": [],
					"name": "STREAMER_ROLE",
					"outputs": [
						{
							"internalType": "bytes32",
							"name": "",
							"type": "bytes32"
						}
					],
					"stateMutability": "view",
					"type": "function"
				},
				{
					"inputs": [
						{
							"internalType": "string",
							"name": "streamName",
							"type": "string"
						},
						{
							"internalType": "string",
							"name": "streamUrl",
							"type": "string"
						},
						{
							"internalType": "uint256",
							"name": "startTime",
							"type": "uint256"
						}
					],
					"name": "createStream",
					"outputs": [],
					"stateMutability": "nonpayable",
					"type": "function"
				},
				{
					"inputs": [
						{
							"internalType": "bytes32",
							"name": "sessionId",
							"type": "bytes32"
						}
					],
					"name": "endStream",
					"outputs": [],
					"stateMutability": "nonpayable",
					"type": "function"
				},
				{
					"inputs": [
						{
							"internalType": "bytes32",
							"name": "role",
							"type": "bytes32"
						}
					],
					"name": "getRoleAdmin",
					"outputs": [
						{
							"internalType": "bytes32",
							"name": "",
							"type": "bytes32"
						}
					],
					"stateMutability": "view",
					"type": "function"
				},
				{
					"inputs": [
						{
							"internalType": "bytes32",
							"name": "sessionId",
							"type": "bytes32"
						}
					],
					"name": "getStreamInfo",
					"outputs": [
						{
							"components": [
								{
									"internalType": "string",
									"name": "streamName",
									"type": "string"
								},
								{
									"internalType": "string",
									"name": "streamUrl",
									"type": "string"
								},
								{
									"internalType": "address",
									"name": "streamer",
									"type": "address"
								},
								{
									"internalType": "uint256",
									"name": "startTime",
									"type": "uint256"
								},
								{
									"internalType": "uint256",
									"name": "endTime",
									"type": "uint256"
								},
								{
									"internalType": "bool",
									"name": "isActive",
									"type": "bool"
								}
							],
							"internalType": "struct Streaming.StreamSession",
							"name": "",
							"type": "tuple"
						}
					],
					"stateMutability": "view",
					"type": "function"
				},
				{
					"inputs": [
						{
							"internalType": "bytes32",
							"name": "role",
							"type": "bytes32"
						},
						{
							"internalType": "address",
							"name": "account",
							"type": "address"
						}
					],
					"name": "grantRole",
					"outputs": [],
					"stateMutability": "nonpayable",
					"type": "function"
				},
				{
					"inputs": [
						{
							"internalType": "bytes32",
							"name": "role",
							"type": "bytes32"
						},
						{
							"internalType": "address",
							"name": "account",
							"type": "address"
						}
					],
					"name": "hasRole",
					"outputs": [
						{
							"internalType": "bool",
							"name": "",
							"type": "bool"
						}
					],
					"stateMutability": "view",
					"type": "function"
				},
				{
					"inputs": [
						{
							"internalType": "bytes32",
							"name": "role",
							"type": "bytes32"
						},
						{
							"internalType": "address",
							"name": "callerConfirmation",
							"type": "address"
						}
					],
					"name": "renounceRole",
					"outputs": [],
					"stateMutability": "nonpayable",
					"type": "function"
				},
				{
					"inputs": [
						{
							"internalType": "bytes32",
							"name": "role",
							"type": "bytes32"
						},
						{
							"internalType": "address",
							"name": "account",
							"type": "address"
						}
					],
					"name": "revokeRole",
					"outputs": [],
					"stateMutability": "nonpayable",
					"type": "function"
				},
				{
					"inputs": [
						{
							"internalType": "bytes32",
							"name": "sessionId",
							"type": "bytes32"
						}
					],
					"name": "streamExists",
					"outputs": [
						{
							"internalType": "bool",
							"name": "",
							"type": "bool"
						}
					],
					"stateMutability": "view",
					"type": "function"
				},
				{
					"inputs": [
						{
							"internalType": "uint256",
							"name": "index",
							"type": "uint256"
						}
					],
					"name": "streamIdAt",
					"outputs": [
						{
							"internalType": "bytes32",
							"name": "",
							"type": "bytes32"
						}
					],
					"stateMutability": "view",
					"type": "function"
				},
				{
					"inputs": [
						{
							"internalType": "bytes4",
							"name": "interfaceId",
							"type": "bytes4"
						}
					],
					"name": "supportsInterface",
					"outputs": [
						{
							"internalType": "bool",
							"name": "",
							"type": "bool"
						}
					],
					"stateMutability": "view",
					"type": "function"
				},
				{
					"inputs": [],
					"name": "totalStreams",
					"outputs": [
						{
							"internalType": "uint256",
							"name": "",
							"type": "uint256"
						}
					],
					"stateMutability": "view",
					"type": "function"
				},
				{
					"inputs": [
						{
							"internalType": "bytes32",
							"name": "sessionId",
							"type": "bytes32"
						},
						{
							"internalType": "string",
							"name": "streamName",
							"type": "string"
						},
						{
							"internalType": "string",
							"name": "streamUrl",
							"type": "string"
						},
						{
							"internalType": "uint256",
							"name": "endTime",
							"type": "uint256"
						},
						{
							"internalType": "bool",
							"name": "isActive",
							"type": "bool"
						}
					],
					"name": "updateStream",
					"outputs": [],
					"stateMutability": "nonpayable",
					"type": "function"
				}
			],
			"devdoc": {
				"details": "This contract manages live streaming sessions and interacts with storage to manage streaming data.",
				"errors": {
					"AccessControlBadConfirmation()": [
						{
							"details": "The caller of a function is not the expected one. NOTE: Don't confuse with {AccessControlUnauthorizedAccount}."
						}
					],
					"AccessControlUnauthorizedAccount(address,bytes32)": [
						{
							"details": "The `account` is missing a role."
						}
					]
				},
				"events": {
					"RoleAdminChanged(bytes32,bytes32,bytes32)": {
						"details": "Emitted when `newAdminRole` is set as ``role``'s admin role, replacing `previousAdminRole` `DEFAULT_ADMIN_ROLE` is the starting admin for all roles, despite {RoleAdminChanged} not being emitted signaling this."
					},
					"RoleGranted(bytes32,address,address)": {
						"details": "Emitted when `account` is granted `role`. `sender` is the account that originated the contract call, an admin role bearer except when using {AccessControl-_setupRole}."
					},
					"RoleRevoked(bytes32,address,address)": {
						"details": "Emitted when `account` is revoked `role`. `sender` is the account that originated the contract call:   - if using `revokeRole`, it is the admin role bearer   - if using `renounceRole`, it is the role bearer (i.e. `account`)"
					}
				},
				"kind": "dev",
				"methods": {
					"constructor": {
						"details": "Initializes the contract and sets up the roles."
					},
					"createStream(string,string,uint256)": {
						"details": "Allows a streamer to create a new streaming session.",
						"params": {
							"startTime": "The start time of the stream.",
							"streamName": "The name of the stream.",
							"streamUrl": "The URL where the stream can be accessed."
						}
					},
					"endStream(bytes32)": {
						"details": "Allows an admin or streamer to end a streaming session.",
						"params": {
							"sessionId": "The ID of the session to end."
						}
					},
					"getRoleAdmin(bytes32)": {
						"details": "Returns the admin role that controls `role`. See {grantRole} and {revokeRole}. To change a role's admin, use {_setRoleAdmin}."
					},
					"getStreamInfo(bytes32)": {
						"details": "Retrieves information about a streaming session.",
						"params": {
							"sessionId": "The ID of the session to retrieve."
						},
						"returns": {
							"_0": "The streaming session information."
						}
					},
					"grantRole(bytes32,address)": {
						"details": "Grants `role` to `account`. If `account` had not been already granted `role`, emits a {RoleGranted} event. Requirements: - the caller must have ``role``'s admin role. May emit a {RoleGranted} event."
					},
					"hasRole(bytes32,address)": {
						"details": "Returns `true` if `account` has been granted `role`."
					},
					"renounceRole(bytes32,address)": {
						"details": "Revokes `role` from the calling account. Roles are often managed via {grantRole} and {revokeRole}: this function's purpose is to provide a mechanism for accounts to lose their privileges if they are compromised (such as when a trusted device is misplaced). If the calling account had been revoked `role`, emits a {RoleRevoked} event. Requirements: - the caller must be `callerConfirmation`. May emit a {RoleRevoked} event."
					},
					"revokeRole(bytes32,address)": {
						"details": "Revokes `role` from `account`. If `account` had been granted `role`, emits a {RoleRevoked} event. Requirements: - the caller must have ``role``'s admin role. May emit a {RoleRevoked} event."
					},
					"streamExists(bytes32)": {
						"details": "Checks if a streaming session exists.",
						"params": {
							"sessionId": "The ID of the session."
						},
						"returns": {
							"_0": "True if the session exists, false otherwise."
						}
					},
					"streamIdAt(uint256)": {
						"details": "Returns a streaming session ID at a specific index.",
						"params": {
							"index": "The index of the session ID."
						},
						"returns": {
							"_0": "The session ID at the given index."
						}
					},
					"supportsInterface(bytes4)": {
						"details": "See {IERC165-supportsInterface}."
					},
					"totalStreams()": {
						"details": "Returns the total number of streaming sessions.",
						"returns": {
							"_0": "The number of streaming sessions."
						}
					},
					"updateStream(bytes32,string,string,uint256,bool)": {
						"details": "Allows a streamer or admin to update an existing streaming session.",
						"params": {
							"endTime": "The end time of the stream.",
							"isActive": "Indicates whether the stream is active or not.",
							"sessionId": "The ID of the session to update.",
							"streamName": "The updated name of the stream.",
							"streamUrl": "The updated URL where the stream can be accessed."
						}
					}
				},
				"title": "Streaming",
				"version": 1
			},
			"evm": {
				"assembly": "    /* \"contracts/shareable/Streaming.sol\":345:5838  contract Streaming is AccessControl {... */\n  mstore(0x40, 0x80)\n    /* \"contracts/shareable/Streaming.sol\":1500:1664  constructor() {... */\n  callvalue\n  dup1\n  iszero\n  tag_1\n  jumpi\n  0x00\n  dup1\n  revert\ntag_1:\n  pop\n    /* \"contracts/shareable/Streaming.sol\":1524:1566  _grantRole(DEFAULT_ADMIN_ROLE, msg.sender) */\n  tag_4\n    /* \"@openzeppelin/contracts/access/AccessControl.sol\":2232:2236  0x00 */\n  0x00\n    /* \"contracts/shareable/Streaming.sol\":1535:1553  DEFAULT_ADMIN_ROLE */\n  dup1\n  shl\n    /* \"contracts/shareable/Streaming.sol\":1555:1565  msg.sender */\n  caller\n    /* \"contracts/shareable/Streaming.sol\":1524:1534  _grantRole */\n  shl(0x20, tag_5)\n    /* \"contracts/shareable/Streaming.sol\":1524:1566  _grantRole(DEFAULT_ADMIN_ROLE, msg.sender) */\n  0x20\n  shr\n  jump\t// in\ntag_4:\n  pop\n    /* \"contracts/shareable/Streaming.sol\":1576:1610  _grantRole(ADMIN_ROLE, msg.sender) */\n  tag_6\n    /* \"contracts/shareable/Streaming.sol\":520:543  keccak256(\"ADMIN_ROLE\") */\n  0xa49807205ce4d355092ef5a8a18f56e8913cf4a201fbe287825b095693c21775\n    /* \"contracts/shareable/Streaming.sol\":1599:1609  msg.sender */\n  caller\n    /* \"contracts/shareable/Streaming.sol\":1576:1586  _grantRole */\n  shl(0x20, tag_5)\n    /* \"contracts/shareable/Streaming.sol\":1576:1610  _grantRole(ADMIN_ROLE, msg.sender) */\n  0x20\n  shr\n  jump\t// in\ntag_6:\n  pop\n    /* \"contracts/shareable/Streaming.sol\":1620:1657  _grantRole(STREAMER_ROLE, msg.sender) */\n  tag_7\n    /* \"contracts/shareable/Streaming.sol\":589:615  keccak256(\"STREAMER_ROLE\") */\n  0x41d12fe3b2ffe2aea01a3e08ec191d0142900efe396c6cd50b857af5b6f1bdae\n    /* \"contracts/shareable/Streaming.sol\":1646:1656  msg.sender */\n  caller\n    /* \"contracts/shareable/Streaming.sol\":1620:1630  _grantRole */\n  shl(0x20, tag_5)\n    /* \"contracts/shareable/Streaming.sol\":1620:1657  _grantRole(STREAMER_ROLE, msg.sender) */\n  0x20\n  shr\n  jump\t// in\ntag_7:\n  pop\n    /* \"contracts/shareable/Streaming.sol\":345:5838  contract Streaming is AccessControl {... */\n  jump(tag_8)\n    /* \"@openzeppelin/contracts/access/AccessControl.sol\":6179:6495  function _grantRole(bytes32 role, address account) internal virtual returns (bool) {... */\ntag_5:\n    /* \"@openzeppelin/contracts/access/AccessControl.sol\":6256:6260  bool */\n  0x00\n    /* \"@openzeppelin/contracts/access/AccessControl.sol\":6277:6299  hasRole(role, account) */\n  tag_10\n    /* \"@openzeppelin/contracts/access/AccessControl.sol\":6285:6289  role */\n  dup4\n    /* \"@openzeppelin/contracts/access/AccessControl.sol\":6291:6298  account */\n  dup4\n    /* \"@openzeppelin/contracts/access/AccessControl.sol\":6277:6284  hasRole */\n  shl(0x20, tag_11)\n    /* \"@openzeppelin/contracts/access/AccessControl.sol\":6277:6299  hasRole(role, account) */\n  0x20\n  shr\n  jump\t// in\ntag_10:\n    /* \"@openzeppelin/contracts/access/AccessControl.sol\":6272:6489  if (!hasRole(role, account)) {... */\n  tag_12\n  jumpi\n    /* \"@openzeppelin/contracts/access/AccessControl.sol\":6347:6351  true */\n  0x01\n    /* \"@openzeppelin/contracts/access/AccessControl.sol\":6315:6321  _roles */\n  0x00\n    /* \"@openzeppelin/contracts/access/AccessControl.sol\":6315:6327  _roles[role] */\n  dup1\n    /* \"@openzeppelin/contracts/access/AccessControl.sol\":6322:6326  role */\n  dup6\n    /* \"@openzeppelin/contracts/access/AccessControl.sol\":6315:6327  _roles[role] */\n  dup2\n  mstore\n  0x20\n  add\n  swap1\n  dup2\n  mstore\n  0x20\n  add\n  0x00\n  keccak256\n    /* \"@openzeppelin/contracts/access/AccessControl.sol\":6315:6335  _roles[role].hasRole */\n  0x00\n  add\n    /* \"@openzeppelin/contracts/access/AccessControl.sol\":6315:6344  _roles[role].hasRole[account] */\n  0x00\n    /* \"@openzeppelin/contracts/access/AccessControl.sol\":6336:6343  account */\n  dup5\n    /* \"@openzeppelin/contracts/access/AccessControl.sol\":6315:6344  _roles[role].hasRole[account] */\n  0xffffffffffffffffffffffffffffffffffffffff\n  and\n  0xffffffffffffffffffffffffffffffffffffffff\n  and\n  dup2\n  mstore\n  0x20\n  add\n  swap1\n  dup2\n  mstore\n  0x20\n  add\n  0x00\n  keccak256\n  0x00\n    /* \"@openzeppelin/contracts/access/AccessControl.sol\":6315:6351  _roles[role].hasRole[account] = true */\n  0x0100\n  exp\n  dup2\n  sload\n  dup2\n  0xff\n  mul\n  not\n  and\n  swap1\n  dup4\n  iszero\n  iszero\n  mul\n  or\n  swap1\n  sstore\n  pop\n    /* \"@openzeppelin/contracts/access/AccessControl.sol\":6397:6409  _msgSender() */\n  tag_13\n    /* \"@openzeppelin/contracts/access/AccessControl.sol\":6397:6407  _msgSender */\n  shl(0x20, tag_14)\n    /* \"@openzeppelin/contracts/access/AccessControl.sol\":6397:6409  _msgSender() */\n  0x20\n  shr\n  jump\t// in\ntag_13:\n    /* \"@openzeppelin/contracts/access/AccessControl.sol\":6370:6410  RoleGranted(role, account, _msgSender()) */\n  0xffffffffffffffffffffffffffffffffffffffff\n  and\n    /* \"@openzeppelin/contracts/access/AccessControl.sol\":6388:6395  account */\n  dup3\n    /* \"@openzeppelin/contracts/access/AccessControl.sol\":6370:6410  RoleGranted(role, account, _msgSender()) */\n  0xffffffffffffffffffffffffffffffffffffffff\n  and\n    /* \"@openzeppelin/contracts/access/AccessControl.sol\":6382:6386  role */\n  dup5\n    /* \"@openzeppelin/contracts/access/AccessControl.sol\":6370:6410  RoleGranted(role, account, _msgSender()) */\n  0x2f8788117e7eff1d82e926ec794901d17c78024a50270940304540a733656f0d\n  mload(0x40)\n  mload(0x40)\n  dup1\n  swap2\n  sub\n  swap1\n  log4\n    /* \"@openzeppelin/contracts/access/AccessControl.sol\":6431:6435  true */\n  0x01\n    /* \"@openzeppelin/contracts/access/AccessControl.sol\":6424:6435  return true */\n  swap1\n  pop\n  jump(tag_9)\n    /* \"@openzeppelin/contracts/access/AccessControl.sol\":6272:6489  if (!hasRole(role, account)) {... */\ntag_12:\n    /* \"@openzeppelin/contracts/access/AccessControl.sol\":6473:6478  false */\n  0x00\n    /* \"@openzeppelin/contracts/access/AccessControl.sol\":6466:6478  return false */\n  swap1\n  pop\n    /* \"@openzeppelin/contracts/access/AccessControl.sol\":6179:6495  function _grantRole(bytes32 role, address account) internal virtual returns (bool) {... */\ntag_9:\n  swap3\n  swap2\n  pop\n  pop\n  jump\t// out\n    /* \"@openzeppelin/contracts/access/AccessControl.sol\":2854:2990  function hasRole(bytes32 role, address account) public view virtual returns (bool) {... */\ntag_11:\n    /* \"@openzeppelin/contracts/access/AccessControl.sol\":2931:2935  bool */\n  0x00\n    /* \"@openzeppelin/contracts/access/AccessControl.sol\":2954:2960  _roles */\n  dup1\n    /* \"@openzeppelin/contracts/access/AccessControl.sol\":2954:2966  _roles[role] */\n  0x00\n    /* \"@openzeppelin/contracts/access/AccessControl.sol\":2961:2965  role */\n  dup5\n    /* \"@openzeppelin/contracts/access/AccessControl.sol\":2954:2966  _roles[role] */\n  dup2\n  mstore\n  0x20\n  add\n  swap1\n  dup2\n  mstore\n  0x20\n  add\n  0x00\n  keccak256\n    /* \"@openzeppelin/contracts/access/AccessControl.sol\":2954:2974  _roles[role].hasRole */\n  0x00\n  add\n    /* \"@openzeppelin/contracts/access/AccessControl.sol\":2954:2983  _roles[role].hasRole[account] */\n  0x00\n    /* \"@openzeppelin/contracts/access/AccessControl.sol\":2975:2982  account */\n  dup4\n    /* \"@openzeppelin/contracts/access/AccessControl.sol\":2954:2983  _roles[role].hasRole[account] */\n  0xffffffffffffffffffffffffffffffffffffffff\n  and\n  0xffffffffffffffffffffffffffffffffffffffff\n  and\n  dup2\n  mstore\n  0x20\n  add\n  swap1\n  dup2\n  mstore\n  0x20\n  add\n  0x00\n  keccak256\n  0x00\n  swap1\n  sload\n  swap1\n  0x0100\n  exp\n  swap1\n  div\n  0xff\n  and\n    /* \"@openzeppelin/contracts/access/AccessControl.sol\":2947:2983  return _roles[role].hasRole[account] */\n  swap1\n  pop\n    /* \"@openzeppelin/contracts/access/AccessControl.sol\":2854:2990  function hasRole(bytes32 role, address account) public view virtual returns (bool) {... */\n  swap3\n  swap2\n  pop\n  pop\n  jump\t// out\n    /* \"@openzeppelin/contracts/utils/Context.sol\":656:752  function _msgSender() internal view virtual returns (address) {... */\ntag_14:\n    /* \"@openzeppelin/contracts/utils/Context.sol\":709:716  address */\n  0x00\n    /* \"@openzeppelin/contracts/utils/Context.sol\":735:745  msg.sender */\n  caller\n    /* \"@openzeppelin/contracts/utils/Context.sol\":728:745  return msg.sender */\n  swap1\n  pop\n    /* \"@openzeppelin/contracts/utils/Context.sol\":656:752  function _msgSender() internal view virtual returns (address) {... */\n  swap1\n  jump\t// out\n    /* \"contracts/shareable/Streaming.sol\":345:5838  contract Streaming is AccessControl {... */\ntag_8:\n  dataSize(sub_0)\n  dup1\n  dataOffset(sub_0)\n  0x00\n  codecopy\n  0x00\n  return\nstop\n\nsub_0: assembly {\n        /* \"contracts/shareable/Streaming.sol\":345:5838  contract Streaming is AccessControl {... */\n      mstore(0x40, 0x80)\n      callvalue\n      dup1\n      iszero\n      tag_1\n      jumpi\n      0x00\n      dup1\n      revert\n    tag_1:\n      pop\n      jumpi(tag_2, lt(calldatasize, 0x04))\n      shr(0xe0, calldataload(0x00))\n      dup1\n      0x7bf87f49\n      gt\n      tag_19\n      jumpi\n      dup1\n      0xd547741f\n      gt\n      tag_20\n      jumpi\n      dup1\n      0xd547741f\n      eq\n      tag_15\n      jumpi\n      dup1\n      0xe16e91ed\n      eq\n      tag_16\n      jumpi\n      dup1\n      0xf569faa2\n      eq\n      tag_17\n      jumpi\n      dup1\n      0xfc6ff96f\n      eq\n      tag_18\n      jumpi\n      jump(tag_2)\n    tag_20:\n      dup1\n      0x7bf87f49\n      eq\n      tag_11\n      jumpi\n      dup1\n      0x91d14854\n      eq\n      tag_12\n      jumpi\n      dup1\n      0xa217fddf\n      eq\n      tag_13\n      jumpi\n      dup1\n      0xc9d6da0e\n      eq\n      tag_14\n      jumpi\n      jump(tag_2)\n    tag_19:\n      dup1\n      0x334bd393\n      gt\n      tag_21\n      jumpi\n      dup1\n      0x334bd393\n      eq\n      tag_7\n      jumpi\n      dup1\n      0x36568abe\n      eq\n      tag_8\n      jumpi\n      dup1\n      0x408e1aeb\n      eq\n      tag_9\n      jumpi\n      dup1\n      0x75b238fc\n      eq\n      tag_10\n      jumpi\n      jump(tag_2)\n    tag_21:\n      dup1\n      0x01ffc9a7\n      eq\n      tag_3\n      jumpi\n      dup1\n      0x101b2a1b\n      eq\n      tag_4\n      jumpi\n      dup1\n      0x248a9ca3\n      eq\n      tag_5\n      jumpi\n      dup1\n      0x2f2ff15d\n      eq\n      tag_6\n      jumpi\n    tag_2:\n      0x00\n      dup1\n      revert\n        /* \"@openzeppelin/contracts/access/AccessControl.sol\":2565:2767  function supportsInterface(bytes4 interfaceId) public view virtual override returns (bool) {... */\n    tag_3:\n      tag_22\n      0x04\n      dup1\n      calldatasize\n      sub\n      dup2\n      add\n      swap1\n      tag_23\n      swap2\n      swap1\n      tag_24\n      jump\t// in\n    tag_23:\n      tag_25\n      jump\t// in\n    tag_22:\n      mload(0x40)\n      tag_26\n      swap2\n      swap1\n      tag_27\n      jump\t// in\n    tag_26:\n      mload(0x40)\n      dup1\n      swap2\n      sub\n      swap1\n      return\n        /* \"contracts/shareable/Streaming.sol\":1920:2720  function createStream(string calldata streamName, string calldata streamUrl, uint256 startTime) external onlyRole(STREAMER_ROLE) {... */\n    tag_4:\n      tag_28\n      0x04\n      dup1\n      calldatasize\n      sub\n      dup2\n      add\n      swap1\n      tag_29\n      swap2\n      swap1\n      tag_30\n      jump\t// in\n    tag_29:\n      tag_31\n      jump\t// in\n    tag_28:\n      stop\n        /* \"@openzeppelin/contracts/access/AccessControl.sol\":3810:3930  function getRoleAdmin(bytes32 role) public view virtual returns (bytes32) {... */\n    tag_5:\n      tag_32\n      0x04\n      dup1\n      calldatasize\n      sub\n      dup2\n      add\n      swap1\n      tag_33\n      swap2\n      swap1\n      tag_34\n      jump\t// in\n    tag_33:\n      tag_35\n      jump\t// in\n    tag_32:\n      mload(0x40)\n      tag_36\n      swap2\n      swap1\n      tag_37\n      jump\t// in\n    tag_36:\n      mload(0x40)\n      dup1\n      swap2\n      sub\n      swap1\n      return\n        /* \"@openzeppelin/contracts/access/AccessControl.sol\":4226:4362  function grantRole(bytes32 role, address account) public virtual onlyRole(getRoleAdmin(role)) {... */\n    tag_6:\n      tag_38\n      0x04\n      dup1\n      calldatasize\n      sub\n      dup2\n      add\n      swap1\n      tag_39\n      swap2\n      swap1\n      tag_40\n      jump\t// in\n    tag_39:\n      tag_41\n      jump\t// in\n    tag_38:\n      stop\n        /* \"contracts/shareable/Streaming.sol\":4783:5004  function getStreamInfo(bytes32 sessionId) external view returns (StreamSession memory) {... */\n    tag_7:\n      tag_42\n      0x04\n      dup1\n      calldatasize\n      sub\n      dup2\n      add\n      swap1\n      tag_43\n      swap2\n      swap1\n      tag_34\n      jump\t// in\n    tag_43:\n      tag_44\n      jump\t// in\n    tag_42:\n      mload(0x40)\n      tag_45\n      swap2\n      swap1\n      tag_46\n      jump\t// in\n    tag_45:\n      mload(0x40)\n      dup1\n      swap2\n      sub\n      swap1\n      return\n        /* \"@openzeppelin/contracts/access/AccessControl.sol\":5328:5573  function renounceRole(bytes32 role, address callerConfirmation) public virtual {... */\n    tag_8:\n      tag_47\n      0x04\n      dup1\n      calldatasize\n      sub\n      dup2\n      add\n      swap1\n      tag_48\n      swap2\n      swap1\n      tag_40\n      jump\t// in\n    tag_48:\n      tag_49\n      jump\t// in\n    tag_47:\n      stop\n        /* \"contracts/shareable/Streaming.sol\":5183:5308  function streamExists(bytes32 sessionId) external view returns (bool) {... */\n    tag_9:\n      tag_50\n      0x04\n      dup1\n      calldatasize\n      sub\n      dup2\n      add\n      swap1\n      tag_51\n      swap2\n      swap1\n      tag_34\n      jump\t// in\n    tag_51:\n      tag_52\n      jump\t// in\n    tag_50:\n      mload(0x40)\n      tag_53\n      swap2\n      swap1\n      tag_27\n      jump\t// in\n    tag_53:\n      mload(0x40)\n      dup1\n      swap2\n      sub\n      swap1\n      return\n        /* \"contracts/shareable/Streaming.sol\":483:543  bytes32 public constant ADMIN_ROLE = keccak256(\"ADMIN_ROLE\") */\n    tag_10:\n      tag_54\n      tag_55\n      jump\t// in\n    tag_54:\n      mload(0x40)\n      tag_56\n      swap2\n      swap1\n      tag_37\n      jump\t// in\n    tag_56:\n      mload(0x40)\n      dup1\n      swap2\n      sub\n      swap1\n      return\n        /* \"contracts/shareable/Streaming.sol\":5724:5836  function streamIdAt(uint256 index) external view returns (bytes32) {... */\n    tag_11:\n      tag_57\n      0x04\n      dup1\n      calldatasize\n      sub\n      dup2\n      add\n      swap1\n      tag_58\n      swap2\n      swap1\n      tag_59\n      jump\t// in\n    tag_58:\n      tag_60\n      jump\t// in\n    tag_57:\n      mload(0x40)\n      tag_61\n      swap2\n      swap1\n      tag_37\n      jump\t// in\n    tag_61:\n      mload(0x40)\n      dup1\n      swap2\n      sub\n      swap1\n      return\n        /* \"@openzeppelin/contracts/access/AccessControl.sol\":2854:2990  function hasRole(bytes32 role, address account) public view virtual returns (bool) {... */\n    tag_12:\n      tag_62\n      0x04\n      dup1\n      calldatasize\n      sub\n      dup2\n      add\n      swap1\n      tag_63\n      swap2\n      swap1\n      tag_40\n      jump\t// in\n    tag_63:\n      tag_64\n      jump\t// in\n    tag_62:\n      mload(0x40)\n      tag_65\n      swap2\n      swap1\n      tag_27\n      jump\t// in\n    tag_65:\n      mload(0x40)\n      dup1\n      swap2\n      sub\n      swap1\n      return\n        /* \"@openzeppelin/contracts/access/AccessControl.sol\":2187:2236  bytes32 public constant DEFAULT_ADMIN_ROLE = 0x00 */\n    tag_13:\n      tag_66\n      tag_67\n      jump\t// in\n    tag_66:\n      mload(0x40)\n      tag_68\n      swap2\n      swap1\n      tag_37\n      jump\t// in\n    tag_68:\n      mload(0x40)\n      dup1\n      swap2\n      sub\n      swap1\n      return\n        /* \"contracts/shareable/Streaming.sol\":549:615  bytes32 public constant STREAMER_ROLE = keccak256(\"STREAMER_ROLE\") */\n    tag_14:\n      tag_69\n      tag_70\n      jump\t// in\n    tag_69:\n      mload(0x40)\n      tag_71\n      swap2\n      swap1\n      tag_37\n      jump\t// in\n    tag_71:\n      mload(0x40)\n      dup1\n      swap2\n      sub\n      swap1\n      return\n        /* \"@openzeppelin/contracts/access/AccessControl.sol\":4642:4780  function revokeRole(bytes32 role, address account) public virtual onlyRole(getRoleAdmin(role)) {... */\n    tag_15:\n      tag_72\n      0x04\n      dup1\n      calldatasize\n      sub\n      dup2\n      add\n      swap1\n      tag_73\n      swap2\n      swap1\n      tag_40\n      jump\t// in\n    tag_73:\n      tag_74\n      jump\t// in\n    tag_72:\n      stop\n        /* \"contracts/shareable/Streaming.sol\":3130:3845  function updateStream(bytes32 sessionId, string calldata streamName, string calldata streamUrl, uint256 endTime, bool isActive) external onlyRole(STREAMER_ROLE) {... */\n    tag_16:\n      tag_75\n      0x04\n      dup1\n      calldatasize\n      sub\n      dup2\n      add\n      swap1\n      tag_76\n      swap2\n      swap1\n      tag_77\n      jump\t// in\n    tag_76:\n      tag_78\n      jump\t// in\n    tag_75:\n      stop\n        /* \"contracts/shareable/Streaming.sol\":3989:4591  function endStream(bytes32 sessionId) external onlyRole(STREAMER_ROLE) {... */\n    tag_17:\n      tag_79\n      0x04\n      dup1\n      calldatasize\n      sub\n      dup2\n      add\n      swap1\n      tag_80\n      swap2\n      swap1\n      tag_34\n      jump\t// in\n    tag_80:\n      tag_81\n      jump\t// in\n    tag_79:\n      stop\n        /* \"contracts/shareable/Streaming.sol\":5439:5539  function totalStreams() external view returns (uint256) {... */\n    tag_18:\n      tag_82\n      tag_83\n      jump\t// in\n    tag_82:\n      mload(0x40)\n      tag_84\n      swap2\n      swap1\n      tag_85\n      jump\t// in\n    tag_84:\n      mload(0x40)\n      dup1\n      swap2\n      sub\n      swap1\n      return\n        /* \"@openzeppelin/contracts/access/AccessControl.sol\":2565:2767  function supportsInterface(bytes4 interfaceId) public view virtual override returns (bool) {... */\n    tag_25:\n        /* \"@openzeppelin/contracts/access/AccessControl.sol\":2650:2654  bool */\n      0x00\n        /* \"@openzeppelin/contracts/access/AccessControl.sol\":2688:2720  type(IAccessControl).interfaceId */\n      0x7965db0b00000000000000000000000000000000000000000000000000000000\n        /* \"@openzeppelin/contracts/access/AccessControl.sol\":2673:2720  interfaceId == type(IAccessControl).interfaceId */\n      not(0xffffffffffffffffffffffffffffffffffffffffffffffffffffffff)\n      and\n        /* \"@openzeppelin/contracts/access/AccessControl.sol\":2673:2684  interfaceId */\n      dup3\n        /* \"@openzeppelin/contracts/access/AccessControl.sol\":2673:2720  interfaceId == type(IAccessControl).interfaceId */\n      not(0xffffffffffffffffffffffffffffffffffffffffffffffffffffffff)\n      and\n      eq\n        /* \"@openzeppelin/contracts/access/AccessControl.sol\":2673:2760  interfaceId == type(IAccessControl).interfaceId || super.supportsInterface(interfaceId) */\n      dup1\n      tag_87\n      jumpi\n      pop\n        /* \"@openzeppelin/contracts/access/AccessControl.sol\":2724:2760  super.supportsInterface(interfaceId) */\n      tag_88\n        /* \"@openzeppelin/contracts/access/AccessControl.sol\":2748:2759  interfaceId */\n      dup3\n        /* \"@openzeppelin/contracts/access/AccessControl.sol\":2724:2747  super.supportsInterface */\n      tag_89\n        /* \"@openzeppelin/contracts/access/AccessControl.sol\":2724:2760  super.supportsInterface(interfaceId) */\n      jump\t// in\n    tag_88:\n        /* \"@openzeppelin/contracts/access/AccessControl.sol\":2673:2760  interfaceId == type(IAccessControl).interfaceId || super.supportsInterface(interfaceId) */\n    tag_87:\n        /* \"@openzeppelin/contracts/access/AccessControl.sol\":2666:2760  return interfaceId == type(IAccessControl).interfaceId || super.supportsInterface(interfaceId) */\n      swap1\n      pop\n        /* \"@openzeppelin/contracts/access/AccessControl.sol\":2565:2767  function supportsInterface(bytes4 interfaceId) public view virtual override returns (bool) {... */\n      swap2\n      swap1\n      pop\n      jump\t// out\n        /* \"contracts/shareable/Streaming.sol\":1920:2720  function createStream(string calldata streamName, string calldata streamUrl, uint256 startTime) external onlyRole(STREAMER_ROLE) {... */\n    tag_31:\n        /* \"contracts/shareable/Streaming.sol\":589:615  keccak256(\"STREAMER_ROLE\") */\n      0x41d12fe3b2ffe2aea01a3e08ec191d0142900efe396c6cd50b857af5b6f1bdae\n        /* \"@openzeppelin/contracts/access/AccessControl.sol\":2464:2480  _checkRole(role) */\n      tag_91\n        /* \"@openzeppelin/contracts/access/AccessControl.sol\":2475:2479  role */\n      dup2\n        /* \"@openzeppelin/contracts/access/AccessControl.sol\":2464:2474  _checkRole */\n      tag_92\n        /* \"@openzeppelin/contracts/access/AccessControl.sol\":2464:2480  _checkRole(role) */\n      jump\t// in\n    tag_91:\n        /* \"contracts/shareable/Streaming.sol\":2079:2094  block.timestamp */\n      timestamp\n        /* \"contracts/shareable/Streaming.sol\":2067:2076  startTime */\n      dup3\n        /* \"contracts/shareable/Streaming.sol\":2067:2094  startTime > block.timestamp */\n      gt\n        /* \"contracts/shareable/Streaming.sol\":2059:2142  require(startTime > block.timestamp, \"Streaming: Start time must be in the future\") */\n      tag_94\n      jumpi\n      mload(0x40)\n      0x08c379a000000000000000000000000000000000000000000000000000000000\n      dup2\n      mstore\n      0x04\n      add\n      tag_95\n      swap1\n      tag_96\n      jump\t// in\n    tag_95:\n      mload(0x40)\n      dup1\n      swap2\n      sub\n      swap1\n      revert\n    tag_94:\n        /* \"contracts/shareable/Streaming.sol\":2153:2170  bytes32 sessionId */\n      0x00\n        /* \"contracts/shareable/Streaming.sol\":2200:2210  streamName */\n      dup7\n      dup7\n        /* \"contracts/shareable/Streaming.sol\":2212:2221  streamUrl */\n      dup7\n      dup7\n        /* \"contracts/shareable/Streaming.sol\":2223:2233  msg.sender */\n      caller\n        /* \"contracts/shareable/Streaming.sol\":2235:2244  startTime */\n      dup8\n        /* \"contracts/shareable/Streaming.sol\":2183:2245  abi.encodePacked(streamName, streamUrl, msg.sender, startTime) */\n      add(0x20, mload(0x40))\n      tag_97\n      swap7\n      swap6\n      swap5\n      swap4\n      swap3\n      swap2\n      swap1\n      tag_98\n      jump\t// in\n    tag_97:\n      mload(0x40)\n      0x20\n      dup2\n      dup4\n      sub\n      sub\n      dup2\n      mstore\n      swap1\n      0x40\n      mstore\n        /* \"contracts/shareable/Streaming.sol\":2173:2246  keccak256(abi.encodePacked(streamName, streamUrl, msg.sender, startTime)) */\n      dup1\n      mload\n      swap1\n      0x20\n      add\n      keccak256\n        /* \"contracts/shareable/Streaming.sol\":2153:2246  bytes32 sessionId = keccak256(abi.encodePacked(streamName, streamUrl, msg.sender, startTime)) */\n      swap1\n      pop\n        /* \"contracts/shareable/Streaming.sol\":2265:2296  _sessionIds.contains(sessionId) */\n      tag_99\n        /* \"contracts/shareable/Streaming.sol\":2286:2295  sessionId */\n      dup2\n        /* \"contracts/shareable/Streaming.sol\":2265:2276  _sessionIds */\n      0x02\n        /* \"contracts/shareable/Streaming.sol\":2265:2285  _sessionIds.contains */\n      tag_100\n      swap1\n        /* \"contracts/shareable/Streaming.sol\":2265:2296  _sessionIds.contains(sessionId) */\n      swap2\n      swap1\n      0xffffffff\n      and\n      jump\t// in\n    tag_99:\n        /* \"contracts/shareable/Streaming.sol\":2264:2296  !_sessionIds.contains(sessionId) */\n      iszero\n        /* \"contracts/shareable/Streaming.sol\":2256:2341  require(!_sessionIds.contains(sessionId), \"Streaming: Stream session already exists\") */\n      tag_101\n      jumpi\n      mload(0x40)\n      0x08c379a000000000000000000000000000000000000000000000000000000000\n      dup2\n      mstore\n      0x04\n      add\n      tag_102\n      swap1\n      tag_103\n      jump\t// in\n    tag_102:\n      mload(0x40)\n      dup1\n      swap2\n      sub\n      swap1\n      revert\n    tag_101:\n        /* \"contracts/shareable/Streaming.sol\":2375:2590  StreamSession({... */\n      mload(0x40)\n      dup1\n      0xc0\n      add\n      0x40\n      mstore\n      dup1\n        /* \"contracts/shareable/Streaming.sol\":2415:2425  streamName */\n      dup9\n      dup9\n        /* \"contracts/shareable/Streaming.sol\":2375:2590  StreamSession({... */\n      dup1\n      dup1\n      0x1f\n      add\n      0x20\n      dup1\n      swap2\n      div\n      mul\n      0x20\n      add\n      mload(0x40)\n      swap1\n      dup2\n      add\n      0x40\n      mstore\n      dup1\n      swap4\n      swap3\n      swap2\n      swap1\n      dup2\n      dup2\n      mstore\n      0x20\n      add\n      dup4\n      dup4\n      dup1\n      dup3\n      dup5\n      calldatacopy\n      0x00\n      dup2\n      dup5\n      add\n      mstore\n      not(0x1f)\n      0x1f\n      dup3\n      add\n      and\n      swap1\n      pop\n      dup1\n      dup4\n      add\n      swap3\n      pop\n      pop\n      pop\n      pop\n      pop\n      pop\n      pop\n      dup2\n      mstore\n      0x20\n      add\n        /* \"contracts/shareable/Streaming.sol\":2450:2459  streamUrl */\n      dup7\n      dup7\n        /* \"contracts/shareable/Streaming.sol\":2375:2590  StreamSession({... */\n      dup1\n      dup1\n      0x1f\n      add\n      0x20\n      dup1\n      swap2\n      div\n      mul\n      0x20\n      add\n      mload(0x40)\n      swap1\n      dup2\n      add\n      0x40\n      mstore\n      dup1\n      swap4\n      swap3\n      swap2\n      swap1\n      dup2\n      dup2\n      mstore\n      0x20\n      add\n      dup4\n      dup4\n      dup1\n      dup3\n      dup5\n      calldatacopy\n      0x00\n      dup2\n      dup5\n      add\n      mstore\n      not(0x1f)\n      0x1f\n      dup3\n      add\n      and\n      swap1\n      pop\n      dup1\n      dup4\n      add\n      swap3\n      pop\n      pop\n      pop\n      pop\n      pop\n      pop\n      pop\n      dup2\n      mstore\n      0x20\n      add\n        /* \"contracts/shareable/Streaming.sol\":2483:2493  msg.sender */\n      caller\n        /* \"contracts/shareable/Streaming.sol\":2375:2590  StreamSession({... */\n      0xffffffffffffffffffffffffffffffffffffffff\n      and\n      dup2\n      mstore\n      0x20\n      add\n        /* \"contracts/shareable/Streaming.sol\":2518:2527  startTime */\n      dup5\n        /* \"contracts/shareable/Streaming.sol\":2375:2590  StreamSession({... */\n      dup2\n      mstore\n      0x20\n      add\n        /* \"contracts/shareable/Streaming.sol\":2550:2551  0 */\n      0x00\n        /* \"contracts/shareable/Streaming.sol\":2375:2590  StreamSession({... */\n      dup2\n      mstore\n      0x20\n      add\n        /* \"contracts/shareable/Streaming.sol\":2575:2579  true */\n      0x01\n        /* \"contracts/shareable/Streaming.sol\":2375:2590  StreamSession({... */\n      iszero\n      iszero\n      dup2\n      mstore\n      pop\n        /* \"contracts/shareable/Streaming.sol\":2352:2361  _sessions */\n      0x01\n        /* \"contracts/shareable/Streaming.sol\":2352:2372  _sessions[sessionId] */\n      0x00\n        /* \"contracts/shareable/Streaming.sol\":2362:2371  sessionId */\n      dup4\n        /* \"contracts/shareable/Streaming.sol\":2352:2372  _sessions[sessionId] */\n      dup2\n      mstore\n      0x20\n      add\n      swap1\n      dup2\n      mstore\n      0x20\n      add\n      0x00\n      keccak256\n        /* \"contracts/shareable/Streaming.sol\":2352:2590  _sessions[sessionId] = StreamSession({... */\n      0x00\n      dup3\n      add\n      mload\n      dup2\n      0x00\n      add\n      swap1\n      dup2\n      tag_104\n      swap2\n      swap1\n      tag_105\n      jump\t// in\n    tag_104:\n      pop\n      0x20\n      dup3\n      add\n      mload\n      dup2\n      0x01\n      add\n      swap1\n      dup2\n      tag_106\n      swap2\n      swap1\n      tag_105\n      jump\t// in\n    tag_106:\n      pop\n      0x40\n      dup3\n      add\n      mload\n      dup2\n      0x02\n      add\n      exp(0x0100, 0x00)\n      dup2\n      sload\n      dup2\n      0xffffffffffffffffffffffffffffffffffffffff\n      mul\n      not\n      and\n      swap1\n      dup4\n      0xffffffffffffffffffffffffffffffffffffffff\n      and\n      mul\n      or\n      swap1\n      sstore\n      pop\n      0x60\n      dup3\n      add\n      mload\n      dup2\n      0x03\n      add\n      sstore\n      0x80\n      dup3\n      add\n      mload\n      dup2\n      0x04\n      add\n      sstore\n      0xa0\n      dup3\n      add\n      mload\n      dup2\n      0x05\n      add\n      exp(0x0100, 0x00)\n      dup2\n      sload\n      dup2\n      0xff\n      mul\n      not\n      and\n      swap1\n      dup4\n      iszero\n      iszero\n      mul\n      or\n      swap1\n      sstore\n      pop\n      swap1\n      pop\n      pop\n        /* \"contracts/shareable/Streaming.sol\":2601:2627  _sessionIds.add(sessionId) */\n      tag_107\n        /* \"contracts/shareable/Streaming.sol\":2617:2626  sessionId */\n      dup2\n        /* \"contracts/shareable/Streaming.sol\":2601:2612  _sessionIds */\n      0x02\n        /* \"contracts/shareable/Streaming.sol\":2601:2616  _sessionIds.add */\n      tag_108\n      swap1\n        /* \"contracts/shareable/Streaming.sol\":2601:2627  _sessionIds.add(sessionId) */\n      swap2\n      swap1\n      0xffffffff\n      and\n      jump\t// in\n    tag_107:\n      pop\n        /* \"contracts/shareable/Streaming.sol\":2691:2701  msg.sender */\n      caller\n        /* \"contracts/shareable/Streaming.sol\":2643:2713  StreamCreated(sessionId, streamName, streamUrl, msg.sender, startTime) */\n      0xffffffffffffffffffffffffffffffffffffffff\n      and\n        /* \"contracts/shareable/Streaming.sol\":2657:2666  sessionId */\n      dup2\n        /* \"contracts/shareable/Streaming.sol\":2643:2713  StreamCreated(sessionId, streamName, streamUrl, msg.sender, startTime) */\n      0x1e732c1536d9533c8c8e726da4bec0a680fd0f3f17e262beb1bb2aa1fcd26202\n        /* \"contracts/shareable/Streaming.sol\":2668:2678  streamName */\n      dup10\n      dup10\n        /* \"contracts/shareable/Streaming.sol\":2680:2689  streamUrl */\n      dup10\n      dup10\n        /* \"contracts/shareable/Streaming.sol\":2703:2712  startTime */\n      dup10\n        /* \"contracts/shareable/Streaming.sol\":2643:2713  StreamCreated(sessionId, streamName, streamUrl, msg.sender, startTime) */\n      mload(0x40)\n      tag_109\n      swap6\n      swap5\n      swap4\n      swap3\n      swap2\n      swap1\n      tag_110\n      jump\t// in\n    tag_109:\n      mload(0x40)\n      dup1\n      swap2\n      sub\n      swap1\n      log3\n        /* \"contracts/shareable/Streaming.sol\":2049:2720  {... */\n      pop\n        /* \"contracts/shareable/Streaming.sol\":1920:2720  function createStream(string calldata streamName, string calldata streamUrl, uint256 startTime) external onlyRole(STREAMER_ROLE) {... */\n      pop\n      pop\n      pop\n      pop\n      pop\n      pop\n      jump\t// out\n        /* \"@openzeppelin/contracts/access/AccessControl.sol\":3810:3930  function getRoleAdmin(bytes32 role) public view virtual returns (bytes32) {... */\n    tag_35:\n        /* \"@openzeppelin/contracts/access/AccessControl.sol\":3875:3882  bytes32 */\n      0x00\n        /* \"@openzeppelin/contracts/access/AccessControl.sol\":3901:3907  _roles */\n      dup1\n        /* \"@openzeppelin/contracts/access/AccessControl.sol\":3901:3913  _roles[role] */\n      0x00\n        /* \"@openzeppelin/contracts/access/AccessControl.sol\":3908:3912  role */\n      dup4\n        /* \"@openzeppelin/contracts/access/AccessControl.sol\":3901:3913  _roles[role] */\n      dup2\n      mstore\n      0x20\n      add\n      swap1\n      dup2\n      mstore\n      0x20\n      add\n      0x00\n      keccak256\n        /* \"@openzeppelin/contracts/access/AccessControl.sol\":3901:3923  _roles[role].adminRole */\n      0x01\n      add\n      sload\n        /* \"@openzeppelin/contracts/access/AccessControl.sol\":3894:3923  return _roles[role].adminRole */\n      swap1\n      pop\n        /* \"@openzeppelin/contracts/access/AccessControl.sol\":3810:3930  function getRoleAdmin(bytes32 role) public view virtual returns (bytes32) {... */\n      swap2\n      swap1\n      pop\n      jump\t// out\n        /* \"@openzeppelin/contracts/access/AccessControl.sol\":4226:4362  function grantRole(bytes32 role, address account) public virtual onlyRole(getRoleAdmin(role)) {... */\n    tag_41:\n        /* \"@openzeppelin/contracts/access/AccessControl.sol\":4300:4318  getRoleAdmin(role) */\n      tag_112\n        /* \"@openzeppelin/contracts/access/AccessControl.sol\":4313:4317  role */\n      dup3\n        /* \"@openzeppelin/contracts/access/AccessControl.sol\":4300:4312  getRoleAdmin */\n      tag_35\n        /* \"@openzeppelin/contracts/access/AccessControl.sol\":4300:4318  getRoleAdmin(role) */\n      jump\t// in\n    tag_112:\n        /* \"@openzeppelin/contracts/access/AccessControl.sol\":2464:2480  _checkRole(role) */\n      tag_114\n        /* \"@openzeppelin/contracts/access/AccessControl.sol\":2475:2479  role */\n      dup2\n        /* \"@openzeppelin/contracts/access/AccessControl.sol\":2464:2474  _checkRole */\n      tag_92\n        /* \"@openzeppelin/contracts/access/AccessControl.sol\":2464:2480  _checkRole(role) */\n      jump\t// in\n    tag_114:\n        /* \"@openzeppelin/contracts/access/AccessControl.sol\":4330:4355  _grantRole(role, account) */\n      tag_116\n        /* \"@openzeppelin/contracts/access/AccessControl.sol\":4341:4345  role */\n      dup4\n        /* \"@openzeppelin/contracts/access/AccessControl.sol\":4347:4354  account */\n      dup4\n        /* \"@openzeppelin/contracts/access/AccessControl.sol\":4330:4340  _grantRole */\n      tag_117\n        /* \"@openzeppelin/contracts/access/AccessControl.sol\":4330:4355  _grantRole(role, account) */\n      jump\t// in\n    tag_116:\n      pop\n        /* \"@openzeppelin/contracts/access/AccessControl.sol\":4226:4362  function grantRole(bytes32 role, address account) public virtual onlyRole(getRoleAdmin(role)) {... */\n      pop\n      pop\n      pop\n      jump\t// out\n        /* \"contracts/shareable/Streaming.sol\":4783:5004  function getStreamInfo(bytes32 sessionId) external view returns (StreamSession memory) {... */\n    tag_44:\n        /* \"contracts/shareable/Streaming.sol\":4848:4868  StreamSession memory */\n      tag_118\n      tag_119\n      jump\t// in\n    tag_118:\n        /* \"contracts/shareable/Streaming.sol\":4888:4919  _sessionIds.contains(sessionId) */\n      tag_121\n        /* \"contracts/shareable/Streaming.sol\":4909:4918  sessionId */\n      dup3\n        /* \"contracts/shareable/Streaming.sol\":4888:4899  _sessionIds */\n      0x02\n        /* \"contracts/shareable/Streaming.sol\":4888:4908  _sessionIds.contains */\n      tag_100\n      swap1\n        /* \"contracts/shareable/Streaming.sol\":4888:4919  _sessionIds.contains(sessionId) */\n      swap2\n      swap1\n      0xffffffff\n      and\n      jump\t// in\n    tag_121:\n        /* \"contracts/shareable/Streaming.sol\":4880:4959  require(_sessionIds.contains(sessionId), \"Streaming: Stream session not found\") */\n      tag_122\n      jumpi\n      mload(0x40)\n      0x08c379a000000000000000000000000000000000000000000000000000000000\n      dup2\n      mstore\n      0x04\n      add\n      tag_123\n      swap1\n      tag_124\n      jump\t// in\n    tag_123:\n      mload(0x40)\n      dup1\n      swap2\n      sub\n      swap1\n      revert\n    tag_122:\n        /* \"contracts/shareable/Streaming.sol\":4977:4986  _sessions */\n      0x01\n        /* \"contracts/shareable/Streaming.sol\":4977:4997  _sessions[sessionId] */\n      0x00\n        /* \"contracts/shareable/Streaming.sol\":4987:4996  sessionId */\n      dup4\n        /* \"contracts/shareable/Streaming.sol\":4977:4997  _sessions[sessionId] */\n      dup2\n      mstore\n      0x20\n      add\n      swap1\n      dup2\n      mstore\n      0x20\n      add\n      0x00\n      keccak256\n        /* \"contracts/shareable/Streaming.sol\":4970:4997  return _sessions[sessionId] */\n      mload(0x40)\n      dup1\n      0xc0\n      add\n      0x40\n      mstore\n      swap1\n      dup2\n      0x00\n      dup3\n      add\n      dup1\n      sload\n      tag_125\n      swap1\n      tag_126\n      jump\t// in\n    tag_125:\n      dup1\n      0x1f\n      add\n      0x20\n      dup1\n      swap2\n      div\n      mul\n      0x20\n      add\n      mload(0x40)\n      swap1\n      dup2\n      add\n      0x40\n      mstore\n      dup1\n      swap3\n      swap2\n      swap1\n      dup2\n      dup2\n      mstore\n      0x20\n      add\n      dup3\n      dup1\n      sload\n      tag_127\n      swap1\n      tag_126\n      jump\t// in\n    tag_127:\n      dup1\n      iszero\n      tag_128\n      jumpi\n      dup1\n      0x1f\n      lt\n      tag_129\n      jumpi\n      0x0100\n      dup1\n      dup4\n      sload\n      div\n      mul\n      dup4\n      mstore\n      swap2\n      0x20\n      add\n      swap2\n      jump(tag_128)\n    tag_129:\n      dup3\n      add\n      swap2\n      swap1\n      0x00\n      mstore\n      keccak256(0x00, 0x20)\n      swap1\n    tag_130:\n      dup2\n      sload\n      dup2\n      mstore\n      swap1\n      0x01\n      add\n      swap1\n      0x20\n      add\n      dup1\n      dup4\n      gt\n      tag_130\n      jumpi\n      dup3\n      swap1\n      sub\n      0x1f\n      and\n      dup3\n      add\n      swap2\n    tag_128:\n      pop\n      pop\n      pop\n      pop\n      pop\n      dup2\n      mstore\n      0x20\n      add\n      0x01\n      dup3\n      add\n      dup1\n      sload\n      tag_131\n      swap1\n      tag_126\n      jump\t// in\n    tag_131:\n      dup1\n      0x1f\n      add\n      0x20\n      dup1\n      swap2\n      div\n      mul\n      0x20\n      add\n      mload(0x40)\n      swap1\n      dup2\n      add\n      0x40\n      mstore\n      dup1\n      swap3\n      swap2\n      swap1\n      dup2\n      dup2\n      mstore\n      0x20\n      add\n      dup3\n      dup1\n      sload\n      tag_132\n      swap1\n      tag_126\n      jump\t// in\n    tag_132:\n      dup1\n      iszero\n      tag_133\n      jumpi\n      dup1\n      0x1f\n      lt\n      tag_134\n      jumpi\n      0x0100\n      dup1\n      dup4\n      sload\n      div\n      mul\n      dup4\n      mstore\n      swap2\n      0x20\n      add\n      swap2\n      jump(tag_133)\n    tag_134:\n      dup3\n      add\n      swap2\n      swap1\n      0x00\n      mstore\n      keccak256(0x00, 0x20)\n      swap1\n    tag_135:\n      dup2\n      sload\n      dup2\n      mstore\n      swap1\n      0x01\n      add\n      swap1\n      0x20\n      add\n      dup1\n      dup4\n      gt\n      tag_135\n      jumpi\n      dup3\n      swap1\n      sub\n      0x1f\n      and\n      dup3\n      add\n      swap2\n    tag_133:\n      pop\n      pop\n      pop\n      pop\n      pop\n      dup2\n      mstore\n      0x20\n      add\n      0x02\n      dup3\n      add\n      0x00\n      swap1\n      sload\n      swap1\n      0x0100\n      exp\n      swap1\n      div\n      0xffffffffffffffffffffffffffffffffffffffff\n      and\n      0xffffffffffffffffffffffffffffffffffffffff\n      and\n      0xffffffffffffffffffffffffffffffffffffffff\n      and\n      dup2\n      mstore\n      0x20\n      add\n      0x03\n      dup3\n      add\n      sload\n      dup2\n      mstore\n      0x20\n      add\n      0x04\n      dup3\n      add\n      sload\n      dup2\n      mstore\n      0x20\n      add\n      0x05\n      dup3\n      add\n      0x00\n      swap1\n      sload\n      swap1\n      0x0100\n      exp\n      swap1\n      div\n      0xff\n      and\n      iszero\n      iszero\n      iszero\n      iszero\n      dup2\n      mstore\n      pop\n      pop\n      swap1\n      pop\n        /* \"contracts/shareable/Streaming.sol\":4783:5004  function getStreamInfo(bytes32 sessionId) external view returns (StreamSession memory) {... */\n      swap2\n      swap1\n      pop\n      jump\t// out\n        /* \"@openzeppelin/contracts/access/AccessControl.sol\":5328:5573  function renounceRole(bytes32 role, address callerConfirmation) public virtual {... */\n    tag_49:\n        /* \"@openzeppelin/contracts/access/AccessControl.sol\":5443:5455  _msgSender() */\n      tag_137\n        /* \"@openzeppelin/contracts/access/AccessControl.sol\":5443:5453  _msgSender */\n      tag_138\n        /* \"@openzeppelin/contracts/access/AccessControl.sol\":5443:5455  _msgSender() */\n      jump\t// in\n    tag_137:\n        /* \"@openzeppelin/contracts/access/AccessControl.sol\":5421:5455  callerConfirmation != _msgSender() */\n      0xffffffffffffffffffffffffffffffffffffffff\n      and\n        /* \"@openzeppelin/contracts/access/AccessControl.sol\":5421:5439  callerConfirmation */\n      dup2\n        /* \"@openzeppelin/contracts/access/AccessControl.sol\":5421:5455  callerConfirmation != _msgSender() */\n      0xffffffffffffffffffffffffffffffffffffffff\n      and\n      eq\n        /* \"@openzeppelin/contracts/access/AccessControl.sol\":5417:5519  if (callerConfirmation != _msgSender()) {... */\n      tag_139\n      jumpi\n        /* \"@openzeppelin/contracts/access/AccessControl.sol\":5478:5508  AccessControlBadConfirmation() */\n      mload(0x40)\n      0x6697b23200000000000000000000000000000000000000000000000000000000\n      dup2\n      mstore\n      0x04\n      add\n      mload(0x40)\n      dup1\n      swap2\n      sub\n      swap1\n      revert\n        /* \"@openzeppelin/contracts/access/AccessControl.sol\":5417:5519  if (callerConfirmation != _msgSender()) {... */\n    tag_139:\n        /* \"@openzeppelin/contracts/access/AccessControl.sol\":5529:5566  _revokeRole(role, callerConfirmation) */\n      tag_140\n        /* \"@openzeppelin/contracts/access/AccessControl.sol\":5541:5545  role */\n      dup3\n        /* \"@openzeppelin/contracts/access/AccessControl.sol\":5547:5565  callerConfirmation */\n      dup3\n        /* \"@openzeppelin/contracts/access/AccessControl.sol\":5529:5540  _revokeRole */\n      tag_141\n        /* \"@openzeppelin/contracts/access/AccessControl.sol\":5529:5566  _revokeRole(role, callerConfirmation) */\n      jump\t// in\n    tag_140:\n      pop\n        /* \"@openzeppelin/contracts/access/AccessControl.sol\":5328:5573  function renounceRole(bytes32 role, address callerConfirmation) public virtual {... */\n      pop\n      pop\n      jump\t// out\n        /* \"contracts/shareable/Streaming.sol\":5183:5308  function streamExists(bytes32 sessionId) external view returns (bool) {... */\n    tag_52:\n        /* \"contracts/shareable/Streaming.sol\":5247:5251  bool */\n      0x00\n        /* \"contracts/shareable/Streaming.sol\":5270:5301  _sessionIds.contains(sessionId) */\n      tag_143\n        /* \"contracts/shareable/Streaming.sol\":5291:5300  sessionId */\n      dup3\n        /* \"contracts/shareable/Streaming.sol\":5270:5281  _sessionIds */\n      0x02\n        /* \"contracts/shareable/Streaming.sol\":5270:5290  _sessionIds.contains */\n      tag_100\n      swap1\n        /* \"contracts/shareable/Streaming.sol\":5270:5301  _sessionIds.contains(sessionId) */\n      swap2\n      swap1\n      0xffffffff\n      and\n      jump\t// in\n    tag_143:\n        /* \"contracts/shareable/Streaming.sol\":5263:5301  return _sessionIds.contains(sessionId) */\n      swap1\n      pop\n        /* \"contracts/shareable/Streaming.sol\":5183:5308  function streamExists(bytes32 sessionId) external view returns (bool) {... */\n      swap2\n      swap1\n      pop\n      jump\t// out\n        /* \"contracts/shareable/Streaming.sol\":483:543  bytes32 public constant ADMIN_ROLE = keccak256(\"ADMIN_ROLE\") */\n    tag_55:\n        /* \"contracts/shareable/Streaming.sol\":520:543  keccak256(\"ADMIN_ROLE\") */\n      0xa49807205ce4d355092ef5a8a18f56e8913cf4a201fbe287825b095693c21775\n        /* \"contracts/shareable/Streaming.sol\":483:543  bytes32 public constant ADMIN_ROLE = keccak256(\"ADMIN_ROLE\") */\n      dup2\n      jump\t// out\n        /* \"contracts/shareable/Streaming.sol\":5724:5836  function streamIdAt(uint256 index) external view returns (bytes32) {... */\n    tag_60:\n        /* \"contracts/shareable/Streaming.sol\":5782:5789  bytes32 */\n      0x00\n        /* \"contracts/shareable/Streaming.sol\":5808:5829  _sessionIds.at(index) */\n      tag_145\n        /* \"contracts/shareable/Streaming.sol\":5823:5828  index */\n      dup3\n        /* \"contracts/shareable/Streaming.sol\":5808:5819  _sessionIds */\n      0x02\n        /* \"contracts/shareable/Streaming.sol\":5808:5822  _sessionIds.at */\n      tag_146\n      swap1\n        /* \"contracts/shareable/Streaming.sol\":5808:5829  _sessionIds.at(index) */\n      swap2\n      swap1\n      0xffffffff\n      and\n      jump\t// in\n    tag_145:\n        /* \"contracts/shareable/Streaming.sol\":5801:5829  return _sessionIds.at(index) */\n      swap1\n      pop\n        /* \"contracts/shareable/Streaming.sol\":5724:5836  function streamIdAt(uint256 index) external view returns (bytes32) {... */\n      swap2\n      swap1\n      pop\n      jump\t// out\n        /* \"@openzeppelin/contracts/access/AccessControl.sol\":2854:2990  function hasRole(bytes32 role, address account) public view virtual returns (bool) {... */\n    tag_64:\n        /* \"@openzeppelin/contracts/access/AccessControl.sol\":2931:2935  bool */\n      0x00\n        /* \"@openzeppelin/contracts/access/AccessControl.sol\":2954:2960  _roles */\n      dup1\n        /* \"@openzeppelin/contracts/access/AccessControl.sol\":2954:2966  _roles[role] */\n      0x00\n        /* \"@openzeppelin/contracts/access/AccessControl.sol\":2961:2965  role */\n      dup5\n        /* \"@openzeppelin/contracts/access/AccessControl.sol\":2954:2966  _roles[role] */\n      dup2\n      mstore\n      0x20\n      add\n      swap1\n      dup2\n      mstore\n      0x20\n      add\n      0x00\n      keccak256\n        /* \"@openzeppelin/contracts/access/AccessControl.sol\":2954:2974  _roles[role].hasRole */\n      0x00\n      add\n        /* \"@openzeppelin/contracts/access/AccessControl.sol\":2954:2983  _roles[role].hasRole[account] */\n      0x00\n        /* \"@openzeppelin/contracts/access/AccessControl.sol\":2975:2982  account */\n      dup4\n        /* \"@openzeppelin/contracts/access/AccessControl.sol\":2954:2983  _roles[role].hasRole[account] */\n      0xffffffffffffffffffffffffffffffffffffffff\n      and\n      0xffffffffffffffffffffffffffffffffffffffff\n      and\n      dup2\n      mstore\n      0x20\n      add\n      swap1\n      dup2\n      mstore\n      0x20\n      add\n      0x00\n      keccak256\n      0x00\n      swap1\n      sload\n      swap1\n      0x0100\n      exp\n      swap1\n      div\n      0xff\n      and\n        /* \"@openzeppelin/contracts/access/AccessControl.sol\":2947:2983  return _roles[role].hasRole[account] */\n      swap1\n      pop\n        /* \"@openzeppelin/contracts/access/AccessControl.sol\":2854:2990  function hasRole(bytes32 role, address account) public view virtual returns (bool) {... */\n      swap3\n      swap2\n      pop\n      pop\n      jump\t// out\n        /* \"@openzeppelin/contracts/access/AccessControl.sol\":2187:2236  bytes32 public constant DEFAULT_ADMIN_ROLE = 0x00 */\n    tag_67:\n        /* \"@openzeppelin/contracts/access/AccessControl.sol\":2232:2236  0x00 */\n      0x00\n        /* \"@openzeppelin/contracts/access/AccessControl.sol\":2187:2236  bytes32 public constant DEFAULT_ADMIN_ROLE = 0x00 */\n      dup1\n      shl\n      dup2\n      jump\t// out\n        /* \"contracts/shareable/Streaming.sol\":549:615  bytes32 public constant STREAMER_ROLE = keccak256(\"STREAMER_ROLE\") */\n    tag_70:\n        /* \"contracts/shareable/Streaming.sol\":589:615  keccak256(\"STREAMER_ROLE\") */\n      0x41d12fe3b2ffe2aea01a3e08ec191d0142900efe396c6cd50b857af5b6f1bdae\n        /* \"contracts/shareable/Streaming.sol\":549:615  bytes32 public constant STREAMER_ROLE = keccak256(\"STREAMER_ROLE\") */\n      dup2\n      jump\t// out\n        /* \"@openzeppelin/contracts/access/AccessControl.sol\":4642:4780  function revokeRole(bytes32 role, address account) public virtual onlyRole(getRoleAdmin(role)) {... */\n    tag_74:\n        /* \"@openzeppelin/contracts/access/AccessControl.sol\":4717:4735  getRoleAdmin(role) */\n      tag_148\n        /* \"@openzeppelin/contracts/access/AccessControl.sol\":4730:4734  role */\n      dup3\n        /* \"@openzeppelin/contracts/access/AccessControl.sol\":4717:4729  getRoleAdmin */\n      tag_35\n        /* \"@openzeppelin/contracts/access/AccessControl.sol\":4717:4735  getRoleAdmin(role) */\n      jump\t// in\n    tag_148:\n        /* \"@openzeppelin/contracts/access/AccessControl.sol\":2464:2480  _checkRole(role) */\n      tag_150\n        /* \"@openzeppelin/contracts/access/AccessControl.sol\":2475:2479  role */\n      dup2\n        /* \"@openzeppelin/contracts/access/AccessControl.sol\":2464:2474  _checkRole */\n      tag_92\n        /* \"@openzeppelin/contracts/access/AccessControl.sol\":2464:2480  _checkRole(role) */\n      jump\t// in\n    tag_150:\n        /* \"@openzeppelin/contracts/access/AccessControl.sol\":4747:4773  _revokeRole(role, account) */\n      tag_152\n        /* \"@openzeppelin/contracts/access/AccessControl.sol\":4759:4763  role */\n      dup4\n        /* \"@openzeppelin/contracts/access/AccessControl.sol\":4765:4772  account */\n      dup4\n        /* \"@openzeppelin/contracts/access/AccessControl.sol\":4747:4758  _revokeRole */\n      tag_141\n        /* \"@openzeppelin/contracts/access/AccessControl.sol\":4747:4773  _revokeRole(role, account) */\n      jump\t// in\n    tag_152:\n      pop\n        /* \"@openzeppelin/contracts/access/AccessControl.sol\":4642:4780  function revokeRole(bytes32 role, address account) public virtual onlyRole(getRoleAdmin(role)) {... */\n      pop\n      pop\n      pop\n      jump\t// out\n        /* \"contracts/shareable/Streaming.sol\":3130:3845  function updateStream(bytes32 sessionId, string calldata streamName, string calldata streamUrl, uint256 endTime, bool isActive) external onlyRole(STREAMER_ROLE) {... */\n    tag_78:\n        /* \"contracts/shareable/Streaming.sol\":589:615  keccak256(\"STREAMER_ROLE\") */\n      0x41d12fe3b2ffe2aea01a3e08ec191d0142900efe396c6cd50b857af5b6f1bdae\n        /* \"@openzeppelin/contracts/access/AccessControl.sol\":2464:2480  _checkRole(role) */\n      tag_154\n        /* \"@openzeppelin/contracts/access/AccessControl.sol\":2475:2479  role */\n      dup2\n        /* \"@openzeppelin/contracts/access/AccessControl.sol\":2464:2474  _checkRole */\n      tag_92\n        /* \"@openzeppelin/contracts/access/AccessControl.sol\":2464:2480  _checkRole(role) */\n      jump\t// in\n    tag_154:\n        /* \"contracts/shareable/Streaming.sol\":3309:3340  _sessionIds.contains(sessionId) */\n      tag_156\n        /* \"contracts/shareable/Streaming.sol\":3330:3339  sessionId */\n      dup9\n        /* \"contracts/shareable/Streaming.sol\":3309:3320  _sessionIds */\n      0x02\n        /* \"contracts/shareable/Streaming.sol\":3309:3329  _sessionIds.contains */\n      tag_100\n      swap1\n        /* \"contracts/shareable/Streaming.sol\":3309:3340  _sessionIds.contains(sessionId) */\n      swap2\n      swap1\n      0xffffffff\n      and\n      jump\t// in\n    tag_156:\n        /* \"contracts/shareable/Streaming.sol\":3301:3380  require(_sessionIds.contains(sessionId), \"Streaming: Stream session not found\") */\n      tag_157\n      jumpi\n      mload(0x40)\n      0x08c379a000000000000000000000000000000000000000000000000000000000\n      dup2\n      mstore\n      0x04\n      add\n      tag_158\n      swap1\n      tag_124\n      jump\t// in\n    tag_158:\n      mload(0x40)\n      dup1\n      swap2\n      sub\n      swap1\n      revert\n    tag_157:\n        /* \"contracts/shareable/Streaming.sol\":3431:3441  msg.sender */\n      caller\n        /* \"contracts/shareable/Streaming.sol\":3398:3441  _sessions[sessionId].streamer == msg.sender */\n      0xffffffffffffffffffffffffffffffffffffffff\n      and\n        /* \"contracts/shareable/Streaming.sol\":3398:3407  _sessions */\n      0x01\n        /* \"contracts/shareable/Streaming.sol\":3398:3418  _sessions[sessionId] */\n      0x00\n        /* \"contracts/shareable/Streaming.sol\":3408:3417  sessionId */\n      dup11\n        /* \"contracts/shareable/Streaming.sol\":3398:3418  _sessions[sessionId] */\n      dup2\n      mstore\n      0x20\n      add\n      swap1\n      dup2\n      mstore\n      0x20\n      add\n      0x00\n      keccak256\n        /* \"contracts/shareable/Streaming.sol\":3398:3427  _sessions[sessionId].streamer */\n      0x02\n      add\n      0x00\n      swap1\n      sload\n      swap1\n      0x0100\n      exp\n      swap1\n      div\n      0xffffffffffffffffffffffffffffffffffffffff\n      and\n        /* \"contracts/shareable/Streaming.sol\":3398:3441  _sessions[sessionId].streamer == msg.sender */\n      0xffffffffffffffffffffffffffffffffffffffff\n      and\n      eq\n        /* \"contracts/shareable/Streaming.sol\":3398:3476  _sessions[sessionId].streamer == msg.sender || hasRole(ADMIN_ROLE, msg.sender) */\n      dup1\n      tag_159\n      jumpi\n      pop\n        /* \"contracts/shareable/Streaming.sol\":3445:3476  hasRole(ADMIN_ROLE, msg.sender) */\n      tag_160\n        /* \"contracts/shareable/Streaming.sol\":520:543  keccak256(\"ADMIN_ROLE\") */\n      0xa49807205ce4d355092ef5a8a18f56e8913cf4a201fbe287825b095693c21775\n        /* \"contracts/shareable/Streaming.sol\":3465:3475  msg.sender */\n      caller\n        /* \"contracts/shareable/Streaming.sol\":3445:3452  hasRole */\n      tag_64\n        /* \"contracts/shareable/Streaming.sol\":3445:3476  hasRole(ADMIN_ROLE, msg.sender) */\n      jump\t// in\n    tag_160:\n        /* \"contracts/shareable/Streaming.sol\":3398:3476  _sessions[sessionId].streamer == msg.sender || hasRole(ADMIN_ROLE, msg.sender) */\n    tag_159:\n        /* \"contracts/shareable/Streaming.sol\":3390:3541  require(_sessions[sessionId].streamer == msg.sender || hasRole(ADMIN_ROLE, msg.sender), \"Streaming: Only the streamer or admin can update the session\") */\n      tag_161\n      jumpi\n      mload(0x40)\n      0x08c379a000000000000000000000000000000000000000000000000000000000\n      dup2\n      mstore\n      0x04\n      add\n      tag_162\n      swap1\n      tag_163\n      jump\t// in\n    tag_162:\n      mload(0x40)\n      dup1\n      swap2\n      sub\n      swap1\n      revert\n    tag_161:\n        /* \"contracts/shareable/Streaming.sol\":3552:3581  StreamSession storage session */\n      0x00\n        /* \"contracts/shareable/Streaming.sol\":3584:3593  _sessions */\n      0x01\n        /* \"contracts/shareable/Streaming.sol\":3584:3604  _sessions[sessionId] */\n      0x00\n        /* \"contracts/shareable/Streaming.sol\":3594:3603  sessionId */\n      dup11\n        /* \"contracts/shareable/Streaming.sol\":3584:3604  _sessions[sessionId] */\n      dup2\n      mstore\n      0x20\n      add\n      swap1\n      dup2\n      mstore\n      0x20\n      add\n      0x00\n      keccak256\n        /* \"contracts/shareable/Streaming.sol\":3552:3604  StreamSession storage session = _sessions[sessionId] */\n      swap1\n      pop\n        /* \"contracts/shareable/Streaming.sol\":3635:3645  streamName */\n      dup8\n      dup8\n        /* \"contracts/shareable/Streaming.sol\":3614:3621  session */\n      dup3\n        /* \"contracts/shareable/Streaming.sol\":3614:3632  session.streamName */\n      0x00\n      add\n        /* \"contracts/shareable/Streaming.sol\":3614:3645  session.streamName = streamName */\n      swap2\n      dup3\n      tag_164\n      swap3\n      swap2\n      swap1\n      tag_165\n      jump\t// in\n    tag_164:\n      pop\n        /* \"contracts/shareable/Streaming.sol\":3675:3684  streamUrl */\n      dup6\n      dup6\n        /* \"contracts/shareable/Streaming.sol\":3655:3662  session */\n      dup3\n        /* \"contracts/shareable/Streaming.sol\":3655:3672  session.streamUrl */\n      0x01\n      add\n        /* \"contracts/shareable/Streaming.sol\":3655:3684  session.streamUrl = streamUrl */\n      swap2\n      dup3\n      tag_166\n      swap3\n      swap2\n      swap1\n      tag_165\n      jump\t// in\n    tag_166:\n      pop\n        /* \"contracts/shareable/Streaming.sol\":3712:3719  endTime */\n      dup4\n        /* \"contracts/shareable/Streaming.sol\":3694:3701  session */\n      dup2\n        /* \"contracts/shareable/Streaming.sol\":3694:3709  session.endTime */\n      0x04\n      add\n        /* \"contracts/shareable/Streaming.sol\":3694:3719  session.endTime = endTime */\n      dup2\n      swap1\n      sstore\n      pop\n        /* \"contracts/shareable/Streaming.sol\":3748:3756  isActive */\n      dup3\n        /* \"contracts/shareable/Streaming.sol\":3729:3736  session */\n      dup2\n        /* \"contracts/shareable/Streaming.sol\":3729:3745  session.isActive */\n      0x05\n      add\n      0x00\n        /* \"contracts/shareable/Streaming.sol\":3729:3756  session.isActive = isActive */\n      0x0100\n      exp\n      dup2\n      sload\n      dup2\n      0xff\n      mul\n      not\n      and\n      swap1\n      dup4\n      iszero\n      iszero\n      mul\n      or\n      swap1\n      sstore\n      pop\n        /* \"contracts/shareable/Streaming.sol\":3786:3795  sessionId */\n      dup9\n        /* \"contracts/shareable/Streaming.sol\":3772:3838  StreamUpdated(sessionId, streamName, streamUrl, endTime, isActive) */\n      0x9d9ec16caf1f85b07d074ec3aaf2e3bebd495d1678169881bd7a0ade2674f59f\n        /* \"contracts/shareable/Streaming.sol\":3797:3807  streamName */\n      dup10\n      dup10\n        /* \"contracts/shareable/Streaming.sol\":3809:3818  streamUrl */\n      dup10\n      dup10\n        /* \"contracts/shareable/Streaming.sol\":3820:3827  endTime */\n      dup10\n        /* \"contracts/shareable/Streaming.sol\":3829:3837  isActive */\n      dup10\n        /* \"contracts/shareable/Streaming.sol\":3772:3838  StreamUpdated(sessionId, streamName, streamUrl, endTime, isActive) */\n      mload(0x40)\n      tag_167\n      swap7\n      swap6\n      swap5\n      swap4\n      swap3\n      swap2\n      swap1\n      tag_168\n      jump\t// in\n    tag_167:\n      mload(0x40)\n      dup1\n      swap2\n      sub\n      swap1\n      log2\n        /* \"contracts/shareable/Streaming.sol\":3291:3845  {... */\n      pop\n        /* \"contracts/shareable/Streaming.sol\":3130:3845  function updateStream(bytes32 sessionId, string calldata streamName, string calldata streamUrl, uint256 endTime, bool isActive) external onlyRole(STREAMER_ROLE) {... */\n      pop\n      pop\n      pop\n      pop\n      pop\n      pop\n      pop\n      pop\n      jump\t// out\n        /* \"contracts/shareable/Streaming.sol\":3989:4591  function endStream(bytes32 sessionId) external onlyRole(STREAMER_ROLE) {... */\n    tag_81:\n        /* \"contracts/shareable/Streaming.sol\":589:615  keccak256(\"STREAMER_ROLE\") */\n      0x41d12fe3b2ffe2aea01a3e08ec191d0142900efe396c6cd50b857af5b6f1bdae\n        /* \"@openzeppelin/contracts/access/AccessControl.sol\":2464:2480  _checkRole(role) */\n      tag_170\n        /* \"@openzeppelin/contracts/access/AccessControl.sol\":2475:2479  role */\n      dup2\n        /* \"@openzeppelin/contracts/access/AccessControl.sol\":2464:2474  _checkRole */\n      tag_92\n        /* \"@openzeppelin/contracts/access/AccessControl.sol\":2464:2480  _checkRole(role) */\n      jump\t// in\n    tag_170:\n        /* \"contracts/shareable/Streaming.sol\":4078:4109  _sessionIds.contains(sessionId) */\n      tag_172\n        /* \"contracts/shareable/Streaming.sol\":4099:4108  sessionId */\n      dup3\n        /* \"contracts/shareable/Streaming.sol\":4078:4089  _sessionIds */\n      0x02\n        /* \"contracts/shareable/Streaming.sol\":4078:4098  _sessionIds.contains */\n      tag_100\n      swap1\n        /* \"contracts/shareable/Streaming.sol\":4078:4109  _sessionIds.contains(sessionId) */\n      swap2\n      swap1\n      0xffffffff\n      and\n      jump\t// in\n    tag_172:\n        /* \"contracts/shareable/Streaming.sol\":4070:4149  require(_sessionIds.contains(sessionId), \"Streaming: Stream session not found\") */\n      tag_173\n      jumpi\n      mload(0x40)\n      0x08c379a000000000000000000000000000000000000000000000000000000000\n      dup2\n      mstore\n      0x04\n      add\n      tag_174\n      swap1\n      tag_124\n      jump\t// in\n    tag_174:\n      mload(0x40)\n      dup1\n      swap2\n      sub\n      swap1\n      revert\n    tag_173:\n        /* \"contracts/shareable/Streaming.sol\":4200:4210  msg.sender */\n      caller\n        /* \"contracts/shareable/Streaming.sol\":4167:4210  _sessions[sessionId].streamer == msg.sender */\n      0xffffffffffffffffffffffffffffffffffffffff\n      and\n        /* \"contracts/shareable/Streaming.sol\":4167:4176  _sessions */\n      0x01\n        /* \"contracts/shareable/Streaming.sol\":4167:4187  _sessions[sessionId] */\n      0x00\n        /* \"contracts/shareable/Streaming.sol\":4177:4186  sessionId */\n      dup5\n        /* \"contracts/shareable/Streaming.sol\":4167:4187  _sessions[sessionId] */\n      dup2\n      mstore\n      0x20\n      add\n      swap1\n      dup2\n      mstore\n      0x20\n      add\n      0x00\n      keccak256\n        /* \"contracts/shareable/Streaming.sol\":4167:4196  _sessions[sessionId].streamer */\n      0x02\n      add\n      0x00\n      swap1\n      sload\n      swap1\n      0x0100\n      exp\n      swap1\n      div\n      0xffffffffffffffffffffffffffffffffffffffff\n      and\n        /* \"contracts/shareable/Streaming.sol\":4167:4210  _sessions[sessionId].streamer == msg.sender */\n      0xffffffffffffffffffffffffffffffffffffffff\n      and\n      eq\n        /* \"contracts/shareable/Streaming.sol\":4167:4245  _sessions[sessionId].streamer == msg.sender || hasRole(ADMIN_ROLE, msg.sender) */\n      dup1\n      tag_175\n      jumpi\n      pop\n        /* \"contracts/shareable/Streaming.sol\":4214:4245  hasRole(ADMIN_ROLE, msg.sender) */\n      tag_176\n        /* \"contracts/shareable/Streaming.sol\":520:543  keccak256(\"ADMIN_ROLE\") */\n      0xa49807205ce4d355092ef5a8a18f56e8913cf4a201fbe287825b095693c21775\n        /* \"contracts/shareable/Streaming.sol\":4234:4244  msg.sender */\n      caller\n        /* \"contracts/shareable/Streaming.sol\":4214:4221  hasRole */\n      tag_64\n        /* \"contracts/shareable/Streaming.sol\":4214:4245  hasRole(ADMIN_ROLE, msg.sender) */\n      jump\t// in\n    tag_176:\n        /* \"contracts/shareable/Streaming.sol\":4167:4245  _sessions[sessionId].streamer == msg.sender || hasRole(ADMIN_ROLE, msg.sender) */\n    tag_175:\n        /* \"contracts/shareable/Streaming.sol\":4159:4307  require(_sessions[sessionId].streamer == msg.sender || hasRole(ADMIN_ROLE, msg.sender), \"Streaming: Only the streamer or admin can end the session\") */\n      tag_177\n      jumpi\n      mload(0x40)\n      0x08c379a000000000000000000000000000000000000000000000000000000000\n      dup2\n      mstore\n      0x04\n      add\n      tag_178\n      swap1\n      tag_179\n      jump\t// in\n    tag_178:\n      mload(0x40)\n      dup1\n      swap2\n      sub\n      swap1\n      revert\n    tag_177:\n        /* \"contracts/shareable/Streaming.sol\":4318:4347  StreamSession storage session */\n      0x00\n        /* \"contracts/shareable/Streaming.sol\":4350:4359  _sessions */\n      0x01\n        /* \"contracts/shareable/Streaming.sol\":4350:4370  _sessions[sessionId] */\n      0x00\n        /* \"contracts/shareable/Streaming.sol\":4360:4369  sessionId */\n      dup5\n        /* \"contracts/shareable/Streaming.sol\":4350:4370  _sessions[sessionId] */\n      dup2\n      mstore\n      0x20\n      add\n      swap1\n      dup2\n      mstore\n      0x20\n      add\n      0x00\n      keccak256\n        /* \"contracts/shareable/Streaming.sol\":4318:4370  StreamSession storage session = _sessions[sessionId] */\n      swap1\n      pop\n        /* \"contracts/shareable/Streaming.sol\":4388:4395  session */\n      dup1\n        /* \"contracts/shareable/Streaming.sol\":4388:4404  session.isActive */\n      0x05\n      add\n      0x00\n      swap1\n      sload\n      swap1\n      0x0100\n      exp\n      swap1\n      div\n      0xff\n      and\n        /* \"contracts/shareable/Streaming.sol\":4380:4451  require(session.isActive, \"Streaming: Stream session is already ended\") */\n      tag_180\n      jumpi\n      mload(0x40)\n      0x08c379a000000000000000000000000000000000000000000000000000000000\n      dup2\n      mstore\n      0x04\n      add\n      tag_181\n      swap1\n      tag_182\n      jump\t// in\n    tag_181:\n      mload(0x40)\n      dup1\n      swap2\n      sub\n      swap1\n      revert\n    tag_180:\n        /* \"contracts/shareable/Streaming.sol\":4481:4486  false */\n      0x00\n        /* \"contracts/shareable/Streaming.sol\":4462:4469  session */\n      dup2\n        /* \"contracts/shareable/Streaming.sol\":4462:4478  session.isActive */\n      0x05\n      add\n      0x00\n        /* \"contracts/shareable/Streaming.sol\":4462:4486  session.isActive = false */\n      0x0100\n      exp\n      dup2\n      sload\n      dup2\n      0xff\n      mul\n      not\n      and\n      swap1\n      dup4\n      iszero\n      iszero\n      mul\n      or\n      swap1\n      sstore\n      pop\n        /* \"contracts/shareable/Streaming.sol\":4514:4529  block.timestamp */\n      timestamp\n        /* \"contracts/shareable/Streaming.sol\":4496:4503  session */\n      dup2\n        /* \"contracts/shareable/Streaming.sol\":4496:4511  session.endTime */\n      0x04\n      add\n        /* \"contracts/shareable/Streaming.sol\":4496:4529  session.endTime = block.timestamp */\n      dup2\n      swap1\n      sstore\n      pop\n        /* \"contracts/shareable/Streaming.sol\":4557:4566  sessionId */\n      dup3\n        /* \"contracts/shareable/Streaming.sol\":4545:4584  StreamEnded(sessionId, block.timestamp) */\n      0xf24c67772db752f499cb9b8c61bebbae0a79a2712100322f07e1ef7395a19a13\n        /* \"contracts/shareable/Streaming.sol\":4568:4583  block.timestamp */\n      timestamp\n        /* \"contracts/shareable/Streaming.sol\":4545:4584  StreamEnded(sessionId, block.timestamp) */\n      mload(0x40)\n      tag_183\n      swap2\n      swap1\n      tag_85\n      jump\t// in\n    tag_183:\n      mload(0x40)\n      dup1\n      swap2\n      sub\n      swap1\n      log2\n        /* \"contracts/shareable/Streaming.sol\":4060:4591  {... */\n      pop\n        /* \"contracts/shareable/Streaming.sol\":3989:4591  function endStream(bytes32 sessionId) external onlyRole(STREAMER_ROLE) {... */\n      pop\n      pop\n      jump\t// out\n        /* \"contracts/shareable/Streaming.sol\":5439:5539  function totalStreams() external view returns (uint256) {... */\n    tag_83:\n        /* \"contracts/shareable/Streaming.sol\":5486:5493  uint256 */\n      0x00\n        /* \"contracts/shareable/Streaming.sol\":5512:5532  _sessionIds.length() */\n      tag_185\n        /* \"contracts/shareable/Streaming.sol\":5512:5523  _sessionIds */\n      0x02\n        /* \"contracts/shareable/Streaming.sol\":5512:5530  _sessionIds.length */\n      tag_186\n        /* \"contracts/shareable/Streaming.sol\":5512:5532  _sessionIds.length() */\n      jump\t// in\n    tag_185:\n        /* \"contracts/shareable/Streaming.sol\":5505:5532  return _sessionIds.length() */\n      swap1\n      pop\n        /* \"contracts/shareable/Streaming.sol\":5439:5539  function totalStreams() external view returns (uint256) {... */\n      swap1\n      jump\t// out\n        /* \"@openzeppelin/contracts/utils/introspection/ERC165.sol\":762:908  function supportsInterface(bytes4 interfaceId) public view virtual returns (bool) {... */\n    tag_89:\n        /* \"@openzeppelin/contracts/utils/introspection/ERC165.sol\":838:842  bool */\n      0x00\n        /* \"@openzeppelin/contracts/utils/introspection/ERC165.sol\":876:901  type(IERC165).interfaceId */\n      0x01ffc9a700000000000000000000000000000000000000000000000000000000\n        /* \"@openzeppelin/contracts/utils/introspection/ERC165.sol\":861:901  interfaceId == type(IERC165).interfaceId */\n      not(0xffffffffffffffffffffffffffffffffffffffffffffffffffffffff)\n      and\n        /* \"@openzeppelin/contracts/utils/introspection/ERC165.sol\":861:872  interfaceId */\n      dup3\n        /* \"@openzeppelin/contracts/utils/introspection/ERC165.sol\":861:901  interfaceId == type(IERC165).interfaceId */\n      not(0xffffffffffffffffffffffffffffffffffffffffffffffffffffffff)\n      and\n      eq\n        /* \"@openzeppelin/contracts/utils/introspection/ERC165.sol\":854:901  return interfaceId == type(IERC165).interfaceId */\n      swap1\n      pop\n        /* \"@openzeppelin/contracts/utils/introspection/ERC165.sol\":762:908  function supportsInterface(bytes4 interfaceId) public view virtual returns (bool) {... */\n      swap2\n      swap1\n      pop\n      jump\t// out\n        /* \"@openzeppelin/contracts/access/AccessControl.sol\":3199:3302  function _checkRole(bytes32 role) internal view virtual {... */\n    tag_92:\n        /* \"@openzeppelin/contracts/access/AccessControl.sol\":3265:3295  _checkRole(role, _msgSender()) */\n      tag_189\n        /* \"@openzeppelin/contracts/access/AccessControl.sol\":3276:3280  role */\n      dup2\n        /* \"@openzeppelin/contracts/access/AccessControl.sol\":3282:3294  _msgSender() */\n      tag_190\n        /* \"@openzeppelin/contracts/access/AccessControl.sol\":3282:3292  _msgSender */\n      tag_138\n        /* \"@openzeppelin/contracts/access/AccessControl.sol\":3282:3294  _msgSender() */\n      jump\t// in\n    tag_190:\n        /* \"@openzeppelin/contracts/access/AccessControl.sol\":3265:3275  _checkRole */\n      tag_191\n        /* \"@openzeppelin/contracts/access/AccessControl.sol\":3265:3295  _checkRole(role, _msgSender()) */\n      jump\t// in\n    tag_189:\n        /* \"@openzeppelin/contracts/access/AccessControl.sol\":3199:3302  function _checkRole(bytes32 role) internal view virtual {... */\n      pop\n      jump\t// out\n        /* \"@openzeppelin/contracts/utils/structs/EnumerableSet.sol\":6431:6569  function contains(Bytes32Set storage set, bytes32 value) internal view returns (bool) {... */\n    tag_100:\n        /* \"@openzeppelin/contracts/utils/structs/EnumerableSet.sol\":6511:6515  bool */\n      0x00\n        /* \"@openzeppelin/contracts/utils/structs/EnumerableSet.sol\":6534:6562  _contains(set._inner, value) */\n      tag_193\n        /* \"@openzeppelin/contracts/utils/structs/EnumerableSet.sol\":6544:6547  set */\n      dup4\n        /* \"@openzeppelin/contracts/utils/structs/EnumerableSet.sol\":6544:6554  set._inner */\n      0x00\n      add\n        /* \"@openzeppelin/contracts/utils/structs/EnumerableSet.sol\":6556:6561  value */\n      dup4\n        /* \"@openzeppelin/contracts/utils/structs/EnumerableSet.sol\":6534:6543  _contains */\n      tag_194\n        /* \"@openzeppelin/contracts/utils/structs/EnumerableSet.sol\":6534:6562  _contains(set._inner, value) */\n      jump\t// in\n    tag_193:\n        /* \"@openzeppelin/contracts/utils/structs/EnumerableSet.sol\":6527:6562  return _contains(set._inner, value) */\n      swap1\n      pop\n        /* \"@openzeppelin/contracts/utils/structs/EnumerableSet.sol\":6431:6569  function contains(Bytes32Set storage set, bytes32 value) internal view returns (bool) {... */\n      swap3\n      swap2\n      pop\n      pop\n      jump\t// out\n        /* \"@openzeppelin/contracts/utils/structs/EnumerableSet.sol\":5930:6053  function add(Bytes32Set storage set, bytes32 value) internal returns (bool) {... */\n    tag_108:\n        /* \"@openzeppelin/contracts/utils/structs/EnumerableSet.sol\":6000:6004  bool */\n      0x00\n        /* \"@openzeppelin/contracts/utils/structs/EnumerableSet.sol\":6023:6046  _add(set._inner, value) */\n      tag_196\n        /* \"@openzeppelin/contracts/utils/structs/EnumerableSet.sol\":6028:6031  set */\n      dup4\n        /* \"@openzeppelin/contracts/utils/structs/EnumerableSet.sol\":6028:6038  set._inner */\n      0x00\n      add\n        /* \"@openzeppelin/contracts/utils/structs/EnumerableSet.sol\":6040:6045  value */\n      dup4\n        /* \"@openzeppelin/contracts/utils/structs/EnumerableSet.sol\":6023:6027  _add */\n      tag_197\n        /* \"@openzeppelin/contracts/utils/structs/EnumerableSet.sol\":6023:6046  _add(set._inner, value) */\n      jump\t// in\n    tag_196:\n        /* \"@openzeppelin/contracts/utils/structs/EnumerableSet.sol\":6016:6046  return _add(set._inner, value) */\n      swap1\n      pop\n        /* \"@openzeppelin/contracts/utils/structs/EnumerableSet.sol\":5930:6053  function add(Bytes32Set storage set, bytes32 value) internal returns (bool) {... */\n      swap3\n      swap2\n      pop\n      pop\n      jump\t// out\n        /* \"@openzeppelin/contracts/access/AccessControl.sol\":6179:6495  function _grantRole(bytes32 role, address account) internal virtual returns (bool) {... */\n    tag_117:\n        /* \"@openzeppelin/contracts/access/AccessControl.sol\":6256:6260  bool */\n      0x00\n        /* \"@openzeppelin/contracts/access/AccessControl.sol\":6277:6299  hasRole(role, account) */\n      tag_199\n        /* \"@openzeppelin/contracts/access/AccessControl.sol\":6285:6289  role */\n      dup4\n        /* \"@openzeppelin/contracts/access/AccessControl.sol\":6291:6298  account */\n      dup4\n        /* \"@openzeppelin/contracts/access/AccessControl.sol\":6277:6284  hasRole */\n      tag_64\n        /* \"@openzeppelin/contracts/access/AccessControl.sol\":6277:6299  hasRole(role, account) */\n      jump\t// in\n    tag_199:\n        /* \"@openzeppelin/contracts/access/AccessControl.sol\":6272:6489  if (!hasRole(role, account)) {... */\n      tag_200\n      jumpi\n        /* \"@openzeppelin/contracts/access/AccessControl.sol\":6347:6351  true */\n      0x01\n        /* \"@openzeppelin/contracts/access/AccessControl.sol\":6315:6321  _roles */\n      0x00\n        /* \"@openzeppelin/contracts/access/AccessControl.sol\":6315:6327  _roles[role] */\n      dup1\n        /* \"@openzeppelin/contracts/access/AccessControl.sol\":6322:6326  role */\n      dup6\n        /* \"@openzeppelin/contracts/access/AccessControl.sol\":6315:6327  _roles[role] */\n      dup2\n      mstore\n      0x20\n      add\n      swap1\n      dup2\n      mstore\n      0x20\n      add\n      0x00\n      keccak256\n        /* \"@openzeppelin/contracts/access/AccessControl.sol\":6315:6335  _roles[role].hasRole */\n      0x00\n      add\n        /* \"@openzeppelin/contracts/access/AccessControl.sol\":6315:6344  _roles[role].hasRole[account] */\n      0x00\n        /* \"@openzeppelin/contracts/access/AccessControl.sol\":6336:6343  account */\n      dup5\n        /* \"@openzeppelin/contracts/access/AccessControl.sol\":6315:6344  _roles[role].hasRole[account] */\n      0xffffffffffffffffffffffffffffffffffffffff\n      and\n      0xffffffffffffffffffffffffffffffffffffffff\n      and\n      dup2\n      mstore\n      0x20\n      add\n      swap1\n      dup2\n      mstore\n      0x20\n      add\n      0x00\n      keccak256\n      0x00\n        /* \"@openzeppelin/contracts/access/AccessControl.sol\":6315:6351  _roles[role].hasRole[account] = true */\n      0x0100\n      exp\n      dup2\n      sload\n      dup2\n      0xff\n      mul\n      not\n      and\n      swap1\n      dup4\n      iszero\n      iszero\n      mul\n      or\n      swap1\n      sstore\n      pop\n        /* \"@openzeppelin/contracts/access/AccessControl.sol\":6397:6409  _msgSender() */\n      tag_201\n        /* \"@openzeppelin/contracts/access/AccessControl.sol\":6397:6407  _msgSender */\n      tag_138\n        /* \"@openzeppelin/contracts/access/AccessControl.sol\":6397:6409  _msgSender() */\n      jump\t// in\n    tag_201:\n        /* \"@openzeppelin/contracts/access/AccessControl.sol\":6370:6410  RoleGranted(role, account, _msgSender()) */\n      0xffffffffffffffffffffffffffffffffffffffff\n      and\n        /* \"@openzeppelin/contracts/access/AccessControl.sol\":6388:6395  account */\n      dup3\n        /* \"@openzeppelin/contracts/access/AccessControl.sol\":6370:6410  RoleGranted(role, account, _msgSender()) */\n      0xffffffffffffffffffffffffffffffffffffffff\n      and\n        /* \"@openzeppelin/contracts/access/AccessControl.sol\":6382:6386  role */\n      dup5\n        /* \"@openzeppelin/contracts/access/AccessControl.sol\":6370:6410  RoleGranted(role, account, _msgSender()) */\n      0x2f8788117e7eff1d82e926ec794901d17c78024a50270940304540a733656f0d\n      mload(0x40)\n      mload(0x40)\n      dup1\n      swap2\n      sub\n      swap1\n      log4\n        /* \"@openzeppelin/contracts/access/AccessControl.sol\":6431:6435  true */\n      0x01\n        /* \"@openzeppelin/contracts/access/AccessControl.sol\":6424:6435  return true */\n      swap1\n      pop\n      jump(tag_198)\n        /* \"@openzeppelin/contracts/access/AccessControl.sol\":6272:6489  if (!hasRole(role, account)) {... */\n    tag_200:\n        /* \"@openzeppelin/contracts/access/AccessControl.sol\":6473:6478  false */\n      0x00\n        /* \"@openzeppelin/contracts/access/AccessControl.sol\":6466:6478  return false */\n      swap1\n      pop\n        /* \"@openzeppelin/contracts/access/AccessControl.sol\":6179:6495  function _grantRole(bytes32 role, address account) internal virtual returns (bool) {... */\n    tag_198:\n      swap3\n      swap2\n      pop\n      pop\n      jump\t// out\n        /* \"@openzeppelin/contracts/utils/Context.sol\":656:752  function _msgSender() internal view virtual returns (address) {... */\n    tag_138:\n        /* \"@openzeppelin/contracts/utils/Context.sol\":709:716  address */\n      0x00\n        /* \"@openzeppelin/contracts/utils/Context.sol\":735:745  msg.sender */\n      caller\n        /* \"@openzeppelin/contracts/utils/Context.sol\":728:745  return msg.sender */\n      swap1\n      pop\n        /* \"@openzeppelin/contracts/utils/Context.sol\":656:752  function _msgSender() internal view virtual returns (address) {... */\n      swap1\n      jump\t// out\n        /* \"@openzeppelin/contracts/access/AccessControl.sol\":6730:7047  function _revokeRole(bytes32 role, address account) internal virtual returns (bool) {... */\n    tag_141:\n        /* \"@openzeppelin/contracts/access/AccessControl.sol\":6808:6812  bool */\n      0x00\n        /* \"@openzeppelin/contracts/access/AccessControl.sol\":6828:6850  hasRole(role, account) */\n      tag_205\n        /* \"@openzeppelin/contracts/access/AccessControl.sol\":6836:6840  role */\n      dup4\n        /* \"@openzeppelin/contracts/access/AccessControl.sol\":6842:6849  account */\n      dup4\n        /* \"@openzeppelin/contracts/access/AccessControl.sol\":6828:6835  hasRole */\n      tag_64\n        /* \"@openzeppelin/contracts/access/AccessControl.sol\":6828:6850  hasRole(role, account) */\n      jump\t// in\n    tag_205:\n        /* \"@openzeppelin/contracts/access/AccessControl.sol\":6824:7041  if (hasRole(role, account)) {... */\n      iszero\n      tag_206\n      jumpi\n        /* \"@openzeppelin/contracts/access/AccessControl.sol\":6898:6903  false */\n      0x00\n        /* \"@openzeppelin/contracts/access/AccessControl.sol\":6866:6872  _roles */\n      dup1\n        /* \"@openzeppelin/contracts/access/AccessControl.sol\":6866:6878  _roles[role] */\n      0x00\n        /* \"@openzeppelin/contracts/access/AccessControl.sol\":6873:6877  role */\n      dup6\n        /* \"@openzeppelin/contracts/access/AccessControl.sol\":6866:6878  _roles[role] */\n      dup2\n      mstore\n      0x20\n      add\n      swap1\n      dup2\n      mstore\n      0x20\n      add\n      0x00\n      keccak256\n        /* \"@openzeppelin/contracts/access/AccessControl.sol\":6866:6886  _roles[role].hasRole */\n      0x00\n      add\n        /* \"@openzeppelin/contracts/access/AccessControl.sol\":6866:6895  _roles[role].hasRole[account] */\n      0x00\n        /* \"@openzeppelin/contracts/access/AccessControl.sol\":6887:6894  account */\n      dup5\n        /* \"@openzeppelin/contracts/access/AccessControl.sol\":6866:6895  _roles[role].hasRole[account] */\n      0xffffffffffffffffffffffffffffffffffffffff\n      and\n      0xffffffffffffffffffffffffffffffffffffffff\n      and\n      dup2\n      mstore\n      0x20\n      add\n      swap1\n      dup2\n      mstore\n      0x20\n      add\n      0x00\n      keccak256\n      0x00\n        /* \"@openzeppelin/contracts/access/AccessControl.sol\":6866:6903  _roles[role].hasRole[account] = false */\n      0x0100\n      exp\n      dup2\n      sload\n      dup2\n      0xff\n      mul\n      not\n      and\n      swap1\n      dup4\n      iszero\n      iszero\n      mul\n      or\n      swap1\n      sstore\n      pop\n        /* \"@openzeppelin/contracts/access/AccessControl.sol\":6949:6961  _msgSender() */\n      tag_207\n        /* \"@openzeppelin/contracts/access/AccessControl.sol\":6949:6959  _msgSender */\n      tag_138\n        /* \"@openzeppelin/contracts/access/AccessControl.sol\":6949:6961  _msgSender() */\n      jump\t// in\n    tag_207:\n        /* \"@openzeppelin/contracts/access/AccessControl.sol\":6922:6962  RoleRevoked(role, account, _msgSender()) */\n      0xffffffffffffffffffffffffffffffffffffffff\n      and\n        /* \"@openzeppelin/contracts/access/AccessControl.sol\":6940:6947  account */\n      dup3\n        /* \"@openzeppelin/contracts/access/AccessControl.sol\":6922:6962  RoleRevoked(role, account, _msgSender()) */\n      0xffffffffffffffffffffffffffffffffffffffff\n      and\n        /* \"@openzeppelin/contracts/access/AccessControl.sol\":6934:6938  role */\n      dup5\n        /* \"@openzeppelin/contracts/access/AccessControl.sol\":6922:6962  RoleRevoked(role, account, _msgSender()) */\n      0xf6391f5c32d9c69d2a47ea670b442974b53935d1edc7fd64eb21e047a839171b\n      mload(0x40)\n      mload(0x40)\n      dup1\n      swap2\n      sub\n      swap1\n      log4\n        /* \"@openzeppelin/contracts/access/AccessControl.sol\":6983:6987  true */\n      0x01\n        /* \"@openzeppelin/contracts/access/AccessControl.sol\":6976:6987  return true */\n      swap1\n      pop\n      jump(tag_204)\n        /* \"@openzeppelin/contracts/access/AccessControl.sol\":6824:7041  if (hasRole(role, account)) {... */\n    tag_206:\n        /* \"@openzeppelin/contracts/access/AccessControl.sol\":7025:7030  false */\n      0x00\n        /* \"@openzeppelin/contracts/access/AccessControl.sol\":7018:7030  return false */\n      swap1\n      pop\n        /* \"@openzeppelin/contracts/access/AccessControl.sol\":6730:7047  function _revokeRole(bytes32 role, address account) internal virtual returns (bool) {... */\n    tag_204:\n      swap3\n      swap2\n      pop\n      pop\n      jump\t// out\n        /* \"@openzeppelin/contracts/utils/structs/EnumerableSet.sol\":7107:7236  function at(Bytes32Set storage set, uint256 index) internal view returns (bytes32) {... */\n    tag_146:\n        /* \"@openzeppelin/contracts/utils/structs/EnumerableSet.sol\":7181:7188  bytes32 */\n      0x00\n        /* \"@openzeppelin/contracts/utils/structs/EnumerableSet.sol\":7207:7229  _at(set._inner, index) */\n      tag_210\n        /* \"@openzeppelin/contracts/utils/structs/EnumerableSet.sol\":7211:7214  set */\n      dup4\n        /* \"@openzeppelin/contracts/utils/structs/EnumerableSet.sol\":7211:7221  set._inner */\n      0x00\n      add\n        /* \"@openzeppelin/contracts/utils/structs/EnumerableSet.sol\":7223:7228  index */\n      dup4\n        /* \"@openzeppelin/contracts/utils/structs/EnumerableSet.sol\":7207:7210  _at */\n      tag_211\n        /* \"@openzeppelin/contracts/utils/structs/EnumerableSet.sol\":7207:7229  _at(set._inner, index) */\n      jump\t// in\n    tag_210:\n        /* \"@openzeppelin/contracts/utils/structs/EnumerableSet.sol\":7200:7229  return _at(set._inner, index) */\n      swap1\n      pop\n        /* \"@openzeppelin/contracts/utils/structs/EnumerableSet.sol\":7107:7236  function at(Bytes32Set storage set, uint256 index) internal view returns (bytes32) {... */\n      swap3\n      swap2\n      pop\n      pop\n      jump\t// out\n        /* \"@openzeppelin/contracts/utils/structs/EnumerableSet.sol\":6650:6765  function length(Bytes32Set storage set) internal view returns (uint256) {... */\n    tag_186:\n        /* \"@openzeppelin/contracts/utils/structs/EnumerableSet.sol\":6713:6720  uint256 */\n      0x00\n        /* \"@openzeppelin/contracts/utils/structs/EnumerableSet.sol\":6739:6758  _length(set._inner) */\n      tag_213\n        /* \"@openzeppelin/contracts/utils/structs/EnumerableSet.sol\":6747:6750  set */\n      dup3\n        /* \"@openzeppelin/contracts/utils/structs/EnumerableSet.sol\":6747:6757  set._inner */\n      0x00\n      add\n        /* \"@openzeppelin/contracts/utils/structs/EnumerableSet.sol\":6739:6746  _length */\n      tag_214\n        /* \"@openzeppelin/contracts/utils/structs/EnumerableSet.sol\":6739:6758  _length(set._inner) */\n      jump\t// in\n    tag_213:\n        /* \"@openzeppelin/contracts/utils/structs/EnumerableSet.sol\":6732:6758  return _length(set._inner) */\n      swap1\n      pop\n        /* \"@openzeppelin/contracts/utils/structs/EnumerableSet.sol\":6650:6765  function length(Bytes32Set storage set) internal view returns (uint256) {... */\n      swap2\n      swap1\n      pop\n      jump\t// out\n        /* \"@openzeppelin/contracts/access/AccessControl.sol\":3432:3629  function _checkRole(bytes32 role, address account) internal view virtual {... */\n    tag_191:\n        /* \"@openzeppelin/contracts/access/AccessControl.sol\":3520:3542  hasRole(role, account) */\n      tag_216\n        /* \"@openzeppelin/contracts/access/AccessControl.sol\":3528:3532  role */\n      dup3\n        /* \"@openzeppelin/contracts/access/AccessControl.sol\":3534:3541  account */\n      dup3\n        /* \"@openzeppelin/contracts/access/AccessControl.sol\":3520:3527  hasRole */\n      tag_64\n        /* \"@openzeppelin/contracts/access/AccessControl.sol\":3520:3542  hasRole(role, account) */\n      jump\t// in\n    tag_216:\n        /* \"@openzeppelin/contracts/access/AccessControl.sol\":3515:3623  if (!hasRole(role, account)) {... */\n      tag_217\n      jumpi\n        /* \"@openzeppelin/contracts/access/AccessControl.sol\":3598:3605  account */\n      dup1\n        /* \"@openzeppelin/contracts/access/AccessControl.sol\":3607:3611  role */\n      dup3\n        /* \"@openzeppelin/contracts/access/AccessControl.sol\":3565:3612  AccessControlUnauthorizedAccount(account, role) */\n      mload(0x40)\n      0xe2517d3f00000000000000000000000000000000000000000000000000000000\n      dup2\n      mstore\n      0x04\n      add\n      tag_218\n      swap3\n      swap2\n      swap1\n      tag_219\n      jump\t// in\n    tag_218:\n      mload(0x40)\n      dup1\n      swap2\n      sub\n      swap1\n      revert\n        /* \"@openzeppelin/contracts/access/AccessControl.sol\":3515:3623  if (!hasRole(role, account)) {... */\n    tag_217:\n        /* \"@openzeppelin/contracts/access/AccessControl.sol\":3432:3629  function _checkRole(bytes32 role, address account) internal view virtual {... */\n      pop\n      pop\n      jump\t// out\n        /* \"@openzeppelin/contracts/utils/structs/EnumerableSet.sol\":4264:4393  function _contains(Set storage set, bytes32 value) private view returns (bool) {... */\n    tag_194:\n        /* \"@openzeppelin/contracts/utils/structs/EnumerableSet.sol\":4337:4341  bool */\n      0x00\n        /* \"@openzeppelin/contracts/utils/structs/EnumerableSet.sol\":4385:4386  0 */\n      dup1\n        /* \"@openzeppelin/contracts/utils/structs/EnumerableSet.sol\":4360:4363  set */\n      dup4\n        /* \"@openzeppelin/contracts/utils/structs/EnumerableSet.sol\":4360:4374  set._positions */\n      0x01\n      add\n        /* \"@openzeppelin/contracts/utils/structs/EnumerableSet.sol\":4360:4381  set._positions[value] */\n      0x00\n        /* \"@openzeppelin/contracts/utils/structs/EnumerableSet.sol\":4375:4380  value */\n      dup5\n        /* \"@openzeppelin/contracts/utils/structs/EnumerableSet.sol\":4360:4381  set._positions[value] */\n      dup2\n      mstore\n      0x20\n      add\n      swap1\n      dup2\n      mstore\n      0x20\n      add\n      0x00\n      keccak256\n      sload\n        /* \"@openzeppelin/contracts/utils/structs/EnumerableSet.sol\":4360:4386  set._positions[value] != 0 */\n      eq\n      iszero\n        /* \"@openzeppelin/contracts/utils/structs/EnumerableSet.sol\":4353:4386  return set._positions[value] != 0 */\n      swap1\n      pop\n        /* \"@openzeppelin/contracts/utils/structs/EnumerableSet.sol\":4264:4393  function _contains(Set storage set, bytes32 value) private view returns (bool) {... */\n      swap3\n      swap2\n      pop\n      pop\n      jump\t// out\n        /* \"@openzeppelin/contracts/utils/structs/EnumerableSet.sol\":2241:2647  function _add(Set storage set, bytes32 value) private returns (bool) {... */\n    tag_197:\n        /* \"@openzeppelin/contracts/utils/structs/EnumerableSet.sol\":2304:2308  bool */\n      0x00\n        /* \"@openzeppelin/contracts/utils/structs/EnumerableSet.sol\":2325:2346  _contains(set, value) */\n      tag_222\n        /* \"@openzeppelin/contracts/utils/structs/EnumerableSet.sol\":2335:2338  set */\n      dup4\n        /* \"@openzeppelin/contracts/utils/structs/EnumerableSet.sol\":2340:2345  value */\n      dup4\n        /* \"@openzeppelin/contracts/utils/structs/EnumerableSet.sol\":2325:2334  _contains */\n      tag_194\n        /* \"@openzeppelin/contracts/utils/structs/EnumerableSet.sol\":2325:2346  _contains(set, value) */\n      jump\t// in\n    tag_222:\n        /* \"@openzeppelin/contracts/utils/structs/EnumerableSet.sol\":2320:2641  if (!_contains(set, value)) {... */\n      tag_223\n      jumpi\n        /* \"@openzeppelin/contracts/utils/structs/EnumerableSet.sol\":2362:2365  set */\n      dup3\n        /* \"@openzeppelin/contracts/utils/structs/EnumerableSet.sol\":2362:2373  set._values */\n      0x00\n      add\n        /* \"@openzeppelin/contracts/utils/structs/EnumerableSet.sol\":2379:2384  value */\n      dup3\n        /* \"@openzeppelin/contracts/utils/structs/EnumerableSet.sol\":2362:2385  set._values.push(value) */\n      swap1\n      dup1\n      0x01\n      dup2\n      sload\n      add\n      dup1\n      dup3\n      sstore\n      dup1\n      swap2\n      pop\n      pop\n      0x01\n      swap1\n      sub\n      swap1\n      0x00\n      mstore\n      keccak256(0x00, 0x20)\n      add\n      0x00\n      swap1\n      swap2\n      swap1\n      swap2\n      swap1\n      swap2\n      pop\n      sstore\n        /* \"@openzeppelin/contracts/utils/structs/EnumerableSet.sol\":2544:2547  set */\n      dup3\n        /* \"@openzeppelin/contracts/utils/structs/EnumerableSet.sol\":2544:2555  set._values */\n      0x00\n      add\n        /* \"@openzeppelin/contracts/utils/structs/EnumerableSet.sol\":2544:2562  set._values.length */\n      dup1\n      sload\n      swap1\n      pop\n        /* \"@openzeppelin/contracts/utils/structs/EnumerableSet.sol\":2520:2523  set */\n      dup4\n        /* \"@openzeppelin/contracts/utils/structs/EnumerableSet.sol\":2520:2534  set._positions */\n      0x01\n      add\n        /* \"@openzeppelin/contracts/utils/structs/EnumerableSet.sol\":2520:2541  set._positions[value] */\n      0x00\n        /* \"@openzeppelin/contracts/utils/structs/EnumerableSet.sol\":2535:2540  value */\n      dup5\n        /* \"@openzeppelin/contracts/utils/structs/EnumerableSet.sol\":2520:2541  set._positions[value] */\n      dup2\n      mstore\n      0x20\n      add\n      swap1\n      dup2\n      mstore\n      0x20\n      add\n      0x00\n      keccak256\n        /* \"@openzeppelin/contracts/utils/structs/EnumerableSet.sol\":2520:2562  set._positions[value] = set._values.length */\n      dup2\n      swap1\n      sstore\n      pop\n        /* \"@openzeppelin/contracts/utils/structs/EnumerableSet.sol\":2583:2587  true */\n      0x01\n        /* \"@openzeppelin/contracts/utils/structs/EnumerableSet.sol\":2576:2587  return true */\n      swap1\n      pop\n      jump(tag_221)\n        /* \"@openzeppelin/contracts/utils/structs/EnumerableSet.sol\":2320:2641  if (!_contains(set, value)) {... */\n    tag_223:\n        /* \"@openzeppelin/contracts/utils/structs/EnumerableSet.sol\":2625:2630  false */\n      0x00\n        /* \"@openzeppelin/contracts/utils/structs/EnumerableSet.sol\":2618:2630  return false */\n      swap1\n      pop\n        /* \"@openzeppelin/contracts/utils/structs/EnumerableSet.sol\":2241:2647  function _add(Set storage set, bytes32 value) private returns (bool) {... */\n    tag_221:\n      swap3\n      swap2\n      pop\n      pop\n      jump\t// out\n        /* \"@openzeppelin/contracts/utils/structs/EnumerableSet.sol\":4923:5041  function _at(Set storage set, uint256 index) private view returns (bytes32) {... */\n    tag_211:\n        /* \"@openzeppelin/contracts/utils/structs/EnumerableSet.sol\":4990:4997  bytes32 */\n      0x00\n        /* \"@openzeppelin/contracts/utils/structs/EnumerableSet.sol\":5016:5019  set */\n      dup3\n        /* \"@openzeppelin/contracts/utils/structs/EnumerableSet.sol\":5016:5027  set._values */\n      0x00\n      add\n        /* \"@openzeppelin/contracts/utils/structs/EnumerableSet.sol\":5028:5033  index */\n      dup3\n        /* \"@openzeppelin/contracts/utils/structs/EnumerableSet.sol\":5016:5034  set._values[index] */\n      dup2\n      sload\n      dup2\n      lt\n      tag_227\n      jumpi\n      tag_228\n      tag_229\n      jump\t// in\n    tag_228:\n    tag_227:\n      swap1\n      0x00\n      mstore\n      keccak256(0x00, 0x20)\n      add\n      sload\n        /* \"@openzeppelin/contracts/utils/structs/EnumerableSet.sol\":5009:5034  return set._values[index] */\n      swap1\n      pop\n        /* \"@openzeppelin/contracts/utils/structs/EnumerableSet.sol\":4923:5041  function _at(Set storage set, uint256 index) private view returns (bytes32) {... */\n      swap3\n      swap2\n      pop\n      pop\n      jump\t// out\n        /* \"@openzeppelin/contracts/utils/structs/EnumerableSet.sol\":4474:4581  function _length(Set storage set) private view returns (uint256) {... */\n    tag_214:\n        /* \"@openzeppelin/contracts/utils/structs/EnumerableSet.sol\":4530:4537  uint256 */\n      0x00\n        /* \"@openzeppelin/contracts/utils/structs/EnumerableSet.sol\":4556:4559  set */\n      dup2\n        /* \"@openzeppelin/contracts/utils/structs/EnumerableSet.sol\":4556:4567  set._values */\n      0x00\n      add\n        /* \"@openzeppelin/contracts/utils/structs/EnumerableSet.sol\":4556:4574  set._values.length */\n      dup1\n      sload\n      swap1\n      pop\n        /* \"@openzeppelin/contracts/utils/structs/EnumerableSet.sol\":4549:4574  return set._values.length */\n      swap1\n      pop\n        /* \"@openzeppelin/contracts/utils/structs/EnumerableSet.sol\":4474:4581  function _length(Set storage set) private view returns (uint256) {... */\n      swap2\n      swap1\n      pop\n      jump\t// out\n    tag_119:\n      mload(0x40)\n      dup1\n      0xc0\n      add\n      0x40\n      mstore\n      dup1\n      0x60\n      dup2\n      mstore\n      0x20\n      add\n      0x60\n      dup2\n      mstore\n      0x20\n      add\n      and(0xffffffffffffffffffffffffffffffffffffffff, 0x00)\n      dup2\n      mstore\n      0x20\n      add\n      0x00\n      dup2\n      mstore\n      0x20\n      add\n      0x00\n      dup2\n      mstore\n      0x20\n      add\n      iszero(iszero(0x00))\n      dup2\n      mstore\n      pop\n      swap1\n      jump\t// out\n        /* \"#utility.yul\":88:205   */\n    tag_233:\n        /* \"#utility.yul\":197:198   */\n      0x00\n        /* \"#utility.yul\":194:195   */\n      dup1\n        /* \"#utility.yul\":187:199   */\n      revert\n        /* \"#utility.yul\":211:328   */\n    tag_234:\n        /* \"#utility.yul\":320:321   */\n      0x00\n        /* \"#utility.yul\":317:318   */\n      dup1\n        /* \"#utility.yul\":310:322   */\n      revert\n        /* \"#utility.yul\":334:483   */\n    tag_235:\n        /* \"#utility.yul\":370:377   */\n      0x00\n        /* \"#utility.yul\":410:476   */\n      0xffffffff00000000000000000000000000000000000000000000000000000000\n        /* \"#utility.yul\":403:408   */\n      dup3\n        /* \"#utility.yul\":399:477   */\n      and\n        /* \"#utility.yul\":388:477   */\n      swap1\n      pop\n        /* \"#utility.yul\":334:483   */\n      swap2\n      swap1\n      pop\n      jump\t// out\n        /* \"#utility.yul\":489:609   */\n    tag_236:\n        /* \"#utility.yul\":561:584   */\n      tag_315\n        /* \"#utility.yul\":578:583   */\n      dup2\n        /* \"#utility.yul\":561:584   */\n      tag_235\n      jump\t// in\n    tag_315:\n        /* \"#utility.yul\":554:559   */\n      dup2\n        /* \"#utility.yul\":551:585   */\n      eq\n        /* \"#utility.yul\":541:603   */\n      tag_316\n      jumpi\n        /* \"#utility.yul\":599:600   */\n      0x00\n        /* \"#utility.yul\":596:597   */\n      dup1\n        /* \"#utility.yul\":589:601   */\n      revert\n        /* \"#utility.yul\":541:603   */\n    tag_316:\n        /* \"#utility.yul\":489:609   */\n      pop\n      jump\t// out\n        /* \"#utility.yul\":615:752   */\n    tag_237:\n        /* \"#utility.yul\":660:665   */\n      0x00\n        /* \"#utility.yul\":698:704   */\n      dup2\n        /* \"#utility.yul\":685:705   */\n      calldataload\n        /* \"#utility.yul\":676:705   */\n      swap1\n      pop\n        /* \"#utility.yul\":714:746   */\n      tag_318\n        /* \"#utility.yul\":740:745   */\n      dup2\n        /* \"#utility.yul\":714:746   */\n      tag_236\n      jump\t// in\n    tag_318:\n        /* \"#utility.yul\":615:752   */\n      swap3\n      swap2\n      pop\n      pop\n      jump\t// out\n        /* \"#utility.yul\":758:1085   */\n    tag_24:\n        /* \"#utility.yul\":816:822   */\n      0x00\n        /* \"#utility.yul\":865:867   */\n      0x20\n        /* \"#utility.yul\":853:862   */\n      dup3\n        /* \"#utility.yul\":844:851   */\n      dup5\n        /* \"#utility.yul\":840:863   */\n      sub\n        /* \"#utility.yul\":836:868   */\n      slt\n        /* \"#utility.yul\":833:952   */\n      iszero\n      tag_320\n      jumpi\n        /* \"#utility.yul\":871:950   */\n      tag_321\n      tag_233\n      jump\t// in\n    tag_321:\n        /* \"#utility.yul\":833:952   */\n    tag_320:\n        /* \"#utility.yul\":991:992   */\n      0x00\n        /* \"#utility.yul\":1016:1068   */\n      tag_322\n        /* \"#utility.yul\":1060:1067   */\n      dup5\n        /* \"#utility.yul\":1051:1057   */\n      dup3\n        /* \"#utility.yul\":1040:1049   */\n      dup6\n        /* \"#utility.yul\":1036:1058   */\n      add\n        /* \"#utility.yul\":1016:1068   */\n      tag_237\n      jump\t// in\n    tag_322:\n        /* \"#utility.yul\":1006:1068   */\n      swap2\n      pop\n        /* \"#utility.yul\":962:1078   */\n      pop\n        /* \"#utility.yul\":758:1085   */\n      swap3\n      swap2\n      pop\n      pop\n      jump\t// out\n        /* \"#utility.yul\":1091:1181   */\n    tag_238:\n        /* \"#utility.yul\":1125:1132   */\n      0x00\n        /* \"#utility.yul\":1168:1173   */\n      dup2\n        /* \"#utility.yul\":1161:1174   */\n      iszero\n        /* \"#utility.yul\":1154:1175   */\n      iszero\n        /* \"#utility.yul\":1143:1175   */\n      swap1\n      pop\n        /* \"#utility.yul\":1091:1181   */\n      swap2\n      swap1\n      pop\n      jump\t// out\n        /* \"#utility.yul\":1187:1296   */\n    tag_239:\n        /* \"#utility.yul\":1268:1289   */\n      tag_325\n        /* \"#utility.yul\":1283:1288   */\n      dup2\n        /* \"#utility.yul\":1268:1289   */\n      tag_238\n      jump\t// in\n    tag_325:\n        /* \"#utility.yul\":1263:1266   */\n      dup3\n        /* \"#utility.yul\":1256:1290   */\n      mstore\n        /* \"#utility.yul\":1187:1296   */\n      pop\n      pop\n      jump\t// out\n        /* \"#utility.yul\":1302:1512   */\n    tag_27:\n        /* \"#utility.yul\":1389:1393   */\n      0x00\n        /* \"#utility.yul\":1427:1429   */\n      0x20\n        /* \"#utility.yul\":1416:1425   */\n      dup3\n        /* \"#utility.yul\":1412:1430   */\n      add\n        /* \"#utility.yul\":1404:1430   */\n      swap1\n      pop\n        /* \"#utility.yul\":1440:1505   */\n      tag_327\n        /* \"#utility.yul\":1502:1503   */\n      0x00\n        /* \"#utility.yul\":1491:1500   */\n      dup4\n        /* \"#utility.yul\":1487:1504   */\n      add\n        /* \"#utility.yul\":1478:1484   */\n      dup5\n        /* \"#utility.yul\":1440:1505   */\n      tag_239\n      jump\t// in\n    tag_327:\n        /* \"#utility.yul\":1302:1512   */\n      swap3\n      swap2\n      pop\n      pop\n      jump\t// out\n        /* \"#utility.yul\":1518:1635   */\n    tag_240:\n        /* \"#utility.yul\":1627:1628   */\n      0x00\n        /* \"#utility.yul\":1624:1625   */\n      dup1\n        /* \"#utility.yul\":1617:1629   */\n      revert\n        /* \"#utility.yul\":1641:1758   */\n    tag_241:\n        /* \"#utility.yul\":1750:1751   */\n      0x00\n        /* \"#utility.yul\":1747:1748   */\n      dup1\n        /* \"#utility.yul\":1740:1752   */\n      revert\n        /* \"#utility.yul\":1764:1881   */\n    tag_242:\n        /* \"#utility.yul\":1873:1874   */\n      0x00\n        /* \"#utility.yul\":1870:1871   */\n      dup1\n        /* \"#utility.yul\":1863:1875   */\n      revert\n        /* \"#utility.yul\":1901:2454   */\n    tag_243:\n        /* \"#utility.yul\":1959:1967   */\n      0x00\n        /* \"#utility.yul\":1969:1975   */\n      dup1\n        /* \"#utility.yul\":2019:2022   */\n      dup4\n        /* \"#utility.yul\":2012:2016   */\n      0x1f\n        /* \"#utility.yul\":2004:2010   */\n      dup5\n        /* \"#utility.yul\":2000:2017   */\n      add\n        /* \"#utility.yul\":1996:2023   */\n      slt\n        /* \"#utility.yul\":1986:2108   */\n      tag_332\n      jumpi\n        /* \"#utility.yul\":2027:2106   */\n      tag_333\n      tag_240\n      jump\t// in\n    tag_333:\n        /* \"#utility.yul\":1986:2108   */\n    tag_332:\n        /* \"#utility.yul\":2140:2146   */\n      dup3\n        /* \"#utility.yul\":2127:2147   */\n      calldataload\n        /* \"#utility.yul\":2117:2147   */\n      swap1\n      pop\n        /* \"#utility.yul\":2170:2188   */\n      0xffffffffffffffff\n        /* \"#utility.yul\":2162:2168   */\n      dup2\n        /* \"#utility.yul\":2159:2189   */\n      gt\n        /* \"#utility.yul\":2156:2273   */\n      iszero\n      tag_334\n      jumpi\n        /* \"#utility.yul\":2192:2271   */\n      tag_335\n      tag_241\n      jump\t// in\n    tag_335:\n        /* \"#utility.yul\":2156:2273   */\n    tag_334:\n        /* \"#utility.yul\":2306:2310   */\n      0x20\n        /* \"#utility.yul\":2298:2304   */\n      dup4\n        /* \"#utility.yul\":2294:2311   */\n      add\n        /* \"#utility.yul\":2282:2311   */\n      swap2\n      pop\n        /* \"#utility.yul\":2360:2363   */\n      dup4\n        /* \"#utility.yul\":2352:2356   */\n      0x01\n        /* \"#utility.yul\":2344:2350   */\n      dup3\n        /* \"#utility.yul\":2340:2357   */\n      mul\n        /* \"#utility.yul\":2330:2338   */\n      dup4\n        /* \"#utility.yul\":2326:2358   */\n      add\n        /* \"#utility.yul\":2323:2364   */\n      gt\n        /* \"#utility.yul\":2320:2448   */\n      iszero\n      tag_336\n      jumpi\n        /* \"#utility.yul\":2367:2446   */\n      tag_337\n      tag_242\n      jump\t// in\n    tag_337:\n        /* \"#utility.yul\":2320:2448   */\n    tag_336:\n        /* \"#utility.yul\":1901:2454   */\n      swap3\n      pop\n      swap3\n      swap1\n      pop\n      jump\t// out\n        /* \"#utility.yul\":2460:2537   */\n    tag_244:\n        /* \"#utility.yul\":2497:2504   */\n      0x00\n        /* \"#utility.yul\":2526:2531   */\n      dup2\n        /* \"#utility.yul\":2515:2531   */\n      swap1\n      pop\n        /* \"#utility.yul\":2460:2537   */\n      swap2\n      swap1\n      pop\n      jump\t// out\n        /* \"#utility.yul\":2543:2665   */\n    tag_245:\n        /* \"#utility.yul\":2616:2640   */\n      tag_340\n        /* \"#utility.yul\":2634:2639   */\n      dup2\n        /* \"#utility.yul\":2616:2640   */\n      tag_244\n      jump\t// in\n    tag_340:\n        /* \"#utility.yul\":2609:2614   */\n      dup2\n        /* \"#utility.yul\":2606:2641   */\n      eq\n        /* \"#utility.yul\":2596:2659   */\n      tag_341\n      jumpi\n        /* \"#utility.yul\":2655:2656   */\n      0x00\n        /* \"#utility.yul\":2652:2653   */\n      dup1\n        /* \"#utility.yul\":2645:2657   */\n      revert\n        /* \"#utility.yul\":2596:2659   */\n    tag_341:\n        /* \"#utility.yul\":2543:2665   */\n      pop\n      jump\t// out\n        /* \"#utility.yul\":2671:2810   */\n    tag_246:\n        /* \"#utility.yul\":2717:2722   */\n      0x00\n        /* \"#utility.yul\":2755:2761   */\n      dup2\n        /* \"#utility.yul\":2742:2762   */\n      calldataload\n        /* \"#utility.yul\":2733:2762   */\n      swap1\n      pop\n        /* \"#utility.yul\":2771:2804   */\n      tag_343\n        /* \"#utility.yul\":2798:2803   */\n      dup2\n        /* \"#utility.yul\":2771:2804   */\n      tag_245\n      jump\t// in\n    tag_343:\n        /* \"#utility.yul\":2671:2810   */\n      swap3\n      swap2\n      pop\n      pop\n      jump\t// out\n        /* \"#utility.yul\":2816:3835   */\n    tag_30:\n        /* \"#utility.yul\":2917:2923   */\n      0x00\n        /* \"#utility.yul\":2925:2931   */\n      dup1\n        /* \"#utility.yul\":2933:2939   */\n      0x00\n        /* \"#utility.yul\":2941:2947   */\n      dup1\n        /* \"#utility.yul\":2949:2955   */\n      0x00\n        /* \"#utility.yul\":2998:3000   */\n      0x60\n        /* \"#utility.yul\":2986:2995   */\n      dup7\n        /* \"#utility.yul\":2977:2984   */\n      dup9\n        /* \"#utility.yul\":2973:2996   */\n      sub\n        /* \"#utility.yul\":2969:3001   */\n      slt\n        /* \"#utility.yul\":2966:3085   */\n      iszero\n      tag_345\n      jumpi\n        /* \"#utility.yul\":3004:3083   */\n      tag_346\n      tag_233\n      jump\t// in\n    tag_346:\n        /* \"#utility.yul\":2966:3085   */\n    tag_345:\n        /* \"#utility.yul\":3152:3153   */\n      0x00\n        /* \"#utility.yul\":3141:3150   */\n      dup7\n        /* \"#utility.yul\":3137:3154   */\n      add\n        /* \"#utility.yul\":3124:3155   */\n      calldataload\n        /* \"#utility.yul\":3182:3200   */\n      0xffffffffffffffff\n        /* \"#utility.yul\":3174:3180   */\n      dup2\n        /* \"#utility.yul\":3171:3201   */\n      gt\n        /* \"#utility.yul\":3168:3285   */\n      iszero\n      tag_347\n      jumpi\n        /* \"#utility.yul\":3204:3283   */\n      tag_348\n      tag_234\n      jump\t// in\n    tag_348:\n        /* \"#utility.yul\":3168:3285   */\n    tag_347:\n        /* \"#utility.yul\":3317:3382   */\n      tag_349\n        /* \"#utility.yul\":3374:3381   */\n      dup9\n        /* \"#utility.yul\":3365:3371   */\n      dup3\n        /* \"#utility.yul\":3354:3363   */\n      dup10\n        /* \"#utility.yul\":3350:3372   */\n      add\n        /* \"#utility.yul\":3317:3382   */\n      tag_243\n      jump\t// in\n    tag_349:\n        /* \"#utility.yul\":3299:3382   */\n      swap6\n      pop\n      swap6\n      pop\n        /* \"#utility.yul\":3095:3392   */\n      pop\n        /* \"#utility.yul\":3459:3461   */\n      0x20\n        /* \"#utility.yul\":3448:3457   */\n      dup7\n        /* \"#utility.yul\":3444:3462   */\n      add\n        /* \"#utility.yul\":3431:3463   */\n      calldataload\n        /* \"#utility.yul\":3490:3508   */\n      0xffffffffffffffff\n        /* \"#utility.yul\":3482:3488   */\n      dup2\n        /* \"#utility.yul\":3479:3509   */\n      gt\n        /* \"#utility.yul\":3476:3593   */\n      iszero\n      tag_350\n      jumpi\n        /* \"#utility.yul\":3512:3591   */\n      tag_351\n      tag_234\n      jump\t// in\n    tag_351:\n        /* \"#utility.yul\":3476:3593   */\n    tag_350:\n        /* \"#utility.yul\":3625:3690   */\n      tag_352\n        /* \"#utility.yul\":3682:3689   */\n      dup9\n        /* \"#utility.yul\":3673:3679   */\n      dup3\n        /* \"#utility.yul\":3662:3671   */\n      dup10\n        /* \"#utility.yul\":3658:3680   */\n      add\n        /* \"#utility.yul\":3625:3690   */\n      tag_243\n      jump\t// in\n    tag_352:\n        /* \"#utility.yul\":3607:3690   */\n      swap4\n      pop\n      swap4\n      pop\n        /* \"#utility.yul\":3402:3700   */\n      pop\n        /* \"#utility.yul\":3739:3741   */\n      0x40\n        /* \"#utility.yul\":3765:3818   */\n      tag_353\n        /* \"#utility.yul\":3810:3817   */\n      dup9\n        /* \"#utility.yul\":3801:3807   */\n      dup3\n        /* \"#utility.yul\":3790:3799   */\n      dup10\n        /* \"#utility.yul\":3786:3808   */\n      add\n        /* \"#utility.yul\":3765:3818   */\n      tag_246\n      jump\t// in\n    tag_353:\n        /* \"#utility.yul\":3755:3818   */\n      swap2\n      pop\n        /* \"#utility.yul\":3710:3828   */\n      pop\n        /* \"#utility.yul\":2816:3835   */\n      swap3\n      swap6\n      pop\n      swap3\n      swap6\n      swap1\n      swap4\n      pop\n      jump\t// out\n        /* \"#utility.yul\":3841:3918   */\n    tag_247:\n        /* \"#utility.yul\":3878:3885   */\n      0x00\n        /* \"#utility.yul\":3907:3912   */\n      dup2\n        /* \"#utility.yul\":3896:3912   */\n      swap1\n      pop\n        /* \"#utility.yul\":3841:3918   */\n      swap2\n      swap1\n      pop\n      jump\t// out\n        /* \"#utility.yul\":3924:4046   */\n    tag_248:\n        /* \"#utility.yul\":3997:4021   */\n      tag_356\n        /* \"#utility.yul\":4015:4020   */\n      dup2\n        /* \"#utility.yul\":3997:4021   */\n      tag_247\n      jump\t// in\n    tag_356:\n        /* \"#utility.yul\":3990:3995   */\n      dup2\n        /* \"#utility.yul\":3987:4022   */\n      eq\n        /* \"#utility.yul\":3977:4040   */\n      tag_357\n      jumpi\n        /* \"#utility.yul\":4036:4037   */\n      0x00\n        /* \"#utility.yul\":4033:4034   */\n      dup1\n        /* \"#utility.yul\":4026:4038   */\n      revert\n        /* \"#utility.yul\":3977:4040   */\n    tag_357:\n        /* \"#utility.yul\":3924:4046   */\n      pop\n      jump\t// out\n        /* \"#utility.yul\":4052:4191   */\n    tag_249:\n        /* \"#utility.yul\":4098:4103   */\n      0x00\n        /* \"#utility.yul\":4136:4142   */\n      dup2\n        /* \"#utility.yul\":4123:4143   */\n      calldataload\n        /* \"#utility.yul\":4114:4143   */\n      swap1\n      pop\n        /* \"#utility.yul\":4152:4185   */\n      tag_359\n        /* \"#utility.yul\":4179:4184   */\n      dup2\n        /* \"#utility.yul\":4152:4185   */\n      tag_248\n      jump\t// in\n    tag_359:\n        /* \"#utility.yul\":4052:4191   */\n      swap3\n      swap2\n      pop\n      pop\n      jump\t// out\n        /* \"#utility.yul\":4197:4526   */\n    tag_34:\n        /* \"#utility.yul\":4256:4262   */\n      0x00\n        /* \"#utility.yul\":4305:4307   */\n      0x20\n        /* \"#utility.yul\":4293:4302   */\n      dup3\n        /* \"#utility.yul\":4284:4291   */\n      dup5\n        /* \"#utility.yul\":4280:4303   */\n      sub\n        /* \"#utility.yul\":4276:4308   */\n      slt\n        /* \"#utility.yul\":4273:4392   */\n      iszero\n      tag_361\n      jumpi\n        /* \"#utility.yul\":4311:4390   */\n      tag_362\n      tag_233\n      jump\t// in\n    tag_362:\n        /* \"#utility.yul\":4273:4392   */\n    tag_361:\n        /* \"#utility.yul\":4431:4432   */\n      0x00\n        /* \"#utility.yul\":4456:4509   */\n      tag_363\n        /* \"#utility.yul\":4501:4508   */\n      dup5\n        /* \"#utility.yul\":4492:4498   */\n      dup3\n        /* \"#utility.yul\":4481:4490   */\n      dup6\n        /* \"#utility.yul\":4477:4499   */\n      add\n        /* \"#utility.yul\":4456:4509   */\n      tag_249\n      jump\t// in\n    tag_363:\n        /* \"#utility.yul\":4446:4509   */\n      swap2\n      pop\n        /* \"#utility.yul\":4402:4519   */\n      pop\n        /* \"#utility.yul\":4197:4526   */\n      swap3\n      swap2\n      pop\n      pop\n      jump\t// out\n        /* \"#utility.yul\":4532:4650   */\n    tag_250:\n        /* \"#utility.yul\":4619:4643   */\n      tag_365\n        /* \"#utility.yul\":4637:4642   */\n      dup2\n        /* \"#utility.yul\":4619:4643   */\n      tag_247\n      jump\t// in\n    tag_365:\n        /* \"#utility.yul\":4614:4617   */\n      dup3\n        /* \"#utility.yul\":4607:4644   */\n      mstore\n        /* \"#utility.yul\":4532:4650   */\n      pop\n      pop\n      jump\t// out\n        /* \"#utility.yul\":4656:4878   */\n    tag_37:\n        /* \"#utility.yul\":4749:4753   */\n      0x00\n        /* \"#utility.yul\":4787:4789   */\n      0x20\n        /* \"#utility.yul\":4776:4785   */\n      dup3\n        /* \"#utility.yul\":4772:4790   */\n      add\n        /* \"#utility.yul\":4764:4790   */\n      swap1\n      pop\n        /* \"#utility.yul\":4800:4871   */\n      tag_367\n        /* \"#utility.yul\":4868:4869   */\n      0x00\n        /* \"#utility.yul\":4857:4866   */\n      dup4\n        /* \"#utility.yul\":4853:4870   */\n      add\n        /* \"#utility.yul\":4844:4850   */\n      dup5\n        /* \"#utility.yul\":4800:4871   */\n      tag_250\n      jump\t// in\n    tag_367:\n        /* \"#utility.yul\":4656:4878   */\n      swap3\n      swap2\n      pop\n      pop\n      jump\t// out\n        /* \"#utility.yul\":4884:5010   */\n    tag_251:\n        /* \"#utility.yul\":4921:4928   */\n      0x00\n        /* \"#utility.yul\":4961:5003   */\n      0xffffffffffffffffffffffffffffffffffffffff\n        /* \"#utility.yul\":4954:4959   */\n      dup3\n        /* \"#utility.yul\":4950:5004   */\n      and\n        /* \"#utility.yul\":4939:5004   */\n      swap1\n      pop\n        /* \"#utility.yul\":4884:5010   */\n      swap2\n      swap1\n      pop\n      jump\t// out\n        /* \"#utility.yul\":5016:5112   */\n    tag_252:\n        /* \"#utility.yul\":5053:5060   */\n      0x00\n        /* \"#utility.yul\":5082:5106   */\n      tag_370\n        /* \"#utility.yul\":5100:5105   */\n      dup3\n        /* \"#utility.yul\":5082:5106   */\n      tag_251\n      jump\t// in\n    tag_370:\n        /* \"#utility.yul\":5071:5106   */\n      swap1\n      pop\n        /* \"#utility.yul\":5016:5112   */\n      swap2\n      swap1\n      pop\n      jump\t// out\n        /* \"#utility.yul\":5118:5240   */\n    tag_253:\n        /* \"#utility.yul\":5191:5215   */\n      tag_372\n        /* \"#utility.yul\":5209:5214   */\n      dup2\n        /* \"#utility.yul\":5191:5215   */\n      tag_252\n      jump\t// in\n    tag_372:\n        /* \"#utility.yul\":5184:5189   */\n      dup2\n        /* \"#utility.yul\":5181:5216   */\n      eq\n        /* \"#utility.yul\":5171:5234   */\n      tag_373\n      jumpi\n        /* \"#utility.yul\":5230:5231   */\n      0x00\n        /* \"#utility.yul\":5227:5228   */\n      dup1\n        /* \"#utility.yul\":5220:5232   */\n      revert\n        /* \"#utility.yul\":5171:5234   */\n    tag_373:\n        /* \"#utility.yul\":5118:5240   */\n      pop\n      jump\t// out\n        /* \"#utility.yul\":5246:5385   */\n    tag_254:\n        /* \"#utility.yul\":5292:5297   */\n      0x00\n        /* \"#utility.yul\":5330:5336   */\n      dup2\n        /* \"#utility.yul\":5317:5337   */\n      calldataload\n        /* \"#utility.yul\":5308:5337   */\n      swap1\n      pop\n        /* \"#utility.yul\":5346:5379   */\n      tag_375\n        /* \"#utility.yul\":5373:5378   */\n      dup2\n        /* \"#utility.yul\":5346:5379   */\n      tag_253\n      jump\t// in\n    tag_375:\n        /* \"#utility.yul\":5246:5385   */\n      swap3\n      swap2\n      pop\n      pop\n      jump\t// out\n        /* \"#utility.yul\":5391:5865   */\n    tag_40:\n        /* \"#utility.yul\":5459:5465   */\n      0x00\n        /* \"#utility.yul\":5467:5473   */\n      dup1\n        /* \"#utility.yul\":5516:5518   */\n      0x40\n        /* \"#utility.yul\":5504:5513   */\n      dup4\n        /* \"#utility.yul\":5495:5502   */\n      dup6\n        /* \"#utility.yul\":5491:5514   */\n      sub\n        /* \"#utility.yul\":5487:5519   */\n      slt\n        /* \"#utility.yul\":5484:5603   */\n      iszero\n      tag_377\n      jumpi\n        /* \"#utility.yul\":5522:5601   */\n      tag_378\n      tag_233\n      jump\t// in\n    tag_378:\n        /* \"#utility.yul\":5484:5603   */\n    tag_377:\n        /* \"#utility.yul\":5642:5643   */\n      0x00\n        /* \"#utility.yul\":5667:5720   */\n      tag_379\n        /* \"#utility.yul\":5712:5719   */\n      dup6\n        /* \"#utility.yul\":5703:5709   */\n      dup3\n        /* \"#utility.yul\":5692:5701   */\n      dup7\n        /* \"#utility.yul\":5688:5710   */\n      add\n        /* \"#utility.yul\":5667:5720   */\n      tag_249\n      jump\t// in\n    tag_379:\n        /* \"#utility.yul\":5657:5720   */\n      swap3\n      pop\n        /* \"#utility.yul\":5613:5730   */\n      pop\n        /* \"#utility.yul\":5769:5771   */\n      0x20\n        /* \"#utility.yul\":5795:5848   */\n      tag_380\n        /* \"#utility.yul\":5840:5847   */\n      dup6\n        /* \"#utility.yul\":5831:5837   */\n      dup3\n        /* \"#utility.yul\":5820:5829   */\n      dup7\n        /* \"#utility.yul\":5816:5838   */\n      add\n        /* \"#utility.yul\":5795:5848   */\n      tag_254\n      jump\t// in\n    tag_380:\n        /* \"#utility.yul\":5785:5848   */\n      swap2\n      pop\n        /* \"#utility.yul\":5740:5858   */\n      pop\n        /* \"#utility.yul\":5391:5865   */\n      swap3\n      pop\n      swap3\n      swap1\n      pop\n      jump\t// out\n        /* \"#utility.yul\":5871:5970   */\n    tag_255:\n        /* \"#utility.yul\":5923:5929   */\n      0x00\n        /* \"#utility.yul\":5957:5962   */\n      dup2\n        /* \"#utility.yul\":5951:5963   */\n      mload\n        /* \"#utility.yul\":5941:5963   */\n      swap1\n      pop\n        /* \"#utility.yul\":5871:5970   */\n      swap2\n      swap1\n      pop\n      jump\t// out\n        /* \"#utility.yul\":5976:6135   */\n    tag_256:\n        /* \"#utility.yul\":6050:6061   */\n      0x00\n        /* \"#utility.yul\":6084:6090   */\n      dup3\n        /* \"#utility.yul\":6079:6082   */\n      dup3\n        /* \"#utility.yul\":6072:6091   */\n      mstore\n        /* \"#utility.yul\":6124:6128   */\n      0x20\n        /* \"#utility.yul\":6119:6122   */\n      dup3\n        /* \"#utility.yul\":6115:6129   */\n      add\n        /* \"#utility.yul\":6100:6129   */\n      swap1\n      pop\n        /* \"#utility.yul\":5976:6135   */\n      swap3\n      swap2\n      pop\n      pop\n      jump\t// out\n        /* \"#utility.yul\":6141:6387   */\n    tag_257:\n        /* \"#utility.yul\":6222:6223   */\n      0x00\n        /* \"#utility.yul\":6232:6345   */\n    tag_384:\n        /* \"#utility.yul\":6246:6252   */\n      dup4\n        /* \"#utility.yul\":6243:6244   */\n      dup2\n        /* \"#utility.yul\":6240:6253   */\n      lt\n        /* \"#utility.yul\":6232:6345   */\n      iszero\n      tag_386\n      jumpi\n        /* \"#utility.yul\":6331:6332   */\n      dup1\n        /* \"#utility.yul\":6326:6329   */\n      dup3\n        /* \"#utility.yul\":6322:6333   */\n      add\n        /* \"#utility.yul\":6316:6334   */\n      mload\n        /* \"#utility.yul\":6312:6313   */\n      dup2\n        /* \"#utility.yul\":6307:6310   */\n      dup5\n        /* \"#utility.yul\":6303:6314   */\n      add\n        /* \"#utility.yul\":6296:6335   */\n      mstore\n        /* \"#utility.yul\":6268:6270   */\n      0x20\n        /* \"#utility.yul\":6265:6266   */\n      dup2\n        /* \"#utility.yul\":6261:6271   */\n      add\n        /* \"#utility.yul\":6256:6271   */\n      swap1\n      pop\n        /* \"#utility.yul\":6232:6345   */\n      jump(tag_384)\n    tag_386:\n        /* \"#utility.yul\":6379:6380   */\n      0x00\n        /* \"#utility.yul\":6370:6376   */\n      dup5\n        /* \"#utility.yul\":6365:6368   */\n      dup5\n        /* \"#utility.yul\":6361:6377   */\n      add\n        /* \"#utility.yul\":6354:6381   */\n      mstore\n        /* \"#utility.yul\":6203:6387   */\n      pop\n        /* \"#utility.yul\":6141:6387   */\n      pop\n      pop\n      pop\n      jump\t// out\n        /* \"#utility.yul\":6393:6495   */\n    tag_258:\n        /* \"#utility.yul\":6434:6440   */\n      0x00\n        /* \"#utility.yul\":6485:6487   */\n      0x1f\n        /* \"#utility.yul\":6481:6488   */\n      not\n        /* \"#utility.yul\":6476:6478   */\n      0x1f\n        /* \"#utility.yul\":6469:6474   */\n      dup4\n        /* \"#utility.yul\":6465:6479   */\n      add\n        /* \"#utility.yul\":6461:6489   */\n      and\n        /* \"#utility.yul\":6451:6489   */\n      swap1\n      pop\n        /* \"#utility.yul\":6393:6495   */\n      swap2\n      swap1\n      pop\n      jump\t// out\n        /* \"#utility.yul\":6501:6858   */\n    tag_259:\n        /* \"#utility.yul\":6579:6582   */\n      0x00\n        /* \"#utility.yul\":6607:6646   */\n      tag_389\n        /* \"#utility.yul\":6640:6645   */\n      dup3\n        /* \"#utility.yul\":6607:6646   */\n      tag_255\n      jump\t// in\n    tag_389:\n        /* \"#utility.yul\":6662:6723   */\n      tag_390\n        /* \"#utility.yul\":6716:6722   */\n      dup2\n        /* \"#utility.yul\":6711:6714   */\n      dup6\n        /* \"#utility.yul\":6662:6723   */\n      tag_256\n      jump\t// in\n    tag_390:\n        /* \"#utility.yul\":6655:6723   */\n      swap4\n      pop\n        /* \"#utility.yul\":6732:6797   */\n      tag_391\n        /* \"#utility.yul\":6790:6796   */\n      dup2\n        /* \"#utility.yul\":6785:6788   */\n      dup6\n        /* \"#utility.yul\":6778:6782   */\n      0x20\n        /* \"#utility.yul\":6771:6776   */\n      dup7\n        /* \"#utility.yul\":6767:6783   */\n      add\n        /* \"#utility.yul\":6732:6797   */\n      tag_257\n      jump\t// in\n    tag_391:\n        /* \"#utility.yul\":6822:6851   */\n      tag_392\n        /* \"#utility.yul\":6844:6850   */\n      dup2\n        /* \"#utility.yul\":6822:6851   */\n      tag_258\n      jump\t// in\n    tag_392:\n        /* \"#utility.yul\":6817:6820   */\n      dup5\n        /* \"#utility.yul\":6813:6852   */\n      add\n        /* \"#utility.yul\":6806:6852   */\n      swap2\n      pop\n        /* \"#utility.yul\":6583:6858   */\n      pop\n        /* \"#utility.yul\":6501:6858   */\n      swap3\n      swap2\n      pop\n      pop\n      jump\t// out\n        /* \"#utility.yul\":6864:6972   */\n    tag_260:\n        /* \"#utility.yul\":6941:6965   */\n      tag_394\n        /* \"#utility.yul\":6959:6964   */\n      dup2\n        /* \"#utility.yul\":6941:6965   */\n      tag_252\n      jump\t// in\n    tag_394:\n        /* \"#utility.yul\":6936:6939   */\n      dup3\n        /* \"#utility.yul\":6929:6966   */\n      mstore\n        /* \"#utility.yul\":6864:6972   */\n      pop\n      pop\n      jump\t// out\n        /* \"#utility.yul\":6978:7086   */\n    tag_261:\n        /* \"#utility.yul\":7055:7079   */\n      tag_396\n        /* \"#utility.yul\":7073:7078   */\n      dup2\n        /* \"#utility.yul\":7055:7079   */\n      tag_244\n      jump\t// in\n    tag_396:\n        /* \"#utility.yul\":7050:7053   */\n      dup3\n        /* \"#utility.yul\":7043:7080   */\n      mstore\n        /* \"#utility.yul\":6978:7086   */\n      pop\n      pop\n      jump\t// out\n        /* \"#utility.yul\":7092:7191   */\n    tag_262:\n        /* \"#utility.yul\":7163:7184   */\n      tag_398\n        /* \"#utility.yul\":7178:7183   */\n      dup2\n        /* \"#utility.yul\":7163:7184   */\n      tag_238\n      jump\t// in\n    tag_398:\n        /* \"#utility.yul\":7158:7161   */\n      dup3\n        /* \"#utility.yul\":7151:7185   */\n      mstore\n        /* \"#utility.yul\":7092:7191   */\n      pop\n      pop\n      jump\t// out\n        /* \"#utility.yul\":7269:8675   */\n    tag_263:\n        /* \"#utility.yul\":7400:7403   */\n      0x00\n        /* \"#utility.yul\":7436:7440   */\n      0xc0\n        /* \"#utility.yul\":7431:7434   */\n      dup4\n        /* \"#utility.yul\":7427:7441   */\n      add\n        /* \"#utility.yul\":7529:7533   */\n      0x00\n        /* \"#utility.yul\":7522:7527   */\n      dup4\n        /* \"#utility.yul\":7518:7534   */\n      add\n        /* \"#utility.yul\":7512:7535   */\n      mload\n        /* \"#utility.yul\":7582:7585   */\n      dup5\n        /* \"#utility.yul\":7576:7580   */\n      dup3\n        /* \"#utility.yul\":7572:7586   */\n      sub\n        /* \"#utility.yul\":7565:7569   */\n      0x00\n        /* \"#utility.yul\":7560:7563   */\n      dup7\n        /* \"#utility.yul\":7556:7570   */\n      add\n        /* \"#utility.yul\":7549:7587   */\n      mstore\n        /* \"#utility.yul\":7608:7681   */\n      tag_400\n        /* \"#utility.yul\":7676:7680   */\n      dup3\n        /* \"#utility.yul\":7662:7674   */\n      dup3\n        /* \"#utility.yul\":7608:7681   */\n      tag_259\n      jump\t// in\n    tag_400:\n        /* \"#utility.yul\":7600:7681   */\n      swap2\n      pop\n        /* \"#utility.yul\":7451:7692   */\n      pop\n        /* \"#utility.yul\":7779:7783   */\n      0x20\n        /* \"#utility.yul\":7772:7777   */\n      dup4\n        /* \"#utility.yul\":7768:7784   */\n      add\n        /* \"#utility.yul\":7762:7785   */\n      mload\n        /* \"#utility.yul\":7832:7835   */\n      dup5\n        /* \"#utility.yul\":7826:7830   */\n      dup3\n        /* \"#utility.yul\":7822:7836   */\n      sub\n        /* \"#utility.yul\":7815:7819   */\n      0x20\n        /* \"#utility.yul\":7810:7813   */\n      dup7\n        /* \"#utility.yul\":7806:7820   */\n      add\n        /* \"#utility.yul\":7799:7837   */\n      mstore\n        /* \"#utility.yul\":7858:7931   */\n      tag_401\n        /* \"#utility.yul\":7926:7930   */\n      dup3\n        /* \"#utility.yul\":7912:7924   */\n      dup3\n        /* \"#utility.yul\":7858:7931   */\n      tag_259\n      jump\t// in\n    tag_401:\n        /* \"#utility.yul\":7850:7931   */\n      swap2\n      pop\n        /* \"#utility.yul\":7702:7942   */\n      pop\n        /* \"#utility.yul\":8028:8032   */\n      0x40\n        /* \"#utility.yul\":8021:8026   */\n      dup4\n        /* \"#utility.yul\":8017:8033   */\n      add\n        /* \"#utility.yul\":8011:8034   */\n      mload\n        /* \"#utility.yul\":8047:8110   */\n      tag_402\n        /* \"#utility.yul\":8104:8108   */\n      0x40\n        /* \"#utility.yul\":8099:8102   */\n      dup7\n        /* \"#utility.yul\":8095:8109   */\n      add\n        /* \"#utility.yul\":8081:8093   */\n      dup3\n        /* \"#utility.yul\":8047:8110   */\n      tag_260\n      jump\t// in\n    tag_402:\n        /* \"#utility.yul\":7952:8120   */\n      pop\n        /* \"#utility.yul\":8207:8211   */\n      0x60\n        /* \"#utility.yul\":8200:8205   */\n      dup4\n        /* \"#utility.yul\":8196:8212   */\n      add\n        /* \"#utility.yul\":8190:8213   */\n      mload\n        /* \"#utility.yul\":8226:8289   */\n      tag_403\n        /* \"#utility.yul\":8283:8287   */\n      0x60\n        /* \"#utility.yul\":8278:8281   */\n      dup7\n        /* \"#utility.yul\":8274:8288   */\n      add\n        /* \"#utility.yul\":8260:8272   */\n      dup3\n        /* \"#utility.yul\":8226:8289   */\n      tag_261\n      jump\t// in\n    tag_403:\n        /* \"#utility.yul\":8130:8299   */\n      pop\n        /* \"#utility.yul\":8384:8388   */\n      0x80\n        /* \"#utility.yul\":8377:8382   */\n      dup4\n        /* \"#utility.yul\":8373:8389   */\n      add\n        /* \"#utility.yul\":8367:8390   */\n      mload\n        /* \"#utility.yul\":8403:8466   */\n      tag_404\n        /* \"#utility.yul\":8460:8464   */\n      0x80\n        /* \"#utility.yul\":8455:8458   */\n      dup7\n        /* \"#utility.yul\":8451:8465   */\n      add\n        /* \"#utility.yul\":8437:8449   */\n      dup3\n        /* \"#utility.yul\":8403:8466   */\n      tag_261\n      jump\t// in\n    tag_404:\n        /* \"#utility.yul\":8309:8476   */\n      pop\n        /* \"#utility.yul\":8562:8566   */\n      0xa0\n        /* \"#utility.yul\":8555:8560   */\n      dup4\n        /* \"#utility.yul\":8551:8567   */\n      add\n        /* \"#utility.yul\":8545:8568   */\n      mload\n        /* \"#utility.yul\":8581:8638   */\n      tag_405\n        /* \"#utility.yul\":8632:8636   */\n      0xa0\n        /* \"#utility.yul\":8627:8630   */\n      dup7\n        /* \"#utility.yul\":8623:8637   */\n      add\n        /* \"#utility.yul\":8609:8621   */\n      dup3\n        /* \"#utility.yul\":8581:8638   */\n      tag_262\n      jump\t// in\n    tag_405:\n        /* \"#utility.yul\":8486:8648   */\n      pop\n        /* \"#utility.yul\":8665:8669   */\n      dup1\n        /* \"#utility.yul\":8658:8669   */\n      swap2\n      pop\n        /* \"#utility.yul\":7405:8675   */\n      pop\n        /* \"#utility.yul\":7269:8675   */\n      swap3\n      swap2\n      pop\n      pop\n      jump\t// out\n        /* \"#utility.yul\":8681:9078   */\n    tag_46:\n        /* \"#utility.yul\":8836:8840   */\n      0x00\n        /* \"#utility.yul\":8874:8876   */\n      0x20\n        /* \"#utility.yul\":8863:8872   */\n      dup3\n        /* \"#utility.yul\":8859:8877   */\n      add\n        /* \"#utility.yul\":8851:8877   */\n      swap1\n      pop\n        /* \"#utility.yul\":8923:8932   */\n      dup2\n        /* \"#utility.yul\":8917:8921   */\n      dup2\n        /* \"#utility.yul\":8913:8933   */\n      sub\n        /* \"#utility.yul\":8909:8910   */\n      0x00\n        /* \"#utility.yul\":8898:8907   */\n      dup4\n        /* \"#utility.yul\":8894:8911   */\n      add\n        /* \"#utility.yul\":8887:8934   */\n      mstore\n        /* \"#utility.yul\":8951:9071   */\n      tag_407\n        /* \"#utility.yul\":9066:9070   */\n      dup2\n        /* \"#utility.yul\":9057:9063   */\n      dup5\n        /* \"#utility.yul\":8951:9071   */\n      tag_263\n      jump\t// in\n    tag_407:\n        /* \"#utility.yul\":8943:9071   */\n      swap1\n      pop\n        /* \"#utility.yul\":8681:9078   */\n      swap3\n      swap2\n      pop\n      pop\n      jump\t// out\n        /* \"#utility.yul\":9084:9413   */\n    tag_59:\n        /* \"#utility.yul\":9143:9149   */\n      0x00\n        /* \"#utility.yul\":9192:9194   */\n      0x20\n        /* \"#utility.yul\":9180:9189   */\n      dup3\n        /* \"#utility.yul\":9171:9178   */\n      dup5\n        /* \"#utility.yul\":9167:9190   */\n      sub\n        /* \"#utility.yul\":9163:9195   */\n      slt\n        /* \"#utility.yul\":9160:9279   */\n      iszero\n      tag_409\n      jumpi\n        /* \"#utility.yul\":9198:9277   */\n      tag_410\n      tag_233\n      jump\t// in\n    tag_410:\n        /* \"#utility.yul\":9160:9279   */\n    tag_409:\n        /* \"#utility.yul\":9318:9319   */\n      0x00\n        /* \"#utility.yul\":9343:9396   */\n      tag_411\n        /* \"#utility.yul\":9388:9395   */\n      dup5\n        /* \"#utility.yul\":9379:9385   */\n      dup3\n        /* \"#utility.yul\":9368:9377   */\n      dup6\n        /* \"#utility.yul\":9364:9386   */\n      add\n        /* \"#utility.yul\":9343:9396   */\n      tag_246\n      jump\t// in\n    tag_411:\n        /* \"#utility.yul\":9333:9396   */\n      swap2\n      pop\n        /* \"#utility.yul\":9289:9406   */\n      pop\n        /* \"#utility.yul\":9084:9413   */\n      swap3\n      swap2\n      pop\n      pop\n      jump\t// out\n        /* \"#utility.yul\":9419:9535   */\n    tag_264:\n        /* \"#utility.yul\":9489:9510   */\n      tag_413\n        /* \"#utility.yul\":9504:9509   */\n      dup2\n        /* \"#utility.yul\":9489:9510   */\n      tag_238\n      jump\t// in\n    tag_413:\n        /* \"#utility.yul\":9482:9487   */\n      dup2\n        /* \"#utility.yul\":9479:9511   */\n      eq\n        /* \"#utility.yul\":9469:9529   */\n      tag_414\n      jumpi\n        /* \"#utility.yul\":9525:9526   */\n      0x00\n        /* \"#utility.yul\":9522:9523   */\n      dup1\n        /* \"#utility.yul\":9515:9527   */\n      revert\n        /* \"#utility.yul\":9469:9529   */\n    tag_414:\n        /* \"#utility.yul\":9419:9535   */\n      pop\n      jump\t// out\n        /* \"#utility.yul\":9541:9674   */\n    tag_265:\n        /* \"#utility.yul\":9584:9589   */\n      0x00\n        /* \"#utility.yul\":9622:9628   */\n      dup2\n        /* \"#utility.yul\":9609:9629   */\n      calldataload\n        /* \"#utility.yul\":9600:9629   */\n      swap1\n      pop\n        /* \"#utility.yul\":9638:9668   */\n      tag_416\n        /* \"#utility.yul\":9662:9667   */\n      dup2\n        /* \"#utility.yul\":9638:9668   */\n      tag_264\n      jump\t// in\n    tag_416:\n        /* \"#utility.yul\":9541:9674   */\n      swap3\n      swap2\n      pop\n      pop\n      jump\t// out\n        /* \"#utility.yul\":9680:10985   */\n    tag_77:\n        /* \"#utility.yul\":9796:9802   */\n      0x00\n        /* \"#utility.yul\":9804:9810   */\n      dup1\n        /* \"#utility.yul\":9812:9818   */\n      0x00\n        /* \"#utility.yul\":9820:9826   */\n      dup1\n        /* \"#utility.yul\":9828:9834   */\n      0x00\n        /* \"#utility.yul\":9836:9842   */\n      dup1\n        /* \"#utility.yul\":9844:9850   */\n      0x00\n        /* \"#utility.yul\":9893:9896   */\n      0xa0\n        /* \"#utility.yul\":9881:9890   */\n      dup9\n        /* \"#utility.yul\":9872:9879   */\n      dup11\n        /* \"#utility.yul\":9868:9891   */\n      sub\n        /* \"#utility.yul\":9864:9897   */\n      slt\n        /* \"#utility.yul\":9861:9981   */\n      iszero\n      tag_418\n      jumpi\n        /* \"#utility.yul\":9900:9979   */\n      tag_419\n      tag_233\n      jump\t// in\n    tag_419:\n        /* \"#utility.yul\":9861:9981   */\n    tag_418:\n        /* \"#utility.yul\":10020:10021   */\n      0x00\n        /* \"#utility.yul\":10045:10098   */\n      tag_420\n        /* \"#utility.yul\":10090:10097   */\n      dup11\n        /* \"#utility.yul\":10081:10087   */\n      dup3\n        /* \"#utility.yul\":10070:10079   */\n      dup12\n        /* \"#utility.yul\":10066:10088   */\n      add\n        /* \"#utility.yul\":10045:10098   */\n      tag_249\n      jump\t// in\n    tag_420:\n        /* \"#utility.yul\":10035:10098   */\n      swap8\n      pop\n        /* \"#utility.yul\":9991:10108   */\n      pop\n        /* \"#utility.yul\":10175:10177   */\n      0x20\n        /* \"#utility.yul\":10164:10173   */\n      dup9\n        /* \"#utility.yul\":10160:10178   */\n      add\n        /* \"#utility.yul\":10147:10179   */\n      calldataload\n        /* \"#utility.yul\":10206:10224   */\n      0xffffffffffffffff\n        /* \"#utility.yul\":10198:10204   */\n      dup2\n        /* \"#utility.yul\":10195:10225   */\n      gt\n        /* \"#utility.yul\":10192:10309   */\n      iszero\n      tag_421\n      jumpi\n        /* \"#utility.yul\":10228:10307   */\n      tag_422\n      tag_234\n      jump\t// in\n    tag_422:\n        /* \"#utility.yul\":10192:10309   */\n    tag_421:\n        /* \"#utility.yul\":10341:10406   */\n      tag_423\n        /* \"#utility.yul\":10398:10405   */\n      dup11\n        /* \"#utility.yul\":10389:10395   */\n      dup3\n        /* \"#utility.yul\":10378:10387   */\n      dup12\n        /* \"#utility.yul\":10374:10396   */\n      add\n        /* \"#utility.yul\":10341:10406   */\n      tag_243\n      jump\t// in\n    tag_423:\n        /* \"#utility.yul\":10323:10406   */\n      swap7\n      pop\n      swap7\n      pop\n        /* \"#utility.yul\":10118:10416   */\n      pop\n        /* \"#utility.yul\":10483:10485   */\n      0x40\n        /* \"#utility.yul\":10472:10481   */\n      dup9\n        /* \"#utility.yul\":10468:10486   */\n      add\n        /* \"#utility.yul\":10455:10487   */\n      calldataload\n        /* \"#utility.yul\":10514:10532   */\n      0xffffffffffffffff\n        /* \"#utility.yul\":10506:10512   */\n      dup2\n        /* \"#utility.yul\":10503:10533   */\n      gt\n        /* \"#utility.yul\":10500:10617   */\n      iszero\n      tag_424\n      jumpi\n        /* \"#utility.yul\":10536:10615   */\n      tag_425\n      tag_234\n      jump\t// in\n    tag_425:\n        /* \"#utility.yul\":10500:10617   */\n    tag_424:\n        /* \"#utility.yul\":10649:10714   */\n      tag_426\n        /* \"#utility.yul\":10706:10713   */\n      dup11\n        /* \"#utility.yul\":10697:10703   */\n      dup3\n        /* \"#utility.yul\":10686:10695   */\n      dup12\n        /* \"#utility.yul\":10682:10704   */\n      add\n        /* \"#utility.yul\":10649:10714   */\n      tag_243\n      jump\t// in\n    tag_426:\n        /* \"#utility.yul\":10631:10714   */\n      swap5\n      pop\n      swap5\n      pop\n        /* \"#utility.yul\":10426:10724   */\n      pop\n        /* \"#utility.yul\":10763:10765   */\n      0x60\n        /* \"#utility.yul\":10789:10842   */\n      tag_427\n        /* \"#utility.yul\":10834:10841   */\n      dup11\n        /* \"#utility.yul\":10825:10831   */\n      dup3\n        /* \"#utility.yul\":10814:10823   */\n      dup12\n        /* \"#utility.yul\":10810:10832   */\n      add\n        /* \"#utility.yul\":10789:10842   */\n      tag_246\n      jump\t// in\n    tag_427:\n        /* \"#utility.yul\":10779:10842   */\n      swap3\n      pop\n        /* \"#utility.yul\":10734:10852   */\n      pop\n        /* \"#utility.yul\":10891:10894   */\n      0x80\n        /* \"#utility.yul\":10918:10968   */\n      tag_428\n        /* \"#utility.yul\":10960:10967   */\n      dup11\n        /* \"#utility.yul\":10951:10957   */\n      dup3\n        /* \"#utility.yul\":10940:10949   */\n      dup12\n        /* \"#utility.yul\":10936:10958   */\n      add\n        /* \"#utility.yul\":10918:10968   */\n      tag_265\n      jump\t// in\n    tag_428:\n        /* \"#utility.yul\":10908:10968   */\n      swap2\n      pop\n        /* \"#utility.yul\":10862:10978   */\n      pop\n        /* \"#utility.yul\":9680:10985   */\n      swap3\n      swap6\n      swap9\n      swap2\n      swap5\n      swap8\n      pop\n      swap3\n      swap6\n      pop\n      jump\t// out\n        /* \"#utility.yul\":10991:11109   */\n    tag_266:\n        /* \"#utility.yul\":11078:11102   */\n      tag_430\n        /* \"#utility.yul\":11096:11101   */\n      dup2\n        /* \"#utility.yul\":11078:11102   */\n      tag_244\n      jump\t// in\n    tag_430:\n        /* \"#utility.yul\":11073:11076   */\n      dup3\n        /* \"#utility.yul\":11066:11103   */\n      mstore\n        /* \"#utility.yul\":10991:11109   */\n      pop\n      pop\n      jump\t// out\n        /* \"#utility.yul\":11115:11337   */\n    tag_85:\n        /* \"#utility.yul\":11208:11212   */\n      0x00\n        /* \"#utility.yul\":11246:11248   */\n      0x20\n        /* \"#utility.yul\":11235:11244   */\n      dup3\n        /* \"#utility.yul\":11231:11249   */\n      add\n        /* \"#utility.yul\":11223:11249   */\n      swap1\n      pop\n        /* \"#utility.yul\":11259:11330   */\n      tag_432\n        /* \"#utility.yul\":11327:11328   */\n      0x00\n        /* \"#utility.yul\":11316:11325   */\n      dup4\n        /* \"#utility.yul\":11312:11329   */\n      add\n        /* \"#utility.yul\":11303:11309   */\n      dup5\n        /* \"#utility.yul\":11259:11330   */\n      tag_266\n      jump\t// in\n    tag_432:\n        /* \"#utility.yul\":11115:11337   */\n      swap3\n      swap2\n      pop\n      pop\n      jump\t// out\n        /* \"#utility.yul\":11343:11512   */\n    tag_267:\n        /* \"#utility.yul\":11427:11438   */\n      0x00\n        /* \"#utility.yul\":11461:11467   */\n      dup3\n        /* \"#utility.yul\":11456:11459   */\n      dup3\n        /* \"#utility.yul\":11449:11468   */\n      mstore\n        /* \"#utility.yul\":11501:11505   */\n      0x20\n        /* \"#utility.yul\":11496:11499   */\n      dup3\n        /* \"#utility.yul\":11492:11506   */\n      add\n        /* \"#utility.yul\":11477:11506   */\n      swap1\n      pop\n        /* \"#utility.yul\":11343:11512   */\n      swap3\n      swap2\n      pop\n      pop\n      jump\t// out\n        /* \"#utility.yul\":11518:11748   */\n    tag_268:\n        /* \"#utility.yul\":11658:11692   */\n      0x53747265616d696e673a2053746172742074696d65206d75737420626520696e\n        /* \"#utility.yul\":11654:11655   */\n      0x00\n        /* \"#utility.yul\":11646:11652   */\n      dup3\n        /* \"#utility.yul\":11642:11656   */\n      add\n        /* \"#utility.yul\":11635:11693   */\n      mstore\n        /* \"#utility.yul\":11727:11740   */\n      0x2074686520667574757265000000000000000000000000000000000000000000\n        /* \"#utility.yul\":11722:11724   */\n      0x20\n        /* \"#utility.yul\":11714:11720   */\n      dup3\n        /* \"#utility.yul\":11710:11725   */\n      add\n        /* \"#utility.yul\":11703:11741   */\n      mstore\n        /* \"#utility.yul\":11518:11748   */\n      pop\n      jump\t// out\n        /* \"#utility.yul\":11754:12120   */\n    tag_269:\n        /* \"#utility.yul\":11896:11899   */\n      0x00\n        /* \"#utility.yul\":11917:11984   */\n      tag_436\n        /* \"#utility.yul\":11981:11983   */\n      0x2b\n        /* \"#utility.yul\":11976:11979   */\n      dup4\n        /* \"#utility.yul\":11917:11984   */\n      tag_267\n      jump\t// in\n    tag_436:\n        /* \"#utility.yul\":11910:11984   */\n      swap2\n      pop\n        /* \"#utility.yul\":11993:12086   */\n      tag_437\n        /* \"#utility.yul\":12082:12085   */\n      dup3\n        /* \"#utility.yul\":11993:12086   */\n      tag_268\n      jump\t// in\n    tag_437:\n        /* \"#utility.yul\":12111:12113   */\n      0x40\n        /* \"#utility.yul\":12106:12109   */\n      dup3\n        /* \"#utility.yul\":12102:12114   */\n      add\n        /* \"#utility.yul\":12095:12114   */\n      swap1\n      pop\n        /* \"#utility.yul\":11754:12120   */\n      swap2\n      swap1\n      pop\n      jump\t// out\n        /* \"#utility.yul\":12126:12545   */\n    tag_96:\n        /* \"#utility.yul\":12292:12296   */\n      0x00\n        /* \"#utility.yul\":12330:12332   */\n      0x20\n        /* \"#utility.yul\":12319:12328   */\n      dup3\n        /* \"#utility.yul\":12315:12333   */\n      add\n        /* \"#utility.yul\":12307:12333   */\n      swap1\n      pop\n        /* \"#utility.yul\":12379:12388   */\n      dup2\n        /* \"#utility.yul\":12373:12377   */\n      dup2\n        /* \"#utility.yul\":12369:12389   */\n      sub\n        /* \"#utility.yul\":12365:12366   */\n      0x00\n        /* \"#utility.yul\":12354:12363   */\n      dup4\n        /* \"#utility.yul\":12350:12367   */\n      add\n        /* \"#utility.yul\":12343:12390   */\n      mstore\n        /* \"#utility.yul\":12407:12538   */\n      tag_439\n        /* \"#utility.yul\":12533:12537   */\n      dup2\n        /* \"#utility.yul\":12407:12538   */\n      tag_269\n      jump\t// in\n    tag_439:\n        /* \"#utility.yul\":12399:12538   */\n      swap1\n      pop\n        /* \"#utility.yul\":12126:12545   */\n      swap2\n      swap1\n      pop\n      jump\t// out\n        /* \"#utility.yul\":12551:12699   */\n    tag_270:\n        /* \"#utility.yul\":12653:12664   */\n      0x00\n        /* \"#utility.yul\":12690:12693   */\n      dup2\n        /* \"#utility.yul\":12675:12693   */\n      swap1\n      pop\n        /* \"#utility.yul\":12551:12699   */\n      swap3\n      swap2\n      pop\n      pop\n      jump\t// out\n        /* \"#utility.yul\":12705:12851   */\n    tag_271:\n        /* \"#utility.yul\":12802:12808   */\n      dup3\n        /* \"#utility.yul\":12797:12800   */\n      dup2\n        /* \"#utility.yul\":12792:12795   */\n      dup4\n        /* \"#utility.yul\":12779:12809   */\n      calldatacopy\n        /* \"#utility.yul\":12843:12844   */\n      0x00\n        /* \"#utility.yul\":12834:12840   */\n      dup4\n        /* \"#utility.yul\":12829:12832   */\n      dup4\n        /* \"#utility.yul\":12825:12841   */\n      add\n        /* \"#utility.yul\":12818:12845   */\n      mstore\n        /* \"#utility.yul\":12705:12851   */\n      pop\n      pop\n      pop\n      jump\t// out\n        /* \"#utility.yul\":12881:13211   */\n    tag_272:\n        /* \"#utility.yul\":12997:13000   */\n      0x00\n        /* \"#utility.yul\":13018:13107   */\n      tag_443\n        /* \"#utility.yul\":13100:13106   */\n      dup4\n        /* \"#utility.yul\":13095:13098   */\n      dup6\n        /* \"#utility.yul\":13018:13107   */\n      tag_270\n      jump\t// in\n    tag_443:\n        /* \"#utility.yul\":13011:13107   */\n      swap4\n      pop\n        /* \"#utility.yul\":13117:13173   */\n      tag_444\n        /* \"#utility.yul\":13166:13172   */\n      dup4\n        /* \"#utility.yul\":13161:13164   */\n      dup6\n        /* \"#utility.yul\":13154:13159   */\n      dup5\n        /* \"#utility.yul\":13117:13173   */\n      tag_271\n      jump\t// in\n    tag_444:\n        /* \"#utility.yul\":13198:13204   */\n      dup3\n        /* \"#utility.yul\":13193:13196   */\n      dup5\n        /* \"#utility.yul\":13189:13205   */\n      add\n        /* \"#utility.yul\":13182:13205   */\n      swap1\n      pop\n        /* \"#utility.yul\":12881:13211   */\n      swap4\n      swap3\n      pop\n      pop\n      pop\n      jump\t// out\n        /* \"#utility.yul\":13217:13311   */\n    tag_273:\n        /* \"#utility.yul\":13250:13258   */\n      0x00\n        /* \"#utility.yul\":13298:13303   */\n      dup2\n        /* \"#utility.yul\":13294:13296   */\n      0x60\n        /* \"#utility.yul\":13290:13304   */\n      shl\n        /* \"#utility.yul\":13269:13304   */\n      swap1\n      pop\n        /* \"#utility.yul\":13217:13311   */\n      swap2\n      swap1\n      pop\n      jump\t// out\n        /* \"#utility.yul\":13317:13411   */\n    tag_274:\n        /* \"#utility.yul\":13356:13363   */\n      0x00\n        /* \"#utility.yul\":13385:13405   */\n      tag_447\n        /* \"#utility.yul\":13399:13404   */\n      dup3\n        /* \"#utility.yul\":13385:13405   */\n      tag_273\n      jump\t// in\n    tag_447:\n        /* \"#utility.yul\":13374:13405   */\n      swap1\n      pop\n        /* \"#utility.yul\":13317:13411   */\n      swap2\n      swap1\n      pop\n      jump\t// out\n        /* \"#utility.yul\":13417:13517   */\n    tag_275:\n        /* \"#utility.yul\":13456:13463   */\n      0x00\n        /* \"#utility.yul\":13485:13511   */\n      tag_449\n        /* \"#utility.yul\":13505:13510   */\n      dup3\n        /* \"#utility.yul\":13485:13511   */\n      tag_274\n      jump\t// in\n    tag_449:\n        /* \"#utility.yul\":13474:13511   */\n      swap1\n      pop\n        /* \"#utility.yul\":13417:13517   */\n      swap2\n      swap1\n      pop\n      jump\t// out\n        /* \"#utility.yul\":13523:13680   */\n    tag_276:\n        /* \"#utility.yul\":13628:13673   */\n      tag_451\n        /* \"#utility.yul\":13648:13672   */\n      tag_452\n        /* \"#utility.yul\":13666:13671   */\n      dup3\n        /* \"#utility.yul\":13648:13672   */\n      tag_252\n      jump\t// in\n    tag_452:\n        /* \"#utility.yul\":13628:13673   */\n      tag_275\n      jump\t// in\n    tag_451:\n        /* \"#utility.yul\":13623:13626   */\n      dup3\n        /* \"#utility.yul\":13616:13674   */\n      mstore\n        /* \"#utility.yul\":13523:13680   */\n      pop\n      pop\n      jump\t// out\n        /* \"#utility.yul\":13686:13765   */\n    tag_277:\n        /* \"#utility.yul\":13725:13732   */\n      0x00\n        /* \"#utility.yul\":13754:13759   */\n      dup2\n        /* \"#utility.yul\":13743:13759   */\n      swap1\n      pop\n        /* \"#utility.yul\":13686:13765   */\n      swap2\n      swap1\n      pop\n      jump\t// out\n        /* \"#utility.yul\":13771:13928   */\n    tag_278:\n        /* \"#utility.yul\":13876:13921   */\n      tag_455\n        /* \"#utility.yul\":13896:13920   */\n      tag_456\n        /* \"#utility.yul\":13914:13919   */\n      dup3\n        /* \"#utility.yul\":13896:13920   */\n      tag_244\n      jump\t// in\n    tag_456:\n        /* \"#utility.yul\":13876:13921   */\n      tag_277\n      jump\t// in\n    tag_455:\n        /* \"#utility.yul\":13871:13874   */\n      dup3\n        /* \"#utility.yul\":13864:13922   */\n      mstore\n        /* \"#utility.yul\":13771:13928   */\n      pop\n      pop\n      jump\t// out\n        /* \"#utility.yul\":13934:14691   */\n    tag_98:\n        /* \"#utility.yul\":14190:14193   */\n      0x00\n        /* \"#utility.yul\":14212:14317   */\n      tag_458\n        /* \"#utility.yul\":14313:14316   */\n      dup3\n        /* \"#utility.yul\":14304:14310   */\n      dup9\n        /* \"#utility.yul\":14296:14302   */\n      dup11\n        /* \"#utility.yul\":14212:14317   */\n      tag_272\n      jump\t// in\n    tag_458:\n        /* \"#utility.yul\":14205:14317   */\n      swap2\n      pop\n        /* \"#utility.yul\":14334:14439   */\n      tag_459\n        /* \"#utility.yul\":14435:14438   */\n      dup3\n        /* \"#utility.yul\":14426:14432   */\n      dup7\n        /* \"#utility.yul\":14418:14424   */\n      dup9\n        /* \"#utility.yul\":14334:14439   */\n      tag_272\n      jump\t// in\n    tag_459:\n        /* \"#utility.yul\":14327:14439   */\n      swap2\n      pop\n        /* \"#utility.yul\":14449:14524   */\n      tag_460\n        /* \"#utility.yul\":14520:14523   */\n      dup3\n        /* \"#utility.yul\":14511:14517   */\n      dup6\n        /* \"#utility.yul\":14449:14524   */\n      tag_276\n      jump\t// in\n    tag_460:\n        /* \"#utility.yul\":14549:14551   */\n      0x14\n        /* \"#utility.yul\":14544:14547   */\n      dup3\n        /* \"#utility.yul\":14540:14552   */\n      add\n        /* \"#utility.yul\":14533:14552   */\n      swap2\n      pop\n        /* \"#utility.yul\":14562:14637   */\n      tag_461\n        /* \"#utility.yul\":14633:14636   */\n      dup3\n        /* \"#utility.yul\":14624:14630   */\n      dup5\n        /* \"#utility.yul\":14562:14637   */\n      tag_278\n      jump\t// in\n    tag_461:\n        /* \"#utility.yul\":14662:14664   */\n      0x20\n        /* \"#utility.yul\":14657:14660   */\n      dup3\n        /* \"#utility.yul\":14653:14665   */\n      add\n        /* \"#utility.yul\":14646:14665   */\n      swap2\n      pop\n        /* \"#utility.yul\":14682:14685   */\n      dup2\n        /* \"#utility.yul\":14675:14685   */\n      swap1\n      pop\n        /* \"#utility.yul\":13934:14691   */\n      swap8\n      swap7\n      pop\n      pop\n      pop\n      pop\n      pop\n      pop\n      pop\n      jump\t// out\n        /* \"#utility.yul\":14697:14924   */\n    tag_279:\n        /* \"#utility.yul\":14837:14871   */\n      0x53747265616d696e673a2053747265616d2073657373696f6e20616c72656164\n        /* \"#utility.yul\":14833:14834   */\n      0x00\n        /* \"#utility.yul\":14825:14831   */\n      dup3\n        /* \"#utility.yul\":14821:14835   */\n      add\n        /* \"#utility.yul\":14814:14872   */\n      mstore\n        /* \"#utility.yul\":14906:14916   */\n      0x7920657869737473000000000000000000000000000000000000000000000000\n        /* \"#utility.yul\":14901:14903   */\n      0x20\n        /* \"#utility.yul\":14893:14899   */\n      dup3\n        /* \"#utility.yul\":14889:14904   */\n      add\n        /* \"#utility.yul\":14882:14917   */\n      mstore\n        /* \"#utility.yul\":14697:14924   */\n      pop\n      jump\t// out\n        /* \"#utility.yul\":14930:15296   */\n    tag_280:\n        /* \"#utility.yul\":15072:15075   */\n      0x00\n        /* \"#utility.yul\":15093:15160   */\n      tag_464\n        /* \"#utility.yul\":15157:15159   */\n      0x28\n        /* \"#utility.yul\":15152:15155   */\n      dup4\n        /* \"#utility.yul\":15093:15160   */\n      tag_267\n      jump\t// in\n    tag_464:\n        /* \"#utility.yul\":15086:15160   */\n      swap2\n      pop\n        /* \"#utility.yul\":15169:15262   */\n      tag_465\n        /* \"#utility.yul\":15258:15261   */\n      dup3\n        /* \"#utility.yul\":15169:15262   */\n      tag_279\n      jump\t// in\n    tag_465:\n        /* \"#utility.yul\":15287:15289   */\n      0x40\n        /* \"#utility.yul\":15282:15285   */\n      dup3\n        /* \"#utility.yul\":15278:15290   */\n      add\n        /* \"#utility.yul\":15271:15290   */\n      swap1\n      pop\n        /* \"#utility.yul\":14930:15296   */\n      swap2\n      swap1\n      pop\n      jump\t// out\n        /* \"#utility.yul\":15302:15721   */\n    tag_103:\n        /* \"#utility.yul\":15468:15472   */\n      0x00\n        /* \"#utility.yul\":15506:15508   */\n      0x20\n        /* \"#utility.yul\":15495:15504   */\n      dup3\n        /* \"#utility.yul\":15491:15509   */\n      add\n        /* \"#utility.yul\":15483:15509   */\n      swap1\n      pop\n        /* \"#utility.yul\":15555:15564   */\n      dup2\n        /* \"#utility.yul\":15549:15553   */\n      dup2\n        /* \"#utility.yul\":15545:15565   */\n      sub\n        /* \"#utility.yul\":15541:15542   */\n      0x00\n        /* \"#utility.yul\":15530:15539   */\n      dup4\n        /* \"#utility.yul\":15526:15543   */\n      add\n        /* \"#utility.yul\":15519:15566   */\n      mstore\n        /* \"#utility.yul\":15583:15714   */\n      tag_467\n        /* \"#utility.yul\":15709:15713   */\n      dup2\n        /* \"#utility.yul\":15583:15714   */\n      tag_280\n      jump\t// in\n    tag_467:\n        /* \"#utility.yul\":15575:15714   */\n      swap1\n      pop\n        /* \"#utility.yul\":15302:15721   */\n      swap2\n      swap1\n      pop\n      jump\t// out\n        /* \"#utility.yul\":15727:15907   */\n    tag_281:\n        /* \"#utility.yul\":15775:15852   */\n      0x4e487b7100000000000000000000000000000000000000000000000000000000\n        /* \"#utility.yul\":15772:15773   */\n      0x00\n        /* \"#utility.yul\":15765:15853   */\n      mstore\n        /* \"#utility.yul\":15872:15876   */\n      0x41\n        /* \"#utility.yul\":15869:15870   */\n      0x04\n        /* \"#utility.yul\":15862:15877   */\n      mstore\n        /* \"#utility.yul\":15896:15900   */\n      0x24\n        /* \"#utility.yul\":15893:15894   */\n      0x00\n        /* \"#utility.yul\":15886:15901   */\n      revert\n        /* \"#utility.yul\":15913:16093   */\n    tag_282:\n        /* \"#utility.yul\":15961:16038   */\n      0x4e487b7100000000000000000000000000000000000000000000000000000000\n        /* \"#utility.yul\":15958:15959   */\n      0x00\n        /* \"#utility.yul\":15951:16039   */\n      mstore\n        /* \"#utility.yul\":16058:16062   */\n      0x22\n        /* \"#utility.yul\":16055:16056   */\n      0x04\n        /* \"#utility.yul\":16048:16063   */\n      mstore\n        /* \"#utility.yul\":16082:16086   */\n      0x24\n        /* \"#utility.yul\":16079:16080   */\n      0x00\n        /* \"#utility.yul\":16072:16087   */\n      revert\n        /* \"#utility.yul\":16099:16419   */\n    tag_126:\n        /* \"#utility.yul\":16143:16149   */\n      0x00\n        /* \"#utility.yul\":16180:16181   */\n      0x02\n        /* \"#utility.yul\":16174:16178   */\n      dup3\n        /* \"#utility.yul\":16170:16182   */\n      div\n        /* \"#utility.yul\":16160:16182   */\n      swap1\n      pop\n        /* \"#utility.yul\":16227:16228   */\n      0x01\n        /* \"#utility.yul\":16221:16225   */\n      dup3\n        /* \"#utility.yul\":16217:16229   */\n      and\n        /* \"#utility.yul\":16248:16266   */\n      dup1\n        /* \"#utility.yul\":16238:16319   */\n      tag_471\n      jumpi\n        /* \"#utility.yul\":16304:16308   */\n      0x7f\n        /* \"#utility.yul\":16296:16302   */\n      dup3\n        /* \"#utility.yul\":16292:16309   */\n      and\n        /* \"#utility.yul\":16282:16309   */\n      swap2\n      pop\n        /* \"#utility.yul\":16238:16319   */\n    tag_471:\n        /* \"#utility.yul\":16366:16368   */\n      0x20\n        /* \"#utility.yul\":16358:16364   */\n      dup3\n        /* \"#utility.yul\":16355:16369   */\n      lt\n        /* \"#utility.yul\":16335:16353   */\n      dup2\n        /* \"#utility.yul\":16332:16370   */\n      sub\n        /* \"#utility.yul\":16329:16413   */\n      tag_472\n      jumpi\n        /* \"#utility.yul\":16385:16403   */\n      tag_473\n      tag_282\n      jump\t// in\n    tag_473:\n        /* \"#utility.yul\":16329:16413   */\n    tag_472:\n        /* \"#utility.yul\":16150:16419   */\n      pop\n        /* \"#utility.yul\":16099:16419   */\n      swap2\n      swap1\n      pop\n      jump\t// out\n        /* \"#utility.yul\":16425:16566   */\n    tag_283:\n        /* \"#utility.yul\":16474:16478   */\n      0x00\n        /* \"#utility.yul\":16497:16500   */\n      dup2\n        /* \"#utility.yul\":16489:16500   */\n      swap1\n      pop\n        /* \"#utility.yul\":16520:16523   */\n      dup2\n        /* \"#utility.yul\":16517:16518   */\n      0x00\n        /* \"#utility.yul\":16510:16524   */\n      mstore\n        /* \"#utility.yul\":16554:16558   */\n      0x20\n        /* \"#utility.yul\":16551:16552   */\n      0x00\n        /* \"#utility.yul\":16541:16559   */\n      keccak256\n        /* \"#utility.yul\":16533:16559   */\n      swap1\n      pop\n        /* \"#utility.yul\":16425:16566   */\n      swap2\n      swap1\n      pop\n      jump\t// out\n        /* \"#utility.yul\":16572:16665   */\n    tag_284:\n        /* \"#utility.yul\":16609:16615   */\n      0x00\n        /* \"#utility.yul\":16656:16658   */\n      0x20\n        /* \"#utility.yul\":16651:16653   */\n      0x1f\n        /* \"#utility.yul\":16644:16649   */\n      dup4\n        /* \"#utility.yul\":16640:16654   */\n      add\n        /* \"#utility.yul\":16636:16659   */\n      div\n        /* \"#utility.yul\":16626:16659   */\n      swap1\n      pop\n        /* \"#utility.yul\":16572:16665   */\n      swap2\n      swap1\n      pop\n      jump\t// out\n        /* \"#utility.yul\":16671:16778   */\n    tag_285:\n        /* \"#utility.yul\":16715:16723   */\n      0x00\n        /* \"#utility.yul\":16765:16770   */\n      dup3\n        /* \"#utility.yul\":16759:16763   */\n      dup3\n        /* \"#utility.yul\":16755:16771   */\n      shl\n        /* \"#utility.yul\":16734:16771   */\n      swap1\n      pop\n        /* \"#utility.yul\":16671:16778   */\n      swap3\n      swap2\n      pop\n      pop\n      jump\t// out\n        /* \"#utility.yul\":16784:17177   */\n    tag_286:\n        /* \"#utility.yul\":16853:16859   */\n      0x00\n        /* \"#utility.yul\":16903:16904   */\n      0x08\n        /* \"#utility.yul\":16891:16901   */\n      dup4\n        /* \"#utility.yul\":16887:16905   */\n      mul\n        /* \"#utility.yul\":16926:17023   */\n      tag_478\n        /* \"#utility.yul\":16956:17022   */\n      0xffffffffffffffffffffffffffffffffffffffffffffffffffffffffffffffff\n        /* \"#utility.yul\":16945:16954   */\n      dup3\n        /* \"#utility.yul\":16926:17023   */\n      tag_285\n      jump\t// in\n    tag_478:\n        /* \"#utility.yul\":17044:17083   */\n      tag_479\n        /* \"#utility.yul\":17074:17082   */\n      dup7\n        /* \"#utility.yul\":17063:17072   */\n      dup4\n        /* \"#utility.yul\":17044:17083   */\n      tag_285\n      jump\t// in\n    tag_479:\n        /* \"#utility.yul\":17032:17083   */\n      swap6\n      pop\n        /* \"#utility.yul\":17116:17120   */\n      dup1\n        /* \"#utility.yul\":17112:17121   */\n      not\n        /* \"#utility.yul\":17105:17110   */\n      dup5\n        /* \"#utility.yul\":17101:17122   */\n      and\n        /* \"#utility.yul\":17092:17122   */\n      swap4\n      pop\n        /* \"#utility.yul\":17165:17169   */\n      dup1\n        /* \"#utility.yul\":17155:17163   */\n      dup7\n        /* \"#utility.yul\":17151:17170   */\n      and\n        /* \"#utility.yul\":17144:17149   */\n      dup5\n        /* \"#utility.yul\":17141:17171   */\n      or\n        /* \"#utility.yul\":17131:17171   */\n      swap3\n      pop\n        /* \"#utility.yul\":16860:17177   */\n      pop\n      pop\n        /* \"#utility.yul\":16784:17177   */\n      swap4\n      swap3\n      pop\n      pop\n      pop\n      jump\t// out\n        /* \"#utility.yul\":17183:17243   */\n    tag_287:\n        /* \"#utility.yul\":17211:17214   */\n      0x00\n        /* \"#utility.yul\":17232:17237   */\n      dup2\n        /* \"#utility.yul\":17225:17237   */\n      swap1\n      pop\n        /* \"#utility.yul\":17183:17243   */\n      swap2\n      swap1\n      pop\n      jump\t// out\n        /* \"#utility.yul\":17249:17391   */\n    tag_288:\n        /* \"#utility.yul\":17299:17308   */\n      0x00\n        /* \"#utility.yul\":17332:17385   */\n      tag_482\n        /* \"#utility.yul\":17350:17384   */\n      tag_483\n        /* \"#utility.yul\":17359:17383   */\n      tag_484\n        /* \"#utility.yul\":17377:17382   */\n      dup5\n        /* \"#utility.yul\":17359:17383   */\n      tag_244\n      jump\t// in\n    tag_484:\n        /* \"#utility.yul\":17350:17384   */\n      tag_287\n      jump\t// in\n    tag_483:\n        /* \"#utility.yul\":17332:17385   */\n      tag_244\n      jump\t// in\n    tag_482:\n        /* \"#utility.yul\":17319:17385   */\n      swap1\n      pop\n        /* \"#utility.yul\":17249:17391   */\n      swap2\n      swap1\n      pop\n      jump\t// out\n        /* \"#utility.yul\":17397:17472   */\n    tag_289:\n        /* \"#utility.yul\":17440:17443   */\n      0x00\n        /* \"#utility.yul\":17461:17466   */\n      dup2\n        /* \"#utility.yul\":17454:17466   */\n      swap1\n      pop\n        /* \"#utility.yul\":17397:17472   */\n      swap2\n      swap1\n      pop\n      jump\t// out\n        /* \"#utility.yul\":17478:17747   */\n    tag_290:\n        /* \"#utility.yul\":17588:17627   */\n      tag_487\n        /* \"#utility.yul\":17619:17626   */\n      dup4\n        /* \"#utility.yul\":17588:17627   */\n      tag_288\n      jump\t// in\n    tag_487:\n        /* \"#utility.yul\":17649:17740   */\n      tag_488\n        /* \"#utility.yul\":17698:17739   */\n      tag_489\n        /* \"#utility.yul\":17722:17738   */\n      dup3\n        /* \"#utility.yul\":17698:17739   */\n      tag_289\n      jump\t// in\n    tag_489:\n        /* \"#utility.yul\":17690:17696   */\n      dup5\n        /* \"#utility.yul\":17683:17687   */\n      dup5\n        /* \"#utility.yul\":17677:17688   */\n      sload\n        /* \"#utility.yul\":17649:17740   */\n      tag_286\n      jump\t// in\n    tag_488:\n        /* \"#utility.yul\":17643:17647   */\n      dup3\n        /* \"#utility.yul\":17636:17741   */\n      sstore\n        /* \"#utility.yul\":17554:17747   */\n      pop\n        /* \"#utility.yul\":17478:17747   */\n      pop\n      pop\n      pop\n      jump\t// out\n        /* \"#utility.yul\":17753:17826   */\n    tag_291:\n        /* \"#utility.yul\":17798:17801   */\n      0x00\n        /* \"#utility.yul\":17753:17826   */\n      swap1\n      jump\t// out\n        /* \"#utility.yul\":17832:18021   */\n    tag_292:\n        /* \"#utility.yul\":17909:17941   */\n      tag_492\n      tag_291\n      jump\t// in\n    tag_492:\n        /* \"#utility.yul\":17950:18015   */\n      tag_493\n        /* \"#utility.yul\":18008:18014   */\n      dup2\n        /* \"#utility.yul\":18000:18006   */\n      dup5\n        /* \"#utility.yul\":17994:17998   */\n      dup5\n        /* \"#utility.yul\":17950:18015   */\n      tag_290\n      jump\t// in\n    tag_493:\n        /* \"#utility.yul\":17885:18021   */\n      pop\n        /* \"#utility.yul\":17832:18021   */\n      pop\n      pop\n      jump\t// out\n        /* \"#utility.yul\":18027:18213   */\n    tag_293:\n        /* \"#utility.yul\":18087:18207   */\n    tag_495:\n        /* \"#utility.yul\":18104:18107   */\n      dup2\n        /* \"#utility.yul\":18097:18102   */\n      dup2\n        /* \"#utility.yul\":18094:18108   */\n      lt\n        /* \"#utility.yul\":18087:18207   */\n      iszero\n      tag_497\n      jumpi\n        /* \"#utility.yul\":18158:18197   */\n      tag_498\n        /* \"#utility.yul\":18195:18196   */\n      0x00\n        /* \"#utility.yul\":18188:18193   */\n      dup3\n        /* \"#utility.yul\":18158:18197   */\n      tag_292\n      jump\t// in\n    tag_498:\n        /* \"#utility.yul\":18131:18132   */\n      0x01\n        /* \"#utility.yul\":18124:18129   */\n      dup2\n        /* \"#utility.yul\":18120:18133   */\n      add\n        /* \"#utility.yul\":18111:18133   */\n      swap1\n      pop\n        /* \"#utility.yul\":18087:18207   */\n      jump(tag_495)\n    tag_497:\n        /* \"#utility.yul\":18027:18213   */\n      pop\n      pop\n      jump\t// out\n        /* \"#utility.yul\":18219:18762   */\n    tag_294:\n        /* \"#utility.yul\":18320:18322   */\n      0x1f\n        /* \"#utility.yul\":18315:18318   */\n      dup3\n        /* \"#utility.yul\":18312:18323   */\n      gt\n        /* \"#utility.yul\":18309:18755   */\n      iszero\n      tag_500\n      jumpi\n        /* \"#utility.yul\":18354:18392   */\n      tag_501\n        /* \"#utility.yul\":18386:18391   */\n      dup2\n        /* \"#utility.yul\":18354:18392   */\n      tag_283\n      jump\t// in\n    tag_501:\n        /* \"#utility.yul\":18438:18467   */\n      tag_502\n        /* \"#utility.yul\":18456:18466   */\n      dup5\n        /* \"#utility.yul\":18438:18467   */\n      tag_284\n      jump\t// in\n    tag_502:\n        /* \"#utility.yul\":18428:18436   */\n      dup2\n        /* \"#utility.yul\":18424:18468   */\n      add\n        /* \"#utility.yul\":18621:18623   */\n      0x20\n        /* \"#utility.yul\":18609:18619   */\n      dup6\n        /* \"#utility.yul\":18606:18624   */\n      lt\n        /* \"#utility.yul\":18603:18652   */\n      iszero\n      tag_503\n      jumpi\n        /* \"#utility.yul\":18642:18650   */\n      dup2\n        /* \"#utility.yul\":18627:18650   */\n      swap1\n      pop\n        /* \"#utility.yul\":18603:18652   */\n    tag_503:\n        /* \"#utility.yul\":18665:18745   */\n      tag_504\n        /* \"#utility.yul\":18721:18743   */\n      tag_505\n        /* \"#utility.yul\":18739:18742   */\n      dup6\n        /* \"#utility.yul\":18721:18743   */\n      tag_284\n      jump\t// in\n    tag_505:\n        /* \"#utility.yul\":18711:18719   */\n      dup4\n        /* \"#utility.yul\":18707:18744   */\n      add\n        /* \"#utility.yul\":18694:18705   */\n      dup3\n        /* \"#utility.yul\":18665:18745   */\n      tag_293\n      jump\t// in\n    tag_504:\n        /* \"#utility.yul\":18324:18755   */\n      pop\n      pop\n        /* \"#utility.yul\":18309:18755   */\n    tag_500:\n        /* \"#utility.yul\":18219:18762   */\n      pop\n      pop\n      pop\n      jump\t// out\n        /* \"#utility.yul\":18768:18885   */\n    tag_295:\n        /* \"#utility.yul\":18822:18830   */\n      0x00\n        /* \"#utility.yul\":18872:18877   */\n      dup3\n        /* \"#utility.yul\":18866:18870   */\n      dup3\n        /* \"#utility.yul\":18862:18878   */\n      shr\n        /* \"#utility.yul\":18841:18878   */\n      swap1\n      pop\n        /* \"#utility.yul\":18768:18885   */\n      swap3\n      swap2\n      pop\n      pop\n      jump\t// out\n        /* \"#utility.yul\":18891:19060   */\n    tag_296:\n        /* \"#utility.yul\":18935:18941   */\n      0x00\n        /* \"#utility.yul\":18968:19019   */\n      tag_508\n        /* \"#utility.yul\":19016:19017   */\n      0x00\n        /* \"#utility.yul\":19012:19018   */\n      not\n        /* \"#utility.yul\":19004:19009   */\n      dup5\n        /* \"#utility.yul\":19001:19002   */\n      0x08\n        /* \"#utility.yul\":18997:19010   */\n      mul\n        /* \"#utility.yul\":18968:19019   */\n      tag_295\n      jump\t// in\n    tag_508:\n        /* \"#utility.yul\":18964:19020   */\n      not\n        /* \"#utility.yul\":19049:19053   */\n      dup1\n        /* \"#utility.yul\":19043:19047   */\n      dup4\n        /* \"#utility.yul\":19039:19054   */\n      and\n        /* \"#utility.yul\":19029:19054   */\n      swap2\n      pop\n        /* \"#utility.yul\":18942:19060   */\n      pop\n        /* \"#utility.yul\":18891:19060   */\n      swap3\n      swap2\n      pop\n      pop\n      jump\t// out\n        /* \"#utility.yul\":19065:19360   */\n    tag_297:\n        /* \"#utility.yul\":19141:19145   */\n      0x00\n        /* \"#utility.yul\":19287:19316   */\n      tag_510\n        /* \"#utility.yul\":19312:19315   */\n      dup4\n        /* \"#utility.yul\":19306:19310   */\n      dup4\n        /* \"#utility.yul\":19287:19316   */\n      tag_296\n      jump\t// in\n    tag_510:\n        /* \"#utility.yul\":19279:19316   */\n      swap2\n      pop\n        /* \"#utility.yul\":19349:19352   */\n      dup3\n        /* \"#utility.yul\":19346:19347   */\n      0x02\n        /* \"#utility.yul\":19342:19353   */\n      mul\n        /* \"#utility.yul\":19336:19340   */\n      dup3\n        /* \"#utility.yul\":19333:19354   */\n      or\n        /* \"#utility.yul\":19325:19354   */\n      swap1\n      pop\n        /* \"#utility.yul\":19065:19360   */\n      swap3\n      swap2\n      pop\n      pop\n      jump\t// out\n        /* \"#utility.yul\":19365:20760   */\n    tag_105:\n        /* \"#utility.yul\":19482:19519   */\n      tag_512\n        /* \"#utility.yul\":19515:19518   */\n      dup3\n        /* \"#utility.yul\":19482:19519   */\n      tag_255\n      jump\t// in\n    tag_512:\n        /* \"#utility.yul\":19584:19602   */\n      0xffffffffffffffff\n        /* \"#utility.yul\":19576:19582   */\n      dup2\n        /* \"#utility.yul\":19573:19603   */\n      gt\n        /* \"#utility.yul\":19570:19626   */\n      iszero\n      tag_513\n      jumpi\n        /* \"#utility.yul\":19606:19624   */\n      tag_514\n      tag_281\n      jump\t// in\n    tag_514:\n        /* \"#utility.yul\":19570:19626   */\n    tag_513:\n        /* \"#utility.yul\":19650:19688   */\n      tag_515\n        /* \"#utility.yul\":19682:19686   */\n      dup3\n        /* \"#utility.yul\":19676:19687   */\n      sload\n        /* \"#utility.yul\":19650:19688   */\n      tag_126\n      jump\t// in\n    tag_515:\n        /* \"#utility.yul\":19735:19802   */\n      tag_516\n        /* \"#utility.yul\":19795:19801   */\n      dup3\n        /* \"#utility.yul\":19787:19793   */\n      dup3\n        /* \"#utility.yul\":19781:19785   */\n      dup6\n        /* \"#utility.yul\":19735:19802   */\n      tag_294\n      jump\t// in\n    tag_516:\n        /* \"#utility.yul\":19829:19830   */\n      0x00\n        /* \"#utility.yul\":19853:19857   */\n      0x20\n        /* \"#utility.yul\":19840:19857   */\n      swap1\n      pop\n        /* \"#utility.yul\":19885:19887   */\n      0x1f\n        /* \"#utility.yul\":19877:19883   */\n      dup4\n        /* \"#utility.yul\":19874:19888   */\n      gt\n        /* \"#utility.yul\":19902:19903   */\n      0x01\n        /* \"#utility.yul\":19897:20515   */\n      dup2\n      eq\n      tag_518\n      jumpi\n        /* \"#utility.yul\":20559:20560   */\n      0x00\n        /* \"#utility.yul\":20576:20582   */\n      dup5\n        /* \"#utility.yul\":20573:20650   */\n      iszero\n      tag_519\n      jumpi\n        /* \"#utility.yul\":20625:20634   */\n      dup3\n        /* \"#utility.yul\":20620:20623   */\n      dup8\n        /* \"#utility.yul\":20616:20635   */\n      add\n        /* \"#utility.yul\":20610:20636   */\n      mload\n        /* \"#utility.yul\":20601:20636   */\n      swap1\n      pop\n        /* \"#utility.yul\":20573:20650   */\n    tag_519:\n        /* \"#utility.yul\":20676:20743   */\n      tag_520\n        /* \"#utility.yul\":20736:20742   */\n      dup6\n        /* \"#utility.yul\":20729:20734   */\n      dup3\n        /* \"#utility.yul\":20676:20743   */\n      tag_297\n      jump\t// in\n    tag_520:\n        /* \"#utility.yul\":20670:20674   */\n      dup7\n        /* \"#utility.yul\":20663:20744   */\n      sstore\n        /* \"#utility.yul\":20532:20754   */\n      pop\n        /* \"#utility.yul\":19867:20754   */\n      jump(tag_517)\n        /* \"#utility.yul\":19897:20515   */\n    tag_518:\n        /* \"#utility.yul\":19949:19953   */\n      0x1f\n        /* \"#utility.yul\":19945:19954   */\n      not\n        /* \"#utility.yul\":19937:19943   */\n      dup5\n        /* \"#utility.yul\":19933:19955   */\n      and\n        /* \"#utility.yul\":19983:20020   */\n      tag_521\n        /* \"#utility.yul\":20015:20019   */\n      dup7\n        /* \"#utility.yul\":19983:20020   */\n      tag_283\n      jump\t// in\n    tag_521:\n        /* \"#utility.yul\":20042:20043   */\n      0x00\n        /* \"#utility.yul\":20056:20264   */\n    tag_522:\n        /* \"#utility.yul\":20070:20077   */\n      dup3\n        /* \"#utility.yul\":20067:20068   */\n      dup2\n        /* \"#utility.yul\":20064:20078   */\n      lt\n        /* \"#utility.yul\":20056:20264   */\n      iszero\n      tag_524\n      jumpi\n        /* \"#utility.yul\":20149:20158   */\n      dup5\n        /* \"#utility.yul\":20144:20147   */\n      dup10\n        /* \"#utility.yul\":20140:20159   */\n      add\n        /* \"#utility.yul\":20134:20160   */\n      mload\n        /* \"#utility.yul\":20126:20132   */\n      dup3\n        /* \"#utility.yul\":20119:20161   */\n      sstore\n        /* \"#utility.yul\":20200:20201   */\n      0x01\n        /* \"#utility.yul\":20192:20198   */\n      dup3\n        /* \"#utility.yul\":20188:20202   */\n      add\n        /* \"#utility.yul\":20178:20202   */\n      swap2\n      pop\n        /* \"#utility.yul\":20247:20249   */\n      0x20\n        /* \"#utility.yul\":20236:20245   */\n      dup6\n        /* \"#utility.yul\":20232:20250   */\n      add\n        /* \"#utility.yul\":20219:20250   */\n      swap5\n      pop\n        /* \"#utility.yul\":20093:20097   */\n      0x20\n        /* \"#utility.yul\":20090:20091   */\n      dup2\n        /* \"#utility.yul\":20086:20098   */\n      add\n        /* \"#utility.yul\":20081:20098   */\n      swap1\n      pop\n        /* \"#utility.yul\":20056:20264   */\n      jump(tag_522)\n    tag_524:\n        /* \"#utility.yul\":20292:20298   */\n      dup7\n        /* \"#utility.yul\":20283:20290   */\n      dup4\n        /* \"#utility.yul\":20280:20299   */\n      lt\n        /* \"#utility.yul\":20277:20456   */\n      iszero\n      tag_525\n      jumpi\n        /* \"#utility.yul\":20350:20359   */\n      dup5\n        /* \"#utility.yul\":20345:20348   */\n      dup10\n        /* \"#utility.yul\":20341:20360   */\n      add\n        /* \"#utility.yul\":20335:20361   */\n      mload\n        /* \"#utility.yul\":20393:20441   */\n      tag_526\n        /* \"#utility.yul\":20435:20439   */\n      0x1f\n        /* \"#utility.yul\":20427:20433   */\n      dup10\n        /* \"#utility.yul\":20423:20440   */\n      and\n        /* \"#utility.yul\":20412:20421   */\n      dup3\n        /* \"#utility.yul\":20393:20441   */\n      tag_296\n      jump\t// in\n    tag_526:\n        /* \"#utility.yul\":20385:20391   */\n      dup4\n        /* \"#utility.yul\":20378:20442   */\n      sstore\n        /* \"#utility.yul\":20300:20456   */\n      pop\n        /* \"#utility.yul\":20277:20456   */\n    tag_525:\n        /* \"#utility.yul\":20502:20503   */\n      0x01\n        /* \"#utility.yul\":20498:20499   */\n      0x02\n        /* \"#utility.yul\":20490:20496   */\n      dup9\n        /* \"#utility.yul\":20486:20500   */\n      mul\n        /* \"#utility.yul\":20482:20504   */\n      add\n        /* \"#utility.yul\":20476:20480   */\n      dup9\n        /* \"#utility.yul\":20469:20505   */\n      sstore\n        /* \"#utility.yul\":19904:20515   */\n      pop\n      pop\n      pop\n        /* \"#utility.yul\":19867:20754   */\n    tag_517:\n      pop\n        /* \"#utility.yul\":19457:20760   */\n      pop\n      pop\n      pop\n        /* \"#utility.yul\":19365:20760   */\n      pop\n      pop\n      jump\t// out\n        /* \"#utility.yul\":20790:21107   */\n    tag_298:\n        /* \"#utility.yul\":20888:20891   */\n      0x00\n        /* \"#utility.yul\":20909:20980   */\n      tag_528\n        /* \"#utility.yul\":20973:20979   */\n      dup4\n        /* \"#utility.yul\":20968:20971   */\n      dup6\n        /* \"#utility.yul\":20909:20980   */\n      tag_267\n      jump\t// in\n    tag_528:\n        /* \"#utility.yul\":20902:20980   */\n      swap4\n      pop\n        /* \"#utility.yul\":20990:21046   */\n      tag_529\n        /* \"#utility.yul\":21039:21045   */\n      dup4\n        /* \"#utility.yul\":21034:21037   */\n      dup6\n        /* \"#utility.yul\":21027:21032   */\n      dup5\n        /* \"#utility.yul\":20990:21046   */\n      tag_271\n      jump\t// in\n    tag_529:\n        /* \"#utility.yul\":21071:21100   */\n      tag_530\n        /* \"#utility.yul\":21093:21099   */\n      dup4\n        /* \"#utility.yul\":21071:21100   */\n      tag_258\n      jump\t// in\n    tag_530:\n        /* \"#utility.yul\":21066:21069   */\n      dup5\n        /* \"#utility.yul\":21062:21101   */\n      add\n        /* \"#utility.yul\":21055:21101   */\n      swap1\n      pop\n        /* \"#utility.yul\":20790:21107   */\n      swap4\n      swap3\n      pop\n      pop\n      pop\n      jump\t// out\n        /* \"#utility.yul\":21113:21777   */\n    tag_110:\n        /* \"#utility.yul\":21322:21326   */\n      0x00\n        /* \"#utility.yul\":21360:21362   */\n      0x60\n        /* \"#utility.yul\":21349:21358   */\n      dup3\n        /* \"#utility.yul\":21345:21363   */\n      add\n        /* \"#utility.yul\":21337:21363   */\n      swap1\n      pop\n        /* \"#utility.yul\":21409:21418   */\n      dup2\n        /* \"#utility.yul\":21403:21407   */\n      dup2\n        /* \"#utility.yul\":21399:21419   */\n      sub\n        /* \"#utility.yul\":21395:21396   */\n      0x00\n        /* \"#utility.yul\":21384:21393   */\n      dup4\n        /* \"#utility.yul\":21380:21397   */\n      add\n        /* \"#utility.yul\":21373:21420   */\n      mstore\n        /* \"#utility.yul\":21437:21525   */\n      tag_532\n        /* \"#utility.yul\":21520:21524   */\n      dup2\n        /* \"#utility.yul\":21511:21517   */\n      dup8\n        /* \"#utility.yul\":21503:21509   */\n      dup10\n        /* \"#utility.yul\":21437:21525   */\n      tag_298\n      jump\t// in\n    tag_532:\n        /* \"#utility.yul\":21429:21525   */\n      swap1\n      pop\n        /* \"#utility.yul\":21572:21581   */\n      dup2\n        /* \"#utility.yul\":21566:21570   */\n      dup2\n        /* \"#utility.yul\":21562:21582   */\n      sub\n        /* \"#utility.yul\":21557:21559   */\n      0x20\n        /* \"#utility.yul\":21546:21555   */\n      dup4\n        /* \"#utility.yul\":21542:21560   */\n      add\n        /* \"#utility.yul\":21535:21583   */\n      mstore\n        /* \"#utility.yul\":21600:21688   */\n      tag_533\n        /* \"#utility.yul\":21683:21687   */\n      dup2\n        /* \"#utility.yul\":21674:21680   */\n      dup6\n        /* \"#utility.yul\":21666:21672   */\n      dup8\n        /* \"#utility.yul\":21600:21688   */\n      tag_298\n      jump\t// in\n    tag_533:\n        /* \"#utility.yul\":21592:21688   */\n      swap1\n      pop\n        /* \"#utility.yul\":21698:21770   */\n      tag_534\n        /* \"#utility.yul\":21766:21768   */\n      0x40\n        /* \"#utility.yul\":21755:21764   */\n      dup4\n        /* \"#utility.yul\":21751:21769   */\n      add\n        /* \"#utility.yul\":21742:21748   */\n      dup5\n        /* \"#utility.yul\":21698:21770   */\n      tag_266\n      jump\t// in\n    tag_534:\n        /* \"#utility.yul\":21113:21777   */\n      swap7\n      swap6\n      pop\n      pop\n      pop\n      pop\n      pop\n      pop\n      jump\t// out\n        /* \"#utility.yul\":21783:22005   */\n    tag_299:\n        /* \"#utility.yul\":21923:21957   */\n      0x53747265616d696e673a2053747265616d2073657373696f6e206e6f7420666f\n        /* \"#utility.yul\":21919:21920   */\n      0x00\n        /* \"#utility.yul\":21911:21917   */\n      dup3\n        /* \"#utility.yul\":21907:21921   */\n      add\n        /* \"#utility.yul\":21900:21958   */\n      mstore\n        /* \"#utility.yul\":21992:21997   */\n      0x756e640000000000000000000000000000000000000000000000000000000000\n        /* \"#utility.yul\":21987:21989   */\n      0x20\n        /* \"#utility.yul\":21979:21985   */\n      dup3\n        /* \"#utility.yul\":21975:21990   */\n      add\n        /* \"#utility.yul\":21968:21998   */\n      mstore\n        /* \"#utility.yul\":21783:22005   */\n      pop\n      jump\t// out\n        /* \"#utility.yul\":22011:22377   */\n    tag_300:\n        /* \"#utility.yul\":22153:22156   */\n      0x00\n        /* \"#utility.yul\":22174:22241   */\n      tag_537\n        /* \"#utility.yul\":22238:22240   */\n      0x23\n        /* \"#utility.yul\":22233:22236   */\n      dup4\n        /* \"#utility.yul\":22174:22241   */\n      tag_267\n      jump\t// in\n    tag_537:\n        /* \"#utility.yul\":22167:22241   */\n      swap2\n      pop\n        /* \"#utility.yul\":22250:22343   */\n      tag_538\n        /* \"#utility.yul\":22339:22342   */\n      dup3\n        /* \"#utility.yul\":22250:22343   */\n      tag_299\n      jump\t// in\n    tag_538:\n        /* \"#utility.yul\":22368:22370   */\n      0x40\n        /* \"#utility.yul\":22363:22366   */\n      dup3\n        /* \"#utility.yul\":22359:22371   */\n      add\n        /* \"#utility.yul\":22352:22371   */\n      swap1\n      pop\n        /* \"#utility.yul\":22011:22377   */\n      swap2\n      swap1\n      pop\n      jump\t// out\n        /* \"#utility.yul\":22383:22802   */\n    tag_124:\n        /* \"#utility.yul\":22549:22553   */\n      0x00\n        /* \"#utility.yul\":22587:22589   */\n      0x20\n        /* \"#utility.yul\":22576:22585   */\n      dup3\n        /* \"#utility.yul\":22572:22590   */\n      add\n        /* \"#utility.yul\":22564:22590   */\n      swap1\n      pop\n        /* \"#utility.yul\":22636:22645   */\n      dup2\n        /* \"#utility.yul\":22630:22634   */\n      dup2\n        /* \"#utility.yul\":22626:22646   */\n      sub\n        /* \"#utility.yul\":22622:22623   */\n      0x00\n        /* \"#utility.yul\":22611:22620   */\n      dup4\n        /* \"#utility.yul\":22607:22624   */\n      add\n        /* \"#utility.yul\":22600:22647   */\n      mstore\n        /* \"#utility.yul\":22664:22795   */\n      tag_540\n        /* \"#utility.yul\":22790:22794   */\n      dup2\n        /* \"#utility.yul\":22664:22795   */\n      tag_300\n      jump\t// in\n    tag_540:\n        /* \"#utility.yul\":22656:22795   */\n      swap1\n      pop\n        /* \"#utility.yul\":22383:22802   */\n      swap2\n      swap1\n      pop\n      jump\t// out\n        /* \"#utility.yul\":22808:23055   */\n    tag_301:\n        /* \"#utility.yul\":22948:22982   */\n      0x53747265616d696e673a204f6e6c79207468652073747265616d6572206f7220\n        /* \"#utility.yul\":22944:22945   */\n      0x00\n        /* \"#utility.yul\":22936:22942   */\n      dup3\n        /* \"#utility.yul\":22932:22946   */\n      add\n        /* \"#utility.yul\":22925:22983   */\n      mstore\n        /* \"#utility.yul\":23017:23047   */\n      0x61646d696e2063616e20757064617465207468652073657373696f6e00000000\n        /* \"#utility.yul\":23012:23014   */\n      0x20\n        /* \"#utility.yul\":23004:23010   */\n      dup3\n        /* \"#utility.yul\":23000:23015   */\n      add\n        /* \"#utility.yul\":22993:23048   */\n      mstore\n        /* \"#utility.yul\":22808:23055   */\n      pop\n      jump\t// out\n        /* \"#utility.yul\":23061:23427   */\n    tag_302:\n        /* \"#utility.yul\":23203:23206   */\n      0x00\n        /* \"#utility.yul\":23224:23291   */\n      tag_543\n        /* \"#utility.yul\":23288:23290   */\n      0x3c\n        /* \"#utility.yul\":23283:23286   */\n      dup4\n        /* \"#utility.yul\":23224:23291   */\n      tag_267\n      jump\t// in\n    tag_543:\n        /* \"#utility.yul\":23217:23291   */\n      swap2\n      pop\n        /* \"#utility.yul\":23300:23393   */\n      tag_544\n        /* \"#utility.yul\":23389:23392   */\n      dup3\n        /* \"#utility.yul\":23300:23393   */\n      tag_301\n      jump\t// in\n    tag_544:\n        /* \"#utility.yul\":23418:23420   */\n      0x40\n        /* \"#utility.yul\":23413:23416   */\n      dup3\n        /* \"#utility.yul\":23409:23421   */\n      add\n        /* \"#utility.yul\":23402:23421   */\n      swap1\n      pop\n        /* \"#utility.yul\":23061:23427   */\n      swap2\n      swap1\n      pop\n      jump\t// out\n        /* \"#utility.yul\":23433:23852   */\n    tag_163:\n        /* \"#utility.yul\":23599:23603   */\n      0x00\n        /* \"#utility.yul\":23637:23639   */\n      0x20\n        /* \"#utility.yul\":23626:23635   */\n      dup3\n        /* \"#utility.yul\":23622:23640   */\n      add\n        /* \"#utility.yul\":23614:23640   */\n      swap1\n      pop\n        /* \"#utility.yul\":23686:23695   */\n      dup2\n        /* \"#utility.yul\":23680:23684   */\n      dup2\n        /* \"#utility.yul\":23676:23696   */\n      sub\n        /* \"#utility.yul\":23672:23673   */\n      0x00\n        /* \"#utility.yul\":23661:23670   */\n      dup4\n        /* \"#utility.yul\":23657:23674   */\n      add\n        /* \"#utility.yul\":23650:23697   */\n      mstore\n        /* \"#utility.yul\":23714:23845   */\n      tag_546\n        /* \"#utility.yul\":23840:23844   */\n      dup2\n        /* \"#utility.yul\":23714:23845   */\n      tag_302\n      jump\t// in\n    tag_546:\n        /* \"#utility.yul\":23706:23845   */\n      swap1\n      pop\n        /* \"#utility.yul\":23433:23852   */\n      swap2\n      swap1\n      pop\n      jump\t// out\n        /* \"#utility.yul\":23858:23955   */\n    tag_303:\n        /* \"#utility.yul\":23917:23923   */\n      0x00\n        /* \"#utility.yul\":23945:23948   */\n      dup3\n        /* \"#utility.yul\":23935:23948   */\n      swap1\n      pop\n        /* \"#utility.yul\":23858:23955   */\n      swap3\n      swap2\n      pop\n      pop\n      jump\t// out\n        /* \"#utility.yul\":23961:25364   */\n    tag_165:\n        /* \"#utility.yul\":24085:24129   */\n      tag_549\n        /* \"#utility.yul\":24125:24128   */\n      dup4\n        /* \"#utility.yul\":24120:24123   */\n      dup4\n        /* \"#utility.yul\":24085:24129   */\n      tag_303\n      jump\t// in\n    tag_549:\n        /* \"#utility.yul\":24194:24212   */\n      0xffffffffffffffff\n        /* \"#utility.yul\":24186:24192   */\n      dup2\n        /* \"#utility.yul\":24183:24213   */\n      gt\n        /* \"#utility.yul\":24180:24236   */\n      iszero\n      tag_550\n      jumpi\n        /* \"#utility.yul\":24216:24234   */\n      tag_551\n      tag_281\n      jump\t// in\n    tag_551:\n        /* \"#utility.yul\":24180:24236   */\n    tag_550:\n        /* \"#utility.yul\":24260:24298   */\n      tag_552\n        /* \"#utility.yul\":24292:24296   */\n      dup3\n        /* \"#utility.yul\":24286:24297   */\n      sload\n        /* \"#utility.yul\":24260:24298   */\n      tag_126\n      jump\t// in\n    tag_552:\n        /* \"#utility.yul\":24345:24412   */\n      tag_553\n        /* \"#utility.yul\":24405:24411   */\n      dup3\n        /* \"#utility.yul\":24397:24403   */\n      dup3\n        /* \"#utility.yul\":24391:24395   */\n      dup6\n        /* \"#utility.yul\":24345:24412   */\n      tag_294\n      jump\t// in\n    tag_553:\n        /* \"#utility.yul\":24439:24440   */\n      0x00\n        /* \"#utility.yul\":24468:24470   */\n      0x1f\n        /* \"#utility.yul\":24460:24466   */\n      dup4\n        /* \"#utility.yul\":24457:24471   */\n      gt\n        /* \"#utility.yul\":24485:24486   */\n      0x01\n        /* \"#utility.yul\":24480:25112   */\n      dup2\n      eq\n      tag_555\n      jumpi\n        /* \"#utility.yul\":25156:25157   */\n      0x00\n        /* \"#utility.yul\":25173:25179   */\n      dup5\n        /* \"#utility.yul\":25170:25254   */\n      iszero\n      tag_556\n      jumpi\n        /* \"#utility.yul\":25229:25238   */\n      dup3\n        /* \"#utility.yul\":25224:25227   */\n      dup8\n        /* \"#utility.yul\":25220:25239   */\n      add\n        /* \"#utility.yul\":25207:25240   */\n      calldataload\n        /* \"#utility.yul\":25198:25240   */\n      swap1\n      pop\n        /* \"#utility.yul\":25170:25254   */\n    tag_556:\n        /* \"#utility.yul\":25280:25347   */\n      tag_557\n        /* \"#utility.yul\":25340:25346   */\n      dup6\n        /* \"#utility.yul\":25333:25338   */\n      dup3\n        /* \"#utility.yul\":25280:25347   */\n      tag_297\n      jump\t// in\n    tag_557:\n        /* \"#utility.yul\":25274:25278   */\n      dup7\n        /* \"#utility.yul\":25267:25348   */\n      sstore\n        /* \"#utility.yul\":25129:25358   */\n      pop\n        /* \"#utility.yul\":24450:25358   */\n      jump(tag_554)\n        /* \"#utility.yul\":24480:25112   */\n    tag_555:\n        /* \"#utility.yul\":24532:24536   */\n      0x1f\n        /* \"#utility.yul\":24528:24537   */\n      not\n        /* \"#utility.yul\":24520:24526   */\n      dup5\n        /* \"#utility.yul\":24516:24538   */\n      and\n        /* \"#utility.yul\":24566:24603   */\n      tag_558\n        /* \"#utility.yul\":24598:24602   */\n      dup7\n        /* \"#utility.yul\":24566:24603   */\n      tag_283\n      jump\t// in\n    tag_558:\n        /* \"#utility.yul\":24625:24626   */\n      0x00\n        /* \"#utility.yul\":24639:24854   */\n    tag_559:\n        /* \"#utility.yul\":24653:24660   */\n      dup3\n        /* \"#utility.yul\":24650:24651   */\n      dup2\n        /* \"#utility.yul\":24647:24661   */\n      lt\n        /* \"#utility.yul\":24639:24854   */\n      iszero\n      tag_561\n      jumpi\n        /* \"#utility.yul\":24739:24748   */\n      dup5\n        /* \"#utility.yul\":24734:24737   */\n      dup10\n        /* \"#utility.yul\":24730:24749   */\n      add\n        /* \"#utility.yul\":24717:24750   */\n      calldataload\n        /* \"#utility.yul\":24709:24715   */\n      dup3\n        /* \"#utility.yul\":24702:24751   */\n      sstore\n        /* \"#utility.yul\":24790:24791   */\n      0x01\n        /* \"#utility.yul\":24782:24788   */\n      dup3\n        /* \"#utility.yul\":24778:24792   */\n      add\n        /* \"#utility.yul\":24768:24792   */\n      swap2\n      pop\n        /* \"#utility.yul\":24837:24839   */\n      0x20\n        /* \"#utility.yul\":24826:24835   */\n      dup6\n        /* \"#utility.yul\":24822:24840   */\n      add\n        /* \"#utility.yul\":24809:24840   */\n      swap5\n      pop\n        /* \"#utility.yul\":24676:24680   */\n      0x20\n        /* \"#utility.yul\":24673:24674   */\n      dup2\n        /* \"#utility.yul\":24669:24681   */\n      add\n        /* \"#utility.yul\":24664:24681   */\n      swap1\n      pop\n        /* \"#utility.yul\":24639:24854   */\n      jump(tag_559)\n    tag_561:\n        /* \"#utility.yul\":24882:24888   */\n      dup7\n        /* \"#utility.yul\":24873:24880   */\n      dup4\n        /* \"#utility.yul\":24870:24889   */\n      lt\n        /* \"#utility.yul\":24867:25053   */\n      iszero\n      tag_562\n      jumpi\n        /* \"#utility.yul\":24947:24956   */\n      dup5\n        /* \"#utility.yul\":24942:24945   */\n      dup10\n        /* \"#utility.yul\":24938:24957   */\n      add\n        /* \"#utility.yul\":24925:24958   */\n      calldataload\n        /* \"#utility.yul\":24990:25038   */\n      tag_563\n        /* \"#utility.yul\":25032:25036   */\n      0x1f\n        /* \"#utility.yul\":25024:25030   */\n      dup10\n        /* \"#utility.yul\":25020:25037   */\n      and\n        /* \"#utility.yul\":25009:25018   */\n      dup3\n        /* \"#utility.yul\":24990:25038   */\n      tag_296\n      jump\t// in\n    tag_563:\n        /* \"#utility.yul\":24982:24988   */\n      dup4\n        /* \"#utility.yul\":24975:25039   */\n      sstore\n        /* \"#utility.yul\":24890:25053   */\n      pop\n        /* \"#utility.yul\":24867:25053   */\n    tag_562:\n        /* \"#utility.yul\":25099:25100   */\n      0x01\n        /* \"#utility.yul\":25095:25096   */\n      0x02\n        /* \"#utility.yul\":25087:25093   */\n      dup9\n        /* \"#utility.yul\":25083:25097   */\n      mul\n        /* \"#utility.yul\":25079:25101   */\n      add\n        /* \"#utility.yul\":25073:25077   */\n      dup9\n        /* \"#utility.yul\":25066:25102   */\n      sstore\n        /* \"#utility.yul\":24487:25112   */\n      pop\n      pop\n      pop\n        /* \"#utility.yul\":24450:25358   */\n    tag_554:\n      pop\n        /* \"#utility.yul\":24060:25364   */\n      pop\n      pop\n      pop\n        /* \"#utility.yul\":23961:25364   */\n      pop\n      pop\n      pop\n      jump\t// out\n        /* \"#utility.yul\":25370:26133   */\n    tag_168:\n        /* \"#utility.yul\":25601:25605   */\n      0x00\n        /* \"#utility.yul\":25639:25642   */\n      0x80\n        /* \"#utility.yul\":25628:25637   */\n      dup3\n        /* \"#utility.yul\":25624:25643   */\n      add\n        /* \"#utility.yul\":25616:25643   */\n      swap1\n      pop\n        /* \"#utility.yul\":25689:25698   */\n      dup2\n        /* \"#utility.yul\":25683:25687   */\n      dup2\n        /* \"#utility.yul\":25679:25699   */\n      sub\n        /* \"#utility.yul\":25675:25676   */\n      0x00\n        /* \"#utility.yul\":25664:25673   */\n      dup4\n        /* \"#utility.yul\":25660:25677   */\n      add\n        /* \"#utility.yul\":25653:25700   */\n      mstore\n        /* \"#utility.yul\":25717:25805   */\n      tag_565\n        /* \"#utility.yul\":25800:25804   */\n      dup2\n        /* \"#utility.yul\":25791:25797   */\n      dup9\n        /* \"#utility.yul\":25783:25789   */\n      dup11\n        /* \"#utility.yul\":25717:25805   */\n      tag_298\n      jump\t// in\n    tag_565:\n        /* \"#utility.yul\":25709:25805   */\n      swap1\n      pop\n        /* \"#utility.yul\":25852:25861   */\n      dup2\n        /* \"#utility.yul\":25846:25850   */\n      dup2\n        /* \"#utility.yul\":25842:25862   */\n      sub\n        /* \"#utility.yul\":25837:25839   */\n      0x20\n        /* \"#utility.yul\":25826:25835   */\n      dup4\n        /* \"#utility.yul\":25822:25840   */\n      add\n        /* \"#utility.yul\":25815:25863   */\n      mstore\n        /* \"#utility.yul\":25880:25968   */\n      tag_566\n        /* \"#utility.yul\":25963:25967   */\n      dup2\n        /* \"#utility.yul\":25954:25960   */\n      dup7\n        /* \"#utility.yul\":25946:25952   */\n      dup9\n        /* \"#utility.yul\":25880:25968   */\n      tag_298\n      jump\t// in\n    tag_566:\n        /* \"#utility.yul\":25872:25968   */\n      swap1\n      pop\n        /* \"#utility.yul\":25978:26050   */\n      tag_567\n        /* \"#utility.yul\":26046:26048   */\n      0x40\n        /* \"#utility.yul\":26035:26044   */\n      dup4\n        /* \"#utility.yul\":26031:26049   */\n      add\n        /* \"#utility.yul\":26022:26028   */\n      dup6\n        /* \"#utility.yul\":25978:26050   */\n      tag_266\n      jump\t// in\n    tag_567:\n        /* \"#utility.yul\":26060:26126   */\n      tag_568\n        /* \"#utility.yul\":26122:26124   */\n      0x60\n        /* \"#utility.yul\":26111:26120   */\n      dup4\n        /* \"#utility.yul\":26107:26125   */\n      add\n        /* \"#utility.yul\":26098:26104   */\n      dup5\n        /* \"#utility.yul\":26060:26126   */\n      tag_239\n      jump\t// in\n    tag_568:\n        /* \"#utility.yul\":25370:26133   */\n      swap8\n      swap7\n      pop\n      pop\n      pop\n      pop\n      pop\n      pop\n      pop\n      jump\t// out\n        /* \"#utility.yul\":26139:26383   */\n    tag_304:\n        /* \"#utility.yul\":26279:26313   */\n      0x53747265616d696e673a204f6e6c79207468652073747265616d6572206f7220\n        /* \"#utility.yul\":26275:26276   */\n      0x00\n        /* \"#utility.yul\":26267:26273   */\n      dup3\n        /* \"#utility.yul\":26263:26277   */\n      add\n        /* \"#utility.yul\":26256:26314   */\n      mstore\n        /* \"#utility.yul\":26348:26375   */\n      0x61646d696e2063616e20656e64207468652073657373696f6e00000000000000\n        /* \"#utility.yul\":26343:26345   */\n      0x20\n        /* \"#utility.yul\":26335:26341   */\n      dup3\n        /* \"#utility.yul\":26331:26346   */\n      add\n        /* \"#utility.yul\":26324:26376   */\n      mstore\n        /* \"#utility.yul\":26139:26383   */\n      pop\n      jump\t// out\n        /* \"#utility.yul\":26389:26755   */\n    tag_305:\n        /* \"#utility.yul\":26531:26534   */\n      0x00\n        /* \"#utility.yul\":26552:26619   */\n      tag_571\n        /* \"#utility.yul\":26616:26618   */\n      0x39\n        /* \"#utility.yul\":26611:26614   */\n      dup4\n        /* \"#utility.yul\":26552:26619   */\n      tag_267\n      jump\t// in\n    tag_571:\n        /* \"#utility.yul\":26545:26619   */\n      swap2\n      pop\n        /* \"#utility.yul\":26628:26721   */\n      tag_572\n        /* \"#utility.yul\":26717:26720   */\n      dup3\n        /* \"#utility.yul\":26628:26721   */\n      tag_304\n      jump\t// in\n    tag_572:\n        /* \"#utility.yul\":26746:26748   */\n      0x40\n        /* \"#utility.yul\":26741:26744   */\n      dup3\n        /* \"#utility.yul\":26737:26749   */\n      add\n        /* \"#utility.yul\":26730:26749   */\n      swap1\n      pop\n        /* \"#utility.yul\":26389:26755   */\n      swap2\n      swap1\n      pop\n      jump\t// out\n        /* \"#utility.yul\":26761:27180   */\n    tag_179:\n        /* \"#utility.yul\":26927:26931   */\n      0x00\n        /* \"#utility.yul\":26965:26967   */\n      0x20\n        /* \"#utility.yul\":26954:26963   */\n      dup3\n        /* \"#utility.yul\":26950:26968   */\n      add\n        /* \"#utility.yul\":26942:26968   */\n      swap1\n      pop\n        /* \"#utility.yul\":27014:27023   */\n      dup2\n        /* \"#utility.yul\":27008:27012   */\n      dup2\n        /* \"#utility.yul\":27004:27024   */\n      sub\n        /* \"#utility.yul\":27000:27001   */\n      0x00\n        /* \"#utility.yul\":26989:26998   */\n      dup4\n        /* \"#utility.yul\":26985:27002   */\n      add\n        /* \"#utility.yul\":26978:27025   */\n      mstore\n        /* \"#utility.yul\":27042:27173   */\n      tag_574\n        /* \"#utility.yul\":27168:27172   */\n      dup2\n        /* \"#utility.yul\":27042:27173   */\n      tag_305\n      jump\t// in\n    tag_574:\n        /* \"#utility.yul\":27034:27173   */\n      swap1\n      pop\n        /* \"#utility.yul\":26761:27180   */\n      swap2\n      swap1\n      pop\n      jump\t// out\n        /* \"#utility.yul\":27186:27415   */\n    tag_306:\n        /* \"#utility.yul\":27326:27360   */\n      0x53747265616d696e673a2053747265616d2073657373696f6e20697320616c72\n        /* \"#utility.yul\":27322:27323   */\n      0x00\n        /* \"#utility.yul\":27314:27320   */\n      dup3\n        /* \"#utility.yul\":27310:27324   */\n      add\n        /* \"#utility.yul\":27303:27361   */\n      mstore\n        /* \"#utility.yul\":27395:27407   */\n      0x6561647920656e64656400000000000000000000000000000000000000000000\n        /* \"#utility.yul\":27390:27392   */\n      0x20\n        /* \"#utility.yul\":27382:27388   */\n      dup3\n        /* \"#utility.yul\":27378:27393   */\n      add\n        /* \"#utility.yul\":27371:27408   */\n      mstore\n        /* \"#utility.yul\":27186:27415   */\n      pop\n      jump\t// out\n        /* \"#utility.yul\":27421:27787   */\n    tag_307:\n        /* \"#utility.yul\":27563:27566   */\n      0x00\n        /* \"#utility.yul\":27584:27651   */\n      tag_577\n        /* \"#utility.yul\":27648:27650   */\n      0x2a\n        /* \"#utility.yul\":27643:27646   */\n      dup4\n        /* \"#utility.yul\":27584:27651   */\n      tag_267\n      jump\t// in\n    tag_577:\n        /* \"#utility.yul\":27577:27651   */\n      swap2\n      pop\n        /* \"#utility.yul\":27660:27753   */\n      tag_578\n        /* \"#utility.yul\":27749:27752   */\n      dup3\n        /* \"#utility.yul\":27660:27753   */\n      tag_306\n      jump\t// in\n    tag_578:\n        /* \"#utility.yul\":27778:27780   */\n      0x40\n        /* \"#utility.yul\":27773:27776   */\n      dup3\n        /* \"#utility.yul\":27769:27781   */\n      add\n        /* \"#utility.yul\":27762:27781   */\n      swap1\n      pop\n        /* \"#utility.yul\":27421:27787   */\n      swap2\n      swap1\n      pop\n      jump\t// out\n        /* \"#utility.yul\":27793:28212   */\n    tag_182:\n        /* \"#utility.yul\":27959:27963   */\n      0x00\n        /* \"#utility.yul\":27997:27999   */\n      0x20\n        /* \"#utility.yul\":27986:27995   */\n      dup3\n        /* \"#utility.yul\":27982:28000   */\n      add\n        /* \"#utility.yul\":27974:28000   */\n      swap1\n      pop\n        /* \"#utility.yul\":28046:28055   */\n      dup2\n        /* \"#utility.yul\":28040:28044   */\n      dup2\n        /* \"#utility.yul\":28036:28056   */\n      sub\n        /* \"#utility.yul\":28032:28033   */\n      0x00\n        /* \"#utility.yul\":28021:28030   */\n      dup4\n        /* \"#utility.yul\":28017:28034   */\n      add\n        /* \"#utility.yul\":28010:28057   */\n      mstore\n        /* \"#utility.yul\":28074:28205   */\n      tag_580\n        /* \"#utility.yul\":28200:28204   */\n      dup2\n        /* \"#utility.yul\":28074:28205   */\n      tag_307\n      jump\t// in\n    tag_580:\n        /* \"#utility.yul\":28066:28205   */\n      swap1\n      pop\n        /* \"#utility.yul\":27793:28212   */\n      swap2\n      swap1\n      pop\n      jump\t// out\n        /* \"#utility.yul\":28218:28336   */\n    tag_308:\n        /* \"#utility.yul\":28305:28329   */\n      tag_582\n        /* \"#utility.yul\":28323:28328   */\n      dup2\n        /* \"#utility.yul\":28305:28329   */\n      tag_252\n      jump\t// in\n    tag_582:\n        /* \"#utility.yul\":28300:28303   */\n      dup3\n        /* \"#utility.yul\":28293:28330   */\n      mstore\n        /* \"#utility.yul\":28218:28336   */\n      pop\n      pop\n      jump\t// out\n        /* \"#utility.yul\":28342:28674   */\n    tag_219:\n        /* \"#utility.yul\":28463:28467   */\n      0x00\n        /* \"#utility.yul\":28501:28503   */\n      0x40\n        /* \"#utility.yul\":28490:28499   */\n      dup3\n        /* \"#utility.yul\":28486:28504   */\n      add\n        /* \"#utility.yul\":28478:28504   */\n      swap1\n      pop\n        /* \"#utility.yul\":28514:28585   */\n      tag_584\n        /* \"#utility.yul\":28582:28583   */\n      0x00\n        /* \"#utility.yul\":28571:28580   */\n      dup4\n        /* \"#utility.yul\":28567:28584   */\n      add\n        /* \"#utility.yul\":28558:28564   */\n      dup6\n        /* \"#utility.yul\":28514:28585   */\n      tag_308\n      jump\t// in\n    tag_584:\n        /* \"#utility.yul\":28595:28667   */\n      tag_585\n        /* \"#utility.yul\":28663:28665   */\n      0x20\n        /* \"#utility.yul\":28652:28661   */\n      dup4\n        /* \"#utility.yul\":28648:28666   */\n      add\n        /* \"#utility.yul\":28639:28645   */\n      dup5\n        /* \"#utility.yul\":28595:28667   */\n      tag_250\n      jump\t// in\n    tag_585:\n        /* \"#utility.yul\":28342:28674   */\n      swap4\n      swap3\n      pop\n      pop\n      pop\n      jump\t// out\n        /* \"#utility.yul\":28680:28860   */\n    tag_229:\n        /* \"#utility.yul\":28728:28805   */\n      0x4e487b7100000000000000000000000000000000000000000000000000000000\n        /* \"#utility.yul\":28725:28726   */\n      0x00\n        /* \"#utility.yul\":28718:28806   */\n      mstore\n        /* \"#utility.yul\":28825:28829   */\n      0x32\n        /* \"#utility.yul\":28822:28823   */\n      0x04\n        /* \"#utility.yul\":28815:28830   */\n      mstore\n        /* \"#utility.yul\":28849:28853   */\n      0x24\n        /* \"#utility.yul\":28846:28847   */\n      0x00\n        /* \"#utility.yul\":28839:28854   */\n      revert\n\n    auxdata: 0xa2646970667358221220f65298ee54e5e79892ada2bfbcc9e9cc4bad80345164174975fd76009da2f80464736f6c63430008140033\n}\n",
				"bytecode": {
					"linkReferences": {},
					"object": "608060405234801562000010575f80fd5b50620000255f801b336200009260201b60201c565b50620000587fa49807205ce4d355092ef5a8a18f56e8913cf4a201fbe287825b095693c21775336200009260201b60201c565b506200008b7f41d12fe3b2ffe2aea01a3e08ec191d0142900efe396c6cd50b857af5b6f1bdae336200009260201b60201c565b50620001f7565b5f620000a583836200018d60201b60201c565b620001835760015f808581526020019081526020015f205f015f8473ffffffffffffffffffffffffffffffffffffffff1673ffffffffffffffffffffffffffffffffffffffff1681526020019081526020015f205f6101000a81548160ff0219169083151502179055506200011f620001f060201b60201c565b73ffffffffffffffffffffffffffffffffffffffff168273ffffffffffffffffffffffffffffffffffffffff16847f2f8788117e7eff1d82e926ec794901d17c78024a50270940304540a733656f0d60405160405180910390a46001905062000187565b5f90505b92915050565b5f805f8481526020019081526020015f205f015f8373ffffffffffffffffffffffffffffffffffffffff1673ffffffffffffffffffffffffffffffffffffffff1681526020019081526020015f205f9054906101000a900460ff16905092915050565b5f33905090565b6121bc80620002055f395ff3fe608060405234801561000f575f80fd5b50600436106100fe575f3560e01c80637bf87f4911610095578063d547741f11610064578063d547741f146102d0578063e16e91ed146102ec578063f569faa214610308578063fc6ff96f14610324576100fe565b80637bf87f491461023457806391d1485414610264578063a217fddf14610294578063c9d6da0e146102b2576100fe565b8063334bd393116100d1578063334bd3931461019a57806336568abe146101ca578063408e1aeb146101e657806375b238fc14610216576100fe565b806301ffc9a714610102578063101b2a1b14610132578063248a9ca31461014e5780632f2ff15d1461017e575b5f80fd5b61011c60048036038101906101179190611307565b610342565b604051610129919061134c565b60405180910390f35b61014c600480360381019061014791906113f9565b6103bb565b005b610168600480360381019061016391906114bd565b6106a7565b60405161017591906114f7565b60405180910390f35b6101986004803603810190610193919061156a565b6106c3565b005b6101b460048036038101906101af91906114bd565b6106e5565b6040516101c191906116ec565b60405180910390f35b6101e460048036038101906101df919061156a565b610905565b005b61020060048036038101906101fb91906114bd565b610980565b60405161020d919061134c565b60405180910390f35b61021e61099c565b60405161022b91906114f7565b60405180910390f35b61024e6004803603810190610249919061170c565b6109c0565b60405161025b91906114f7565b60405180910390f35b61027e6004803603810190610279919061156a565b6109dc565b60405161028b919061134c565b60405180910390f35b61029c610a3f565b6040516102a991906114f7565b60405180910390f35b6102ba610a45565b6040516102c791906114f7565b60405180910390f35b6102ea60048036038101906102e5919061156a565b610a69565b005b61030660048036038101906103019190611761565b610a8b565b005b610322600480360381019061031d91906114bd565b610c86565b005b61032c610e9a565b6040516103399190611827565b60405180910390f35b5f7f7965db0b000000000000000000000000000000000000000000000000000000007bffffffffffffffffffffffffffffffffffffffffffffffffffffffff1916827bffffffffffffffffffffffffffffffffffffffffffffffffffffffff191614806103b457506103b382610eaa565b5b9050919050565b7f41d12fe3b2ffe2aea01a3e08ec191d0142900efe396c6cd50b857af5b6f1bdae6103e581610f13565b428211610427576040517f08c379a000000000000000000000000000000000000000000000000000000000815260040161041e906118c0565b60405180910390fd5b5f8686868633876040516020016104439695949392919061197f565b60405160208183030381529060405280519060200120905061046f816002610f2790919063ffffffff16565b156104af576040517f08c379a00000000000000000000000000000000000000000000000000000000081526004016104a690611a38565b60405180910390fd5b6040518060c0016040528088888080601f0160208091040260200160405190810160405280939291908181526020018383808284375f81840152601f19601f82011690508083019250505050505050815260200186868080601f0160208091040260200160405190810160405280939291908181526020018383808284375f81840152601f19601f8201169050808301925050505050505081526020013373ffffffffffffffffffffffffffffffffffffffff1681526020018481526020015f81526020016001151581525060015f8381526020019081526020015f205f820151815f01908161059f9190611c7d565b5060208201518160010190816105b59190611c7d565b506040820151816002015f6101000a81548173ffffffffffffffffffffffffffffffffffffffff021916908373ffffffffffffffffffffffffffffffffffffffff160217905550606082015181600301556080820151816004015560a0820151816005015f6101000a81548160ff021916908315150217905550905050610646816002610f3c90919063ffffffff16565b503373ffffffffffffffffffffffffffffffffffffffff16817f1e732c1536d9533c8c8e726da4bec0a680fd0f3f17e262beb1bb2aa1fcd262028989898989604051610696959493929190611d78565b60405180910390a350505050505050565b5f805f8381526020019081526020015f20600101549050919050565b6106cc826106a7565b6106d581610f13565b6106df8383610f51565b50505050565b6106ed611260565b610701826002610f2790919063ffffffff16565b610740576040517f08c379a000000000000000000000000000000000000000000000000000000000815260040161073790611e2f565b60405180910390fd5b60015f8381526020019081526020015f206040518060c00160405290815f8201805461076b90611ab0565b80601f016020809104026020016040519081016040528092919081815260200182805461079790611ab0565b80156107e25780601f106107b9576101008083540402835291602001916107e2565b820191905f5260205f20905b8154815290600101906020018083116107c557829003601f168201915b505050505081526020016001820180546107fb90611ab0565b80601f016020809104026020016040519081016040528092919081815260200182805461082790611ab0565b80156108725780601f1061084957610100808354040283529160200191610872565b820191905f5260205f20905b81548152906001019060200180831161085557829003601f168201915b50505050508152602001600282015f9054906101000a900473ffffffffffffffffffffffffffffffffffffffff1673ffffffffffffffffffffffffffffffffffffffff1673ffffffffffffffffffffffffffffffffffffffff1681526020016003820154815260200160048201548152602001600582015f9054906101000a900460ff1615151515815250509050919050565b61090d61103a565b73ffffffffffffffffffffffffffffffffffffffff168173ffffffffffffffffffffffffffffffffffffffff1614610971576040517f6697b23200000000000000000000000000000000000000000000000000000000815260040160405180910390fd5b61097b8282611041565b505050565b5f610995826002610f2790919063ffffffff16565b9050919050565b7fa49807205ce4d355092ef5a8a18f56e8913cf4a201fbe287825b095693c2177581565b5f6109d582600261112a90919063ffffffff16565b9050919050565b5f805f8481526020019081526020015f205f015f8373ffffffffffffffffffffffffffffffffffffffff1673ffffffffffffffffffffffffffffffffffffffff1681526020019081526020015f205f9054906101000a900460ff16905092915050565b5f801b81565b7f41d12fe3b2ffe2aea01a3e08ec191d0142900efe396c6cd50b857af5b6f1bdae81565b610a72826106a7565b610a7b81610f13565b610a858383611041565b50505050565b7f41d12fe3b2ffe2aea01a3e08ec191d0142900efe396c6cd50b857af5b6f1bdae610ab581610f13565b610ac9886002610f2790919063ffffffff16565b610b08576040517f08c379a0000000000000000000000000000000000000000000000000000000008152600401610aff90611e2f565b60405180910390fd5b3373ffffffffffffffffffffffffffffffffffffffff1660015f8a81526020019081526020015f206002015f9054906101000a900473ffffffffffffffffffffffffffffffffffffffff1673ffffffffffffffffffffffffffffffffffffffff161480610b9b5750610b9a7fa49807205ce4d355092ef5a8a18f56e8913cf4a201fbe287825b095693c21775336109dc565b5b610bda576040517f08c379a0000000000000000000000000000000000000000000000000000000008152600401610bd190611ebd565b60405180910390fd5b5f60015f8a81526020019081526020015f2090508787825f019182610c00929190611ee5565b508585826001019182610c14929190611ee5565b5083816004018190555082816005015f6101000a81548160ff021916908315150217905550887f9d9ec16caf1f85b07d074ec3aaf2e3bebd495d1678169881bd7a0ade2674f59f898989898989604051610c7396959493929190611fb2565b60405180910390a2505050505050505050565b7f41d12fe3b2ffe2aea01a3e08ec191d0142900efe396c6cd50b857af5b6f1bdae610cb081610f13565b610cc4826002610f2790919063ffffffff16565b610d03576040517f08c379a0000000000000000000000000000000000000000000000000000000008152600401610cfa90611e2f565b60405180910390fd5b3373ffffffffffffffffffffffffffffffffffffffff1660015f8481526020019081526020015f206002015f9054906101000a900473ffffffffffffffffffffffffffffffffffffffff1673ffffffffffffffffffffffffffffffffffffffff161480610d965750610d957fa49807205ce4d355092ef5a8a18f56e8913cf4a201fbe287825b095693c21775336109dc565b5b610dd5576040517f08c379a0000000000000000000000000000000000000000000000000000000008152600401610dcc90612077565b60405180910390fd5b5f60015f8481526020019081526020015f209050806005015f9054906101000a900460ff16610e39576040517f08c379a0000000000000000000000000000000000000000000000000000000008152600401610e3090612105565b60405180910390fd5b5f816005015f6101000a81548160ff021916908315150217905550428160040181905550827ff24c67772db752f499cb9b8c61bebbae0a79a2712100322f07e1ef7395a19a1342604051610e8d9190611827565b60405180910390a2505050565b5f610ea5600261113f565b905090565b5f7f01ffc9a7000000000000000000000000000000000000000000000000000000007bffffffffffffffffffffffffffffffffffffffffffffffffffffffff1916827bffffffffffffffffffffffffffffffffffffffffffffffffffffffff1916149050919050565b610f2481610f1f61103a565b611152565b50565b5f610f34835f01836111a3565b905092915050565b5f610f49835f01836111c3565b905092915050565b5f610f5c83836109dc565b6110305760015f808581526020019081526020015f205f015f8473ffffffffffffffffffffffffffffffffffffffff1673ffffffffffffffffffffffffffffffffffffffff1681526020019081526020015f205f6101000a81548160ff021916908315150217905550610fcd61103a565b73ffffffffffffffffffffffffffffffffffffffff168273ffffffffffffffffffffffffffffffffffffffff16847f2f8788117e7eff1d82e926ec794901d17c78024a50270940304540a733656f0d60405160405180910390a460019050611034565b5f90505b92915050565b5f33905090565b5f61104c83836109dc565b15611120575f805f8581526020019081526020015f205f015f8473ffffffffffffffffffffffffffffffffffffffff1673ffffffffffffffffffffffffffffffffffffffff1681526020019081526020015f205f6101000a81548160ff0219169083151502179055506110bd61103a565b73ffffffffffffffffffffffffffffffffffffffff168273ffffffffffffffffffffffffffffffffffffffff16847ff6391f5c32d9c69d2a47ea670b442974b53935d1edc7fd64eb21e047a839171b60405160405180910390a460019050611124565b5f90505b92915050565b5f611137835f018361122a565b905092915050565b5f61114b825f01611251565b9050919050565b61115c82826109dc565b61119f5780826040517fe2517d3f000000000000000000000000000000000000000000000000000000008152600401611196929190612132565b60405180910390fd5b5050565b5f80836001015f8481526020019081526020015f20541415905092915050565b5f6111ce83836111a3565b61122057825f0182908060018154018082558091505060019003905f5260205f20015f9091909190915055825f0180549050836001015f8481526020019081526020015f208190555060019050611224565b5f90505b92915050565b5f825f0182815481106112405761123f612159565b5b905f5260205f200154905092915050565b5f815f01805490509050919050565b6040518060c0016040528060608152602001606081526020015f73ffffffffffffffffffffffffffffffffffffffff1681526020015f81526020015f81526020015f151581525090565b5f80fd5b5f80fd5b5f7fffffffff0000000000000000000000000000000000000000000000000000000082169050919050565b6112e6816112b2565b81146112f0575f80fd5b50565b5f81359050611301816112dd565b92915050565b5f6020828403121561131c5761131b6112aa565b5b5f611329848285016112f3565b91505092915050565b5f8115159050919050565b61134681611332565b82525050565b5f60208201905061135f5f83018461133d565b92915050565b5f80fd5b5f80fd5b5f80fd5b5f8083601f84011261138657611385611365565b5b8235905067ffffffffffffffff8111156113a3576113a2611369565b5b6020830191508360018202830111156113bf576113be61136d565b5b9250929050565b5f819050919050565b6113d8816113c6565b81146113e2575f80fd5b50565b5f813590506113f3816113cf565b92915050565b5f805f805f60608688031215611412576114116112aa565b5b5f86013567ffffffffffffffff81111561142f5761142e6112ae565b5b61143b88828901611371565b9550955050602086013567ffffffffffffffff81111561145e5761145d6112ae565b5b61146a88828901611371565b9350935050604061147d888289016113e5565b9150509295509295909350565b5f819050919050565b61149c8161148a565b81146114a6575f80fd5b50565b5f813590506114b781611493565b92915050565b5f602082840312156114d2576114d16112aa565b5b5f6114df848285016114a9565b91505092915050565b6114f18161148a565b82525050565b5f60208201905061150a5f8301846114e8565b92915050565b5f73ffffffffffffffffffffffffffffffffffffffff82169050919050565b5f61153982611510565b9050919050565b6115498161152f565b8114611553575f80fd5b50565b5f8135905061156481611540565b92915050565b5f80604083850312156115805761157f6112aa565b5b5f61158d858286016114a9565b925050602061159e85828601611556565b9150509250929050565b5f81519050919050565b5f82825260208201905092915050565b5f5b838110156115df5780820151818401526020810190506115c4565b5f8484015250505050565b5f601f19601f8301169050919050565b5f611604826115a8565b61160e81856115b2565b935061161e8185602086016115c2565b611627816115ea565b840191505092915050565b61163b8161152f565b82525050565b61164a816113c6565b82525050565b61165981611332565b82525050565b5f60c083015f8301518482035f86015261167982826115fa565b9150506020830151848203602086015261169382826115fa565b91505060408301516116a86040860182611632565b5060608301516116bb6060860182611641565b5060808301516116ce6080860182611641565b5060a08301516116e160a0860182611650565b508091505092915050565b5f6020820190508181035f830152611704818461165f565b905092915050565b5f60208284031215611721576117206112aa565b5b5f61172e848285016113e5565b91505092915050565b61174081611332565b811461174a575f80fd5b50565b5f8135905061175b81611737565b92915050565b5f805f805f805f60a0888a03121561177c5761177b6112aa565b5b5f6117898a828b016114a9565b975050602088013567ffffffffffffffff8111156117aa576117a96112ae565b5b6117b68a828b01611371565b9650965050604088013567ffffffffffffffff8111156117d9576117d86112ae565b5b6117e58a828b01611371565b945094505060606117f88a828b016113e5565b92505060806118098a828b0161174d565b91505092959891949750929550565b611821816113c6565b82525050565b5f60208201905061183a5f830184611818565b92915050565b5f82825260208201905092915050565b7f53747265616d696e673a2053746172742074696d65206d75737420626520696e5f8201527f2074686520667574757265000000000000000000000000000000000000000000602082015250565b5f6118aa602b83611840565b91506118b582611850565b604082019050919050565b5f6020820190508181035f8301526118d78161189e565b9050919050565b5f81905092915050565b828183375f83830152505050565b5f61190183856118de565b935061190e8385846118e8565b82840190509392505050565b5f8160601b9050919050565b5f6119308261191a565b9050919050565b5f61194182611926565b9050919050565b6119596119548261152f565b611937565b82525050565b5f819050919050565b611979611974826113c6565b61195f565b82525050565b5f61198b82888a6118f6565b91506119988286886118f6565b91506119a48285611948565b6014820191506119b48284611968565b602082019150819050979650505050505050565b7f53747265616d696e673a2053747265616d2073657373696f6e20616c726561645f8201527f7920657869737473000000000000000000000000000000000000000000000000602082015250565b5f611a22602883611840565b9150611a2d826119c8565b604082019050919050565b5f6020820190508181035f830152611a4f81611a16565b9050919050565b7f4e487b71000000000000000000000000000000000000000000000000000000005f52604160045260245ffd5b7f4e487b71000000000000000000000000000000000000000000000000000000005f52602260045260245ffd5b5f6002820490506001821680611ac757607f821691505b602082108103611ada57611ad9611a83565b5b50919050565b5f819050815f5260205f209050919050565b5f6020601f8301049050919050565b5f82821b905092915050565b5f60088302611b3c7fffffffffffffffffffffffffffffffffffffffffffffffffffffffffffffffff82611b01565b611b468683611b01565b95508019841693508086168417925050509392505050565b5f819050919050565b5f611b81611b7c611b77846113c6565b611b5e565b6113c6565b9050919050565b5f819050919050565b611b9a83611b67565b611bae611ba682611b88565b848454611b0d565b825550505050565b5f90565b611bc2611bb6565b611bcd818484611b91565b505050565b5b81811015611bf057611be55f82611bba565b600181019050611bd3565b5050565b601f821115611c3557611c0681611ae0565b611c0f84611af2565b81016020851015611c1e578190505b611c32611c2a85611af2565b830182611bd2565b50505b505050565b5f82821c905092915050565b5f611c555f1984600802611c3a565b1980831691505092915050565b5f611c6d8383611c46565b9150826002028217905092915050565b611c86826115a8565b67ffffffffffffffff811115611c9f57611c9e611a56565b5b611ca98254611ab0565b611cb4828285611bf4565b5f60209050601f831160018114611ce5575f8415611cd3578287015190505b611cdd8582611c62565b865550611d44565b601f198416611cf386611ae0565b5f5b82811015611d1a57848901518255600182019150602085019450602081019050611cf5565b86831015611d375784890151611d33601f891682611c46565b8355505b6001600288020188555050505b505050505050565b5f611d578385611840565b9350611d648385846118e8565b611d6d836115ea565b840190509392505050565b5f6060820190508181035f830152611d91818789611d4c565b90508181036020830152611da6818587611d4c565b9050611db56040830184611818565b9695505050505050565b7f53747265616d696e673a2053747265616d2073657373696f6e206e6f7420666f5f8201527f756e640000000000000000000000000000000000000000000000000000000000602082015250565b5f611e19602383611840565b9150611e2482611dbf565b604082019050919050565b5f6020820190508181035f830152611e4681611e0d565b9050919050565b7f53747265616d696e673a204f6e6c79207468652073747265616d6572206f72205f8201527f61646d696e2063616e20757064617465207468652073657373696f6e00000000602082015250565b5f611ea7603c83611840565b9150611eb282611e4d565b604082019050919050565b5f6020820190508181035f830152611ed481611e9b565b9050919050565b5f82905092915050565b611eef8383611edb565b67ffffffffffffffff811115611f0857611f07611a56565b5b611f128254611ab0565b611f1d828285611bf4565b5f601f831160018114611f4a575f8415611f38578287013590505b611f428582611c62565b865550611fa9565b601f198416611f5886611ae0565b5f5b82811015611f7f57848901358255600182019150602085019450602081019050611f5a565b86831015611f9c5784890135611f98601f891682611c46565b8355505b6001600288020188555050505b50505050505050565b5f6080820190508181035f830152611fcb81888a611d4c565b90508181036020830152611fe0818688611d4c565b9050611fef6040830185611818565b611ffc606083018461133d565b979650505050505050565b7f53747265616d696e673a204f6e6c79207468652073747265616d6572206f72205f8201527f61646d696e2063616e20656e64207468652073657373696f6e00000000000000602082015250565b5f612061603983611840565b915061206c82612007565b604082019050919050565b5f6020820190508181035f83015261208e81612055565b9050919050565b7f53747265616d696e673a2053747265616d2073657373696f6e20697320616c725f8201527f6561647920656e64656400000000000000000000000000000000000000000000602082015250565b5f6120ef602a83611840565b91506120fa82612095565b604082019050919050565b5f6020820190508181035f83015261211c816120e3565b9050919050565b61212c8161152f565b82525050565b5f6040820190506121455f830185612123565b61215260208301846114e8565b9392505050565b7f4e487b71000000000000000000000000000000000000000000000000000000005f52603260045260245ffdfea2646970667358221220f65298ee54e5e79892ada2bfbcc9e9cc4bad80345164174975fd76009da2f80464736f6c63430008140033",
					"opcodes": "PUSH1 0x80 PUSH1 0x40 MSTORE CALLVALUE DUP1 ISZERO PUSH3 0x10 JUMPI PUSH0 DUP1 REVERT JUMPDEST POP PUSH3 0x25 PUSH0 DUP1 SHL CALLER PUSH3 0x92 PUSH1 0x20 SHL PUSH1 0x20 SHR JUMP JUMPDEST POP PUSH3 0x58 PUSH32 0xA49807205CE4D355092EF5A8A18F56E8913CF4A201FBE287825B095693C21775 CALLER PUSH3 0x92 PUSH1 0x20 SHL PUSH1 0x20 SHR JUMP JUMPDEST POP PUSH3 0x8B PUSH32 0x41D12FE3B2FFE2AEA01A3E08EC191D0142900EFE396C6CD50B857AF5B6F1BDAE CALLER PUSH3 0x92 PUSH1 0x20 SHL PUSH1 0x20 SHR JUMP JUMPDEST POP PUSH3 0x1F7 JUMP JUMPDEST PUSH0 PUSH3 0xA5 DUP4 DUP4 PUSH3 0x18D PUSH1 0x20 SHL PUSH1 0x20 SHR JUMP JUMPDEST PUSH3 0x183 JUMPI PUSH1 0x1 PUSH0 DUP1 DUP6 DUP2 MSTORE PUSH1 0x20 ADD SWAP1 DUP2 MSTORE PUSH1 0x20 ADD PUSH0 KECCAK256 PUSH0 ADD PUSH0 DUP5 PUSH20 0xFFFFFFFFFFFFFFFFFFFFFFFFFFFFFFFFFFFFFFFF AND PUSH20 0xFFFFFFFFFFFFFFFFFFFFFFFFFFFFFFFFFFFFFFFF AND DUP2 MSTORE PUSH1 0x20 ADD SWAP1 DUP2 MSTORE PUSH1 0x20 ADD PUSH0 KECCAK256 PUSH0 PUSH2 0x100 EXP DUP2 SLOAD DUP2 PUSH1 0xFF MUL NOT AND SWAP1 DUP4 ISZERO ISZERO MUL OR SWAP1 SSTORE POP PUSH3 0x11F PUSH3 0x1F0 PUSH1 0x20 SHL PUSH1 0x20 SHR JUMP JUMPDEST PUSH20 0xFFFFFFFFFFFFFFFFFFFFFFFFFFFFFFFFFFFFFFFF AND DUP3 PUSH20 0xFFFFFFFFFFFFFFFFFFFFFFFFFFFFFFFFFFFFFFFF AND DUP5 PUSH32 0x2F8788117E7EFF1D82E926EC794901D17C78024A50270940304540A733656F0D PUSH1 0x40 MLOAD PUSH1 0x40 MLOAD DUP1 SWAP2 SUB SWAP1 LOG4 PUSH1 0x1 SWAP1 POP PUSH3 0x187 JUMP JUMPDEST PUSH0 SWAP1 POP JUMPDEST SWAP3 SWAP2 POP POP JUMP JUMPDEST PUSH0 DUP1 PUSH0 DUP5 DUP2 MSTORE PUSH1 0x20 ADD SWAP1 DUP2 MSTORE PUSH1 0x20 ADD PUSH0 KECCAK256 PUSH0 ADD PUSH0 DUP4 PUSH20 0xFFFFFFFFFFFFFFFFFFFFFFFFFFFFFFFFFFFFFFFF AND PUSH20 0xFFFFFFFFFFFFFFFFFFFFFFFFFFFFFFFFFFFFFFFF AND DUP2 MSTORE PUSH1 0x20 ADD SWAP1 DUP2 MSTORE PUSH1 0x20 ADD PUSH0 KECCAK256 PUSH0 SWAP1 SLOAD SWAP1 PUSH2 0x100 EXP SWAP1 DIV PUSH1 0xFF AND SWAP1 POP SWAP3 SWAP2 POP POP JUMP JUMPDEST PUSH0 CALLER SWAP1 POP SWAP1 JUMP JUMPDEST PUSH2 0x21BC DUP1 PUSH3 0x205 PUSH0 CODECOPY PUSH0 RETURN INVALID PUSH1 0x80 PUSH1 0x40 MSTORE CALLVALUE DUP1 ISZERO PUSH2 0xF JUMPI PUSH0 DUP1 REVERT JUMPDEST POP PUSH1 0x4 CALLDATASIZE LT PUSH2 0xFE JUMPI PUSH0 CALLDATALOAD PUSH1 0xE0 SHR DUP1 PUSH4 0x7BF87F49 GT PUSH2 0x95 JUMPI DUP1 PUSH4 0xD547741F GT PUSH2 0x64 JUMPI DUP1 PUSH4 0xD547741F EQ PUSH2 0x2D0 JUMPI DUP1 PUSH4 0xE16E91ED EQ PUSH2 0x2EC JUMPI DUP1 PUSH4 0xF569FAA2 EQ PUSH2 0x308 JUMPI DUP1 PUSH4 0xFC6FF96F EQ PUSH2 0x324 JUMPI PUSH2 0xFE JUMP JUMPDEST DUP1 PUSH4 0x7BF87F49 EQ PUSH2 0x234 JUMPI DUP1 PUSH4 0x91D14854 EQ PUSH2 0x264 JUMPI DUP1 PUSH4 0xA217FDDF EQ PUSH2 0x294 JUMPI DUP1 PUSH4 0xC9D6DA0E EQ PUSH2 0x2B2 JUMPI PUSH2 0xFE JUMP JUMPDEST DUP1 PUSH4 0x334BD393 GT PUSH2 0xD1 JUMPI DUP1 PUSH4 0x334BD393 EQ PUSH2 0x19A JUMPI DUP1 PUSH4 0x36568ABE EQ PUSH2 0x1CA JUMPI DUP1 PUSH4 0x408E1AEB EQ PUSH2 0x1E6 JUMPI DUP1 PUSH4 0x75B238FC EQ PUSH2 0x216 JUMPI PUSH2 0xFE JUMP JUMPDEST DUP1 PUSH4 0x1FFC9A7 EQ PUSH2 0x102 JUMPI DUP1 PUSH4 0x101B2A1B EQ PUSH2 0x132 JUMPI DUP1 PUSH4 0x248A9CA3 EQ PUSH2 0x14E JUMPI DUP1 PUSH4 0x2F2FF15D EQ PUSH2 0x17E JUMPI JUMPDEST PUSH0 DUP1 REVERT JUMPDEST PUSH2 0x11C PUSH1 0x4 DUP1 CALLDATASIZE SUB DUP2 ADD SWAP1 PUSH2 0x117 SWAP2 SWAP1 PUSH2 0x1307 JUMP JUMPDEST PUSH2 0x342 JUMP JUMPDEST PUSH1 0x40 MLOAD PUSH2 0x129 SWAP2 SWAP1 PUSH2 0x134C JUMP JUMPDEST PUSH1 0x40 MLOAD DUP1 SWAP2 SUB SWAP1 RETURN JUMPDEST PUSH2 0x14C PUSH1 0x4 DUP1 CALLDATASIZE SUB DUP2 ADD SWAP1 PUSH2 0x147 SWAP2 SWAP1 PUSH2 0x13F9 JUMP JUMPDEST PUSH2 0x3BB JUMP JUMPDEST STOP JUMPDEST PUSH2 0x168 PUSH1 0x4 DUP1 CALLDATASIZE SUB DUP2 ADD SWAP1 PUSH2 0x163 SWAP2 SWAP1 PUSH2 0x14BD JUMP JUMPDEST PUSH2 0x6A7 JUMP JUMPDEST PUSH1 0x40 MLOAD PUSH2 0x175 SWAP2 SWAP1 PUSH2 0x14F7 JUMP JUMPDEST PUSH1 0x40 MLOAD DUP1 SWAP2 SUB SWAP1 RETURN JUMPDEST PUSH2 0x198 PUSH1 0x4 DUP1 CALLDATASIZE SUB DUP2 ADD SWAP1 PUSH2 0x193 SWAP2 SWAP1 PUSH2 0x156A JUMP JUMPDEST PUSH2 0x6C3 JUMP JUMPDEST STOP JUMPDEST PUSH2 0x1B4 PUSH1 0x4 DUP1 CALLDATASIZE SUB DUP2 ADD SWAP1 PUSH2 0x1AF SWAP2 SWAP1 PUSH2 0x14BD JUMP JUMPDEST PUSH2 0x6E5 JUMP JUMPDEST PUSH1 0x40 MLOAD PUSH2 0x1C1 SWAP2 SWAP1 PUSH2 0x16EC JUMP JUMPDEST PUSH1 0x40 MLOAD DUP1 SWAP2 SUB SWAP1 RETURN JUMPDEST PUSH2 0x1E4 PUSH1 0x4 DUP1 CALLDATASIZE SUB DUP2 ADD SWAP1 PUSH2 0x1DF SWAP2 SWAP1 PUSH2 0x156A JUMP JUMPDEST PUSH2 0x905 JUMP JUMPDEST STOP JUMPDEST PUSH2 0x200 PUSH1 0x4 DUP1 CALLDATASIZE SUB DUP2 ADD SWAP1 PUSH2 0x1FB SWAP2 SWAP1 PUSH2 0x14BD JUMP JUMPDEST PUSH2 0x980 JUMP JUMPDEST PUSH1 0x40 MLOAD PUSH2 0x20D SWAP2 SWAP1 PUSH2 0x134C JUMP JUMPDEST PUSH1 0x40 MLOAD DUP1 SWAP2 SUB SWAP1 RETURN JUMPDEST PUSH2 0x21E PUSH2 0x99C JUMP JUMPDEST PUSH1 0x40 MLOAD PUSH2 0x22B SWAP2 SWAP1 PUSH2 0x14F7 JUMP JUMPDEST PUSH1 0x40 MLOAD DUP1 SWAP2 SUB SWAP1 RETURN JUMPDEST PUSH2 0x24E PUSH1 0x4 DUP1 CALLDATASIZE SUB DUP2 ADD SWAP1 PUSH2 0x249 SWAP2 SWAP1 PUSH2 0x170C JUMP JUMPDEST PUSH2 0x9C0 JUMP JUMPDEST PUSH1 0x40 MLOAD PUSH2 0x25B SWAP2 SWAP1 PUSH2 0x14F7 JUMP JUMPDEST PUSH1 0x40 MLOAD DUP1 SWAP2 SUB SWAP1 RETURN JUMPDEST PUSH2 0x27E PUSH1 0x4 DUP1 CALLDATASIZE SUB DUP2 ADD SWAP1 PUSH2 0x279 SWAP2 SWAP1 PUSH2 0x156A JUMP JUMPDEST PUSH2 0x9DC JUMP JUMPDEST PUSH1 0x40 MLOAD PUSH2 0x28B SWAP2 SWAP1 PUSH2 0x134C JUMP JUMPDEST PUSH1 0x40 MLOAD DUP1 SWAP2 SUB SWAP1 RETURN JUMPDEST PUSH2 0x29C PUSH2 0xA3F JUMP JUMPDEST PUSH1 0x40 MLOAD PUSH2 0x2A9 SWAP2 SWAP1 PUSH2 0x14F7 JUMP JUMPDEST PUSH1 0x40 MLOAD DUP1 SWAP2 SUB SWAP1 RETURN JUMPDEST PUSH2 0x2BA PUSH2 0xA45 JUMP JUMPDEST PUSH1 0x40 MLOAD PUSH2 0x2C7 SWAP2 SWAP1 PUSH2 0x14F7 JUMP JUMPDEST PUSH1 0x40 MLOAD DUP1 SWAP2 SUB SWAP1 RETURN JUMPDEST PUSH2 0x2EA PUSH1 0x4 DUP1 CALLDATASIZE SUB DUP2 ADD SWAP1 PUSH2 0x2E5 SWAP2 SWAP1 PUSH2 0x156A JUMP JUMPDEST PUSH2 0xA69 JUMP JUMPDEST STOP JUMPDEST PUSH2 0x306 PUSH1 0x4 DUP1 CALLDATASIZE SUB DUP2 ADD SWAP1 PUSH2 0x301 SWAP2 SWAP1 PUSH2 0x1761 JUMP JUMPDEST PUSH2 0xA8B JUMP JUMPDEST STOP JUMPDEST PUSH2 0x322 PUSH1 0x4 DUP1 CALLDATASIZE SUB DUP2 ADD SWAP1 PUSH2 0x31D SWAP2 SWAP1 PUSH2 0x14BD JUMP JUMPDEST PUSH2 0xC86 JUMP JUMPDEST STOP JUMPDEST PUSH2 0x32C PUSH2 0xE9A JUMP JUMPDEST PUSH1 0x40 MLOAD PUSH2 0x339 SWAP2 SWAP1 PUSH2 0x1827 JUMP JUMPDEST PUSH1 0x40 MLOAD DUP1 SWAP2 SUB SWAP1 RETURN JUMPDEST PUSH0 PUSH32 0x7965DB0B00000000000000000000000000000000000000000000000000000000 PUSH28 0xFFFFFFFFFFFFFFFFFFFFFFFFFFFFFFFFFFFFFFFFFFFFFFFFFFFFFFFF NOT AND DUP3 PUSH28 0xFFFFFFFFFFFFFFFFFFFFFFFFFFFFFFFFFFFFFFFFFFFFFFFFFFFFFFFF NOT AND EQ DUP1 PUSH2 0x3B4 JUMPI POP PUSH2 0x3B3 DUP3 PUSH2 0xEAA JUMP JUMPDEST JUMPDEST SWAP1 POP SWAP2 SWAP1 POP JUMP JUMPDEST PUSH32 0x41D12FE3B2FFE2AEA01A3E08EC191D0142900EFE396C6CD50B857AF5B6F1BDAE PUSH2 0x3E5 DUP2 PUSH2 0xF13 JUMP JUMPDEST TIMESTAMP DUP3 GT PUSH2 0x427 JUMPI PUSH1 0x40 MLOAD PUSH32 0x8C379A000000000000000000000000000000000000000000000000000000000 DUP2 MSTORE PUSH1 0x4 ADD PUSH2 0x41E SWAP1 PUSH2 0x18C0 JUMP JUMPDEST PUSH1 0x40 MLOAD DUP1 SWAP2 SUB SWAP1 REVERT JUMPDEST PUSH0 DUP7 DUP7 DUP7 DUP7 CALLER DUP8 PUSH1 0x40 MLOAD PUSH1 0x20 ADD PUSH2 0x443 SWAP7 SWAP6 SWAP5 SWAP4 SWAP3 SWAP2 SWAP1 PUSH2 0x197F JUMP JUMPDEST PUSH1 0x40 MLOAD PUSH1 0x20 DUP2 DUP4 SUB SUB DUP2 MSTORE SWAP1 PUSH1 0x40 MSTORE DUP1 MLOAD SWAP1 PUSH1 0x20 ADD KECCAK256 SWAP1 POP PUSH2 0x46F DUP2 PUSH1 0x2 PUSH2 0xF27 SWAP1 SWAP2 SWAP1 PUSH4 0xFFFFFFFF AND JUMP JUMPDEST ISZERO PUSH2 0x4AF JUMPI PUSH1 0x40 MLOAD PUSH32 0x8C379A000000000000000000000000000000000000000000000000000000000 DUP2 MSTORE PUSH1 0x4 ADD PUSH2 0x4A6 SWAP1 PUSH2 0x1A38 JUMP JUMPDEST PUSH1 0x40 MLOAD DUP1 SWAP2 SUB SWAP1 REVERT JUMPDEST PUSH1 0x40 MLOAD DUP1 PUSH1 0xC0 ADD PUSH1 0x40 MSTORE DUP1 DUP9 DUP9 DUP1 DUP1 PUSH1 0x1F ADD PUSH1 0x20 DUP1 SWAP2 DIV MUL PUSH1 0x20 ADD PUSH1 0x40 MLOAD SWAP1 DUP2 ADD PUSH1 0x40 MSTORE DUP1 SWAP4 SWAP3 SWAP2 SWAP1 DUP2 DUP2 MSTORE PUSH1 0x20 ADD DUP4 DUP4 DUP1 DUP3 DUP5 CALLDATACOPY PUSH0 DUP2 DUP5 ADD MSTORE PUSH1 0x1F NOT PUSH1 0x1F DUP3 ADD AND SWAP1 POP DUP1 DUP4 ADD SWAP3 POP POP POP POP POP POP POP DUP2 MSTORE PUSH1 0x20 ADD DUP7 DUP7 DUP1 DUP1 PUSH1 0x1F ADD PUSH1 0x20 DUP1 SWAP2 DIV MUL PUSH1 0x20 ADD PUSH1 0x40 MLOAD SWAP1 DUP2 ADD PUSH1 0x40 MSTORE DUP1 SWAP4 SWAP3 SWAP2 SWAP1 DUP2 DUP2 MSTORE PUSH1 0x20 ADD DUP4 DUP4 DUP1 DUP3 DUP5 CALLDATACOPY PUSH0 DUP2 DUP5 ADD MSTORE PUSH1 0x1F NOT PUSH1 0x1F DUP3 ADD AND SWAP1 POP DUP1 DUP4 ADD SWAP3 POP POP POP POP POP POP POP DUP2 MSTORE PUSH1 0x20 ADD CALLER PUSH20 0xFFFFFFFFFFFFFFFFFFFFFFFFFFFFFFFFFFFFFFFF AND DUP2 MSTORE PUSH1 0x20 ADD DUP5 DUP2 MSTORE PUSH1 0x20 ADD PUSH0 DUP2 MSTORE PUSH1 0x20 ADD PUSH1 0x1 ISZERO ISZERO DUP2 MSTORE POP PUSH1 0x1 PUSH0 DUP4 DUP2 MSTORE PUSH1 0x20 ADD SWAP1 DUP2 MSTORE PUSH1 0x20 ADD PUSH0 KECCAK256 PUSH0 DUP3 ADD MLOAD DUP2 PUSH0 ADD SWAP1 DUP2 PUSH2 0x59F SWAP2 SWAP1 PUSH2 0x1C7D JUMP JUMPDEST POP PUSH1 0x20 DUP3 ADD MLOAD DUP2 PUSH1 0x1 ADD SWAP1 DUP2 PUSH2 0x5B5 SWAP2 SWAP1 PUSH2 0x1C7D JUMP JUMPDEST POP PUSH1 0x40 DUP3 ADD MLOAD DUP2 PUSH1 0x2 ADD PUSH0 PUSH2 0x100 EXP DUP2 SLOAD DUP2 PUSH20 0xFFFFFFFFFFFFFFFFFFFFFFFFFFFFFFFFFFFFFFFF MUL NOT AND SWAP1 DUP4 PUSH20 0xFFFFFFFFFFFFFFFFFFFFFFFFFFFFFFFFFFFFFFFF AND MUL OR SWAP1 SSTORE POP PUSH1 0x60 DUP3 ADD MLOAD DUP2 PUSH1 0x3 ADD SSTORE PUSH1 0x80 DUP3 ADD MLOAD DUP2 PUSH1 0x4 ADD SSTORE PUSH1 0xA0 DUP3 ADD MLOAD DUP2 PUSH1 0x5 ADD PUSH0 PUSH2 0x100 EXP DUP2 SLOAD DUP2 PUSH1 0xFF MUL NOT AND SWAP1 DUP4 ISZERO ISZERO MUL OR SWAP1 SSTORE POP SWAP1 POP POP PUSH2 0x646 DUP2 PUSH1 0x2 PUSH2 0xF3C SWAP1 SWAP2 SWAP1 PUSH4 0xFFFFFFFF AND JUMP JUMPDEST POP CALLER PUSH20 0xFFFFFFFFFFFFFFFFFFFFFFFFFFFFFFFFFFFFFFFF AND DUP2 PUSH32 0x1E732C1536D9533C8C8E726DA4BEC0A680FD0F3F17E262BEB1BB2AA1FCD26202 DUP10 DUP10 DUP10 DUP10 DUP10 PUSH1 0x40 MLOAD PUSH2 0x696 SWAP6 SWAP5 SWAP4 SWAP3 SWAP2 SWAP1 PUSH2 0x1D78 JUMP JUMPDEST PUSH1 0x40 MLOAD DUP1 SWAP2 SUB SWAP1 LOG3 POP POP POP POP POP POP POP JUMP JUMPDEST PUSH0 DUP1 PUSH0 DUP4 DUP2 MSTORE PUSH1 0x20 ADD SWAP1 DUP2 MSTORE PUSH1 0x20 ADD PUSH0 KECCAK256 PUSH1 0x1 ADD SLOAD SWAP1 POP SWAP2 SWAP1 POP JUMP JUMPDEST PUSH2 0x6CC DUP3 PUSH2 0x6A7 JUMP JUMPDEST PUSH2 0x6D5 DUP2 PUSH2 0xF13 JUMP JUMPDEST PUSH2 0x6DF DUP4 DUP4 PUSH2 0xF51 JUMP JUMPDEST POP POP POP POP JUMP JUMPDEST PUSH2 0x6ED PUSH2 0x1260 JUMP JUMPDEST PUSH2 0x701 DUP3 PUSH1 0x2 PUSH2 0xF27 SWAP1 SWAP2 SWAP1 PUSH4 0xFFFFFFFF AND JUMP JUMPDEST PUSH2 0x740 JUMPI PUSH1 0x40 MLOAD PUSH32 0x8C379A000000000000000000000000000000000000000000000000000000000 DUP2 MSTORE PUSH1 0x4 ADD PUSH2 0x737 SWAP1 PUSH2 0x1E2F JUMP JUMPDEST PUSH1 0x40 MLOAD DUP1 SWAP2 SUB SWAP1 REVERT JUMPDEST PUSH1 0x1 PUSH0 DUP4 DUP2 MSTORE PUSH1 0x20 ADD SWAP1 DUP2 MSTORE PUSH1 0x20 ADD PUSH0 KECCAK256 PUSH1 0x40 MLOAD DUP1 PUSH1 0xC0 ADD PUSH1 0x40 MSTORE SWAP1 DUP2 PUSH0 DUP3 ADD DUP1 SLOAD PUSH2 0x76B SWAP1 PUSH2 0x1AB0 JUMP JUMPDEST DUP1 PUSH1 0x1F ADD PUSH1 0x20 DUP1 SWAP2 DIV MUL PUSH1 0x20 ADD PUSH1 0x40 MLOAD SWAP1 DUP2 ADD PUSH1 0x40 MSTORE DUP1 SWAP3 SWAP2 SWAP1 DUP2 DUP2 MSTORE PUSH1 0x20 ADD DUP3 DUP1 SLOAD PUSH2 0x797 SWAP1 PUSH2 0x1AB0 JUMP JUMPDEST DUP1 ISZERO PUSH2 0x7E2 JUMPI DUP1 PUSH1 0x1F LT PUSH2 0x7B9 JUMPI PUSH2 0x100 DUP1 DUP4 SLOAD DIV MUL DUP4 MSTORE SWAP2 PUSH1 0x20 ADD SWAP2 PUSH2 0x7E2 JUMP JUMPDEST DUP3 ADD SWAP2 SWAP1 PUSH0 MSTORE PUSH1 0x20 PUSH0 KECCAK256 SWAP1 JUMPDEST DUP2 SLOAD DUP2 MSTORE SWAP1 PUSH1 0x1 ADD SWAP1 PUSH1 0x20 ADD DUP1 DUP4 GT PUSH2 0x7C5 JUMPI DUP3 SWAP1 SUB PUSH1 0x1F AND DUP3 ADD SWAP2 JUMPDEST POP POP POP POP POP DUP2 MSTORE PUSH1 0x20 ADD PUSH1 0x1 DUP3 ADD DUP1 SLOAD PUSH2 0x7FB SWAP1 PUSH2 0x1AB0 JUMP JUMPDEST DUP1 PUSH1 0x1F ADD PUSH1 0x20 DUP1 SWAP2 DIV MUL PUSH1 0x20 ADD PUSH1 0x40 MLOAD SWAP1 DUP2 ADD PUSH1 0x40 MSTORE DUP1 SWAP3 SWAP2 SWAP1 DUP2 DUP2 MSTORE PUSH1 0x20 ADD DUP3 DUP1 SLOAD PUSH2 0x827 SWAP1 PUSH2 0x1AB0 JUMP JUMPDEST DUP1 ISZERO PUSH2 0x872 JUMPI DUP1 PUSH1 0x1F LT PUSH2 0x849 JUMPI PUSH2 0x100 DUP1 DUP4 SLOAD DIV MUL DUP4 MSTORE SWAP2 PUSH1 0x20 ADD SWAP2 PUSH2 0x872 JUMP JUMPDEST DUP3 ADD SWAP2 SWAP1 PUSH0 MSTORE PUSH1 0x20 PUSH0 KECCAK256 SWAP1 JUMPDEST DUP2 SLOAD DUP2 MSTORE SWAP1 PUSH1 0x1 ADD SWAP1 PUSH1 0x20 ADD DUP1 DUP4 GT PUSH2 0x855 JUMPI DUP3 SWAP1 SUB PUSH1 0x1F AND DUP3 ADD SWAP2 JUMPDEST POP POP POP POP POP DUP2 MSTORE PUSH1 0x20 ADD PUSH1 0x2 DUP3 ADD PUSH0 SWAP1 SLOAD SWAP1 PUSH2 0x100 EXP SWAP1 DIV PUSH20 0xFFFFFFFFFFFFFFFFFFFFFFFFFFFFFFFFFFFFFFFF AND PUSH20 0xFFFFFFFFFFFFFFFFFFFFFFFFFFFFFFFFFFFFFFFF AND PUSH20 0xFFFFFFFFFFFFFFFFFFFFFFFFFFFFFFFFFFFFFFFF AND DUP2 MSTORE PUSH1 0x20 ADD PUSH1 0x3 DUP3 ADD SLOAD DUP2 MSTORE PUSH1 0x20 ADD PUSH1 0x4 DUP3 ADD SLOAD DUP2 MSTORE PUSH1 0x20 ADD PUSH1 0x5 DUP3 ADD PUSH0 SWAP1 SLOAD SWAP1 PUSH2 0x100 EXP SWAP1 DIV PUSH1 0xFF AND ISZERO ISZERO ISZERO ISZERO DUP2 MSTORE POP POP SWAP1 POP SWAP2 SWAP1 POP JUMP JUMPDEST PUSH2 0x90D PUSH2 0x103A JUMP JUMPDEST PUSH20 0xFFFFFFFFFFFFFFFFFFFFFFFFFFFFFFFFFFFFFFFF AND DUP2 PUSH20 0xFFFFFFFFFFFFFFFFFFFFFFFFFFFFFFFFFFFFFFFF AND EQ PUSH2 0x971 JUMPI PUSH1 0x40 MLOAD PUSH32 0x6697B23200000000000000000000000000000000000000000000000000000000 DUP2 MSTORE PUSH1 0x4 ADD PUSH1 0x40 MLOAD DUP1 SWAP2 SUB SWAP1 REVERT JUMPDEST PUSH2 0x97B DUP3 DUP3 PUSH2 0x1041 JUMP JUMPDEST POP POP POP JUMP JUMPDEST PUSH0 PUSH2 0x995 DUP3 PUSH1 0x2 PUSH2 0xF27 SWAP1 SWAP2 SWAP1 PUSH4 0xFFFFFFFF AND JUMP JUMPDEST SWAP1 POP SWAP2 SWAP1 POP JUMP JUMPDEST PUSH32 0xA49807205CE4D355092EF5A8A18F56E8913CF4A201FBE287825B095693C21775 DUP2 JUMP JUMPDEST PUSH0 PUSH2 0x9D5 DUP3 PUSH1 0x2 PUSH2 0x112A SWAP1 SWAP2 SWAP1 PUSH4 0xFFFFFFFF AND JUMP JUMPDEST SWAP1 POP SWAP2 SWAP1 POP JUMP JUMPDEST PUSH0 DUP1 PUSH0 DUP5 DUP2 MSTORE PUSH1 0x20 ADD SWAP1 DUP2 MSTORE PUSH1 0x20 ADD PUSH0 KECCAK256 PUSH0 ADD PUSH0 DUP4 PUSH20 0xFFFFFFFFFFFFFFFFFFFFFFFFFFFFFFFFFFFFFFFF AND PUSH20 0xFFFFFFFFFFFFFFFFFFFFFFFFFFFFFFFFFFFFFFFF AND DUP2 MSTORE PUSH1 0x20 ADD SWAP1 DUP2 MSTORE PUSH1 0x20 ADD PUSH0 KECCAK256 PUSH0 SWAP1 SLOAD SWAP1 PUSH2 0x100 EXP SWAP1 DIV PUSH1 0xFF AND SWAP1 POP SWAP3 SWAP2 POP POP JUMP JUMPDEST PUSH0 DUP1 SHL DUP2 JUMP JUMPDEST PUSH32 0x41D12FE3B2FFE2AEA01A3E08EC191D0142900EFE396C6CD50B857AF5B6F1BDAE DUP2 JUMP JUMPDEST PUSH2 0xA72 DUP3 PUSH2 0x6A7 JUMP JUMPDEST PUSH2 0xA7B DUP2 PUSH2 0xF13 JUMP JUMPDEST PUSH2 0xA85 DUP4 DUP4 PUSH2 0x1041 JUMP JUMPDEST POP POP POP POP JUMP JUMPDEST PUSH32 0x41D12FE3B2FFE2AEA01A3E08EC191D0142900EFE396C6CD50B857AF5B6F1BDAE PUSH2 0xAB5 DUP2 PUSH2 0xF13 JUMP JUMPDEST PUSH2 0xAC9 DUP9 PUSH1 0x2 PUSH2 0xF27 SWAP1 SWAP2 SWAP1 PUSH4 0xFFFFFFFF AND JUMP JUMPDEST PUSH2 0xB08 JUMPI PUSH1 0x40 MLOAD PUSH32 0x8C379A000000000000000000000000000000000000000000000000000000000 DUP2 MSTORE PUSH1 0x4 ADD PUSH2 0xAFF SWAP1 PUSH2 0x1E2F JUMP JUMPDEST PUSH1 0x40 MLOAD DUP1 SWAP2 SUB SWAP1 REVERT JUMPDEST CALLER PUSH20 0xFFFFFFFFFFFFFFFFFFFFFFFFFFFFFFFFFFFFFFFF AND PUSH1 0x1 PUSH0 DUP11 DUP2 MSTORE PUSH1 0x20 ADD SWAP1 DUP2 MSTORE PUSH1 0x20 ADD PUSH0 KECCAK256 PUSH1 0x2 ADD PUSH0 SWAP1 SLOAD SWAP1 PUSH2 0x100 EXP SWAP1 DIV PUSH20 0xFFFFFFFFFFFFFFFFFFFFFFFFFFFFFFFFFFFFFFFF AND PUSH20 0xFFFFFFFFFFFFFFFFFFFFFFFFFFFFFFFFFFFFFFFF AND EQ DUP1 PUSH2 0xB9B JUMPI POP PUSH2 0xB9A PUSH32 0xA49807205CE4D355092EF5A8A18F56E8913CF4A201FBE287825B095693C21775 CALLER PUSH2 0x9DC JUMP JUMPDEST JUMPDEST PUSH2 0xBDA JUMPI PUSH1 0x40 MLOAD PUSH32 0x8C379A000000000000000000000000000000000000000000000000000000000 DUP2 MSTORE PUSH1 0x4 ADD PUSH2 0xBD1 SWAP1 PUSH2 0x1EBD JUMP JUMPDEST PUSH1 0x40 MLOAD DUP1 SWAP2 SUB SWAP1 REVERT JUMPDEST PUSH0 PUSH1 0x1 PUSH0 DUP11 DUP2 MSTORE PUSH1 0x20 ADD SWAP1 DUP2 MSTORE PUSH1 0x20 ADD PUSH0 KECCAK256 SWAP1 POP DUP8 DUP8 DUP3 PUSH0 ADD SWAP2 DUP3 PUSH2 0xC00 SWAP3 SWAP2 SWAP1 PUSH2 0x1EE5 JUMP JUMPDEST POP DUP6 DUP6 DUP3 PUSH1 0x1 ADD SWAP2 DUP3 PUSH2 0xC14 SWAP3 SWAP2 SWAP1 PUSH2 0x1EE5 JUMP JUMPDEST POP DUP4 DUP2 PUSH1 0x4 ADD DUP2 SWAP1 SSTORE POP DUP3 DUP2 PUSH1 0x5 ADD PUSH0 PUSH2 0x100 EXP DUP2 SLOAD DUP2 PUSH1 0xFF MUL NOT AND SWAP1 DUP4 ISZERO ISZERO MUL OR SWAP1 SSTORE POP DUP9 PUSH32 0x9D9EC16CAF1F85B07D074EC3AAF2E3BEBD495D1678169881BD7A0ADE2674F59F DUP10 DUP10 DUP10 DUP10 DUP10 DUP10 PUSH1 0x40 MLOAD PUSH2 0xC73 SWAP7 SWAP6 SWAP5 SWAP4 SWAP3 SWAP2 SWAP1 PUSH2 0x1FB2 JUMP JUMPDEST PUSH1 0x40 MLOAD DUP1 SWAP2 SUB SWAP1 LOG2 POP POP POP POP POP POP POP POP POP JUMP JUMPDEST PUSH32 0x41D12FE3B2FFE2AEA01A3E08EC191D0142900EFE396C6CD50B857AF5B6F1BDAE PUSH2 0xCB0 DUP2 PUSH2 0xF13 JUMP JUMPDEST PUSH2 0xCC4 DUP3 PUSH1 0x2 PUSH2 0xF27 SWAP1 SWAP2 SWAP1 PUSH4 0xFFFFFFFF AND JUMP JUMPDEST PUSH2 0xD03 JUMPI PUSH1 0x40 MLOAD PUSH32 0x8C379A000000000000000000000000000000000000000000000000000000000 DUP2 MSTORE PUSH1 0x4 ADD PUSH2 0xCFA SWAP1 PUSH2 0x1E2F JUMP JUMPDEST PUSH1 0x40 MLOAD DUP1 SWAP2 SUB SWAP1 REVERT JUMPDEST CALLER PUSH20 0xFFFFFFFFFFFFFFFFFFFFFFFFFFFFFFFFFFFFFFFF AND PUSH1 0x1 PUSH0 DUP5 DUP2 MSTORE PUSH1 0x20 ADD SWAP1 DUP2 MSTORE PUSH1 0x20 ADD PUSH0 KECCAK256 PUSH1 0x2 ADD PUSH0 SWAP1 SLOAD SWAP1 PUSH2 0x100 EXP SWAP1 DIV PUSH20 0xFFFFFFFFFFFFFFFFFFFFFFFFFFFFFFFFFFFFFFFF AND PUSH20 0xFFFFFFFFFFFFFFFFFFFFFFFFFFFFFFFFFFFFFFFF AND EQ DUP1 PUSH2 0xD96 JUMPI POP PUSH2 0xD95 PUSH32 0xA49807205CE4D355092EF5A8A18F56E8913CF4A201FBE287825B095693C21775 CALLER PUSH2 0x9DC JUMP JUMPDEST JUMPDEST PUSH2 0xDD5 JUMPI PUSH1 0x40 MLOAD PUSH32 0x8C379A000000000000000000000000000000000000000000000000000000000 DUP2 MSTORE PUSH1 0x4 ADD PUSH2 0xDCC SWAP1 PUSH2 0x2077 JUMP JUMPDEST PUSH1 0x40 MLOAD DUP1 SWAP2 SUB SWAP1 REVERT JUMPDEST PUSH0 PUSH1 0x1 PUSH0 DUP5 DUP2 MSTORE PUSH1 0x20 ADD SWAP1 DUP2 MSTORE PUSH1 0x20 ADD PUSH0 KECCAK256 SWAP1 POP DUP1 PUSH1 0x5 ADD PUSH0 SWAP1 SLOAD SWAP1 PUSH2 0x100 EXP SWAP1 DIV PUSH1 0xFF AND PUSH2 0xE39 JUMPI PUSH1 0x40 MLOAD PUSH32 0x8C379A000000000000000000000000000000000000000000000000000000000 DUP2 MSTORE PUSH1 0x4 ADD PUSH2 0xE30 SWAP1 PUSH2 0x2105 JUMP JUMPDEST PUSH1 0x40 MLOAD DUP1 SWAP2 SUB SWAP1 REVERT JUMPDEST PUSH0 DUP2 PUSH1 0x5 ADD PUSH0 PUSH2 0x100 EXP DUP2 SLOAD DUP2 PUSH1 0xFF MUL NOT AND SWAP1 DUP4 ISZERO ISZERO MUL OR SWAP1 SSTORE POP TIMESTAMP DUP2 PUSH1 0x4 ADD DUP2 SWAP1 SSTORE POP DUP3 PUSH32 0xF24C67772DB752F499CB9B8C61BEBBAE0A79A2712100322F07E1EF7395A19A13 TIMESTAMP PUSH1 0x40 MLOAD PUSH2 0xE8D SWAP2 SWAP1 PUSH2 0x1827 JUMP JUMPDEST PUSH1 0x40 MLOAD DUP1 SWAP2 SUB SWAP1 LOG2 POP POP POP JUMP JUMPDEST PUSH0 PUSH2 0xEA5 PUSH1 0x2 PUSH2 0x113F JUMP JUMPDEST SWAP1 POP SWAP1 JUMP JUMPDEST PUSH0 PUSH32 0x1FFC9A700000000000000000000000000000000000000000000000000000000 PUSH28 0xFFFFFFFFFFFFFFFFFFFFFFFFFFFFFFFFFFFFFFFFFFFFFFFFFFFFFFFF NOT AND DUP3 PUSH28 0xFFFFFFFFFFFFFFFFFFFFFFFFFFFFFFFFFFFFFFFFFFFFFFFFFFFFFFFF NOT AND EQ SWAP1 POP SWAP2 SWAP1 POP JUMP JUMPDEST PUSH2 0xF24 DUP2 PUSH2 0xF1F PUSH2 0x103A JUMP JUMPDEST PUSH2 0x1152 JUMP JUMPDEST POP JUMP JUMPDEST PUSH0 PUSH2 0xF34 DUP4 PUSH0 ADD DUP4 PUSH2 0x11A3 JUMP JUMPDEST SWAP1 POP SWAP3 SWAP2 POP POP JUMP JUMPDEST PUSH0 PUSH2 0xF49 DUP4 PUSH0 ADD DUP4 PUSH2 0x11C3 JUMP JUMPDEST SWAP1 POP SWAP3 SWAP2 POP POP JUMP JUMPDEST PUSH0 PUSH2 0xF5C DUP4 DUP4 PUSH2 0x9DC JUMP JUMPDEST PUSH2 0x1030 JUMPI PUSH1 0x1 PUSH0 DUP1 DUP6 DUP2 MSTORE PUSH1 0x20 ADD SWAP1 DUP2 MSTORE PUSH1 0x20 ADD PUSH0 KECCAK256 PUSH0 ADD PUSH0 DUP5 PUSH20 0xFFFFFFFFFFFFFFFFFFFFFFFFFFFFFFFFFFFFFFFF AND PUSH20 0xFFFFFFFFFFFFFFFFFFFFFFFFFFFFFFFFFFFFFFFF AND DUP2 MSTORE PUSH1 0x20 ADD SWAP1 DUP2 MSTORE PUSH1 0x20 ADD PUSH0 KECCAK256 PUSH0 PUSH2 0x100 EXP DUP2 SLOAD DUP2 PUSH1 0xFF MUL NOT AND SWAP1 DUP4 ISZERO ISZERO MUL OR SWAP1 SSTORE POP PUSH2 0xFCD PUSH2 0x103A JUMP JUMPDEST PUSH20 0xFFFFFFFFFFFFFFFFFFFFFFFFFFFFFFFFFFFFFFFF AND DUP3 PUSH20 0xFFFFFFFFFFFFFFFFFFFFFFFFFFFFFFFFFFFFFFFF AND DUP5 PUSH32 0x2F8788117E7EFF1D82E926EC794901D17C78024A50270940304540A733656F0D PUSH1 0x40 MLOAD PUSH1 0x40 MLOAD DUP1 SWAP2 SUB SWAP1 LOG4 PUSH1 0x1 SWAP1 POP PUSH2 0x1034 JUMP JUMPDEST PUSH0 SWAP1 POP JUMPDEST SWAP3 SWAP2 POP POP JUMP JUMPDEST PUSH0 CALLER SWAP1 POP SWAP1 JUMP JUMPDEST PUSH0 PUSH2 0x104C DUP4 DUP4 PUSH2 0x9DC JUMP JUMPDEST ISZERO PUSH2 0x1120 JUMPI PUSH0 DUP1 PUSH0 DUP6 DUP2 MSTORE PUSH1 0x20 ADD SWAP1 DUP2 MSTORE PUSH1 0x20 ADD PUSH0 KECCAK256 PUSH0 ADD PUSH0 DUP5 PUSH20 0xFFFFFFFFFFFFFFFFFFFFFFFFFFFFFFFFFFFFFFFF AND PUSH20 0xFFFFFFFFFFFFFFFFFFFFFFFFFFFFFFFFFFFFFFFF AND DUP2 MSTORE PUSH1 0x20 ADD SWAP1 DUP2 MSTORE PUSH1 0x20 ADD PUSH0 KECCAK256 PUSH0 PUSH2 0x100 EXP DUP2 SLOAD DUP2 PUSH1 0xFF MUL NOT AND SWAP1 DUP4 ISZERO ISZERO MUL OR SWAP1 SSTORE POP PUSH2 0x10BD PUSH2 0x103A JUMP JUMPDEST PUSH20 0xFFFFFFFFFFFFFFFFFFFFFFFFFFFFFFFFFFFFFFFF AND DUP3 PUSH20 0xFFFFFFFFFFFFFFFFFFFFFFFFFFFFFFFFFFFFFFFF AND DUP5 PUSH32 0xF6391F5C32D9C69D2A47EA670B442974B53935D1EDC7FD64EB21E047A839171B PUSH1 0x40 MLOAD PUSH1 0x40 MLOAD DUP1 SWAP2 SUB SWAP1 LOG4 PUSH1 0x1 SWAP1 POP PUSH2 0x1124 JUMP JUMPDEST PUSH0 SWAP1 POP JUMPDEST SWAP3 SWAP2 POP POP JUMP JUMPDEST PUSH0 PUSH2 0x1137 DUP4 PUSH0 ADD DUP4 PUSH2 0x122A JUMP JUMPDEST SWAP1 POP SWAP3 SWAP2 POP POP JUMP JUMPDEST PUSH0 PUSH2 0x114B DUP3 PUSH0 ADD PUSH2 0x1251 JUMP JUMPDEST SWAP1 POP SWAP2 SWAP1 POP JUMP JUMPDEST PUSH2 0x115C DUP3 DUP3 PUSH2 0x9DC JUMP JUMPDEST PUSH2 0x119F JUMPI DUP1 DUP3 PUSH1 0x40 MLOAD PUSH32 0xE2517D3F00000000000000000000000000000000000000000000000000000000 DUP2 MSTORE PUSH1 0x4 ADD PUSH2 0x1196 SWAP3 SWAP2 SWAP1 PUSH2 0x2132 JUMP JUMPDEST PUSH1 0x40 MLOAD DUP1 SWAP2 SUB SWAP1 REVERT JUMPDEST POP POP JUMP JUMPDEST PUSH0 DUP1 DUP4 PUSH1 0x1 ADD PUSH0 DUP5 DUP2 MSTORE PUSH1 0x20 ADD SWAP1 DUP2 MSTORE PUSH1 0x20 ADD PUSH0 KECCAK256 SLOAD EQ ISZERO SWAP1 POP SWAP3 SWAP2 POP POP JUMP JUMPDEST PUSH0 PUSH2 0x11CE DUP4 DUP4 PUSH2 0x11A3 JUMP JUMPDEST PUSH2 0x1220 JUMPI DUP3 PUSH0 ADD DUP3 SWAP1 DUP1 PUSH1 0x1 DUP2 SLOAD ADD DUP1 DUP3 SSTORE DUP1 SWAP2 POP POP PUSH1 0x1 SWAP1 SUB SWAP1 PUSH0 MSTORE PUSH1 0x20 PUSH0 KECCAK256 ADD PUSH0 SWAP1 SWAP2 SWAP1 SWAP2 SWAP1 SWAP2 POP SSTORE DUP3 PUSH0 ADD DUP1 SLOAD SWAP1 POP DUP4 PUSH1 0x1 ADD PUSH0 DUP5 DUP2 MSTORE PUSH1 0x20 ADD SWAP1 DUP2 MSTORE PUSH1 0x20 ADD PUSH0 KECCAK256 DUP2 SWAP1 SSTORE POP PUSH1 0x1 SWAP1 POP PUSH2 0x1224 JUMP JUMPDEST PUSH0 SWAP1 POP JUMPDEST SWAP3 SWAP2 POP POP JUMP JUMPDEST PUSH0 DUP3 PUSH0 ADD DUP3 DUP2 SLOAD DUP2 LT PUSH2 0x1240 JUMPI PUSH2 0x123F PUSH2 0x2159 JUMP JUMPDEST JUMPDEST SWAP1 PUSH0 MSTORE PUSH1 0x20 PUSH0 KECCAK256 ADD SLOAD SWAP1 POP SWAP3 SWAP2 POP POP JUMP JUMPDEST PUSH0 DUP2 PUSH0 ADD DUP1 SLOAD SWAP1 POP SWAP1 POP SWAP2 SWAP1 POP JUMP JUMPDEST PUSH1 0x40 MLOAD DUP1 PUSH1 0xC0 ADD PUSH1 0x40 MSTORE DUP1 PUSH1 0x60 DUP2 MSTORE PUSH1 0x20 ADD PUSH1 0x60 DUP2 MSTORE PUSH1 0x20 ADD PUSH0 PUSH20 0xFFFFFFFFFFFFFFFFFFFFFFFFFFFFFFFFFFFFFFFF AND DUP2 MSTORE PUSH1 0x20 ADD PUSH0 DUP2 MSTORE PUSH1 0x20 ADD PUSH0 DUP2 MSTORE PUSH1 0x20 ADD PUSH0 ISZERO ISZERO DUP2 MSTORE POP SWAP1 JUMP JUMPDEST PUSH0 DUP1 REVERT JUMPDEST PUSH0 DUP1 REVERT JUMPDEST PUSH0 PUSH32 0xFFFFFFFF00000000000000000000000000000000000000000000000000000000 DUP3 AND SWAP1 POP SWAP2 SWAP1 POP JUMP JUMPDEST PUSH2 0x12E6 DUP2 PUSH2 0x12B2 JUMP JUMPDEST DUP2 EQ PUSH2 0x12F0 JUMPI PUSH0 DUP1 REVERT JUMPDEST POP JUMP JUMPDEST PUSH0 DUP2 CALLDATALOAD SWAP1 POP PUSH2 0x1301 DUP2 PUSH2 0x12DD JUMP JUMPDEST SWAP3 SWAP2 POP POP JUMP JUMPDEST PUSH0 PUSH1 0x20 DUP3 DUP5 SUB SLT ISZERO PUSH2 0x131C JUMPI PUSH2 0x131B PUSH2 0x12AA JUMP JUMPDEST JUMPDEST PUSH0 PUSH2 0x1329 DUP5 DUP3 DUP6 ADD PUSH2 0x12F3 JUMP JUMPDEST SWAP2 POP POP SWAP3 SWAP2 POP POP JUMP JUMPDEST PUSH0 DUP2 ISZERO ISZERO SWAP1 POP SWAP2 SWAP1 POP JUMP JUMPDEST PUSH2 0x1346 DUP2 PUSH2 0x1332 JUMP JUMPDEST DUP3 MSTORE POP POP JUMP JUMPDEST PUSH0 PUSH1 0x20 DUP3 ADD SWAP1 POP PUSH2 0x135F PUSH0 DUP4 ADD DUP5 PUSH2 0x133D JUMP JUMPDEST SWAP3 SWAP2 POP POP JUMP JUMPDEST PUSH0 DUP1 REVERT JUMPDEST PUSH0 DUP1 REVERT JUMPDEST PUSH0 DUP1 REVERT JUMPDEST PUSH0 DUP1 DUP4 PUSH1 0x1F DUP5 ADD SLT PUSH2 0x1386 JUMPI PUSH2 0x1385 PUSH2 0x1365 JUMP JUMPDEST JUMPDEST DUP3 CALLDATALOAD SWAP1 POP PUSH8 0xFFFFFFFFFFFFFFFF DUP2 GT ISZERO PUSH2 0x13A3 JUMPI PUSH2 0x13A2 PUSH2 0x1369 JUMP JUMPDEST JUMPDEST PUSH1 0x20 DUP4 ADD SWAP2 POP DUP4 PUSH1 0x1 DUP3 MUL DUP4 ADD GT ISZERO PUSH2 0x13BF JUMPI PUSH2 0x13BE PUSH2 0x136D JUMP JUMPDEST JUMPDEST SWAP3 POP SWAP3 SWAP1 POP JUMP JUMPDEST PUSH0 DUP2 SWAP1 POP SWAP2 SWAP1 POP JUMP JUMPDEST PUSH2 0x13D8 DUP2 PUSH2 0x13C6 JUMP JUMPDEST DUP2 EQ PUSH2 0x13E2 JUMPI PUSH0 DUP1 REVERT JUMPDEST POP JUMP JUMPDEST PUSH0 DUP2 CALLDATALOAD SWAP1 POP PUSH2 0x13F3 DUP2 PUSH2 0x13CF JUMP JUMPDEST SWAP3 SWAP2 POP POP JUMP JUMPDEST PUSH0 DUP1 PUSH0 DUP1 PUSH0 PUSH1 0x60 DUP7 DUP9 SUB SLT ISZERO PUSH2 0x1412 JUMPI PUSH2 0x1411 PUSH2 0x12AA JUMP JUMPDEST JUMPDEST PUSH0 DUP7 ADD CALLDATALOAD PUSH8 0xFFFFFFFFFFFFFFFF DUP2 GT ISZERO PUSH2 0x142F JUMPI PUSH2 0x142E PUSH2 0x12AE JUMP JUMPDEST JUMPDEST PUSH2 0x143B DUP9 DUP3 DUP10 ADD PUSH2 0x1371 JUMP JUMPDEST SWAP6 POP SWAP6 POP POP PUSH1 0x20 DUP7 ADD CALLDATALOAD PUSH8 0xFFFFFFFFFFFFFFFF DUP2 GT ISZERO PUSH2 0x145E JUMPI PUSH2 0x145D PUSH2 0x12AE JUMP JUMPDEST JUMPDEST PUSH2 0x146A DUP9 DUP3 DUP10 ADD PUSH2 0x1371 JUMP JUMPDEST SWAP4 POP SWAP4 POP POP PUSH1 0x40 PUSH2 0x147D DUP9 DUP3 DUP10 ADD PUSH2 0x13E5 JUMP JUMPDEST SWAP2 POP POP SWAP3 SWAP6 POP SWAP3 SWAP6 SWAP1 SWAP4 POP JUMP JUMPDEST PUSH0 DUP2 SWAP1 POP SWAP2 SWAP1 POP JUMP JUMPDEST PUSH2 0x149C DUP2 PUSH2 0x148A JUMP JUMPDEST DUP2 EQ PUSH2 0x14A6 JUMPI PUSH0 DUP1 REVERT JUMPDEST POP JUMP JUMPDEST PUSH0 DUP2 CALLDATALOAD SWAP1 POP PUSH2 0x14B7 DUP2 PUSH2 0x1493 JUMP JUMPDEST SWAP3 SWAP2 POP POP JUMP JUMPDEST PUSH0 PUSH1 0x20 DUP3 DUP5 SUB SLT ISZERO PUSH2 0x14D2 JUMPI PUSH2 0x14D1 PUSH2 0x12AA JUMP JUMPDEST JUMPDEST PUSH0 PUSH2 0x14DF DUP5 DUP3 DUP6 ADD PUSH2 0x14A9 JUMP JUMPDEST SWAP2 POP POP SWAP3 SWAP2 POP POP JUMP JUMPDEST PUSH2 0x14F1 DUP2 PUSH2 0x148A JUMP JUMPDEST DUP3 MSTORE POP POP JUMP JUMPDEST PUSH0 PUSH1 0x20 DUP3 ADD SWAP1 POP PUSH2 0x150A PUSH0 DUP4 ADD DUP5 PUSH2 0x14E8 JUMP JUMPDEST SWAP3 SWAP2 POP POP JUMP JUMPDEST PUSH0 PUSH20 0xFFFFFFFFFFFFFFFFFFFFFFFFFFFFFFFFFFFFFFFF DUP3 AND SWAP1 POP SWAP2 SWAP1 POP JUMP JUMPDEST PUSH0 PUSH2 0x1539 DUP3 PUSH2 0x1510 JUMP JUMPDEST SWAP1 POP SWAP2 SWAP1 POP JUMP JUMPDEST PUSH2 0x1549 DUP2 PUSH2 0x152F JUMP JUMPDEST DUP2 EQ PUSH2 0x1553 JUMPI PUSH0 DUP1 REVERT JUMPDEST POP JUMP JUMPDEST PUSH0 DUP2 CALLDATALOAD SWAP1 POP PUSH2 0x1564 DUP2 PUSH2 0x1540 JUMP JUMPDEST SWAP3 SWAP2 POP POP JUMP JUMPDEST PUSH0 DUP1 PUSH1 0x40 DUP4 DUP6 SUB SLT ISZERO PUSH2 0x1580 JUMPI PUSH2 0x157F PUSH2 0x12AA JUMP JUMPDEST JUMPDEST PUSH0 PUSH2 0x158D DUP6 DUP3 DUP7 ADD PUSH2 0x14A9 JUMP JUMPDEST SWAP3 POP POP PUSH1 0x20 PUSH2 0x159E DUP6 DUP3 DUP7 ADD PUSH2 0x1556 JUMP JUMPDEST SWAP2 POP POP SWAP3 POP SWAP3 SWAP1 POP JUMP JUMPDEST PUSH0 DUP2 MLOAD SWAP1 POP SWAP2 SWAP1 POP JUMP JUMPDEST PUSH0 DUP3 DUP3 MSTORE PUSH1 0x20 DUP3 ADD SWAP1 POP SWAP3 SWAP2 POP POP JUMP JUMPDEST PUSH0 JUMPDEST DUP4 DUP2 LT ISZERO PUSH2 0x15DF JUMPI DUP1 DUP3 ADD MLOAD DUP2 DUP5 ADD MSTORE PUSH1 0x20 DUP2 ADD SWAP1 POP PUSH2 0x15C4 JUMP JUMPDEST PUSH0 DUP5 DUP5 ADD MSTORE POP POP POP POP JUMP JUMPDEST PUSH0 PUSH1 0x1F NOT PUSH1 0x1F DUP4 ADD AND SWAP1 POP SWAP2 SWAP1 POP JUMP JUMPDEST PUSH0 PUSH2 0x1604 DUP3 PUSH2 0x15A8 JUMP JUMPDEST PUSH2 0x160E DUP2 DUP6 PUSH2 0x15B2 JUMP JUMPDEST SWAP4 POP PUSH2 0x161E DUP2 DUP6 PUSH1 0x20 DUP7 ADD PUSH2 0x15C2 JUMP JUMPDEST PUSH2 0x1627 DUP2 PUSH2 0x15EA JUMP JUMPDEST DUP5 ADD SWAP2 POP POP SWAP3 SWAP2 POP POP JUMP JUMPDEST PUSH2 0x163B DUP2 PUSH2 0x152F JUMP JUMPDEST DUP3 MSTORE POP POP JUMP JUMPDEST PUSH2 0x164A DUP2 PUSH2 0x13C6 JUMP JUMPDEST DUP3 MSTORE POP POP JUMP JUMPDEST PUSH2 0x1659 DUP2 PUSH2 0x1332 JUMP JUMPDEST DUP3 MSTORE POP POP JUMP JUMPDEST PUSH0 PUSH1 0xC0 DUP4 ADD PUSH0 DUP4 ADD MLOAD DUP5 DUP3 SUB PUSH0 DUP7 ADD MSTORE PUSH2 0x1679 DUP3 DUP3 PUSH2 0x15FA JUMP JUMPDEST SWAP2 POP POP PUSH1 0x20 DUP4 ADD MLOAD DUP5 DUP3 SUB PUSH1 0x20 DUP7 ADD MSTORE PUSH2 0x1693 DUP3 DUP3 PUSH2 0x15FA JUMP JUMPDEST SWAP2 POP POP PUSH1 0x40 DUP4 ADD MLOAD PUSH2 0x16A8 PUSH1 0x40 DUP7 ADD DUP3 PUSH2 0x1632 JUMP JUMPDEST POP PUSH1 0x60 DUP4 ADD MLOAD PUSH2 0x16BB PUSH1 0x60 DUP7 ADD DUP3 PUSH2 0x1641 JUMP JUMPDEST POP PUSH1 0x80 DUP4 ADD MLOAD PUSH2 0x16CE PUSH1 0x80 DUP7 ADD DUP3 PUSH2 0x1641 JUMP JUMPDEST POP PUSH1 0xA0 DUP4 ADD MLOAD PUSH2 0x16E1 PUSH1 0xA0 DUP7 ADD DUP3 PUSH2 0x1650 JUMP JUMPDEST POP DUP1 SWAP2 POP POP SWAP3 SWAP2 POP POP JUMP JUMPDEST PUSH0 PUSH1 0x20 DUP3 ADD SWAP1 POP DUP2 DUP2 SUB PUSH0 DUP4 ADD MSTORE PUSH2 0x1704 DUP2 DUP5 PUSH2 0x165F JUMP JUMPDEST SWAP1 POP SWAP3 SWAP2 POP POP JUMP JUMPDEST PUSH0 PUSH1 0x20 DUP3 DUP5 SUB SLT ISZERO PUSH2 0x1721 JUMPI PUSH2 0x1720 PUSH2 0x12AA JUMP JUMPDEST JUMPDEST PUSH0 PUSH2 0x172E DUP5 DUP3 DUP6 ADD PUSH2 0x13E5 JUMP JUMPDEST SWAP2 POP POP SWAP3 SWAP2 POP POP JUMP JUMPDEST PUSH2 0x1740 DUP2 PUSH2 0x1332 JUMP JUMPDEST DUP2 EQ PUSH2 0x174A JUMPI PUSH0 DUP1 REVERT JUMPDEST POP JUMP JUMPDEST PUSH0 DUP2 CALLDATALOAD SWAP1 POP PUSH2 0x175B DUP2 PUSH2 0x1737 JUMP JUMPDEST SWAP3 SWAP2 POP POP JUMP JUMPDEST PUSH0 DUP1 PUSH0 DUP1 PUSH0 DUP1 PUSH0 PUSH1 0xA0 DUP9 DUP11 SUB SLT ISZERO PUSH2 0x177C JUMPI PUSH2 0x177B PUSH2 0x12AA JUMP JUMPDEST JUMPDEST PUSH0 PUSH2 0x1789 DUP11 DUP3 DUP12 ADD PUSH2 0x14A9 JUMP JUMPDEST SWAP8 POP POP PUSH1 0x20 DUP9 ADD CALLDATALOAD PUSH8 0xFFFFFFFFFFFFFFFF DUP2 GT ISZERO PUSH2 0x17AA JUMPI PUSH2 0x17A9 PUSH2 0x12AE JUMP JUMPDEST JUMPDEST PUSH2 0x17B6 DUP11 DUP3 DUP12 ADD PUSH2 0x1371 JUMP JUMPDEST SWAP7 POP SWAP7 POP POP PUSH1 0x40 DUP9 ADD CALLDATALOAD PUSH8 0xFFFFFFFFFFFFFFFF DUP2 GT ISZERO PUSH2 0x17D9 JUMPI PUSH2 0x17D8 PUSH2 0x12AE JUMP JUMPDEST JUMPDEST PUSH2 0x17E5 DUP11 DUP3 DUP12 ADD PUSH2 0x1371 JUMP JUMPDEST SWAP5 POP SWAP5 POP POP PUSH1 0x60 PUSH2 0x17F8 DUP11 DUP3 DUP12 ADD PUSH2 0x13E5 JUMP JUMPDEST SWAP3 POP POP PUSH1 0x80 PUSH2 0x1809 DUP11 DUP3 DUP12 ADD PUSH2 0x174D JUMP JUMPDEST SWAP2 POP POP SWAP3 SWAP6 SWAP9 SWAP2 SWAP5 SWAP8 POP SWAP3 SWAP6 POP JUMP JUMPDEST PUSH2 0x1821 DUP2 PUSH2 0x13C6 JUMP JUMPDEST DUP3 MSTORE POP POP JUMP JUMPDEST PUSH0 PUSH1 0x20 DUP3 ADD SWAP1 POP PUSH2 0x183A PUSH0 DUP4 ADD DUP5 PUSH2 0x1818 JUMP JUMPDEST SWAP3 SWAP2 POP POP JUMP JUMPDEST PUSH0 DUP3 DUP3 MSTORE PUSH1 0x20 DUP3 ADD SWAP1 POP SWAP3 SWAP2 POP POP JUMP JUMPDEST PUSH32 0x53747265616D696E673A2053746172742074696D65206D75737420626520696E PUSH0 DUP3 ADD MSTORE PUSH32 0x2074686520667574757265000000000000000000000000000000000000000000 PUSH1 0x20 DUP3 ADD MSTORE POP JUMP JUMPDEST PUSH0 PUSH2 0x18AA PUSH1 0x2B DUP4 PUSH2 0x1840 JUMP JUMPDEST SWAP2 POP PUSH2 0x18B5 DUP3 PUSH2 0x1850 JUMP JUMPDEST PUSH1 0x40 DUP3 ADD SWAP1 POP SWAP2 SWAP1 POP JUMP JUMPDEST PUSH0 PUSH1 0x20 DUP3 ADD SWAP1 POP DUP2 DUP2 SUB PUSH0 DUP4 ADD MSTORE PUSH2 0x18D7 DUP2 PUSH2 0x189E JUMP JUMPDEST SWAP1 POP SWAP2 SWAP1 POP JUMP JUMPDEST PUSH0 DUP2 SWAP1 POP SWAP3 SWAP2 POP POP JUMP JUMPDEST DUP3 DUP2 DUP4 CALLDATACOPY PUSH0 DUP4 DUP4 ADD MSTORE POP POP POP JUMP JUMPDEST PUSH0 PUSH2 0x1901 DUP4 DUP6 PUSH2 0x18DE JUMP JUMPDEST SWAP4 POP PUSH2 0x190E DUP4 DUP6 DUP5 PUSH2 0x18E8 JUMP JUMPDEST DUP3 DUP5 ADD SWAP1 POP SWAP4 SWAP3 POP POP POP JUMP JUMPDEST PUSH0 DUP2 PUSH1 0x60 SHL SWAP1 POP SWAP2 SWAP1 POP JUMP JUMPDEST PUSH0 PUSH2 0x1930 DUP3 PUSH2 0x191A JUMP JUMPDEST SWAP1 POP SWAP2 SWAP1 POP JUMP JUMPDEST PUSH0 PUSH2 0x1941 DUP3 PUSH2 0x1926 JUMP JUMPDEST SWAP1 POP SWAP2 SWAP1 POP JUMP JUMPDEST PUSH2 0x1959 PUSH2 0x1954 DUP3 PUSH2 0x152F JUMP JUMPDEST PUSH2 0x1937 JUMP JUMPDEST DUP3 MSTORE POP POP JUMP JUMPDEST PUSH0 DUP2 SWAP1 POP SWAP2 SWAP1 POP JUMP JUMPDEST PUSH2 0x1979 PUSH2 0x1974 DUP3 PUSH2 0x13C6 JUMP JUMPDEST PUSH2 0x195F JUMP JUMPDEST DUP3 MSTORE POP POP JUMP JUMPDEST PUSH0 PUSH2 0x198B DUP3 DUP9 DUP11 PUSH2 0x18F6 JUMP JUMPDEST SWAP2 POP PUSH2 0x1998 DUP3 DUP7 DUP9 PUSH2 0x18F6 JUMP JUMPDEST SWAP2 POP PUSH2 0x19A4 DUP3 DUP6 PUSH2 0x1948 JUMP JUMPDEST PUSH1 0x14 DUP3 ADD SWAP2 POP PUSH2 0x19B4 DUP3 DUP5 PUSH2 0x1968 JUMP JUMPDEST PUSH1 0x20 DUP3 ADD SWAP2 POP DUP2 SWAP1 POP SWAP8 SWAP7 POP POP POP POP POP POP POP JUMP JUMPDEST PUSH32 0x53747265616D696E673A2053747265616D2073657373696F6E20616C72656164 PUSH0 DUP3 ADD MSTORE PUSH32 0x7920657869737473000000000000000000000000000000000000000000000000 PUSH1 0x20 DUP3 ADD MSTORE POP JUMP JUMPDEST PUSH0 PUSH2 0x1A22 PUSH1 0x28 DUP4 PUSH2 0x1840 JUMP JUMPDEST SWAP2 POP PUSH2 0x1A2D DUP3 PUSH2 0x19C8 JUMP JUMPDEST PUSH1 0x40 DUP3 ADD SWAP1 POP SWAP2 SWAP1 POP JUMP JUMPDEST PUSH0 PUSH1 0x20 DUP3 ADD SWAP1 POP DUP2 DUP2 SUB PUSH0 DUP4 ADD MSTORE PUSH2 0x1A4F DUP2 PUSH2 0x1A16 JUMP JUMPDEST SWAP1 POP SWAP2 SWAP1 POP JUMP JUMPDEST PUSH32 0x4E487B7100000000000000000000000000000000000000000000000000000000 PUSH0 MSTORE PUSH1 0x41 PUSH1 0x4 MSTORE PUSH1 0x24 PUSH0 REVERT JUMPDEST PUSH32 0x4E487B7100000000000000000000000000000000000000000000000000000000 PUSH0 MSTORE PUSH1 0x22 PUSH1 0x4 MSTORE PUSH1 0x24 PUSH0 REVERT JUMPDEST PUSH0 PUSH1 0x2 DUP3 DIV SWAP1 POP PUSH1 0x1 DUP3 AND DUP1 PUSH2 0x1AC7 JUMPI PUSH1 0x7F DUP3 AND SWAP2 POP JUMPDEST PUSH1 0x20 DUP3 LT DUP2 SUB PUSH2 0x1ADA JUMPI PUSH2 0x1AD9 PUSH2 0x1A83 JUMP JUMPDEST JUMPDEST POP SWAP2 SWAP1 POP JUMP JUMPDEST PUSH0 DUP2 SWAP1 POP DUP2 PUSH0 MSTORE PUSH1 0x20 PUSH0 KECCAK256 SWAP1 POP SWAP2 SWAP1 POP JUMP JUMPDEST PUSH0 PUSH1 0x20 PUSH1 0x1F DUP4 ADD DIV SWAP1 POP SWAP2 SWAP1 POP JUMP JUMPDEST PUSH0 DUP3 DUP3 SHL SWAP1 POP SWAP3 SWAP2 POP POP JUMP JUMPDEST PUSH0 PUSH1 0x8 DUP4 MUL PUSH2 0x1B3C PUSH32 0xFFFFFFFFFFFFFFFFFFFFFFFFFFFFFFFFFFFFFFFFFFFFFFFFFFFFFFFFFFFFFFFF DUP3 PUSH2 0x1B01 JUMP JUMPDEST PUSH2 0x1B46 DUP7 DUP4 PUSH2 0x1B01 JUMP JUMPDEST SWAP6 POP DUP1 NOT DUP5 AND SWAP4 POP DUP1 DUP7 AND DUP5 OR SWAP3 POP POP POP SWAP4 SWAP3 POP POP POP JUMP JUMPDEST PUSH0 DUP2 SWAP1 POP SWAP2 SWAP1 POP JUMP JUMPDEST PUSH0 PUSH2 0x1B81 PUSH2 0x1B7C PUSH2 0x1B77 DUP5 PUSH2 0x13C6 JUMP JUMPDEST PUSH2 0x1B5E JUMP JUMPDEST PUSH2 0x13C6 JUMP JUMPDEST SWAP1 POP SWAP2 SWAP1 POP JUMP JUMPDEST PUSH0 DUP2 SWAP1 POP SWAP2 SWAP1 POP JUMP JUMPDEST PUSH2 0x1B9A DUP4 PUSH2 0x1B67 JUMP JUMPDEST PUSH2 0x1BAE PUSH2 0x1BA6 DUP3 PUSH2 0x1B88 JUMP JUMPDEST DUP5 DUP5 SLOAD PUSH2 0x1B0D JUMP JUMPDEST DUP3 SSTORE POP POP POP POP JUMP JUMPDEST PUSH0 SWAP1 JUMP JUMPDEST PUSH2 0x1BC2 PUSH2 0x1BB6 JUMP JUMPDEST PUSH2 0x1BCD DUP2 DUP5 DUP5 PUSH2 0x1B91 JUMP JUMPDEST POP POP POP JUMP JUMPDEST JUMPDEST DUP2 DUP2 LT ISZERO PUSH2 0x1BF0 JUMPI PUSH2 0x1BE5 PUSH0 DUP3 PUSH2 0x1BBA JUMP JUMPDEST PUSH1 0x1 DUP2 ADD SWAP1 POP PUSH2 0x1BD3 JUMP JUMPDEST POP POP JUMP JUMPDEST PUSH1 0x1F DUP3 GT ISZERO PUSH2 0x1C35 JUMPI PUSH2 0x1C06 DUP2 PUSH2 0x1AE0 JUMP JUMPDEST PUSH2 0x1C0F DUP5 PUSH2 0x1AF2 JUMP JUMPDEST DUP2 ADD PUSH1 0x20 DUP6 LT ISZERO PUSH2 0x1C1E JUMPI DUP2 SWAP1 POP JUMPDEST PUSH2 0x1C32 PUSH2 0x1C2A DUP6 PUSH2 0x1AF2 JUMP JUMPDEST DUP4 ADD DUP3 PUSH2 0x1BD2 JUMP JUMPDEST POP POP JUMPDEST POP POP POP JUMP JUMPDEST PUSH0 DUP3 DUP3 SHR SWAP1 POP SWAP3 SWAP2 POP POP JUMP JUMPDEST PUSH0 PUSH2 0x1C55 PUSH0 NOT DUP5 PUSH1 0x8 MUL PUSH2 0x1C3A JUMP JUMPDEST NOT DUP1 DUP4 AND SWAP2 POP POP SWAP3 SWAP2 POP POP JUMP JUMPDEST PUSH0 PUSH2 0x1C6D DUP4 DUP4 PUSH2 0x1C46 JUMP JUMPDEST SWAP2 POP DUP3 PUSH1 0x2 MUL DUP3 OR SWAP1 POP SWAP3 SWAP2 POP POP JUMP JUMPDEST PUSH2 0x1C86 DUP3 PUSH2 0x15A8 JUMP JUMPDEST PUSH8 0xFFFFFFFFFFFFFFFF DUP2 GT ISZERO PUSH2 0x1C9F JUMPI PUSH2 0x1C9E PUSH2 0x1A56 JUMP JUMPDEST JUMPDEST PUSH2 0x1CA9 DUP3 SLOAD PUSH2 0x1AB0 JUMP JUMPDEST PUSH2 0x1CB4 DUP3 DUP3 DUP6 PUSH2 0x1BF4 JUMP JUMPDEST PUSH0 PUSH1 0x20 SWAP1 POP PUSH1 0x1F DUP4 GT PUSH1 0x1 DUP2 EQ PUSH2 0x1CE5 JUMPI PUSH0 DUP5 ISZERO PUSH2 0x1CD3 JUMPI DUP3 DUP8 ADD MLOAD SWAP1 POP JUMPDEST PUSH2 0x1CDD DUP6 DUP3 PUSH2 0x1C62 JUMP JUMPDEST DUP7 SSTORE POP PUSH2 0x1D44 JUMP JUMPDEST PUSH1 0x1F NOT DUP5 AND PUSH2 0x1CF3 DUP7 PUSH2 0x1AE0 JUMP JUMPDEST PUSH0 JUMPDEST DUP3 DUP2 LT ISZERO PUSH2 0x1D1A JUMPI DUP5 DUP10 ADD MLOAD DUP3 SSTORE PUSH1 0x1 DUP3 ADD SWAP2 POP PUSH1 0x20 DUP6 ADD SWAP5 POP PUSH1 0x20 DUP2 ADD SWAP1 POP PUSH2 0x1CF5 JUMP JUMPDEST DUP7 DUP4 LT ISZERO PUSH2 0x1D37 JUMPI DUP5 DUP10 ADD MLOAD PUSH2 0x1D33 PUSH1 0x1F DUP10 AND DUP3 PUSH2 0x1C46 JUMP JUMPDEST DUP4 SSTORE POP JUMPDEST PUSH1 0x1 PUSH1 0x2 DUP9 MUL ADD DUP9 SSTORE POP POP POP JUMPDEST POP POP POP POP POP POP JUMP JUMPDEST PUSH0 PUSH2 0x1D57 DUP4 DUP6 PUSH2 0x1840 JUMP JUMPDEST SWAP4 POP PUSH2 0x1D64 DUP4 DUP6 DUP5 PUSH2 0x18E8 JUMP JUMPDEST PUSH2 0x1D6D DUP4 PUSH2 0x15EA JUMP JUMPDEST DUP5 ADD SWAP1 POP SWAP4 SWAP3 POP POP POP JUMP JUMPDEST PUSH0 PUSH1 0x60 DUP3 ADD SWAP1 POP DUP2 DUP2 SUB PUSH0 DUP4 ADD MSTORE PUSH2 0x1D91 DUP2 DUP8 DUP10 PUSH2 0x1D4C JUMP JUMPDEST SWAP1 POP DUP2 DUP2 SUB PUSH1 0x20 DUP4 ADD MSTORE PUSH2 0x1DA6 DUP2 DUP6 DUP8 PUSH2 0x1D4C JUMP JUMPDEST SWAP1 POP PUSH2 0x1DB5 PUSH1 0x40 DUP4 ADD DUP5 PUSH2 0x1818 JUMP JUMPDEST SWAP7 SWAP6 POP POP POP POP POP POP JUMP JUMPDEST PUSH32 0x53747265616D696E673A2053747265616D2073657373696F6E206E6F7420666F PUSH0 DUP3 ADD MSTORE PUSH32 0x756E640000000000000000000000000000000000000000000000000000000000 PUSH1 0x20 DUP3 ADD MSTORE POP JUMP JUMPDEST PUSH0 PUSH2 0x1E19 PUSH1 0x23 DUP4 PUSH2 0x1840 JUMP JUMPDEST SWAP2 POP PUSH2 0x1E24 DUP3 PUSH2 0x1DBF JUMP JUMPDEST PUSH1 0x40 DUP3 ADD SWAP1 POP SWAP2 SWAP1 POP JUMP JUMPDEST PUSH0 PUSH1 0x20 DUP3 ADD SWAP1 POP DUP2 DUP2 SUB PUSH0 DUP4 ADD MSTORE PUSH2 0x1E46 DUP2 PUSH2 0x1E0D JUMP JUMPDEST SWAP1 POP SWAP2 SWAP1 POP JUMP JUMPDEST PUSH32 0x53747265616D696E673A204F6E6C79207468652073747265616D6572206F7220 PUSH0 DUP3 ADD MSTORE PUSH32 0x61646D696E2063616E20757064617465207468652073657373696F6E00000000 PUSH1 0x20 DUP3 ADD MSTORE POP JUMP JUMPDEST PUSH0 PUSH2 0x1EA7 PUSH1 0x3C DUP4 PUSH2 0x1840 JUMP JUMPDEST SWAP2 POP PUSH2 0x1EB2 DUP3 PUSH2 0x1E4D JUMP JUMPDEST PUSH1 0x40 DUP3 ADD SWAP1 POP SWAP2 SWAP1 POP JUMP JUMPDEST PUSH0 PUSH1 0x20 DUP3 ADD SWAP1 POP DUP2 DUP2 SUB PUSH0 DUP4 ADD MSTORE PUSH2 0x1ED4 DUP2 PUSH2 0x1E9B JUMP JUMPDEST SWAP1 POP SWAP2 SWAP1 POP JUMP JUMPDEST PUSH0 DUP3 SWAP1 POP SWAP3 SWAP2 POP POP JUMP JUMPDEST PUSH2 0x1EEF DUP4 DUP4 PUSH2 0x1EDB JUMP JUMPDEST PUSH8 0xFFFFFFFFFFFFFFFF DUP2 GT ISZERO PUSH2 0x1F08 JUMPI PUSH2 0x1F07 PUSH2 0x1A56 JUMP JUMPDEST JUMPDEST PUSH2 0x1F12 DUP3 SLOAD PUSH2 0x1AB0 JUMP JUMPDEST PUSH2 0x1F1D DUP3 DUP3 DUP6 PUSH2 0x1BF4 JUMP JUMPDEST PUSH0 PUSH1 0x1F DUP4 GT PUSH1 0x1 DUP2 EQ PUSH2 0x1F4A JUMPI PUSH0 DUP5 ISZERO PUSH2 0x1F38 JUMPI DUP3 DUP8 ADD CALLDATALOAD SWAP1 POP JUMPDEST PUSH2 0x1F42 DUP6 DUP3 PUSH2 0x1C62 JUMP JUMPDEST DUP7 SSTORE POP PUSH2 0x1FA9 JUMP JUMPDEST PUSH1 0x1F NOT DUP5 AND PUSH2 0x1F58 DUP7 PUSH2 0x1AE0 JUMP JUMPDEST PUSH0 JUMPDEST DUP3 DUP2 LT ISZERO PUSH2 0x1F7F JUMPI DUP5 DUP10 ADD CALLDATALOAD DUP3 SSTORE PUSH1 0x1 DUP3 ADD SWAP2 POP PUSH1 0x20 DUP6 ADD SWAP5 POP PUSH1 0x20 DUP2 ADD SWAP1 POP PUSH2 0x1F5A JUMP JUMPDEST DUP7 DUP4 LT ISZERO PUSH2 0x1F9C JUMPI DUP5 DUP10 ADD CALLDATALOAD PUSH2 0x1F98 PUSH1 0x1F DUP10 AND DUP3 PUSH2 0x1C46 JUMP JUMPDEST DUP4 SSTORE POP JUMPDEST PUSH1 0x1 PUSH1 0x2 DUP9 MUL ADD DUP9 SSTORE POP POP POP JUMPDEST POP POP POP POP POP POP POP JUMP JUMPDEST PUSH0 PUSH1 0x80 DUP3 ADD SWAP1 POP DUP2 DUP2 SUB PUSH0 DUP4 ADD MSTORE PUSH2 0x1FCB DUP2 DUP9 DUP11 PUSH2 0x1D4C JUMP JUMPDEST SWAP1 POP DUP2 DUP2 SUB PUSH1 0x20 DUP4 ADD MSTORE PUSH2 0x1FE0 DUP2 DUP7 DUP9 PUSH2 0x1D4C JUMP JUMPDEST SWAP1 POP PUSH2 0x1FEF PUSH1 0x40 DUP4 ADD DUP6 PUSH2 0x1818 JUMP JUMPDEST PUSH2 0x1FFC PUSH1 0x60 DUP4 ADD DUP5 PUSH2 0x133D JUMP JUMPDEST SWAP8 SWAP7 POP POP POP POP POP POP POP JUMP JUMPDEST PUSH32 0x53747265616D696E673A204F6E6C79207468652073747265616D6572206F7220 PUSH0 DUP3 ADD MSTORE PUSH32 0x61646D696E2063616E20656E64207468652073657373696F6E00000000000000 PUSH1 0x20 DUP3 ADD MSTORE POP JUMP JUMPDEST PUSH0 PUSH2 0x2061 PUSH1 0x39 DUP4 PUSH2 0x1840 JUMP JUMPDEST SWAP2 POP PUSH2 0x206C DUP3 PUSH2 0x2007 JUMP JUMPDEST PUSH1 0x40 DUP3 ADD SWAP1 POP SWAP2 SWAP1 POP JUMP JUMPDEST PUSH0 PUSH1 0x20 DUP3 ADD SWAP1 POP DUP2 DUP2 SUB PUSH0 DUP4 ADD MSTORE PUSH2 0x208E DUP2 PUSH2 0x2055 JUMP JUMPDEST SWAP1 POP SWAP2 SWAP1 POP JUMP JUMPDEST PUSH32 0x53747265616D696E673A2053747265616D2073657373696F6E20697320616C72 PUSH0 DUP3 ADD MSTORE PUSH32 0x6561647920656E64656400000000000000000000000000000000000000000000 PUSH1 0x20 DUP3 ADD MSTORE POP JUMP JUMPDEST PUSH0 PUSH2 0x20EF PUSH1 0x2A DUP4 PUSH2 0x1840 JUMP JUMPDEST SWAP2 POP PUSH2 0x20FA DUP3 PUSH2 0x2095 JUMP JUMPDEST PUSH1 0x40 DUP3 ADD SWAP1 POP SWAP2 SWAP1 POP JUMP JUMPDEST PUSH0 PUSH1 0x20 DUP3 ADD SWAP1 POP DUP2 DUP2 SUB PUSH0 DUP4 ADD MSTORE PUSH2 0x211C DUP2 PUSH2 0x20E3 JUMP JUMPDEST SWAP1 POP SWAP2 SWAP1 POP JUMP JUMPDEST PUSH2 0x212C DUP2 PUSH2 0x152F JUMP JUMPDEST DUP3 MSTORE POP POP JUMP JUMPDEST PUSH0 PUSH1 0x40 DUP3 ADD SWAP1 POP PUSH2 0x2145 PUSH0 DUP4 ADD DUP6 PUSH2 0x2123 JUMP JUMPDEST PUSH2 0x2152 PUSH1 0x20 DUP4 ADD DUP5 PUSH2 0x14E8 JUMP JUMPDEST SWAP4 SWAP3 POP POP POP JUMP JUMPDEST PUSH32 0x4E487B7100000000000000000000000000000000000000000000000000000000 PUSH0 MSTORE PUSH1 0x32 PUSH1 0x4 MSTORE PUSH1 0x24 PUSH0 REVERT INVALID LOG2 PUSH5 0x6970667358 0x22 SLT KECCAK256 0xF6 MSTORE SWAP9 0xEE SLOAD 0xE5 0xE7 SWAP9 SWAP3 0xAD LOG2 0xBF 0xBC 0xC9 0xE9 0xCC 0x4B 0xAD DUP1 CALLVALUE MLOAD PUSH5 0x174975FD76 STOP SWAP14 LOG2 0xF8 DIV PUSH5 0x736F6C6343 STOP ADDMOD EQ STOP CALLER "
				},
				"gasEstimates": {
					"creation": {
						"codeDepositCost": "1727200",
						"executionCost": "infinite",
						"totalCost": "infinite"
					},
					"external": {
						"ADMIN_ROLE()": "414",
						"DEFAULT_ADMIN_ROLE()": "397",
						"STREAMER_ROLE()": "414",
						"createStream(string,string,uint256)": "infinite",
						"endStream(bytes32)": "infinite",
						"getRoleAdmin(bytes32)": "infinite",
						"getStreamInfo(bytes32)": "infinite",
						"grantRole(bytes32,address)": "infinite",
						"hasRole(bytes32,address)": "3167",
						"renounceRole(bytes32,address)": "infinite",
						"revokeRole(bytes32,address)": "infinite",
						"streamExists(bytes32)": "infinite",
						"streamIdAt(uint256)": "infinite",
						"supportsInterface(bytes4)": "741",
						"totalStreams()": "2622",
						"updateStream(bytes32,string,string,uint256,bool)": "infinite"
					}
				},
				"methodIdentifiers": {
					"ADMIN_ROLE()": "75b238fc",
					"DEFAULT_ADMIN_ROLE()": "a217fddf",
					"STREAMER_ROLE()": "c9d6da0e",
					"createStream(string,string,uint256)": "101b2a1b",
					"endStream(bytes32)": "f569faa2",
					"getRoleAdmin(bytes32)": "248a9ca3",
					"getStreamInfo(bytes32)": "334bd393",
					"grantRole(bytes32,address)": "2f2ff15d",
					"hasRole(bytes32,address)": "91d14854",
					"renounceRole(bytes32,address)": "36568abe",
					"revokeRole(bytes32,address)": "d547741f",
					"streamExists(bytes32)": "408e1aeb",
					"streamIdAt(uint256)": "7bf87f49",
					"supportsInterface(bytes4)": "01ffc9a7",
					"totalStreams()": "fc6ff96f",
					"updateStream(bytes32,string,string,uint256,bool)": "e16e91ed"
				}
			},
			"storageLayout": {
				"storage": [
					{
						"astId": 26,
						"contract": "contracts/shareable/Streaming.sol:Streaming",
						"label": "_roles",
						"offset": 0,
						"slot": "0",
						"type": "t_mapping(t_bytes32,t_struct(RoleData)21_storage)"
					},
					{
						"astId": 1171,
						"contract": "contracts/shareable/Streaming.sol:Streaming",
						"label": "_sessions",
						"offset": 0,
						"slot": "1",
						"type": "t_mapping(t_bytes32,t_struct(StreamSession)1166_storage)"
					},
					{
						"astId": 1174,
						"contract": "contracts/shareable/Streaming.sol:Streaming",
						"label": "_sessionIds",
						"offset": 0,
						"slot": "2",
						"type": "t_struct(Bytes32Set)649_storage"
					},
					{
						"astId": 1177,
						"contract": "contracts/shareable/Streaming.sol:Streaming",
						"label": "_sessionIdCounter",
						"offset": 0,
						"slot": "4",
						"type": "t_struct(Counter)1063_storage"
					}
				],
				"types": {
					"t_address": {
						"encoding": "inplace",
						"label": "address",
						"numberOfBytes": "20"
					},
					"t_array(t_bytes32)dyn_storage": {
						"base": "t_bytes32",
						"encoding": "dynamic_array",
						"label": "bytes32[]",
						"numberOfBytes": "32"
					},
					"t_bool": {
						"encoding": "inplace",
						"label": "bool",
						"numberOfBytes": "1"
					},
					"t_bytes32": {
						"encoding": "inplace",
						"label": "bytes32",
						"numberOfBytes": "32"
					},
					"t_mapping(t_address,t_bool)": {
						"encoding": "mapping",
						"key": "t_address",
						"label": "mapping(address => bool)",
						"numberOfBytes": "32",
						"value": "t_bool"
					},
					"t_mapping(t_bytes32,t_struct(RoleData)21_storage)": {
						"encoding": "mapping",
						"key": "t_bytes32",
						"label": "mapping(bytes32 => struct AccessControl.RoleData)",
						"numberOfBytes": "32",
						"value": "t_struct(RoleData)21_storage"
					},
					"t_mapping(t_bytes32,t_struct(StreamSession)1166_storage)": {
						"encoding": "mapping",
						"key": "t_bytes32",
						"label": "mapping(bytes32 => struct Streaming.StreamSession)",
						"numberOfBytes": "32",
						"value": "t_struct(StreamSession)1166_storage"
					},
					"t_mapping(t_bytes32,t_uint256)": {
						"encoding": "mapping",
						"key": "t_bytes32",
						"label": "mapping(bytes32 => uint256)",
						"numberOfBytes": "32",
						"value": "t_uint256"
					},
					"t_string_storage": {
						"encoding": "bytes",
						"label": "string",
						"numberOfBytes": "32"
					},
					"t_struct(Bytes32Set)649_storage": {
						"encoding": "inplace",
						"label": "struct EnumerableSet.Bytes32Set",
						"members": [
							{
								"astId": 648,
								"contract": "contracts/shareable/Streaming.sol:Streaming",
								"label": "_inner",
								"offset": 0,
								"slot": "0",
								"type": "t_struct(Set)455_storage"
							}
						],
						"numberOfBytes": "64"
					},
					"t_struct(Counter)1063_storage": {
						"encoding": "inplace",
						"label": "struct Counters.Counter",
						"members": [
							{
								"astId": 1062,
								"contract": "contracts/shareable/Streaming.sol:Streaming",
								"label": "_value",
								"offset": 0,
								"slot": "0",
								"type": "t_uint256"
							}
						],
						"numberOfBytes": "32"
					},
					"t_struct(RoleData)21_storage": {
						"encoding": "inplace",
						"label": "struct AccessControl.RoleData",
						"members": [
							{
								"astId": 18,
								"contract": "contracts/shareable/Streaming.sol:Streaming",
								"label": "hasRole",
								"offset": 0,
								"slot": "0",
								"type": "t_mapping(t_address,t_bool)"
							},
							{
								"astId": 20,
								"contract": "contracts/shareable/Streaming.sol:Streaming",
								"label": "adminRole",
								"offset": 0,
								"slot": "1",
								"type": "t_bytes32"
							}
						],
						"numberOfBytes": "64"
					},
					"t_struct(Set)455_storage": {
						"encoding": "inplace",
						"label": "struct EnumerableSet.Set",
						"members": [
							{
								"astId": 450,
								"contract": "contracts/shareable/Streaming.sol:Streaming",
								"label": "_values",
								"offset": 0,
								"slot": "0",
								"type": "t_array(t_bytes32)dyn_storage"
							},
							{
								"astId": 454,
								"contract": "contracts/shareable/Streaming.sol:Streaming",
								"label": "_positions",
								"offset": 0,
								"slot": "1",
								"type": "t_mapping(t_bytes32,t_uint256)"
							}
						],
						"numberOfBytes": "64"
					},
					"t_struct(StreamSession)1166_storage": {
						"encoding": "inplace",
						"label": "struct Streaming.StreamSession",
						"members": [
							{
								"astId": 1155,
								"contract": "contracts/shareable/Streaming.sol:Streaming",
								"label": "streamName",
								"offset": 0,
								"slot": "0",
								"type": "t_string_storage"
							},
							{
								"astId": 1157,
								"contract": "contracts/shareable/Streaming.sol:Streaming",
								"label": "streamUrl",
								"offset": 0,
								"slot": "1",
								"type": "t_string_storage"
							},
							{
								"astId": 1159,
								"contract": "contracts/shareable/Streaming.sol:Streaming",
								"label": "streamer",
								"offset": 0,
								"slot": "2",
								"type": "t_address"
							},
							{
								"astId": 1161,
								"contract": "contracts/shareable/Streaming.sol:Streaming",
								"label": "startTime",
								"offset": 0,
								"slot": "3",
								"type": "t_uint256"
							},
							{
								"astId": 1163,
								"contract": "contracts/shareable/Streaming.sol:Streaming",
								"label": "endTime",
								"offset": 0,
								"slot": "4",
								"type": "t_uint256"
							},
							{
								"astId": 1165,
								"contract": "contracts/shareable/Streaming.sol:Streaming",
								"label": "isActive",
								"offset": 0,
								"slot": "5",
								"type": "t_bool"
							}
						],
						"numberOfBytes": "192"
					},
					"t_uint256": {
						"encoding": "inplace",
						"label": "uint256",
						"numberOfBytes": "32"
					}
				}
			},
			"userdoc": {
				"kind": "user",
				"methods": {},
				"version": 1
			}
		}
	}
}