{
	"data": {
		"bytecode": {
			"linkReferences": {},
			"object": "608060405273c89ce4735882c9f0f0fe26686c53074e09b0d55060015f6101000a81548173ffffffffffffffffffffffffffffffffffffffff021916908373ffffffffffffffffffffffffffffffffffffffff16021790555060015f9054906101000a900473ffffffffffffffffffffffffffffffffffffffff1660025f6101000a81548173ffffffffffffffffffffffffffffffffffffffff021916908373ffffffffffffffffffffffffffffffffffffffff1602179055505f600260146101000a81548163ffffffff021916908363ffffffff1602179055503480156100e5575f80fd5b503360045f6101000a81548173ffffffffffffffffffffffffffffffffffffffff021916908373ffffffffffffffffffffffffffffffffffffffff1602179055506112f0806101335f395ff3fe608060405234801561000f575f80fd5b506004361061004a575f3560e01c8063496d76ff1461004e5780635f327e1c1461006a578063737a3ca414610086578063ff206cf8146100b6575b5f80fd5b6100686004803603810190610063919061064f565b6100d4565b005b610084600480360381019061007f9190610700565b6102ca565b005b6100a0600480360381019061009b919061064f565b61037b565b6040516100ad9190610760565b60405180910390f35b6100be610473565b6040516100cb91906107d9565b60405180910390f35b5f805f60025f9054906101000a900473ffffffffffffffffffffffffffffffffffffffff1673ffffffffffffffffffffffffffffffffffffffff1663c0fd8bde856040518263ffffffff1660e01b8152600401610131919061084b565b5f60405180830381865afa15801561014b573d5f803e3d5ffd5b505050506040513d5f823e3d601f19601f820116820180604052508101906101739190610cef565b9250925092508181906101bc576040517f08c379a00000000000000000000000000000000000000000000000000000000081526004016101b391906107d9565b60405180910390fd5b50826080015160035f856060015161ffff1661ffff1681526020019081526020015f205414610220576040517f08c379a000000000000000000000000000000000000000000000000000000000815260040161021790610dc1565b60405180910390fd5b60055f84610140015181526020019081526020015f205f9054906101000a900460ff1615610283576040517f08c379a000000000000000000000000000000000000000000000000000000000815260040161027a90610e29565b60405180910390fd5b600160055f85610140015181526020019081526020015f205f6101000a81548160ff0219169083151502179055508260e001515f90816102c3919061104a565b5050505050565b60045f9054906101000a900473ffffffffffffffffffffffffffffffffffffffff1673ffffffffffffffffffffffffffffffffffffffff163373ffffffffffffffffffffffffffffffffffffffff1614610359576040517f08c379a000000000000000000000000000000000000000000000000000000000815260040161035090611189565b60405180910390fd5b8060035f8461ffff1661ffff1681526020019081526020015f20819055505050565b5f60025f9054906101000a900473ffffffffffffffffffffffffffffffffffffffff1673ffffffffffffffffffffffffffffffffffffffff1663b19a437e600260149054906101000a900463ffffffff168460016040518463ffffffff1660e01b81526004016103ed939291906111ef565b6020604051808303815f875af1158015610409573d5f803e3d5ffd5b505050506040513d601f19601f8201168201806040525081019061042d919061122b565b90506001600260149054906101000a900463ffffffff1661044e9190611283565b600260146101000a81548163ffffffff021916908363ffffffff160217905550919050565b60605f805461048190610e74565b80601f01602080910402602001604051908101604052809291908181526020018280546104ad90610e74565b80156104f85780601f106104cf576101008083540402835291602001916104f8565b820191905f5260205f20905b8154815290600101906020018083116104db57829003601f168201915b5050505050905090565b5f604051905090565b5f80fd5b5f80fd5b5f80fd5b5f80fd5b5f601f19601f8301169050919050565b7f4e487b71000000000000000000000000000000000000000000000000000000005f52604160045260245ffd5b6105618261051b565b810181811067ffffffffffffffff821117156105805761057f61052b565b5b80604052505050565b5f610592610502565b905061059e8282610558565b919050565b5f67ffffffffffffffff8211156105bd576105bc61052b565b5b6105c68261051b565b9050602081019050919050565b828183375f83830152505050565b5f6105f36105ee846105a3565b610589565b90508281526020810184848401111561060f5761060e610517565b5b61061a8482856105d3565b509392505050565b5f82601f83011261063657610635610513565b5b81356106468482602086016105e1565b91505092915050565b5f602082840312156106645761066361050b565b5b5f82013567ffffffffffffffff8111156106815761068061050f565b5b61068d84828501610622565b91505092915050565b5f61ffff82169050919050565b6106ac81610696565b81146106b6575f80fd5b50565b5f813590506106c7816106a3565b92915050565b5f819050919050565b6106df816106cd565b81146106e9575f80fd5b50565b5f813590506106fa816106d6565b92915050565b5f80604083850312156107165761071561050b565b5b5f610723858286016106b9565b9250506020610734858286016106ec565b9150509250929050565b5f67ffffffffffffffff82169050919050565b61075a8161073e565b82525050565b5f6020820190506107735f830184610751565b92915050565b5f81519050919050565b5f82825260208201905092915050565b8281835e5f83830152505050565b5f6107ab82610779565b6107b58185610783565b93506107c5818560208601610793565b6107ce8161051b565b840191505092915050565b5f6020820190508181035f8301526107f181846107a1565b905092915050565b5f81519050919050565b5f82825260208201905092915050565b5f61081d826107f9565b6108278185610803565b9350610837818560208601610793565b6108408161051b565b840191505092915050565b5f6020820190508181035f8301526108638184610813565b905092915050565b5f80fd5b5f80fd5b5f60ff82169050919050565b61088881610873565b8114610892575f80fd5b50565b5f815190506108a38161087f565b92915050565b5f63ffffffff82169050919050565b6108c1816108a9565b81146108cb575f80fd5b50565b5f815190506108dc816108b8565b92915050565b5f815190506108f0816106a3565b92915050565b5f81519050610904816106d6565b92915050565b6109138161073e565b811461091d575f80fd5b50565b5f8151905061092e8161090a565b92915050565b5f610946610941846105a3565b610589565b90508281526020810184848401111561096257610961610517565b5b61096d848285610793565b509392505050565b5f82601f83011261098957610988610513565b5b8151610999848260208601610934565b91505092915050565b5f67ffffffffffffffff8211156109bc576109bb61052b565b5b602082029050602081019050919050565b5f80fd5b5f608082840312156109e6576109e561086b565b5b6109f06080610589565b90505f6109ff848285016108f6565b5f830152506020610a12848285016108f6565b6020830152506040610a2684828501610895565b6040830152506060610a3a84828501610895565b60608301525092915050565b5f610a58610a53846109a2565b610589565b90508083825260208201905060808402830185811115610a7b57610a7a6109cd565b5b835b81811015610aa45780610a9088826109d1565b845260208401935050608081019050610a7d565b5050509392505050565b5f82601f830112610ac257610ac1610513565b5b8151610ad2848260208601610a46565b91505092915050565b5f6101608284031215610af157610af061086b565b5b610afc610160610589565b90505f610b0b84828501610895565b5f830152506020610b1e848285016108ce565b6020830152506040610b32848285016108ce565b6040830152506060610b46848285016108e2565b6060830152506080610b5a848285016108f6565b60808301525060a0610b6e84828501610920565b60a08301525060c0610b8284828501610895565b60c08301525060e082015167ffffffffffffffff811115610ba657610ba561086f565b5b610bb284828501610975565b60e083015250610100610bc7848285016108ce565b6101008301525061012082015167ffffffffffffffff811115610bed57610bec61086f565b5b610bf984828501610aae565b61012083015250610140610c0f848285016108f6565b6101408301525092915050565b5f8115159050919050565b610c3081610c1c565b8114610c3a575f80fd5b50565b5f81519050610c4b81610c27565b92915050565b5f67ffffffffffffffff821115610c6b57610c6a61052b565b5b610c748261051b565b9050602081019050919050565b5f610c93610c8e84610c51565b610589565b905082815260208101848484011115610caf57610cae610517565b5b610cba848285610793565b509392505050565b5f82601f830112610cd657610cd5610513565b5b8151610ce6848260208601610c81565b91505092915050565b5f805f60608486031215610d0657610d0561050b565b5b5f84015167ffffffffffffffff811115610d2357610d2261050f565b5b610d2f86828701610adb565b9350506020610d4086828701610c3d565b925050604084015167ffffffffffffffff811115610d6157610d6061050f565b5b610d6d86828701610cc2565b9150509250925092565b7f496e76616c696420456d697474657220416464726573732100000000000000005f82015250565b5f610dab601883610783565b9150610db682610d77565b602082019050919050565b5f6020820190508181035f830152610dd881610d9f565b9050919050565b7f4d65737361676520616c72656164792070726f636573736564000000000000005f82015250565b5f610e13601983610783565b9150610e1e82610ddf565b602082019050919050565b5f6020820190508181035f830152610e4081610e07565b9050919050565b7f4e487b71000000000000000000000000000000000000000000000000000000005f52602260045260245ffd5b5f6002820490506001821680610e8b57607f821691505b602082108103610e9e57610e9d610e47565b5b50919050565b5f819050815f5260205f209050919050565b5f6020601f8301049050919050565b5f82821b905092915050565b5f60088302610f007fffffffffffffffffffffffffffffffffffffffffffffffffffffffffffffffff82610ec5565b610f0a8683610ec5565b95508019841693508086168417925050509392505050565b5f819050919050565b5f819050919050565b5f610f4e610f49610f4484610f22565b610f2b565b610f22565b9050919050565b5f819050919050565b610f6783610f34565b610f7b610f7382610f55565b848454610ed1565b825550505050565b5f90565b610f8f610f83565b610f9a818484610f5e565b505050565b5b81811015610fbd57610fb25f82610f87565b600181019050610fa0565b5050565b601f82111561100257610fd381610ea4565b610fdc84610eb6565b81016020851015610feb578190505b610fff610ff785610eb6565b830182610f9f565b50505b505050565b5f82821c905092915050565b5f6110225f1984600802611007565b1980831691505092915050565b5f61103a8383611013565b9150826002028217905092915050565b61105382610779565b67ffffffffffffffff81111561106c5761106b61052b565b5b6110768254610e74565b611081828285610fc1565b5f60209050601f8311600181146110b2575f84156110a0578287015190505b6110aa858261102f565b865550611111565b601f1984166110c086610ea4565b5f5b828110156110e7578489015182556001820191506020850194506020810190506110c2565b868310156111045784890151611100601f891682611013565b8355505b6001600288020188555050505b505050505050565b7f4f6e6c79206f776e65722063616e207265676973746572206e657720636861695f8201527f6e73210000000000000000000000000000000000000000000000000000000000602082015250565b5f611173602383610783565b915061117e82611119565b604082019050919050565b5f6020820190508181035f8301526111a081611167565b9050919050565b6111b0816108a9565b82525050565b5f819050919050565b5f6111d96111d46111cf846111b6565b610f2b565b610873565b9050919050565b6111e9816111bf565b82525050565b5f6060820190506112025f8301866111a7565b81810360208301526112148185610813565b905061122360408301846111e0565b949350505050565b5f602082840312156112405761123f61050b565b5b5f61124d84828501610920565b91505092915050565b7f4e487b71000000000000000000000000000000000000000000000000000000005f52601160045260245ffd5b5f61128d826108a9565b9150611298836108a9565b9250828201905063ffffffff8111156112b4576112b3611256565b5b9291505056fea2646970667358221220d0de9373a60da4679094c46ca2df9172abce10289704fe75d5dbfbb24b83ed4d64736f6c634300081a0033",
			"opcodes": "PUSH1 0x80 PUSH1 0x40 MSTORE PUSH20 0xC89CE4735882C9F0F0FE26686C53074E09B0D550 PUSH1 0x1 PUSH0 PUSH2 0x100 EXP DUP2 SLOAD DUP2 PUSH20 0xFFFFFFFFFFFFFFFFFFFFFFFFFFFFFFFFFFFFFFFF MUL NOT AND SWAP1 DUP4 PUSH20 0xFFFFFFFFFFFFFFFFFFFFFFFFFFFFFFFFFFFFFFFF AND MUL OR SWAP1 SSTORE POP PUSH1 0x1 PUSH0 SWAP1 SLOAD SWAP1 PUSH2 0x100 EXP SWAP1 DIV PUSH20 0xFFFFFFFFFFFFFFFFFFFFFFFFFFFFFFFFFFFFFFFF AND PUSH1 0x2 PUSH0 PUSH2 0x100 EXP DUP2 SLOAD DUP2 PUSH20 0xFFFFFFFFFFFFFFFFFFFFFFFFFFFFFFFFFFFFFFFF MUL NOT AND SWAP1 DUP4 PUSH20 0xFFFFFFFFFFFFFFFFFFFFFFFFFFFFFFFFFFFFFFFF AND MUL OR SWAP1 SSTORE POP PUSH0 PUSH1 0x2 PUSH1 0x14 PUSH2 0x100 EXP DUP2 SLOAD DUP2 PUSH4 0xFFFFFFFF MUL NOT AND SWAP1 DUP4 PUSH4 0xFFFFFFFF AND MUL OR SWAP1 SSTORE POP CALLVALUE DUP1 ISZERO PUSH2 0xE5 JUMPI PUSH0 DUP1 REVERT JUMPDEST POP CALLER PUSH1 0x4 PUSH0 PUSH2 0x100 EXP DUP2 SLOAD DUP2 PUSH20 0xFFFFFFFFFFFFFFFFFFFFFFFFFFFFFFFFFFFFFFFF MUL NOT AND SWAP1 DUP4 PUSH20 0xFFFFFFFFFFFFFFFFFFFFFFFFFFFFFFFFFFFFFFFF AND MUL OR SWAP1 SSTORE POP PUSH2 0x12F0 DUP1 PUSH2 0x133 PUSH0 CODECOPY PUSH0 RETURN INVALID PUSH1 0x80 PUSH1 0x40 MSTORE CALLVALUE DUP1 ISZERO PUSH2 0xF JUMPI PUSH0 DUP1 REVERT JUMPDEST POP PUSH1 0x4 CALLDATASIZE LT PUSH2 0x4A JUMPI PUSH0 CALLDATALOAD PUSH1 0xE0 SHR DUP1 PUSH4 0x496D76FF EQ PUSH2 0x4E JUMPI DUP1 PUSH4 0x5F327E1C EQ PUSH2 0x6A JUMPI DUP1 PUSH4 0x737A3CA4 EQ PUSH2 0x86 JUMPI DUP1 PUSH4 0xFF206CF8 EQ PUSH2 0xB6 JUMPI JUMPDEST PUSH0 DUP1 REVERT JUMPDEST PUSH2 0x68 PUSH1 0x4 DUP1 CALLDATASIZE SUB DUP2 ADD SWAP1 PUSH2 0x63 SWAP2 SWAP1 PUSH2 0x64F JUMP JUMPDEST PUSH2 0xD4 JUMP JUMPDEST STOP JUMPDEST PUSH2 0x84 PUSH1 0x4 DUP1 CALLDATASIZE SUB DUP2 ADD SWAP1 PUSH2 0x7F SWAP2 SWAP1 PUSH2 0x700 JUMP JUMPDEST PUSH2 0x2CA JUMP JUMPDEST STOP JUMPDEST PUSH2 0xA0 PUSH1 0x4 DUP1 CALLDATASIZE SUB DUP2 ADD SWAP1 PUSH2 0x9B SWAP2 SWAP1 PUSH2 0x64F JUMP JUMPDEST PUSH2 0x37B JUMP JUMPDEST PUSH1 0x40 MLOAD PUSH2 0xAD SWAP2 SWAP1 PUSH2 0x760 JUMP JUMPDEST PUSH1 0x40 MLOAD DUP1 SWAP2 SUB SWAP1 RETURN JUMPDEST PUSH2 0xBE PUSH2 0x473 JUMP JUMPDEST PUSH1 0x40 MLOAD PUSH2 0xCB SWAP2 SWAP1 PUSH2 0x7D9 JUMP JUMPDEST PUSH1 0x40 MLOAD DUP1 SWAP2 SUB SWAP1 RETURN JUMPDEST PUSH0 DUP1 PUSH0 PUSH1 0x2 PUSH0 SWAP1 SLOAD SWAP1 PUSH2 0x100 EXP SWAP1 DIV PUSH20 0xFFFFFFFFFFFFFFFFFFFFFFFFFFFFFFFFFFFFFFFF AND PUSH20 0xFFFFFFFFFFFFFFFFFFFFFFFFFFFFFFFFFFFFFFFF AND PUSH4 0xC0FD8BDE DUP6 PUSH1 0x40 MLOAD DUP3 PUSH4 0xFFFFFFFF AND PUSH1 0xE0 SHL DUP2 MSTORE PUSH1 0x4 ADD PUSH2 0x131 SWAP2 SWAP1 PUSH2 0x84B JUMP JUMPDEST PUSH0 PUSH1 0x40 MLOAD DUP1 DUP4 SUB DUP2 DUP7 GAS STATICCALL ISZERO DUP1 ISZERO PUSH2 0x14B JUMPI RETURNDATASIZE PUSH0 DUP1 RETURNDATACOPY RETURNDATASIZE PUSH0 REVERT JUMPDEST POP POP POP POP PUSH1 0x40 MLOAD RETURNDATASIZE PUSH0 DUP3 RETURNDATACOPY RETURNDATASIZE PUSH1 0x1F NOT PUSH1 0x1F DUP3 ADD AND DUP3 ADD DUP1 PUSH1 0x40 MSTORE POP DUP2 ADD SWAP1 PUSH2 0x173 SWAP2 SWAP1 PUSH2 0xCEF JUMP JUMPDEST SWAP3 POP SWAP3 POP SWAP3 POP DUP2 DUP2 SWAP1 PUSH2 0x1BC JUMPI PUSH1 0x40 MLOAD PUSH32 0x8C379A000000000000000000000000000000000000000000000000000000000 DUP2 MSTORE PUSH1 0x4 ADD PUSH2 0x1B3 SWAP2 SWAP1 PUSH2 0x7D9 JUMP JUMPDEST PUSH1 0x40 MLOAD DUP1 SWAP2 SUB SWAP1 REVERT JUMPDEST POP DUP3 PUSH1 0x80 ADD MLOAD PUSH1 0x3 PUSH0 DUP6 PUSH1 0x60 ADD MLOAD PUSH2 0xFFFF AND PUSH2 0xFFFF AND DUP2 MSTORE PUSH1 0x20 ADD SWAP1 DUP2 MSTORE PUSH1 0x20 ADD PUSH0 KECCAK256 SLOAD EQ PUSH2 0x220 JUMPI PUSH1 0x40 MLOAD PUSH32 0x8C379A000000000000000000000000000000000000000000000000000000000 DUP2 MSTORE PUSH1 0x4 ADD PUSH2 0x217 SWAP1 PUSH2 0xDC1 JUMP JUMPDEST PUSH1 0x40 MLOAD DUP1 SWAP2 SUB SWAP1 REVERT JUMPDEST PUSH1 0x5 PUSH0 DUP5 PUSH2 0x140 ADD MLOAD DUP2 MSTORE PUSH1 0x20 ADD SWAP1 DUP2 MSTORE PUSH1 0x20 ADD PUSH0 KECCAK256 PUSH0 SWAP1 SLOAD SWAP1 PUSH2 0x100 EXP SWAP1 DIV PUSH1 0xFF AND ISZERO PUSH2 0x283 JUMPI PUSH1 0x40 MLOAD PUSH32 0x8C379A000000000000000000000000000000000000000000000000000000000 DUP2 MSTORE PUSH1 0x4 ADD PUSH2 0x27A SWAP1 PUSH2 0xE29 JUMP JUMPDEST PUSH1 0x40 MLOAD DUP1 SWAP2 SUB SWAP1 REVERT JUMPDEST PUSH1 0x1 PUSH1 0x5 PUSH0 DUP6 PUSH2 0x140 ADD MLOAD DUP2 MSTORE PUSH1 0x20 ADD SWAP1 DUP2 MSTORE PUSH1 0x20 ADD PUSH0 KECCAK256 PUSH0 PUSH2 0x100 EXP DUP2 SLOAD DUP2 PUSH1 0xFF MUL NOT AND SWAP1 DUP4 ISZERO ISZERO MUL OR SWAP1 SSTORE POP DUP3 PUSH1 0xE0 ADD MLOAD PUSH0 SWAP1 DUP2 PUSH2 0x2C3 SWAP2 SWAP1 PUSH2 0x104A JUMP JUMPDEST POP POP POP POP POP JUMP JUMPDEST PUSH1 0x4 PUSH0 SWAP1 SLOAD SWAP1 PUSH2 0x100 EXP SWAP1 DIV PUSH20 0xFFFFFFFFFFFFFFFFFFFFFFFFFFFFFFFFFFFFFFFF AND PUSH20 0xFFFFFFFFFFFFFFFFFFFFFFFFFFFFFFFFFFFFFFFF AND CALLER PUSH20 0xFFFFFFFFFFFFFFFFFFFFFFFFFFFFFFFFFFFFFFFF AND EQ PUSH2 0x359 JUMPI PUSH1 0x40 MLOAD PUSH32 0x8C379A000000000000000000000000000000000000000000000000000000000 DUP2 MSTORE PUSH1 0x4 ADD PUSH2 0x350 SWAP1 PUSH2 0x1189 JUMP JUMPDEST PUSH1 0x40 MLOAD DUP1 SWAP2 SUB SWAP1 REVERT JUMPDEST DUP1 PUSH1 0x3 PUSH0 DUP5 PUSH2 0xFFFF AND PUSH2 0xFFFF AND DUP2 MSTORE PUSH1 0x20 ADD SWAP1 DUP2 MSTORE PUSH1 0x20 ADD PUSH0 KECCAK256 DUP2 SWAP1 SSTORE POP POP POP JUMP JUMPDEST PUSH0 PUSH1 0x2 PUSH0 SWAP1 SLOAD SWAP1 PUSH2 0x100 EXP SWAP1 DIV PUSH20 0xFFFFFFFFFFFFFFFFFFFFFFFFFFFFFFFFFFFFFFFF AND PUSH20 0xFFFFFFFFFFFFFFFFFFFFFFFFFFFFFFFFFFFFFFFF AND PUSH4 0xB19A437E PUSH1 0x2 PUSH1 0x14 SWAP1 SLOAD SWAP1 PUSH2 0x100 EXP SWAP1 DIV PUSH4 0xFFFFFFFF AND DUP5 PUSH1 0x1 PUSH1 0x40 MLOAD DUP5 PUSH4 0xFFFFFFFF AND PUSH1 0xE0 SHL DUP2 MSTORE PUSH1 0x4 ADD PUSH2 0x3ED SWAP4 SWAP3 SWAP2 SWAP1 PUSH2 0x11EF JUMP JUMPDEST PUSH1 0x20 PUSH1 0x40 MLOAD DUP1 DUP4 SUB DUP2 PUSH0 DUP8 GAS CALL ISZERO DUP1 ISZERO PUSH2 0x409 JUMPI RETURNDATASIZE PUSH0 DUP1 RETURNDATACOPY RETURNDATASIZE PUSH0 REVERT JUMPDEST POP POP POP POP PUSH1 0x40 MLOAD RETURNDATASIZE PUSH1 0x1F NOT PUSH1 0x1F DUP3 ADD AND DUP3 ADD DUP1 PUSH1 0x40 MSTORE POP DUP2 ADD SWAP1 PUSH2 0x42D SWAP2 SWAP1 PUSH2 0x122B JUMP JUMPDEST SWAP1 POP PUSH1 0x1 PUSH1 0x2 PUSH1 0x14 SWAP1 SLOAD SWAP1 PUSH2 0x100 EXP SWAP1 DIV PUSH4 0xFFFFFFFF AND PUSH2 0x44E SWAP2 SWAP1 PUSH2 0x1283 JUMP JUMPDEST PUSH1 0x2 PUSH1 0x14 PUSH2 0x100 EXP DUP2 SLOAD DUP2 PUSH4 0xFFFFFFFF MUL NOT AND SWAP1 DUP4 PUSH4 0xFFFFFFFF AND MUL OR SWAP1 SSTORE POP SWAP2 SWAP1 POP JUMP JUMPDEST PUSH1 0x60 PUSH0 DUP1 SLOAD PUSH2 0x481 SWAP1 PUSH2 0xE74 JUMP JUMPDEST DUP1 PUSH1 0x1F ADD PUSH1 0x20 DUP1 SWAP2 DIV MUL PUSH1 0x20 ADD PUSH1 0x40 MLOAD SWAP1 DUP2 ADD PUSH1 0x40 MSTORE DUP1 SWAP3 SWAP2 SWAP1 DUP2 DUP2 MSTORE PUSH1 0x20 ADD DUP3 DUP1 SLOAD PUSH2 0x4AD SWAP1 PUSH2 0xE74 JUMP JUMPDEST DUP1 ISZERO PUSH2 0x4F8 JUMPI DUP1 PUSH1 0x1F LT PUSH2 0x4CF JUMPI PUSH2 0x100 DUP1 DUP4 SLOAD DIV MUL DUP4 MSTORE SWAP2 PUSH1 0x20 ADD SWAP2 PUSH2 0x4F8 JUMP JUMPDEST DUP3 ADD SWAP2 SWAP1 PUSH0 MSTORE PUSH1 0x20 PUSH0 KECCAK256 SWAP1 JUMPDEST DUP2 SLOAD DUP2 MSTORE SWAP1 PUSH1 0x1 ADD SWAP1 PUSH1 0x20 ADD DUP1 DUP4 GT PUSH2 0x4DB JUMPI DUP3 SWAP1 SUB PUSH1 0x1F AND DUP3 ADD SWAP2 JUMPDEST POP POP POP POP POP SWAP1 POP SWAP1 JUMP JUMPDEST PUSH0 PUSH1 0x40 MLOAD SWAP1 POP SWAP1 JUMP JUMPDEST PUSH0 DUP1 REVERT JUMPDEST PUSH0 DUP1 REVERT JUMPDEST PUSH0 DUP1 REVERT JUMPDEST PUSH0 DUP1 REVERT JUMPDEST PUSH0 PUSH1 0x1F NOT PUSH1 0x1F DUP4 ADD AND SWAP1 POP SWAP2 SWAP1 POP JUMP JUMPDEST PUSH32 0x4E487B7100000000000000000000000000000000000000000000000000000000 PUSH0 MSTORE PUSH1 0x41 PUSH1 0x4 MSTORE PUSH1 0x24 PUSH0 REVERT JUMPDEST PUSH2 0x561 DUP3 PUSH2 0x51B JUMP JUMPDEST DUP2 ADD DUP2 DUP2 LT PUSH8 0xFFFFFFFFFFFFFFFF DUP3 GT OR ISZERO PUSH2 0x580 JUMPI PUSH2 0x57F PUSH2 0x52B JUMP JUMPDEST JUMPDEST DUP1 PUSH1 0x40 MSTORE POP POP POP JUMP JUMPDEST PUSH0 PUSH2 0x592 PUSH2 0x502 JUMP JUMPDEST SWAP1 POP PUSH2 0x59E DUP3 DUP3 PUSH2 0x558 JUMP JUMPDEST SWAP2 SWAP1 POP JUMP JUMPDEST PUSH0 PUSH8 0xFFFFFFFFFFFFFFFF DUP3 GT ISZERO PUSH2 0x5BD JUMPI PUSH2 0x5BC PUSH2 0x52B JUMP JUMPDEST JUMPDEST PUSH2 0x5C6 DUP3 PUSH2 0x51B JUMP JUMPDEST SWAP1 POP PUSH1 0x20 DUP2 ADD SWAP1 POP SWAP2 SWAP1 POP JUMP JUMPDEST DUP3 DUP2 DUP4 CALLDATACOPY PUSH0 DUP4 DUP4 ADD MSTORE POP POP POP JUMP JUMPDEST PUSH0 PUSH2 0x5F3 PUSH2 0x5EE DUP5 PUSH2 0x5A3 JUMP JUMPDEST PUSH2 0x589 JUMP JUMPDEST SWAP1 POP DUP3 DUP2 MSTORE PUSH1 0x20 DUP2 ADD DUP5 DUP5 DUP5 ADD GT ISZERO PUSH2 0x60F JUMPI PUSH2 0x60E PUSH2 0x517 JUMP JUMPDEST JUMPDEST PUSH2 0x61A DUP5 DUP3 DUP6 PUSH2 0x5D3 JUMP JUMPDEST POP SWAP4 SWAP3 POP POP POP JUMP JUMPDEST PUSH0 DUP3 PUSH1 0x1F DUP4 ADD SLT PUSH2 0x636 JUMPI PUSH2 0x635 PUSH2 0x513 JUMP JUMPDEST JUMPDEST DUP2 CALLDATALOAD PUSH2 0x646 DUP5 DUP3 PUSH1 0x20 DUP7 ADD PUSH2 0x5E1 JUMP JUMPDEST SWAP2 POP POP SWAP3 SWAP2 POP POP JUMP JUMPDEST PUSH0 PUSH1 0x20 DUP3 DUP5 SUB SLT ISZERO PUSH2 0x664 JUMPI PUSH2 0x663 PUSH2 0x50B JUMP JUMPDEST JUMPDEST PUSH0 DUP3 ADD CALLDATALOAD PUSH8 0xFFFFFFFFFFFFFFFF DUP2 GT ISZERO PUSH2 0x681 JUMPI PUSH2 0x680 PUSH2 0x50F JUMP JUMPDEST JUMPDEST PUSH2 0x68D DUP5 DUP3 DUP6 ADD PUSH2 0x622 JUMP JUMPDEST SWAP2 POP POP SWAP3 SWAP2 POP POP JUMP JUMPDEST PUSH0 PUSH2 0xFFFF DUP3 AND SWAP1 POP SWAP2 SWAP1 POP JUMP JUMPDEST PUSH2 0x6AC DUP2 PUSH2 0x696 JUMP JUMPDEST DUP2 EQ PUSH2 0x6B6 JUMPI PUSH0 DUP1 REVERT JUMPDEST POP JUMP JUMPDEST PUSH0 DUP2 CALLDATALOAD SWAP1 POP PUSH2 0x6C7 DUP2 PUSH2 0x6A3 JUMP JUMPDEST SWAP3 SWAP2 POP POP JUMP JUMPDEST PUSH0 DUP2 SWAP1 POP SWAP2 SWAP1 POP JUMP JUMPDEST PUSH2 0x6DF DUP2 PUSH2 0x6CD JUMP JUMPDEST DUP2 EQ PUSH2 0x6E9 JUMPI PUSH0 DUP1 REVERT JUMPDEST POP JUMP JUMPDEST PUSH0 DUP2 CALLDATALOAD SWAP1 POP PUSH2 0x6FA DUP2 PUSH2 0x6D6 JUMP JUMPDEST SWAP3 SWAP2 POP POP JUMP JUMPDEST PUSH0 DUP1 PUSH1 0x40 DUP4 DUP6 SUB SLT ISZERO PUSH2 0x716 JUMPI PUSH2 0x715 PUSH2 0x50B JUMP JUMPDEST JUMPDEST PUSH0 PUSH2 0x723 DUP6 DUP3 DUP7 ADD PUSH2 0x6B9 JUMP JUMPDEST SWAP3 POP POP PUSH1 0x20 PUSH2 0x734 DUP6 DUP3 DUP7 ADD PUSH2 0x6EC JUMP JUMPDEST SWAP2 POP POP SWAP3 POP SWAP3 SWAP1 POP JUMP JUMPDEST PUSH0 PUSH8 0xFFFFFFFFFFFFFFFF DUP3 AND SWAP1 POP SWAP2 SWAP1 POP JUMP JUMPDEST PUSH2 0x75A DUP2 PUSH2 0x73E JUMP JUMPDEST DUP3 MSTORE POP POP JUMP JUMPDEST PUSH0 PUSH1 0x20 DUP3 ADD SWAP1 POP PUSH2 0x773 PUSH0 DUP4 ADD DUP5 PUSH2 0x751 JUMP JUMPDEST SWAP3 SWAP2 POP POP JUMP JUMPDEST PUSH0 DUP2 MLOAD SWAP1 POP SWAP2 SWAP1 POP JUMP JUMPDEST PUSH0 DUP3 DUP3 MSTORE PUSH1 0x20 DUP3 ADD SWAP1 POP SWAP3 SWAP2 POP POP JUMP JUMPDEST DUP3 DUP2 DUP4 MCOPY PUSH0 DUP4 DUP4 ADD MSTORE POP POP POP JUMP JUMPDEST PUSH0 PUSH2 0x7AB DUP3 PUSH2 0x779 JUMP JUMPDEST PUSH2 0x7B5 DUP2 DUP6 PUSH2 0x783 JUMP JUMPDEST SWAP4 POP PUSH2 0x7C5 DUP2 DUP6 PUSH1 0x20 DUP7 ADD PUSH2 0x793 JUMP JUMPDEST PUSH2 0x7CE DUP2 PUSH2 0x51B JUMP JUMPDEST DUP5 ADD SWAP2 POP POP SWAP3 SWAP2 POP POP JUMP JUMPDEST PUSH0 PUSH1 0x20 DUP3 ADD SWAP1 POP DUP2 DUP2 SUB PUSH0 DUP4 ADD MSTORE PUSH2 0x7F1 DUP2 DUP5 PUSH2 0x7A1 JUMP JUMPDEST SWAP1 POP SWAP3 SWAP2 POP POP JUMP JUMPDEST PUSH0 DUP2 MLOAD SWAP1 POP SWAP2 SWAP1 POP JUMP JUMPDEST PUSH0 DUP3 DUP3 MSTORE PUSH1 0x20 DUP3 ADD SWAP1 POP SWAP3 SWAP2 POP POP JUMP JUMPDEST PUSH0 PUSH2 0x81D DUP3 PUSH2 0x7F9 JUMP JUMPDEST PUSH2 0x827 DUP2 DUP6 PUSH2 0x803 JUMP JUMPDEST SWAP4 POP PUSH2 0x837 DUP2 DUP6 PUSH1 0x20 DUP7 ADD PUSH2 0x793 JUMP JUMPDEST PUSH2 0x840 DUP2 PUSH2 0x51B JUMP JUMPDEST DUP5 ADD SWAP2 POP POP SWAP3 SWAP2 POP POP JUMP JUMPDEST PUSH0 PUSH1 0x20 DUP3 ADD SWAP1 POP DUP2 DUP2 SUB PUSH0 DUP4 ADD MSTORE PUSH2 0x863 DUP2 DUP5 PUSH2 0x813 JUMP JUMPDEST SWAP1 POP SWAP3 SWAP2 POP POP JUMP JUMPDEST PUSH0 DUP1 REVERT JUMPDEST PUSH0 DUP1 REVERT JUMPDEST PUSH0 PUSH1 0xFF DUP3 AND SWAP1 POP SWAP2 SWAP1 POP JUMP JUMPDEST PUSH2 0x888 DUP2 PUSH2 0x873 JUMP JUMPDEST DUP2 EQ PUSH2 0x892 JUMPI PUSH0 DUP1 REVERT JUMPDEST POP JUMP JUMPDEST PUSH0 DUP2 MLOAD SWAP1 POP PUSH2 0x8A3 DUP2 PUSH2 0x87F JUMP JUMPDEST SWAP3 SWAP2 POP POP JUMP JUMPDEST PUSH0 PUSH4 0xFFFFFFFF DUP3 AND SWAP1 POP SWAP2 SWAP1 POP JUMP JUMPDEST PUSH2 0x8C1 DUP2 PUSH2 0x8A9 JUMP JUMPDEST DUP2 EQ PUSH2 0x8CB JUMPI PUSH0 DUP1 REVERT JUMPDEST POP JUMP JUMPDEST PUSH0 DUP2 MLOAD SWAP1 POP PUSH2 0x8DC DUP2 PUSH2 0x8B8 JUMP JUMPDEST SWAP3 SWAP2 POP POP JUMP JUMPDEST PUSH0 DUP2 MLOAD SWAP1 POP PUSH2 0x8F0 DUP2 PUSH2 0x6A3 JUMP JUMPDEST SWAP3 SWAP2 POP POP JUMP JUMPDEST PUSH0 DUP2 MLOAD SWAP1 POP PUSH2 0x904 DUP2 PUSH2 0x6D6 JUMP JUMPDEST SWAP3 SWAP2 POP POP JUMP JUMPDEST PUSH2 0x913 DUP2 PUSH2 0x73E JUMP JUMPDEST DUP2 EQ PUSH2 0x91D JUMPI PUSH0 DUP1 REVERT JUMPDEST POP JUMP JUMPDEST PUSH0 DUP2 MLOAD SWAP1 POP PUSH2 0x92E DUP2 PUSH2 0x90A JUMP JUMPDEST SWAP3 SWAP2 POP POP JUMP JUMPDEST PUSH0 PUSH2 0x946 PUSH2 0x941 DUP5 PUSH2 0x5A3 JUMP JUMPDEST PUSH2 0x589 JUMP JUMPDEST SWAP1 POP DUP3 DUP2 MSTORE PUSH1 0x20 DUP2 ADD DUP5 DUP5 DUP5 ADD GT ISZERO PUSH2 0x962 JUMPI PUSH2 0x961 PUSH2 0x517 JUMP JUMPDEST JUMPDEST PUSH2 0x96D DUP5 DUP3 DUP6 PUSH2 0x793 JUMP JUMPDEST POP SWAP4 SWAP3 POP POP POP JUMP JUMPDEST PUSH0 DUP3 PUSH1 0x1F DUP4 ADD SLT PUSH2 0x989 JUMPI PUSH2 0x988 PUSH2 0x513 JUMP JUMPDEST JUMPDEST DUP2 MLOAD PUSH2 0x999 DUP5 DUP3 PUSH1 0x20 DUP7 ADD PUSH2 0x934 JUMP JUMPDEST SWAP2 POP POP SWAP3 SWAP2 POP POP JUMP JUMPDEST PUSH0 PUSH8 0xFFFFFFFFFFFFFFFF DUP3 GT ISZERO PUSH2 0x9BC JUMPI PUSH2 0x9BB PUSH2 0x52B JUMP JUMPDEST JUMPDEST PUSH1 0x20 DUP3 MUL SWAP1 POP PUSH1 0x20 DUP2 ADD SWAP1 POP SWAP2 SWAP1 POP JUMP JUMPDEST PUSH0 DUP1 REVERT JUMPDEST PUSH0 PUSH1 0x80 DUP3 DUP5 SUB SLT ISZERO PUSH2 0x9E6 JUMPI PUSH2 0x9E5 PUSH2 0x86B JUMP JUMPDEST JUMPDEST PUSH2 0x9F0 PUSH1 0x80 PUSH2 0x589 JUMP JUMPDEST SWAP1 POP PUSH0 PUSH2 0x9FF DUP5 DUP3 DUP6 ADD PUSH2 0x8F6 JUMP JUMPDEST PUSH0 DUP4 ADD MSTORE POP PUSH1 0x20 PUSH2 0xA12 DUP5 DUP3 DUP6 ADD PUSH2 0x8F6 JUMP JUMPDEST PUSH1 0x20 DUP4 ADD MSTORE POP PUSH1 0x40 PUSH2 0xA26 DUP5 DUP3 DUP6 ADD PUSH2 0x895 JUMP JUMPDEST PUSH1 0x40 DUP4 ADD MSTORE POP PUSH1 0x60 PUSH2 0xA3A DUP5 DUP3 DUP6 ADD PUSH2 0x895 JUMP JUMPDEST PUSH1 0x60 DUP4 ADD MSTORE POP SWAP3 SWAP2 POP POP JUMP JUMPDEST PUSH0 PUSH2 0xA58 PUSH2 0xA53 DUP5 PUSH2 0x9A2 JUMP JUMPDEST PUSH2 0x589 JUMP JUMPDEST SWAP1 POP DUP1 DUP4 DUP3 MSTORE PUSH1 0x20 DUP3 ADD SWAP1 POP PUSH1 0x80 DUP5 MUL DUP4 ADD DUP6 DUP2 GT ISZERO PUSH2 0xA7B JUMPI PUSH2 0xA7A PUSH2 0x9CD JUMP JUMPDEST JUMPDEST DUP4 JUMPDEST DUP2 DUP2 LT ISZERO PUSH2 0xAA4 JUMPI DUP1 PUSH2 0xA90 DUP9 DUP3 PUSH2 0x9D1 JUMP JUMPDEST DUP5 MSTORE PUSH1 0x20 DUP5 ADD SWAP4 POP POP PUSH1 0x80 DUP2 ADD SWAP1 POP PUSH2 0xA7D JUMP JUMPDEST POP POP POP SWAP4 SWAP3 POP POP POP JUMP JUMPDEST PUSH0 DUP3 PUSH1 0x1F DUP4 ADD SLT PUSH2 0xAC2 JUMPI PUSH2 0xAC1 PUSH2 0x513 JUMP JUMPDEST JUMPDEST DUP2 MLOAD PUSH2 0xAD2 DUP5 DUP3 PUSH1 0x20 DUP7 ADD PUSH2 0xA46 JUMP JUMPDEST SWAP2 POP POP SWAP3 SWAP2 POP POP JUMP JUMPDEST PUSH0 PUSH2 0x160 DUP3 DUP5 SUB SLT ISZERO PUSH2 0xAF1 JUMPI PUSH2 0xAF0 PUSH2 0x86B JUMP JUMPDEST JUMPDEST PUSH2 0xAFC PUSH2 0x160 PUSH2 0x589 JUMP JUMPDEST SWAP1 POP PUSH0 PUSH2 0xB0B DUP5 DUP3 DUP6 ADD PUSH2 0x895 JUMP JUMPDEST PUSH0 DUP4 ADD MSTORE POP PUSH1 0x20 PUSH2 0xB1E DUP5 DUP3 DUP6 ADD PUSH2 0x8CE JUMP JUMPDEST PUSH1 0x20 DUP4 ADD MSTORE POP PUSH1 0x40 PUSH2 0xB32 DUP5 DUP3 DUP6 ADD PUSH2 0x8CE JUMP JUMPDEST PUSH1 0x40 DUP4 ADD MSTORE POP PUSH1 0x60 PUSH2 0xB46 DUP5 DUP3 DUP6 ADD PUSH2 0x8E2 JUMP JUMPDEST PUSH1 0x60 DUP4 ADD MSTORE POP PUSH1 0x80 PUSH2 0xB5A DUP5 DUP3 DUP6 ADD PUSH2 0x8F6 JUMP JUMPDEST PUSH1 0x80 DUP4 ADD MSTORE POP PUSH1 0xA0 PUSH2 0xB6E DUP5 DUP3 DUP6 ADD PUSH2 0x920 JUMP JUMPDEST PUSH1 0xA0 DUP4 ADD MSTORE POP PUSH1 0xC0 PUSH2 0xB82 DUP5 DUP3 DUP6 ADD PUSH2 0x895 JUMP JUMPDEST PUSH1 0xC0 DUP4 ADD MSTORE POP PUSH1 0xE0 DUP3 ADD MLOAD PUSH8 0xFFFFFFFFFFFFFFFF DUP2 GT ISZERO PUSH2 0xBA6 JUMPI PUSH2 0xBA5 PUSH2 0x86F JUMP JUMPDEST JUMPDEST PUSH2 0xBB2 DUP5 DUP3 DUP6 ADD PUSH2 0x975 JUMP JUMPDEST PUSH1 0xE0 DUP4 ADD MSTORE POP PUSH2 0x100 PUSH2 0xBC7 DUP5 DUP3 DUP6 ADD PUSH2 0x8CE JUMP JUMPDEST PUSH2 0x100 DUP4 ADD MSTORE POP PUSH2 0x120 DUP3 ADD MLOAD PUSH8 0xFFFFFFFFFFFFFFFF DUP2 GT ISZERO PUSH2 0xBED JUMPI PUSH2 0xBEC PUSH2 0x86F JUMP JUMPDEST JUMPDEST PUSH2 0xBF9 DUP5 DUP3 DUP6 ADD PUSH2 0xAAE JUMP JUMPDEST PUSH2 0x120 DUP4 ADD MSTORE POP PUSH2 0x140 PUSH2 0xC0F DUP5 DUP3 DUP6 ADD PUSH2 0x8F6 JUMP JUMPDEST PUSH2 0x140 DUP4 ADD MSTORE POP SWAP3 SWAP2 POP POP JUMP JUMPDEST PUSH0 DUP2 ISZERO ISZERO SWAP1 POP SWAP2 SWAP1 POP JUMP JUMPDEST PUSH2 0xC30 DUP2 PUSH2 0xC1C JUMP JUMPDEST DUP2 EQ PUSH2 0xC3A JUMPI PUSH0 DUP1 REVERT JUMPDEST POP JUMP JUMPDEST PUSH0 DUP2 MLOAD SWAP1 POP PUSH2 0xC4B DUP2 PUSH2 0xC27 JUMP JUMPDEST SWAP3 SWAP2 POP POP JUMP JUMPDEST PUSH0 PUSH8 0xFFFFFFFFFFFFFFFF DUP3 GT ISZERO PUSH2 0xC6B JUMPI PUSH2 0xC6A PUSH2 0x52B JUMP JUMPDEST JUMPDEST PUSH2 0xC74 DUP3 PUSH2 0x51B JUMP JUMPDEST SWAP1 POP PUSH1 0x20 DUP2 ADD SWAP1 POP SWAP2 SWAP1 POP JUMP JUMPDEST PUSH0 PUSH2 0xC93 PUSH2 0xC8E DUP5 PUSH2 0xC51 JUMP JUMPDEST PUSH2 0x589 JUMP JUMPDEST SWAP1 POP DUP3 DUP2 MSTORE PUSH1 0x20 DUP2 ADD DUP5 DUP5 DUP5 ADD GT ISZERO PUSH2 0xCAF JUMPI PUSH2 0xCAE PUSH2 0x517 JUMP JUMPDEST JUMPDEST PUSH2 0xCBA DUP5 DUP3 DUP6 PUSH2 0x793 JUMP JUMPDEST POP SWAP4 SWAP3 POP POP POP JUMP JUMPDEST PUSH0 DUP3 PUSH1 0x1F DUP4 ADD SLT PUSH2 0xCD6 JUMPI PUSH2 0xCD5 PUSH2 0x513 JUMP JUMPDEST JUMPDEST DUP2 MLOAD PUSH2 0xCE6 DUP5 DUP3 PUSH1 0x20 DUP7 ADD PUSH2 0xC81 JUMP JUMPDEST SWAP2 POP POP SWAP3 SWAP2 POP POP JUMP JUMPDEST PUSH0 DUP1 PUSH0 PUSH1 0x60 DUP5 DUP7 SUB SLT ISZERO PUSH2 0xD06 JUMPI PUSH2 0xD05 PUSH2 0x50B JUMP JUMPDEST JUMPDEST PUSH0 DUP5 ADD MLOAD PUSH8 0xFFFFFFFFFFFFFFFF DUP2 GT ISZERO PUSH2 0xD23 JUMPI PUSH2 0xD22 PUSH2 0x50F JUMP JUMPDEST JUMPDEST PUSH2 0xD2F DUP7 DUP3 DUP8 ADD PUSH2 0xADB JUMP JUMPDEST SWAP4 POP POP PUSH1 0x20 PUSH2 0xD40 DUP7 DUP3 DUP8 ADD PUSH2 0xC3D JUMP JUMPDEST SWAP3 POP POP PUSH1 0x40 DUP5 ADD MLOAD PUSH8 0xFFFFFFFFFFFFFFFF DUP2 GT ISZERO PUSH2 0xD61 JUMPI PUSH2 0xD60 PUSH2 0x50F JUMP JUMPDEST JUMPDEST PUSH2 0xD6D DUP7 DUP3 DUP8 ADD PUSH2 0xCC2 JUMP JUMPDEST SWAP2 POP POP SWAP3 POP SWAP3 POP SWAP3 JUMP JUMPDEST PUSH32 0x496E76616C696420456D69747465722041646472657373210000000000000000 PUSH0 DUP3 ADD MSTORE POP JUMP JUMPDEST PUSH0 PUSH2 0xDAB PUSH1 0x18 DUP4 PUSH2 0x783 JUMP JUMPDEST SWAP2 POP PUSH2 0xDB6 DUP3 PUSH2 0xD77 JUMP JUMPDEST PUSH1 0x20 DUP3 ADD SWAP1 POP SWAP2 SWAP1 POP JUMP JUMPDEST PUSH0 PUSH1 0x20 DUP3 ADD SWAP1 POP DUP2 DUP2 SUB PUSH0 DUP4 ADD MSTORE PUSH2 0xDD8 DUP2 PUSH2 0xD9F JUMP JUMPDEST SWAP1 POP SWAP2 SWAP1 POP JUMP JUMPDEST PUSH32 0x4D65737361676520616C72656164792070726F63657373656400000000000000 PUSH0 DUP3 ADD MSTORE POP JUMP JUMPDEST PUSH0 PUSH2 0xE13 PUSH1 0x19 DUP4 PUSH2 0x783 JUMP JUMPDEST SWAP2 POP PUSH2 0xE1E DUP3 PUSH2 0xDDF JUMP JUMPDEST PUSH1 0x20 DUP3 ADD SWAP1 POP SWAP2 SWAP1 POP JUMP JUMPDEST PUSH0 PUSH1 0x20 DUP3 ADD SWAP1 POP DUP2 DUP2 SUB PUSH0 DUP4 ADD MSTORE PUSH2 0xE40 DUP2 PUSH2 0xE07 JUMP JUMPDEST SWAP1 POP SWAP2 SWAP1 POP JUMP JUMPDEST PUSH32 0x4E487B7100000000000000000000000000000000000000000000000000000000 PUSH0 MSTORE PUSH1 0x22 PUSH1 0x4 MSTORE PUSH1 0x24 PUSH0 REVERT JUMPDEST PUSH0 PUSH1 0x2 DUP3 DIV SWAP1 POP PUSH1 0x1 DUP3 AND DUP1 PUSH2 0xE8B JUMPI PUSH1 0x7F DUP3 AND SWAP2 POP JUMPDEST PUSH1 0x20 DUP3 LT DUP2 SUB PUSH2 0xE9E JUMPI PUSH2 0xE9D PUSH2 0xE47 JUMP JUMPDEST JUMPDEST POP SWAP2 SWAP1 POP JUMP JUMPDEST PUSH0 DUP2 SWAP1 POP DUP2 PUSH0 MSTORE PUSH1 0x20 PUSH0 KECCAK256 SWAP1 POP SWAP2 SWAP1 POP JUMP JUMPDEST PUSH0 PUSH1 0x20 PUSH1 0x1F DUP4 ADD DIV SWAP1 POP SWAP2 SWAP1 POP JUMP JUMPDEST PUSH0 DUP3 DUP3 SHL SWAP1 POP SWAP3 SWAP2 POP POP JUMP JUMPDEST PUSH0 PUSH1 0x8 DUP4 MUL PUSH2 0xF00 PUSH32 0xFFFFFFFFFFFFFFFFFFFFFFFFFFFFFFFFFFFFFFFFFFFFFFFFFFFFFFFFFFFFFFFF DUP3 PUSH2 0xEC5 JUMP JUMPDEST PUSH2 0xF0A DUP7 DUP4 PUSH2 0xEC5 JUMP JUMPDEST SWAP6 POP DUP1 NOT DUP5 AND SWAP4 POP DUP1 DUP7 AND DUP5 OR SWAP3 POP POP POP SWAP4 SWAP3 POP POP POP JUMP JUMPDEST PUSH0 DUP2 SWAP1 POP SWAP2 SWAP1 POP JUMP JUMPDEST PUSH0 DUP2 SWAP1 POP SWAP2 SWAP1 POP JUMP JUMPDEST PUSH0 PUSH2 0xF4E PUSH2 0xF49 PUSH2 0xF44 DUP5 PUSH2 0xF22 JUMP JUMPDEST PUSH2 0xF2B JUMP JUMPDEST PUSH2 0xF22 JUMP JUMPDEST SWAP1 POP SWAP2 SWAP1 POP JUMP JUMPDEST PUSH0 DUP2 SWAP1 POP SWAP2 SWAP1 POP JUMP JUMPDEST PUSH2 0xF67 DUP4 PUSH2 0xF34 JUMP JUMPDEST PUSH2 0xF7B PUSH2 0xF73 DUP3 PUSH2 0xF55 JUMP JUMPDEST DUP5 DUP5 SLOAD PUSH2 0xED1 JUMP JUMPDEST DUP3 SSTORE POP POP POP POP JUMP JUMPDEST PUSH0 SWAP1 JUMP JUMPDEST PUSH2 0xF8F PUSH2 0xF83 JUMP JUMPDEST PUSH2 0xF9A DUP2 DUP5 DUP5 PUSH2 0xF5E JUMP JUMPDEST POP POP POP JUMP JUMPDEST JUMPDEST DUP2 DUP2 LT ISZERO PUSH2 0xFBD JUMPI PUSH2 0xFB2 PUSH0 DUP3 PUSH2 0xF87 JUMP JUMPDEST PUSH1 0x1 DUP2 ADD SWAP1 POP PUSH2 0xFA0 JUMP JUMPDEST POP POP JUMP JUMPDEST PUSH1 0x1F DUP3 GT ISZERO PUSH2 0x1002 JUMPI PUSH2 0xFD3 DUP2 PUSH2 0xEA4 JUMP JUMPDEST PUSH2 0xFDC DUP5 PUSH2 0xEB6 JUMP JUMPDEST DUP2 ADD PUSH1 0x20 DUP6 LT ISZERO PUSH2 0xFEB JUMPI DUP2 SWAP1 POP JUMPDEST PUSH2 0xFFF PUSH2 0xFF7 DUP6 PUSH2 0xEB6 JUMP JUMPDEST DUP4 ADD DUP3 PUSH2 0xF9F JUMP JUMPDEST POP POP JUMPDEST POP POP POP JUMP JUMPDEST PUSH0 DUP3 DUP3 SHR SWAP1 POP SWAP3 SWAP2 POP POP JUMP JUMPDEST PUSH0 PUSH2 0x1022 PUSH0 NOT DUP5 PUSH1 0x8 MUL PUSH2 0x1007 JUMP JUMPDEST NOT DUP1 DUP4 AND SWAP2 POP POP SWAP3 SWAP2 POP POP JUMP JUMPDEST PUSH0 PUSH2 0x103A DUP4 DUP4 PUSH2 0x1013 JUMP JUMPDEST SWAP2 POP DUP3 PUSH1 0x2 MUL DUP3 OR SWAP1 POP SWAP3 SWAP2 POP POP JUMP JUMPDEST PUSH2 0x1053 DUP3 PUSH2 0x779 JUMP JUMPDEST PUSH8 0xFFFFFFFFFFFFFFFF DUP2 GT ISZERO PUSH2 0x106C JUMPI PUSH2 0x106B PUSH2 0x52B JUMP JUMPDEST JUMPDEST PUSH2 0x1076 DUP3 SLOAD PUSH2 0xE74 JUMP JUMPDEST PUSH2 0x1081 DUP3 DUP3 DUP6 PUSH2 0xFC1 JUMP JUMPDEST PUSH0 PUSH1 0x20 SWAP1 POP PUSH1 0x1F DUP4 GT PUSH1 0x1 DUP2 EQ PUSH2 0x10B2 JUMPI PUSH0 DUP5 ISZERO PUSH2 0x10A0 JUMPI DUP3 DUP8 ADD MLOAD SWAP1 POP JUMPDEST PUSH2 0x10AA DUP6 DUP3 PUSH2 0x102F JUMP JUMPDEST DUP7 SSTORE POP PUSH2 0x1111 JUMP JUMPDEST PUSH1 0x1F NOT DUP5 AND PUSH2 0x10C0 DUP7 PUSH2 0xEA4 JUMP JUMPDEST PUSH0 JUMPDEST DUP3 DUP2 LT ISZERO PUSH2 0x10E7 JUMPI DUP5 DUP10 ADD MLOAD DUP3 SSTORE PUSH1 0x1 DUP3 ADD SWAP2 POP PUSH1 0x20 DUP6 ADD SWAP5 POP PUSH1 0x20 DUP2 ADD SWAP1 POP PUSH2 0x10C2 JUMP JUMPDEST DUP7 DUP4 LT ISZERO PUSH2 0x1104 JUMPI DUP5 DUP10 ADD MLOAD PUSH2 0x1100 PUSH1 0x1F DUP10 AND DUP3 PUSH2 0x1013 JUMP JUMPDEST DUP4 SSTORE POP JUMPDEST PUSH1 0x1 PUSH1 0x2 DUP9 MUL ADD DUP9 SSTORE POP POP POP JUMPDEST POP POP POP POP POP POP JUMP JUMPDEST PUSH32 0x4F6E6C79206F776E65722063616E207265676973746572206E65772063686169 PUSH0 DUP3 ADD MSTORE PUSH32 0x6E73210000000000000000000000000000000000000000000000000000000000 PUSH1 0x20 DUP3 ADD MSTORE POP JUMP JUMPDEST PUSH0 PUSH2 0x1173 PUSH1 0x23 DUP4 PUSH2 0x783 JUMP JUMPDEST SWAP2 POP PUSH2 0x117E DUP3 PUSH2 0x1119 JUMP JUMPDEST PUSH1 0x40 DUP3 ADD SWAP1 POP SWAP2 SWAP1 POP JUMP JUMPDEST PUSH0 PUSH1 0x20 DUP3 ADD SWAP1 POP DUP2 DUP2 SUB PUSH0 DUP4 ADD MSTORE PUSH2 0x11A0 DUP2 PUSH2 0x1167 JUMP JUMPDEST SWAP1 POP SWAP2 SWAP1 POP JUMP JUMPDEST PUSH2 0x11B0 DUP2 PUSH2 0x8A9 JUMP JUMPDEST DUP3 MSTORE POP POP JUMP JUMPDEST PUSH0 DUP2 SWAP1 POP SWAP2 SWAP1 POP JUMP JUMPDEST PUSH0 PUSH2 0x11D9 PUSH2 0x11D4 PUSH2 0x11CF DUP5 PUSH2 0x11B6 JUMP JUMPDEST PUSH2 0xF2B JUMP JUMPDEST PUSH2 0x873 JUMP JUMPDEST SWAP1 POP SWAP2 SWAP1 POP JUMP JUMPDEST PUSH2 0x11E9 DUP2 PUSH2 0x11BF JUMP JUMPDEST DUP3 MSTORE POP POP JUMP JUMPDEST PUSH0 PUSH1 0x60 DUP3 ADD SWAP1 POP PUSH2 0x1202 PUSH0 DUP4 ADD DUP7 PUSH2 0x11A7 JUMP JUMPDEST DUP2 DUP2 SUB PUSH1 0x20 DUP4 ADD MSTORE PUSH2 0x1214 DUP2 DUP6 PUSH2 0x813 JUMP JUMPDEST SWAP1 POP PUSH2 0x1223 PUSH1 0x40 DUP4 ADD DUP5 PUSH2 0x11E0 JUMP JUMPDEST SWAP5 SWAP4 POP POP POP POP JUMP JUMPDEST PUSH0 PUSH1 0x20 DUP3 DUP5 SUB SLT ISZERO PUSH2 0x1240 JUMPI PUSH2 0x123F PUSH2 0x50B JUMP JUMPDEST JUMPDEST PUSH0 PUSH2 0x124D DUP5 DUP3 DUP6 ADD PUSH2 0x920 JUMP JUMPDEST SWAP2 POP POP SWAP3 SWAP2 POP POP JUMP JUMPDEST PUSH32 0x4E487B7100000000000000000000000000000000000000000000000000000000 PUSH0 MSTORE PUSH1 0x11 PUSH1 0x4 MSTORE PUSH1 0x24 PUSH0 REVERT JUMPDEST PUSH0 PUSH2 0x128D DUP3 PUSH2 0x8A9 JUMP JUMPDEST SWAP2 POP PUSH2 0x1298 DUP4 PUSH2 0x8A9 JUMP JUMPDEST SWAP3 POP DUP3 DUP3 ADD SWAP1 POP PUSH4 0xFFFFFFFF DUP2 GT ISZERO PUSH2 0x12B4 JUMPI PUSH2 0x12B3 PUSH2 0x1256 JUMP JUMPDEST JUMPDEST SWAP3 SWAP2 POP POP JUMP INVALID LOG2 PUSH5 0x6970667358 0x22 SLT KECCAK256 0xD0 0xDE SWAP4 PUSH20 0xA60DA4679094C46CA2DF9172ABCE10289704FE75 0xD5 0xDB 0xFB 0xB2 0x4B DUP4 0xED 0x4D PUSH5 0x736F6C6343 STOP ADDMOD BYTE STOP CALLER "
		},
		"gasEstimates": {
			"creation": {
				"codeDepositCost": "969600",
				"executionCost": "100254",
				"totalCost": "1069854"
			},
			"external": {
				"getCurrentMsg()": "infinite",
				"receiveEncodedMsg(bytes)": "infinite",
				"registerApplicationContracts(uint16,bytes32)": "24949",
				"sendMsg(bytes)": "infinite"
			}
		},
		"methodIdentifiers": {
			"getCurrentMsg()": "ff206cf8",
			"receiveEncodedMsg(bytes)": "496d76ff",
			"registerApplicationContracts(uint16,bytes32)": "5f327e1c",
			"sendMsg(bytes)": "737a3ca4"
		}
	},
	"abi": [
		{
			"inputs": [],
			"stateMutability": "nonpayable",
			"type": "constructor"
		},
		{
			"inputs": [],
			"name": "getCurrentMsg",
			"outputs": [
				{
					"internalType": "string",
					"name": "",
					"type": "string"
				}
			],
			"stateMutability": "view",
			"type": "function"
		},
		{
			"inputs": [
				{
					"internalType": "bytes",
					"name": "encodedMsg",
					"type": "bytes"
				}
			],
			"name": "receiveEncodedMsg",
			"outputs": [],
			"stateMutability": "nonpayable",
			"type": "function"
		},
		{
			"inputs": [
				{
					"internalType": "uint16",
					"name": "chainId",
					"type": "uint16"
				},
				{
					"internalType": "bytes32",
					"name": "applicationAddr",
					"type": "bytes32"
				}
			],
			"name": "registerApplicationContracts",
			"outputs": [],
			"stateMutability": "nonpayable",
			"type": "function"
		},
		{
			"inputs": [
				{
					"internalType": "bytes",
					"name": "str",
					"type": "bytes"
				}
			],
			"name": "sendMsg",
			"outputs": [
				{
					"internalType": "uint64",
					"name": "sequence",
					"type": "uint64"
				}
			],
			"stateMutability": "nonpayable",
			"type": "function"
		}
	]
}