{
	"contracts/govarnance/SubchainGovernanceToken.sol": {
		"SubchainGovernanceToken": {
			"abi": [
				{
					"inputs": [
						{
							"internalType": "string",
							"name": "name_",
							"type": "string"
						},
						{
							"internalType": "string",
							"name": "symbol_",
							"type": "string"
						},
						{
							"internalType": "uint8",
							"name": "decimals_",
							"type": "uint8"
						},
						{
							"internalType": "uint256",
							"name": "maxSupply_",
							"type": "uint256"
						},
						{
							"internalType": "address",
							"name": "minter_",
							"type": "address"
						},
						{
							"internalType": "uint256",
							"name": "stakerRewardPerBlock_",
							"type": "uint256"
						},
						{
							"internalType": "address",
							"name": "initDistrWallet_",
							"type": "address"
						},
						{
							"internalType": "uint256",
							"name": "initMintAmount_",
							"type": "uint256"
						},
						{
							"internalType": "address",
							"name": "admin_",
							"type": "address"
						}
					],
					"stateMutability": "nonpayable",
					"type": "constructor"
				},
				{
					"inputs": [
						{
							"internalType": "address",
							"name": "spender",
							"type": "address"
						},
						{
							"internalType": "uint256",
							"name": "allowance",
							"type": "uint256"
						},
						{
							"internalType": "uint256",
							"name": "needed",
							"type": "uint256"
						}
					],
					"name": "ERC20InsufficientAllowance",
					"type": "error"
				},
				{
					"inputs": [
						{
							"internalType": "address",
							"name": "sender",
							"type": "address"
						},
						{
							"internalType": "uint256",
							"name": "balance",
							"type": "uint256"
						},
						{
							"internalType": "uint256",
							"name": "needed",
							"type": "uint256"
						}
					],
					"name": "ERC20InsufficientBalance",
					"type": "error"
				},
				{
					"inputs": [
						{
							"internalType": "address",
							"name": "approver",
							"type": "address"
						}
					],
					"name": "ERC20InvalidApprover",
					"type": "error"
				},
				{
					"inputs": [
						{
							"internalType": "address",
							"name": "receiver",
							"type": "address"
						}
					],
					"name": "ERC20InvalidReceiver",
					"type": "error"
				},
				{
					"inputs": [
						{
							"internalType": "address",
							"name": "sender",
							"type": "address"
						}
					],
					"name": "ERC20InvalidSender",
					"type": "error"
				},
				{
					"inputs": [
						{
							"internalType": "address",
							"name": "spender",
							"type": "address"
						}
					],
					"name": "ERC20InvalidSpender",
					"type": "error"
				},
				{
					"anonymous": false,
					"inputs": [
						{
							"indexed": true,
							"internalType": "address",
							"name": "owner",
							"type": "address"
						},
						{
							"indexed": true,
							"internalType": "address",
							"name": "spender",
							"type": "address"
						},
						{
							"indexed": false,
							"internalType": "uint256",
							"name": "value",
							"type": "uint256"
						}
					],
					"name": "Approval",
					"type": "event"
				},
				{
					"anonymous": false,
					"inputs": [
						{
							"indexed": true,
							"internalType": "address",
							"name": "from",
							"type": "address"
						},
						{
							"indexed": true,
							"internalType": "address",
							"name": "to",
							"type": "address"
						},
						{
							"indexed": false,
							"internalType": "uint256",
							"name": "value",
							"type": "uint256"
						}
					],
					"name": "Transfer",
					"type": "event"
				},
				{
					"anonymous": false,
					"inputs": [
						{
							"indexed": false,
							"internalType": "address",
							"name": "newAdmin",
							"type": "address"
						}
					],
					"name": "UpdateAdmin",
					"type": "event"
				},
				{
					"anonymous": false,
					"inputs": [
						{
							"indexed": false,
							"internalType": "address",
							"name": "newMinter",
							"type": "address"
						}
					],
					"name": "UpdateMinter",
					"type": "event"
				},
				{
					"anonymous": false,
					"inputs": [
						{
							"indexed": false,
							"internalType": "uint256",
							"name": "newStakerRewardPerBlock",
							"type": "uint256"
						}
					],
					"name": "UpdateStakerRewardPerBlock",
					"type": "event"
				},
				{
					"inputs": [],
					"name": "admin",
					"outputs": [
						{
							"internalType": "address",
							"name": "",
							"type": "address"
						}
					],
					"stateMutability": "view",
					"type": "function"
				},
				{
					"inputs": [
						{
							"internalType": "address",
							"name": "owner",
							"type": "address"
						},
						{
							"internalType": "address",
							"name": "spender",
							"type": "address"
						}
					],
					"name": "allowance",
					"outputs": [
						{
							"internalType": "uint256",
							"name": "",
							"type": "uint256"
						}
					],
					"stateMutability": "view",
					"type": "function"
				},
				{
					"inputs": [
						{
							"internalType": "address",
							"name": "spender",
							"type": "address"
						},
						{
							"internalType": "uint256",
							"name": "value",
							"type": "uint256"
						}
					],
					"name": "approve",
					"outputs": [
						{
							"internalType": "bool",
							"name": "",
							"type": "bool"
						}
					],
					"stateMutability": "nonpayable",
					"type": "function"
				},
				{
					"inputs": [
						{
							"internalType": "address",
							"name": "account",
							"type": "address"
						}
					],
					"name": "balanceOf",
					"outputs": [
						{
							"internalType": "uint256",
							"name": "",
							"type": "uint256"
						}
					],
					"stateMutability": "view",
					"type": "function"
				},
				{
					"inputs": [],
					"name": "decimals",
					"outputs": [
						{
							"internalType": "uint8",
							"name": "",
							"type": "uint8"
						}
					],
					"stateMutability": "view",
					"type": "function"
				},
				{
					"inputs": [],
					"name": "maxSupply",
					"outputs": [
						{
							"internalType": "uint256",
							"name": "",
							"type": "uint256"
						}
					],
					"stateMutability": "view",
					"type": "function"
				},
				{
					"inputs": [
						{
							"internalType": "address",
							"name": "account",
							"type": "address"
						},
						{
							"internalType": "uint256",
							"name": "amount",
							"type": "uint256"
						}
					],
					"name": "mintStakerReward",
					"outputs": [
						{
							"internalType": "bool",
							"name": "",
							"type": "bool"
						}
					],
					"stateMutability": "nonpayable",
					"type": "function"
				},
				{
					"inputs": [],
					"name": "minter",
					"outputs": [
						{
							"internalType": "address",
							"name": "",
							"type": "address"
						}
					],
					"stateMutability": "view",
					"type": "function"
				},
				{
					"inputs": [],
					"name": "name",
					"outputs": [
						{
							"internalType": "string",
							"name": "",
							"type": "string"
						}
					],
					"stateMutability": "view",
					"type": "function"
				},
				{
					"inputs": [],
					"name": "stakerRewardPerBlock",
					"outputs": [
						{
							"internalType": "uint256",
							"name": "",
							"type": "uint256"
						}
					],
					"stateMutability": "view",
					"type": "function"
				},
				{
					"inputs": [],
					"name": "symbol",
					"outputs": [
						{
							"internalType": "string",
							"name": "",
							"type": "string"
						}
					],
					"stateMutability": "view",
					"type": "function"
				},
				{
					"inputs": [],
					"name": "totalSupply",
					"outputs": [
						{
							"internalType": "uint256",
							"name": "",
							"type": "uint256"
						}
					],
					"stateMutability": "view",
					"type": "function"
				},
				{
					"inputs": [
						{
							"internalType": "address",
							"name": "to",
							"type": "address"
						},
						{
							"internalType": "uint256",
							"name": "value",
							"type": "uint256"
						}
					],
					"name": "transfer",
					"outputs": [
						{
							"internalType": "bool",
							"name": "",
							"type": "bool"
						}
					],
					"stateMutability": "nonpayable",
					"type": "function"
				},
				{
					"inputs": [
						{
							"internalType": "address",
							"name": "from",
							"type": "address"
						},
						{
							"internalType": "address",
							"name": "to",
							"type": "address"
						},
						{
							"internalType": "uint256",
							"name": "value",
							"type": "uint256"
						}
					],
					"name": "transferFrom",
					"outputs": [
						{
							"internalType": "bool",
							"name": "",
							"type": "bool"
						}
					],
					"stateMutability": "nonpayable",
					"type": "function"
				},
				{
					"inputs": [
						{
							"internalType": "address",
							"name": "admin_",
							"type": "address"
						}
					],
					"name": "updateAdmin",
					"outputs": [],
					"stateMutability": "nonpayable",
					"type": "function"
				},
				{
					"inputs": [
						{
							"internalType": "address",
							"name": "minter_",
							"type": "address"
						}
					],
					"name": "updateMinter",
					"outputs": [],
					"stateMutability": "nonpayable",
					"type": "function"
				},
				{
					"inputs": [
						{
							"internalType": "uint256",
							"name": "stakerRewardPerBlock_",
							"type": "uint256"
						}
					],
					"name": "updateStakerRewardPerBlock",
					"outputs": [],
					"stateMutability": "nonpayable",
					"type": "function"
				}
			],
			"devdoc": {
				"errors": {
					"ERC20InsufficientAllowance(address,uint256,uint256)": [
						{
							"details": "Indicates a failure with the `spender`’s `allowance`. Used in transfers.",
							"params": {
								"allowance": "Amount of tokens a `spender` is allowed to operate with.",
								"needed": "Minimum amount required to perform a transfer.",
								"spender": "Address that may be allowed to operate on tokens without being their owner."
							}
						}
					],
					"ERC20InsufficientBalance(address,uint256,uint256)": [
						{
							"details": "Indicates an error related to the current `balance` of a `sender`. Used in transfers.",
							"params": {
								"balance": "Current balance for the interacting account.",
								"needed": "Minimum amount required to perform a transfer.",
								"sender": "Address whose tokens are being transferred."
							}
						}
					],
					"ERC20InvalidApprover(address)": [
						{
							"details": "Indicates a failure with the `approver` of a token to be approved. Used in approvals.",
							"params": {
								"approver": "Address initiating an approval operation."
							}
						}
					],
					"ERC20InvalidReceiver(address)": [
						{
							"details": "Indicates a failure with the token `receiver`. Used in transfers.",
							"params": {
								"receiver": "Address to which tokens are being transferred."
							}
						}
					],
					"ERC20InvalidSender(address)": [
						{
							"details": "Indicates a failure with the token `sender`. Used in transfers.",
							"params": {
								"sender": "Address whose tokens are being transferred."
							}
						}
					],
					"ERC20InvalidSpender(address)": [
						{
							"details": "Indicates a failure with the `spender` to be approved. Used in approvals.",
							"params": {
								"spender": "Address that may be allowed to operate on tokens without being their owner."
							}
						}
					]
				},
				"events": {
					"Approval(address,address,uint256)": {
						"details": "Emitted when the allowance of a `spender` for an `owner` is set by a call to {approve}. `value` is the new allowance."
					},
					"Transfer(address,address,uint256)": {
						"details": "Emitted when `value` tokens are moved from one account (`from`) to another (`to`). Note that `value` may be zero."
					}
				},
				"kind": "dev",
				"methods": {
					"allowance(address,address)": {
						"details": "See {IERC20-allowance}."
					},
					"approve(address,uint256)": {
						"details": "See {IERC20-approve}. NOTE: If `value` is the maximum `uint256`, the allowance is not updated on `transferFrom`. This is semantically equivalent to an infinite approval. Requirements: - `spender` cannot be the zero address."
					},
					"balanceOf(address)": {
						"details": "See {IERC20-balanceOf}."
					},
					"decimals()": {
						"details": "Returns the number of decimals used to get its user representation. For example, if `decimals` equals `2`, a balance of `505` tokens should be displayed to a user as `5.05` (`505 / 10 ** 2`). Tokens usually opt for a value of 18, imitating the relationship between Ether and Wei. This is the default value returned by this function, unless it's overridden. NOTE: This information is only used for _display_ purposes: it in no way affects any of the arithmetic of the contract, including {IERC20-balanceOf} and {IERC20-transfer}."
					},
					"name()": {
						"details": "Returns the name of the token."
					},
					"symbol()": {
						"details": "Returns the symbol of the token, usually a shorter version of the name."
					},
					"totalSupply()": {
						"details": "See {IERC20-totalSupply}."
					},
					"transfer(address,uint256)": {
						"details": "See {IERC20-transfer}. Requirements: - `to` cannot be the zero address. - the caller must have a balance of at least `value`."
					},
					"transferFrom(address,address,uint256)": {
						"details": "See {IERC20-transferFrom}. Emits an {Approval} event indicating the updated allowance. This is not required by the EIP. See the note at the beginning of {ERC20}. NOTE: Does not update the allowance if the current allowance is the maximum `uint256`. Requirements: - `from` and `to` cannot be the zero address. - `from` must have a balance of at least `value`. - the caller must have allowance for ``from``'s tokens of at least `value`."
					}
				},
				"version": 1
			},
			"evm": {
				"assembly": "    /* \"contracts/govarnance/SubchainGovernanceToken.sol\":721:3810  contract SubchainGovernanceToken is ERC20 {... */\n  mstore(0x40, 0x80)\n    /* \"contracts/govarnance/SubchainGovernanceToken.sol\":1111:2055  constructor(... */\n  callvalue\n  dup1\n  iszero\n  tag_1\n  jumpi\n  0x00\n  dup1\n  revert\ntag_1:\n  pop\n  mload(0x40)\n  sub(codesize, bytecodeSize)\n  dup1\n  bytecodeSize\n  dup4\n  codecopy\n  dup2\n  dup2\n  add\n  0x40\n  mstore\n  dup2\n  add\n  swap1\n  tag_2\n  swap2\n  swap1\n  tag_3\n  jump\t// in\ntag_2:\n    /* \"contracts/govarnance/SubchainGovernanceToken.sol\":1403:1408  name_ */\n  dup9\n    /* \"contracts/govarnance/SubchainGovernanceToken.sol\":1410:1417  symbol_ */\n  dup9\n    /* \"@openzeppelin/contracts/token/ERC20/ERC20.sol\":1970:1975  name_ */\n  dup2\n    /* \"@openzeppelin/contracts/token/ERC20/ERC20.sol\":1962:1967  _name */\n  0x03\n    /* \"@openzeppelin/contracts/token/ERC20/ERC20.sol\":1962:1975  _name = name_ */\n  swap1\n  dup2\n  tag_7\n  swap2\n  swap1\n  tag_8\n  jump\t// in\ntag_7:\n  pop\n    /* \"@openzeppelin/contracts/token/ERC20/ERC20.sol\":1995:2002  symbol_ */\n  dup1\n    /* \"@openzeppelin/contracts/token/ERC20/ERC20.sol\":1985:1992  _symbol */\n  0x04\n    /* \"@openzeppelin/contracts/token/ERC20/ERC20.sol\":1985:2002  _symbol = symbol_ */\n  swap1\n  dup2\n  tag_9\n  swap2\n  swap1\n  tag_8\n  jump\t// in\ntag_9:\n  pop\n    /* \"@openzeppelin/contracts/token/ERC20/ERC20.sol\":1896:2009  constructor(string memory name_, string memory symbol_) {... */\n  pop\n  pop\n    /* \"contracts/govarnance/SubchainGovernanceToken.sol\":1450:1457  2 ** 96 */\n  0x01000000000000000000000000\n    /* \"contracts/govarnance/SubchainGovernanceToken.sol\":1437:1447  maxSupply_ */\n  dup7\n    /* \"contracts/govarnance/SubchainGovernanceToken.sol\":1437:1457  maxSupply_ < 2 ** 96 */\n  lt\n    /* \"contracts/govarnance/SubchainGovernanceToken.sol\":1429:1481  require(maxSupply_ < 2 ** 96, \"maxSupply too large\") */\n  tag_11\n  jumpi\n  mload(0x40)\n  0x08c379a000000000000000000000000000000000000000000000000000000000\n  dup2\n  mstore\n  0x04\n  add\n  tag_12\n  swap1\n  tag_13\n  jump\t// in\ntag_12:\n  mload(0x40)\n  dup1\n  swap2\n  sub\n  swap1\n  revert\ntag_11:\n    /* \"contracts/govarnance/SubchainGovernanceToken.sol\":1615:1625  maxSupply_ */\n  dup6\n    /* \"contracts/govarnance/SubchainGovernanceToken.sol\":1596:1611  initMintAmount_ */\n  dup3\n    /* \"contracts/govarnance/SubchainGovernanceToken.sol\":1596:1625  initMintAmount_ <= maxSupply_ */\n  gt\n  iszero\n    /* \"contracts/govarnance/SubchainGovernanceToken.sol\":1575:1698  require(... */\n  tag_14\n  jumpi\n  mload(0x40)\n  0x08c379a000000000000000000000000000000000000000000000000000000000\n  dup2\n  mstore\n  0x04\n  add\n  tag_15\n  swap1\n  tag_16\n  jump\t// in\ntag_15:\n  mload(0x40)\n  dup1\n  swap2\n  sub\n  swap1\n  revert\ntag_14:\n    /* \"contracts/govarnance/SubchainGovernanceToken.sol\":1720:1729  decimals_ */\n  dup7\n    /* \"contracts/govarnance/SubchainGovernanceToken.sol\":1708:1717  _decimals */\n  0x05\n  0x00\n    /* \"contracts/govarnance/SubchainGovernanceToken.sol\":1708:1729  _decimals = decimals_ */\n  0x0100\n  exp\n  dup2\n  sload\n  dup2\n  0xff\n  mul\n  not\n  and\n  swap1\n  dup4\n  0xff\n  and\n  mul\n  or\n  swap1\n  sstore\n  pop\n    /* \"contracts/govarnance/SubchainGovernanceToken.sol\":1751:1761  maxSupply_ */\n  dup6\n    /* \"contracts/govarnance/SubchainGovernanceToken.sol\":1739:1748  maxSupply */\n  0x07\n    /* \"contracts/govarnance/SubchainGovernanceToken.sol\":1739:1761  maxSupply = maxSupply_ */\n  dup2\n  swap1\n  sstore\n  pop\n    /* \"contracts/govarnance/SubchainGovernanceToken.sol\":1780:1787  minter_ */\n  dup5\n    /* \"contracts/govarnance/SubchainGovernanceToken.sol\":1771:1777  minter */\n  0x08\n  0x00\n    /* \"contracts/govarnance/SubchainGovernanceToken.sol\":1771:1787  minter = minter_ */\n  0x0100\n  exp\n  dup2\n  sload\n  dup2\n  0xffffffffffffffffffffffffffffffffffffffff\n  mul\n  not\n  and\n  swap1\n  dup4\n  0xffffffffffffffffffffffffffffffffffffffff\n  and\n  mul\n  or\n  swap1\n  sstore\n  pop\n    /* \"contracts/govarnance/SubchainGovernanceToken.sol\":1821:1842  stakerRewardPerBlock_ */\n  dup4\n    /* \"contracts/govarnance/SubchainGovernanceToken.sol\":1797:1818  _stakerRewardPerBlock */\n  0x06\n    /* \"contracts/govarnance/SubchainGovernanceToken.sol\":1797:1842  _stakerRewardPerBlock = stakerRewardPerBlock_ */\n  dup2\n  swap1\n  sstore\n  pop\n    /* \"contracts/govarnance/SubchainGovernanceToken.sol\":1860:1866  admin_ */\n  dup1\n    /* \"contracts/govarnance/SubchainGovernanceToken.sol\":1852:1857  admin */\n  0x09\n  0x00\n    /* \"contracts/govarnance/SubchainGovernanceToken.sol\":1852:1866  admin = admin_ */\n  0x0100\n  exp\n  dup2\n  sload\n  dup2\n  0xffffffffffffffffffffffffffffffffffffffff\n  mul\n  not\n  and\n  swap1\n  dup4\n  0xffffffffffffffffffffffffffffffffffffffff\n  and\n  mul\n  or\n  swap1\n  sstore\n  pop\n    /* \"contracts/govarnance/SubchainGovernanceToken.sol\":1876:1916  _mint(initDistrWallet_, initMintAmount_) */\n  tag_17\n    /* \"contracts/govarnance/SubchainGovernanceToken.sol\":1882:1898  initDistrWallet_ */\n  dup4\n    /* \"contracts/govarnance/SubchainGovernanceToken.sol\":1900:1915  initMintAmount_ */\n  dup4\n    /* \"contracts/govarnance/SubchainGovernanceToken.sol\":1876:1881  _mint */\n  shl(0x20, tag_18)\n    /* \"contracts/govarnance/SubchainGovernanceToken.sol\":1876:1916  _mint(initDistrWallet_, initMintAmount_) */\n  0x20\n  shr\n  jump\t// in\ntag_17:\n    /* \"contracts/govarnance/SubchainGovernanceToken.sol\":1931:1951  UpdateMinter(minter) */\n  0x94a0a7c0a7a455351029a521046d4438bc63e58a1ee8d984d624eb3161583b2c\n    /* \"contracts/govarnance/SubchainGovernanceToken.sol\":1944:1950  minter */\n  0x08\n  0x00\n  swap1\n  sload\n  swap1\n  0x0100\n  exp\n  swap1\n  div\n  0xffffffffffffffffffffffffffffffffffffffff\n  and\n    /* \"contracts/govarnance/SubchainGovernanceToken.sol\":1931:1951  UpdateMinter(minter) */\n  mload(0x40)\n  tag_19\n  swap2\n  swap1\n  tag_20\n  jump\t// in\ntag_19:\n  mload(0x40)\n  dup1\n  swap2\n  sub\n  swap1\n  log1\n    /* \"contracts/govarnance/SubchainGovernanceToken.sol\":1966:1984  UpdateAdmin(admin) */\n  0xbfc8d7754fec5096becc28e0816011e8d0adcfe752ffa1c88924a7f88b00a41d\n    /* \"contracts/govarnance/SubchainGovernanceToken.sol\":1978:1983  admin */\n  0x09\n  0x00\n  swap1\n  sload\n  swap1\n  0x0100\n  exp\n  swap1\n  div\n  0xffffffffffffffffffffffffffffffffffffffff\n  and\n    /* \"contracts/govarnance/SubchainGovernanceToken.sol\":1966:1984  UpdateAdmin(admin) */\n  mload(0x40)\n  tag_21\n  swap2\n  swap1\n  tag_20\n  jump\t// in\ntag_21:\n  mload(0x40)\n  dup1\n  swap2\n  sub\n  swap1\n  log1\n    /* \"contracts/govarnance/SubchainGovernanceToken.sol\":1999:2048  UpdateStakerRewardPerBlock(_stakerRewardPerBlock) */\n  0xd65d781db82f0bd55f732ea1b96f4c6565750df815c18a70962cd8405274e243\n    /* \"contracts/govarnance/SubchainGovernanceToken.sol\":2026:2047  _stakerRewardPerBlock */\n  sload(0x06)\n    /* \"contracts/govarnance/SubchainGovernanceToken.sol\":1999:2048  UpdateStakerRewardPerBlock(_stakerRewardPerBlock) */\n  mload(0x40)\n  tag_22\n  swap2\n  swap1\n  tag_23\n  jump\t// in\ntag_22:\n  mload(0x40)\n  dup1\n  swap2\n  sub\n  swap1\n  log1\n    /* \"contracts/govarnance/SubchainGovernanceToken.sol\":1111:2055  constructor(... */\n  pop\n  pop\n  pop\n  pop\n  pop\n  pop\n  pop\n  pop\n  pop\n    /* \"contracts/govarnance/SubchainGovernanceToken.sol\":721:3810  contract SubchainGovernanceToken is ERC20 {... */\n  jump(tag_24)\n    /* \"@openzeppelin/contracts/token/ERC20/ERC20.sol\":7721:7929  function _mint(address account, uint256 value) internal {... */\ntag_18:\n    /* \"@openzeppelin/contracts/token/ERC20/ERC20.sol\":7810:7811  0 */\n  0x00\n    /* \"@openzeppelin/contracts/token/ERC20/ERC20.sol\":7791:7812  account == address(0) */\n  0xffffffffffffffffffffffffffffffffffffffff\n  and\n    /* \"@openzeppelin/contracts/token/ERC20/ERC20.sol\":7791:7798  account */\n  dup3\n    /* \"@openzeppelin/contracts/token/ERC20/ERC20.sol\":7791:7812  account == address(0) */\n  0xffffffffffffffffffffffffffffffffffffffff\n  and\n  sub\n    /* \"@openzeppelin/contracts/token/ERC20/ERC20.sol\":7787:7878  if (account == address(0)) {... */\n  tag_26\n  jumpi\n    /* \"@openzeppelin/contracts/token/ERC20/ERC20.sol\":7864:7865  0 */\n  0x00\n    /* \"@openzeppelin/contracts/token/ERC20/ERC20.sol\":7835:7867  ERC20InvalidReceiver(address(0)) */\n  mload(0x40)\n  0xec442f0500000000000000000000000000000000000000000000000000000000\n  dup2\n  mstore\n  0x04\n  add\n  tag_27\n  swap2\n  swap1\n  tag_20\n  jump\t// in\ntag_27:\n  mload(0x40)\n  dup1\n  swap2\n  sub\n  swap1\n  revert\n    /* \"@openzeppelin/contracts/token/ERC20/ERC20.sol\":7787:7878  if (account == address(0)) {... */\ntag_26:\n    /* \"@openzeppelin/contracts/token/ERC20/ERC20.sol\":7887:7922  _update(address(0), account, value) */\n  tag_28\n    /* \"@openzeppelin/contracts/token/ERC20/ERC20.sol\":7903:7904  0 */\n  0x00\n    /* \"@openzeppelin/contracts/token/ERC20/ERC20.sol\":7907:7914  account */\n  dup4\n    /* \"@openzeppelin/contracts/token/ERC20/ERC20.sol\":7916:7921  value */\n  dup4\n    /* \"@openzeppelin/contracts/token/ERC20/ERC20.sol\":7887:7894  _update */\n  shl(0x20, tag_29)\n    /* \"@openzeppelin/contracts/token/ERC20/ERC20.sol\":7887:7922  _update(address(0), account, value) */\n  0x20\n  shr\n  jump\t// in\ntag_28:\n    /* \"@openzeppelin/contracts/token/ERC20/ERC20.sol\":7721:7929  function _mint(address account, uint256 value) internal {... */\n  pop\n  pop\n  jump\t// out\n    /* \"@openzeppelin/contracts/token/ERC20/ERC20.sol\":6271:7378  function _update(address from, address to, uint256 value) internal virtual {... */\ntag_29:\n    /* \"@openzeppelin/contracts/token/ERC20/ERC20.sol\":6376:6377  0 */\n  0x00\n    /* \"@openzeppelin/contracts/token/ERC20/ERC20.sol\":6360:6378  from == address(0) */\n  0xffffffffffffffffffffffffffffffffffffffff\n  and\n    /* \"@openzeppelin/contracts/token/ERC20/ERC20.sol\":6360:6364  from */\n  dup4\n    /* \"@openzeppelin/contracts/token/ERC20/ERC20.sol\":6360:6378  from == address(0) */\n  0xffffffffffffffffffffffffffffffffffffffff\n  and\n  sub\n    /* \"@openzeppelin/contracts/token/ERC20/ERC20.sol\":6356:6896  if (from == address(0)) {... */\n  tag_31\n  jumpi\n    /* \"@openzeppelin/contracts/token/ERC20/ERC20.sol\":6512:6517  value */\n  dup1\n    /* \"@openzeppelin/contracts/token/ERC20/ERC20.sol\":6496:6508  _totalSupply */\n  0x02\n  0x00\n    /* \"@openzeppelin/contracts/token/ERC20/ERC20.sol\":6496:6517  _totalSupply += value */\n  dup3\n  dup3\n  sload\n  tag_32\n  swap2\n  swap1\n  tag_33\n  jump\t// in\ntag_32:\n  swap3\n  pop\n  pop\n  dup2\n  swap1\n  sstore\n  pop\n    /* \"@openzeppelin/contracts/token/ERC20/ERC20.sol\":6356:6896  if (from == address(0)) {... */\n  jump(tag_34)\ntag_31:\n    /* \"@openzeppelin/contracts/token/ERC20/ERC20.sol\":6548:6567  uint256 fromBalance */\n  0x00\n    /* \"@openzeppelin/contracts/token/ERC20/ERC20.sol\":6570:6579  _balances */\n  dup1\n    /* \"@openzeppelin/contracts/token/ERC20/ERC20.sol\":6570:6585  _balances[from] */\n  0x00\n    /* \"@openzeppelin/contracts/token/ERC20/ERC20.sol\":6580:6584  from */\n  dup6\n    /* \"@openzeppelin/contracts/token/ERC20/ERC20.sol\":6570:6585  _balances[from] */\n  0xffffffffffffffffffffffffffffffffffffffff\n  and\n  0xffffffffffffffffffffffffffffffffffffffff\n  and\n  dup2\n  mstore\n  0x20\n  add\n  swap1\n  dup2\n  mstore\n  0x20\n  add\n  0x00\n  keccak256\n  sload\n    /* \"@openzeppelin/contracts/token/ERC20/ERC20.sol\":6548:6585  uint256 fromBalance = _balances[from] */\n  swap1\n  pop\n    /* \"@openzeppelin/contracts/token/ERC20/ERC20.sol\":6617:6622  value */\n  dup2\n    /* \"@openzeppelin/contracts/token/ERC20/ERC20.sol\":6603:6614  fromBalance */\n  dup2\n    /* \"@openzeppelin/contracts/token/ERC20/ERC20.sol\":6603:6622  fromBalance < value */\n  lt\n    /* \"@openzeppelin/contracts/token/ERC20/ERC20.sol\":6599:6714  if (fromBalance < value) {... */\n  iszero\n  tag_35\n  jumpi\n    /* \"@openzeppelin/contracts/token/ERC20/ERC20.sol\":6674:6678  from */\n  dup4\n    /* \"@openzeppelin/contracts/token/ERC20/ERC20.sol\":6680:6691  fromBalance */\n  dup2\n    /* \"@openzeppelin/contracts/token/ERC20/ERC20.sol\":6693:6698  value */\n  dup4\n    /* \"@openzeppelin/contracts/token/ERC20/ERC20.sol\":6649:6699  ERC20InsufficientBalance(from, fromBalance, value) */\n  mload(0x40)\n  0xe450d38c00000000000000000000000000000000000000000000000000000000\n  dup2\n  mstore\n  0x04\n  add\n  tag_36\n  swap4\n  swap3\n  swap2\n  swap1\n  tag_37\n  jump\t// in\ntag_36:\n  mload(0x40)\n  dup1\n  swap2\n  sub\n  swap1\n  revert\n    /* \"@openzeppelin/contracts/token/ERC20/ERC20.sol\":6599:6714  if (fromBalance < value) {... */\ntag_35:\n    /* \"@openzeppelin/contracts/token/ERC20/ERC20.sol\":6866:6871  value */\n  dup2\n    /* \"@openzeppelin/contracts/token/ERC20/ERC20.sol\":6852:6863  fromBalance */\n  dup2\n    /* \"@openzeppelin/contracts/token/ERC20/ERC20.sol\":6852:6871  fromBalance - value */\n  sub\n    /* \"@openzeppelin/contracts/token/ERC20/ERC20.sol\":6834:6843  _balances */\n  0x00\n    /* \"@openzeppelin/contracts/token/ERC20/ERC20.sol\":6834:6849  _balances[from] */\n  dup1\n    /* \"@openzeppelin/contracts/token/ERC20/ERC20.sol\":6844:6848  from */\n  dup7\n    /* \"@openzeppelin/contracts/token/ERC20/ERC20.sol\":6834:6849  _balances[from] */\n  0xffffffffffffffffffffffffffffffffffffffff\n  and\n  0xffffffffffffffffffffffffffffffffffffffff\n  and\n  dup2\n  mstore\n  0x20\n  add\n  swap1\n  dup2\n  mstore\n  0x20\n  add\n  0x00\n  keccak256\n    /* \"@openzeppelin/contracts/token/ERC20/ERC20.sol\":6834:6871  _balances[from] = fromBalance - value */\n  dup2\n  swap1\n  sstore\n  pop\n    /* \"@openzeppelin/contracts/token/ERC20/ERC20.sol\":6534:6896  {... */\n  pop\n    /* \"@openzeppelin/contracts/token/ERC20/ERC20.sol\":6356:6896  if (from == address(0)) {... */\ntag_34:\n    /* \"@openzeppelin/contracts/token/ERC20/ERC20.sol\":6924:6925  0 */\n  0x00\n    /* \"@openzeppelin/contracts/token/ERC20/ERC20.sol\":6910:6926  to == address(0) */\n  0xffffffffffffffffffffffffffffffffffffffff\n  and\n    /* \"@openzeppelin/contracts/token/ERC20/ERC20.sol\":6910:6912  to */\n  dup3\n    /* \"@openzeppelin/contracts/token/ERC20/ERC20.sol\":6910:6926  to == address(0) */\n  0xffffffffffffffffffffffffffffffffffffffff\n  and\n  sub\n    /* \"@openzeppelin/contracts/token/ERC20/ERC20.sol\":6906:7331  if (to == address(0)) {... */\n  tag_38\n  jumpi\n    /* \"@openzeppelin/contracts/token/ERC20/ERC20.sol\":7089:7094  value */\n  dup1\n    /* \"@openzeppelin/contracts/token/ERC20/ERC20.sol\":7073:7085  _totalSupply */\n  0x02\n  0x00\n    /* \"@openzeppelin/contracts/token/ERC20/ERC20.sol\":7073:7094  _totalSupply -= value */\n  dup3\n  dup3\n  sload\n  sub\n  swap3\n  pop\n  pop\n  dup2\n  swap1\n  sstore\n  pop\n    /* \"@openzeppelin/contracts/token/ERC20/ERC20.sol\":6906:7331  if (to == address(0)) {... */\n  jump(tag_39)\ntag_38:\n    /* \"@openzeppelin/contracts/token/ERC20/ERC20.sol\":7301:7306  value */\n  dup1\n    /* \"@openzeppelin/contracts/token/ERC20/ERC20.sol\":7284:7293  _balances */\n  0x00\n    /* \"@openzeppelin/contracts/token/ERC20/ERC20.sol\":7284:7297  _balances[to] */\n  dup1\n    /* \"@openzeppelin/contracts/token/ERC20/ERC20.sol\":7294:7296  to */\n  dup5\n    /* \"@openzeppelin/contracts/token/ERC20/ERC20.sol\":7284:7297  _balances[to] */\n  0xffffffffffffffffffffffffffffffffffffffff\n  and\n  0xffffffffffffffffffffffffffffffffffffffff\n  and\n  dup2\n  mstore\n  0x20\n  add\n  swap1\n  dup2\n  mstore\n  0x20\n  add\n  0x00\n  keccak256\n  0x00\n    /* \"@openzeppelin/contracts/token/ERC20/ERC20.sol\":7284:7306  _balances[to] += value */\n  dup3\n  dup3\n  sload\n  add\n  swap3\n  pop\n  pop\n  dup2\n  swap1\n  sstore\n  pop\n    /* \"@openzeppelin/contracts/token/ERC20/ERC20.sol\":6906:7331  if (to == address(0)) {... */\ntag_39:\n    /* \"@openzeppelin/contracts/token/ERC20/ERC20.sol\":7361:7363  to */\n  dup2\n    /* \"@openzeppelin/contracts/token/ERC20/ERC20.sol\":7346:7371  Transfer(from, to, value) */\n  0xffffffffffffffffffffffffffffffffffffffff\n  and\n    /* \"@openzeppelin/contracts/token/ERC20/ERC20.sol\":7355:7359  from */\n  dup4\n    /* \"@openzeppelin/contracts/token/ERC20/ERC20.sol\":7346:7371  Transfer(from, to, value) */\n  0xffffffffffffffffffffffffffffffffffffffff\n  and\n  0xddf252ad1be2c89b69c2b068fc378daa952ba7f163c4a11628f55a4df523b3ef\n    /* \"@openzeppelin/contracts/token/ERC20/ERC20.sol\":7365:7370  value */\n  dup4\n    /* \"@openzeppelin/contracts/token/ERC20/ERC20.sol\":7346:7371  Transfer(from, to, value) */\n  mload(0x40)\n  tag_40\n  swap2\n  swap1\n  tag_23\n  jump\t// in\ntag_40:\n  mload(0x40)\n  dup1\n  swap2\n  sub\n  swap1\n  log3\n    /* \"@openzeppelin/contracts/token/ERC20/ERC20.sol\":6271:7378  function _update(address from, address to, uint256 value) internal virtual {... */\n  pop\n  pop\n  pop\n  jump\t// out\n    /* \"#utility.yul\":7:82   */\ntag_41:\n    /* \"#utility.yul\":40:46   */\n  0x00\n    /* \"#utility.yul\":73:75   */\n  0x40\n    /* \"#utility.yul\":67:76   */\n  mload\n    /* \"#utility.yul\":57:76   */\n  swap1\n  pop\n    /* \"#utility.yul\":7:82   */\n  swap1\n  jump\t// out\n    /* \"#utility.yul\":88:205   */\ntag_42:\n    /* \"#utility.yul\":197:198   */\n  0x00\n    /* \"#utility.yul\":194:195   */\n  dup1\n    /* \"#utility.yul\":187:199   */\n  revert\n    /* \"#utility.yul\":211:328   */\ntag_43:\n    /* \"#utility.yul\":320:321   */\n  0x00\n    /* \"#utility.yul\":317:318   */\n  dup1\n    /* \"#utility.yul\":310:322   */\n  revert\n    /* \"#utility.yul\":334:451   */\ntag_44:\n    /* \"#utility.yul\":443:444   */\n  0x00\n    /* \"#utility.yul\":440:441   */\n  dup1\n    /* \"#utility.yul\":433:445   */\n  revert\n    /* \"#utility.yul\":457:574   */\ntag_45:\n    /* \"#utility.yul\":566:567   */\n  0x00\n    /* \"#utility.yul\":563:564   */\n  dup1\n    /* \"#utility.yul\":556:568   */\n  revert\n    /* \"#utility.yul\":580:682   */\ntag_46:\n    /* \"#utility.yul\":621:627   */\n  0x00\n    /* \"#utility.yul\":672:674   */\n  0x1f\n    /* \"#utility.yul\":668:675   */\n  not\n    /* \"#utility.yul\":663:665   */\n  0x1f\n    /* \"#utility.yul\":656:661   */\n  dup4\n    /* \"#utility.yul\":652:666   */\n  add\n    /* \"#utility.yul\":648:676   */\n  and\n    /* \"#utility.yul\":638:676   */\n  swap1\n  pop\n    /* \"#utility.yul\":580:682   */\n  swap2\n  swap1\n  pop\n  jump\t// out\n    /* \"#utility.yul\":688:868   */\ntag_47:\n    /* \"#utility.yul\":736:813   */\n  0x4e487b7100000000000000000000000000000000000000000000000000000000\n    /* \"#utility.yul\":733:734   */\n  0x00\n    /* \"#utility.yul\":726:814   */\n  mstore\n    /* \"#utility.yul\":833:837   */\n  0x41\n    /* \"#utility.yul\":830:831   */\n  0x04\n    /* \"#utility.yul\":823:838   */\n  mstore\n    /* \"#utility.yul\":857:861   */\n  0x24\n    /* \"#utility.yul\":854:855   */\n  0x00\n    /* \"#utility.yul\":847:862   */\n  revert\n    /* \"#utility.yul\":874:1155   */\ntag_48:\n    /* \"#utility.yul\":957:984   */\n  tag_99\n    /* \"#utility.yul\":979:983   */\n  dup3\n    /* \"#utility.yul\":957:984   */\n  tag_46\n  jump\t// in\ntag_99:\n    /* \"#utility.yul\":949:955   */\n  dup2\n    /* \"#utility.yul\":945:985   */\n  add\n    /* \"#utility.yul\":1087:1093   */\n  dup2\n    /* \"#utility.yul\":1075:1085   */\n  dup2\n    /* \"#utility.yul\":1072:1094   */\n  lt\n    /* \"#utility.yul\":1051:1069   */\n  0xffffffffffffffff\n    /* \"#utility.yul\":1039:1049   */\n  dup3\n    /* \"#utility.yul\":1036:1070   */\n  gt\n    /* \"#utility.yul\":1033:1095   */\n  or\n    /* \"#utility.yul\":1030:1118   */\n  iszero\n  tag_100\n  jumpi\n    /* \"#utility.yul\":1098:1116   */\n  tag_101\n  tag_47\n  jump\t// in\ntag_101:\n    /* \"#utility.yul\":1030:1118   */\ntag_100:\n    /* \"#utility.yul\":1138:1148   */\n  dup1\n    /* \"#utility.yul\":1134:1136   */\n  0x40\n    /* \"#utility.yul\":1127:1149   */\n  mstore\n    /* \"#utility.yul\":917:1155   */\n  pop\n    /* \"#utility.yul\":874:1155   */\n  pop\n  pop\n  jump\t// out\n    /* \"#utility.yul\":1161:1290   */\ntag_49:\n    /* \"#utility.yul\":1195:1201   */\n  0x00\n    /* \"#utility.yul\":1222:1242   */\n  tag_103\n  tag_41\n  jump\t// in\ntag_103:\n    /* \"#utility.yul\":1212:1242   */\n  swap1\n  pop\n    /* \"#utility.yul\":1251:1284   */\n  tag_104\n    /* \"#utility.yul\":1279:1283   */\n  dup3\n    /* \"#utility.yul\":1271:1277   */\n  dup3\n    /* \"#utility.yul\":1251:1284   */\n  tag_48\n  jump\t// in\ntag_104:\n    /* \"#utility.yul\":1161:1290   */\n  swap2\n  swap1\n  pop\n  jump\t// out\n    /* \"#utility.yul\":1296:1604   */\ntag_50:\n    /* \"#utility.yul\":1358:1362   */\n  0x00\n    /* \"#utility.yul\":1448:1466   */\n  0xffffffffffffffff\n    /* \"#utility.yul\":1440:1446   */\n  dup3\n    /* \"#utility.yul\":1437:1467   */\n  gt\n    /* \"#utility.yul\":1434:1490   */\n  iszero\n  tag_106\n  jumpi\n    /* \"#utility.yul\":1470:1488   */\n  tag_107\n  tag_47\n  jump\t// in\ntag_107:\n    /* \"#utility.yul\":1434:1490   */\ntag_106:\n    /* \"#utility.yul\":1508:1537   */\n  tag_108\n    /* \"#utility.yul\":1530:1536   */\n  dup3\n    /* \"#utility.yul\":1508:1537   */\n  tag_46\n  jump\t// in\ntag_108:\n    /* \"#utility.yul\":1500:1537   */\n  swap1\n  pop\n    /* \"#utility.yul\":1592:1596   */\n  0x20\n    /* \"#utility.yul\":1586:1590   */\n  dup2\n    /* \"#utility.yul\":1582:1597   */\n  add\n    /* \"#utility.yul\":1574:1597   */\n  swap1\n  pop\n    /* \"#utility.yul\":1296:1604   */\n  swap2\n  swap1\n  pop\n  jump\t// out\n    /* \"#utility.yul\":1610:1749   */\ntag_51:\n    /* \"#utility.yul\":1699:1705   */\n  dup3\n    /* \"#utility.yul\":1694:1697   */\n  dup2\n    /* \"#utility.yul\":1689:1692   */\n  dup4\n    /* \"#utility.yul\":1683:1706   */\n  mcopy\n    /* \"#utility.yul\":1740:1741   */\n  0x00\n    /* \"#utility.yul\":1731:1737   */\n  dup4\n    /* \"#utility.yul\":1726:1729   */\n  dup4\n    /* \"#utility.yul\":1722:1738   */\n  add\n    /* \"#utility.yul\":1715:1742   */\n  mstore\n    /* \"#utility.yul\":1610:1749   */\n  pop\n  pop\n  pop\n  jump\t// out\n    /* \"#utility.yul\":1755:2189   */\ntag_52:\n    /* \"#utility.yul\":1844:1849   */\n  0x00\n    /* \"#utility.yul\":1869:1935   */\n  tag_111\n    /* \"#utility.yul\":1885:1934   */\n  tag_112\n    /* \"#utility.yul\":1927:1933   */\n  dup5\n    /* \"#utility.yul\":1885:1934   */\n  tag_50\n  jump\t// in\ntag_112:\n    /* \"#utility.yul\":1869:1935   */\n  tag_49\n  jump\t// in\ntag_111:\n    /* \"#utility.yul\":1860:1935   */\n  swap1\n  pop\n    /* \"#utility.yul\":1958:1964   */\n  dup3\n    /* \"#utility.yul\":1951:1956   */\n  dup2\n    /* \"#utility.yul\":1944:1965   */\n  mstore\n    /* \"#utility.yul\":1996:2000   */\n  0x20\n    /* \"#utility.yul\":1989:1994   */\n  dup2\n    /* \"#utility.yul\":1985:2001   */\n  add\n    /* \"#utility.yul\":2034:2037   */\n  dup5\n    /* \"#utility.yul\":2025:2031   */\n  dup5\n    /* \"#utility.yul\":2020:2023   */\n  dup5\n    /* \"#utility.yul\":2016:2032   */\n  add\n    /* \"#utility.yul\":2013:2038   */\n  gt\n    /* \"#utility.yul\":2010:2122   */\n  iszero\n  tag_113\n  jumpi\n    /* \"#utility.yul\":2041:2120   */\n  tag_114\n  tag_45\n  jump\t// in\ntag_114:\n    /* \"#utility.yul\":2010:2122   */\ntag_113:\n    /* \"#utility.yul\":2131:2183   */\n  tag_115\n    /* \"#utility.yul\":2176:2182   */\n  dup5\n    /* \"#utility.yul\":2171:2174   */\n  dup3\n    /* \"#utility.yul\":2166:2169   */\n  dup6\n    /* \"#utility.yul\":2131:2183   */\n  tag_51\n  jump\t// in\ntag_115:\n    /* \"#utility.yul\":1850:2189   */\n  pop\n    /* \"#utility.yul\":1755:2189   */\n  swap4\n  swap3\n  pop\n  pop\n  pop\n  jump\t// out\n    /* \"#utility.yul\":2209:2564   */\ntag_53:\n    /* \"#utility.yul\":2276:2281   */\n  0x00\n    /* \"#utility.yul\":2325:2328   */\n  dup3\n    /* \"#utility.yul\":2318:2322   */\n  0x1f\n    /* \"#utility.yul\":2310:2316   */\n  dup4\n    /* \"#utility.yul\":2306:2323   */\n  add\n    /* \"#utility.yul\":2302:2329   */\n  slt\n    /* \"#utility.yul\":2292:2414   */\n  tag_117\n  jumpi\n    /* \"#utility.yul\":2333:2412   */\n  tag_118\n  tag_44\n  jump\t// in\ntag_118:\n    /* \"#utility.yul\":2292:2414   */\ntag_117:\n    /* \"#utility.yul\":2443:2449   */\n  dup2\n    /* \"#utility.yul\":2437:2450   */\n  mload\n    /* \"#utility.yul\":2468:2558   */\n  tag_119\n    /* \"#utility.yul\":2554:2557   */\n  dup5\n    /* \"#utility.yul\":2546:2552   */\n  dup3\n    /* \"#utility.yul\":2539:2543   */\n  0x20\n    /* \"#utility.yul\":2531:2537   */\n  dup7\n    /* \"#utility.yul\":2527:2544   */\n  add\n    /* \"#utility.yul\":2468:2558   */\n  tag_52\n  jump\t// in\ntag_119:\n    /* \"#utility.yul\":2459:2558   */\n  swap2\n  pop\n    /* \"#utility.yul\":2282:2564   */\n  pop\n    /* \"#utility.yul\":2209:2564   */\n  swap3\n  swap2\n  pop\n  pop\n  jump\t// out\n    /* \"#utility.yul\":2570:2656   */\ntag_54:\n    /* \"#utility.yul\":2605:2612   */\n  0x00\n    /* \"#utility.yul\":2645:2649   */\n  0xff\n    /* \"#utility.yul\":2638:2643   */\n  dup3\n    /* \"#utility.yul\":2634:2650   */\n  and\n    /* \"#utility.yul\":2623:2650   */\n  swap1\n  pop\n    /* \"#utility.yul\":2570:2656   */\n  swap2\n  swap1\n  pop\n  jump\t// out\n    /* \"#utility.yul\":2662:2780   */\ntag_55:\n    /* \"#utility.yul\":2733:2755   */\n  tag_122\n    /* \"#utility.yul\":2749:2754   */\n  dup2\n    /* \"#utility.yul\":2733:2755   */\n  tag_54\n  jump\t// in\ntag_122:\n    /* \"#utility.yul\":2726:2731   */\n  dup2\n    /* \"#utility.yul\":2723:2756   */\n  eq\n    /* \"#utility.yul\":2713:2774   */\n  tag_123\n  jumpi\n    /* \"#utility.yul\":2770:2771   */\n  0x00\n    /* \"#utility.yul\":2767:2768   */\n  dup1\n    /* \"#utility.yul\":2760:2772   */\n  revert\n    /* \"#utility.yul\":2713:2774   */\ntag_123:\n    /* \"#utility.yul\":2662:2780   */\n  pop\n  jump\t// out\n    /* \"#utility.yul\":2786:2925   */\ntag_56:\n    /* \"#utility.yul\":2841:2846   */\n  0x00\n    /* \"#utility.yul\":2872:2878   */\n  dup2\n    /* \"#utility.yul\":2866:2879   */\n  mload\n    /* \"#utility.yul\":2857:2879   */\n  swap1\n  pop\n    /* \"#utility.yul\":2888:2919   */\n  tag_125\n    /* \"#utility.yul\":2913:2918   */\n  dup2\n    /* \"#utility.yul\":2888:2919   */\n  tag_55\n  jump\t// in\ntag_125:\n    /* \"#utility.yul\":2786:2925   */\n  swap3\n  swap2\n  pop\n  pop\n  jump\t// out\n    /* \"#utility.yul\":2931:3008   */\ntag_57:\n    /* \"#utility.yul\":2968:2975   */\n  0x00\n    /* \"#utility.yul\":2997:3002   */\n  dup2\n    /* \"#utility.yul\":2986:3002   */\n  swap1\n  pop\n    /* \"#utility.yul\":2931:3008   */\n  swap2\n  swap1\n  pop\n  jump\t// out\n    /* \"#utility.yul\":3014:3136   */\ntag_58:\n    /* \"#utility.yul\":3087:3111   */\n  tag_128\n    /* \"#utility.yul\":3105:3110   */\n  dup2\n    /* \"#utility.yul\":3087:3111   */\n  tag_57\n  jump\t// in\ntag_128:\n    /* \"#utility.yul\":3080:3085   */\n  dup2\n    /* \"#utility.yul\":3077:3112   */\n  eq\n    /* \"#utility.yul\":3067:3130   */\n  tag_129\n  jumpi\n    /* \"#utility.yul\":3126:3127   */\n  0x00\n    /* \"#utility.yul\":3123:3124   */\n  dup1\n    /* \"#utility.yul\":3116:3128   */\n  revert\n    /* \"#utility.yul\":3067:3130   */\ntag_129:\n    /* \"#utility.yul\":3014:3136   */\n  pop\n  jump\t// out\n    /* \"#utility.yul\":3142:3285   */\ntag_59:\n    /* \"#utility.yul\":3199:3204   */\n  0x00\n    /* \"#utility.yul\":3230:3236   */\n  dup2\n    /* \"#utility.yul\":3224:3237   */\n  mload\n    /* \"#utility.yul\":3215:3237   */\n  swap1\n  pop\n    /* \"#utility.yul\":3246:3279   */\n  tag_131\n    /* \"#utility.yul\":3273:3278   */\n  dup2\n    /* \"#utility.yul\":3246:3279   */\n  tag_58\n  jump\t// in\ntag_131:\n    /* \"#utility.yul\":3142:3285   */\n  swap3\n  swap2\n  pop\n  pop\n  jump\t// out\n    /* \"#utility.yul\":3291:3417   */\ntag_60:\n    /* \"#utility.yul\":3328:3335   */\n  0x00\n    /* \"#utility.yul\":3368:3410   */\n  0xffffffffffffffffffffffffffffffffffffffff\n    /* \"#utility.yul\":3361:3366   */\n  dup3\n    /* \"#utility.yul\":3357:3411   */\n  and\n    /* \"#utility.yul\":3346:3411   */\n  swap1\n  pop\n    /* \"#utility.yul\":3291:3417   */\n  swap2\n  swap1\n  pop\n  jump\t// out\n    /* \"#utility.yul\":3423:3519   */\ntag_61:\n    /* \"#utility.yul\":3460:3467   */\n  0x00\n    /* \"#utility.yul\":3489:3513   */\n  tag_134\n    /* \"#utility.yul\":3507:3512   */\n  dup3\n    /* \"#utility.yul\":3489:3513   */\n  tag_60\n  jump\t// in\ntag_134:\n    /* \"#utility.yul\":3478:3513   */\n  swap1\n  pop\n    /* \"#utility.yul\":3423:3519   */\n  swap2\n  swap1\n  pop\n  jump\t// out\n    /* \"#utility.yul\":3525:3647   */\ntag_62:\n    /* \"#utility.yul\":3598:3622   */\n  tag_136\n    /* \"#utility.yul\":3616:3621   */\n  dup2\n    /* \"#utility.yul\":3598:3622   */\n  tag_61\n  jump\t// in\ntag_136:\n    /* \"#utility.yul\":3591:3596   */\n  dup2\n    /* \"#utility.yul\":3588:3623   */\n  eq\n    /* \"#utility.yul\":3578:3641   */\n  tag_137\n  jumpi\n    /* \"#utility.yul\":3637:3638   */\n  0x00\n    /* \"#utility.yul\":3634:3635   */\n  dup1\n    /* \"#utility.yul\":3627:3639   */\n  revert\n    /* \"#utility.yul\":3578:3641   */\ntag_137:\n    /* \"#utility.yul\":3525:3647   */\n  pop\n  jump\t// out\n    /* \"#utility.yul\":3653:3796   */\ntag_63:\n    /* \"#utility.yul\":3710:3715   */\n  0x00\n    /* \"#utility.yul\":3741:3747   */\n  dup2\n    /* \"#utility.yul\":3735:3748   */\n  mload\n    /* \"#utility.yul\":3726:3748   */\n  swap1\n  pop\n    /* \"#utility.yul\":3757:3790   */\n  tag_139\n    /* \"#utility.yul\":3784:3789   */\n  dup2\n    /* \"#utility.yul\":3757:3790   */\n  tag_62\n  jump\t// in\ntag_139:\n    /* \"#utility.yul\":3653:3796   */\n  swap3\n  swap2\n  pop\n  pop\n  jump\t// out\n    /* \"#utility.yul\":3802:5749   */\ntag_3:\n    /* \"#utility.yul\":3962:3968   */\n  0x00\n    /* \"#utility.yul\":3970:3976   */\n  dup1\n    /* \"#utility.yul\":3978:3984   */\n  0x00\n    /* \"#utility.yul\":3986:3992   */\n  dup1\n    /* \"#utility.yul\":3994:4000   */\n  0x00\n    /* \"#utility.yul\":4002:4008   */\n  dup1\n    /* \"#utility.yul\":4010:4016   */\n  0x00\n    /* \"#utility.yul\":4018:4024   */\n  dup1\n    /* \"#utility.yul\":4026:4032   */\n  0x00\n    /* \"#utility.yul\":4075:4078   */\n  0x0120\n    /* \"#utility.yul\":4063:4072   */\n  dup11\n    /* \"#utility.yul\":4054:4061   */\n  dup13\n    /* \"#utility.yul\":4050:4073   */\n  sub\n    /* \"#utility.yul\":4046:4079   */\n  slt\n    /* \"#utility.yul\":4043:4163   */\n  iszero\n  tag_141\n  jumpi\n    /* \"#utility.yul\":4082:4161   */\n  tag_142\n  tag_42\n  jump\t// in\ntag_142:\n    /* \"#utility.yul\":4043:4163   */\ntag_141:\n    /* \"#utility.yul\":4223:4224   */\n  0x00\n    /* \"#utility.yul\":4212:4221   */\n  dup11\n    /* \"#utility.yul\":4208:4225   */\n  add\n    /* \"#utility.yul\":4202:4226   */\n  mload\n    /* \"#utility.yul\":4253:4271   */\n  0xffffffffffffffff\n    /* \"#utility.yul\":4245:4251   */\n  dup2\n    /* \"#utility.yul\":4242:4272   */\n  gt\n    /* \"#utility.yul\":4239:4356   */\n  iszero\n  tag_143\n  jumpi\n    /* \"#utility.yul\":4275:4354   */\n  tag_144\n  tag_43\n  jump\t// in\ntag_144:\n    /* \"#utility.yul\":4239:4356   */\ntag_143:\n    /* \"#utility.yul\":4380:4454   */\n  tag_145\n    /* \"#utility.yul\":4446:4453   */\n  dup13\n    /* \"#utility.yul\":4437:4443   */\n  dup3\n    /* \"#utility.yul\":4426:4435   */\n  dup14\n    /* \"#utility.yul\":4422:4444   */\n  add\n    /* \"#utility.yul\":4380:4454   */\n  tag_53\n  jump\t// in\ntag_145:\n    /* \"#utility.yul\":4370:4454   */\n  swap10\n  pop\n    /* \"#utility.yul\":4173:4464   */\n  pop\n    /* \"#utility.yul\":4524:4526   */\n  0x20\n    /* \"#utility.yul\":4513:4522   */\n  dup11\n    /* \"#utility.yul\":4509:4527   */\n  add\n    /* \"#utility.yul\":4503:4528   */\n  mload\n    /* \"#utility.yul\":4555:4573   */\n  0xffffffffffffffff\n    /* \"#utility.yul\":4547:4553   */\n  dup2\n    /* \"#utility.yul\":4544:4574   */\n  gt\n    /* \"#utility.yul\":4541:4658   */\n  iszero\n  tag_146\n  jumpi\n    /* \"#utility.yul\":4577:4656   */\n  tag_147\n  tag_43\n  jump\t// in\ntag_147:\n    /* \"#utility.yul\":4541:4658   */\ntag_146:\n    /* \"#utility.yul\":4682:4756   */\n  tag_148\n    /* \"#utility.yul\":4748:4755   */\n  dup13\n    /* \"#utility.yul\":4739:4745   */\n  dup3\n    /* \"#utility.yul\":4728:4737   */\n  dup14\n    /* \"#utility.yul\":4724:4746   */\n  add\n    /* \"#utility.yul\":4682:4756   */\n  tag_53\n  jump\t// in\ntag_148:\n    /* \"#utility.yul\":4672:4756   */\n  swap9\n  pop\n    /* \"#utility.yul\":4474:4766   */\n  pop\n    /* \"#utility.yul\":4805:4807   */\n  0x40\n    /* \"#utility.yul\":4831:4893   */\n  tag_149\n    /* \"#utility.yul\":4885:4892   */\n  dup13\n    /* \"#utility.yul\":4876:4882   */\n  dup3\n    /* \"#utility.yul\":4865:4874   */\n  dup14\n    /* \"#utility.yul\":4861:4883   */\n  add\n    /* \"#utility.yul\":4831:4893   */\n  tag_56\n  jump\t// in\ntag_149:\n    /* \"#utility.yul\":4821:4893   */\n  swap8\n  pop\n    /* \"#utility.yul\":4776:4903   */\n  pop\n    /* \"#utility.yul\":4942:4944   */\n  0x60\n    /* \"#utility.yul\":4968:5032   */\n  tag_150\n    /* \"#utility.yul\":5024:5031   */\n  dup13\n    /* \"#utility.yul\":5015:5021   */\n  dup3\n    /* \"#utility.yul\":5004:5013   */\n  dup14\n    /* \"#utility.yul\":5000:5022   */\n  add\n    /* \"#utility.yul\":4968:5032   */\n  tag_59\n  jump\t// in\ntag_150:\n    /* \"#utility.yul\":4958:5032   */\n  swap7\n  pop\n    /* \"#utility.yul\":4913:5042   */\n  pop\n    /* \"#utility.yul\":5081:5084   */\n  0x80\n    /* \"#utility.yul\":5108:5172   */\n  tag_151\n    /* \"#utility.yul\":5164:5171   */\n  dup13\n    /* \"#utility.yul\":5155:5161   */\n  dup3\n    /* \"#utility.yul\":5144:5153   */\n  dup14\n    /* \"#utility.yul\":5140:5162   */\n  add\n    /* \"#utility.yul\":5108:5172   */\n  tag_63\n  jump\t// in\ntag_151:\n    /* \"#utility.yul\":5098:5172   */\n  swap6\n  pop\n    /* \"#utility.yul\":5052:5182   */\n  pop\n    /* \"#utility.yul\":5221:5224   */\n  0xa0\n    /* \"#utility.yul\":5248:5312   */\n  tag_152\n    /* \"#utility.yul\":5304:5311   */\n  dup13\n    /* \"#utility.yul\":5295:5301   */\n  dup3\n    /* \"#utility.yul\":5284:5293   */\n  dup14\n    /* \"#utility.yul\":5280:5302   */\n  add\n    /* \"#utility.yul\":5248:5312   */\n  tag_59\n  jump\t// in\ntag_152:\n    /* \"#utility.yul\":5238:5312   */\n  swap5\n  pop\n    /* \"#utility.yul\":5192:5322   */\n  pop\n    /* \"#utility.yul\":5361:5364   */\n  0xc0\n    /* \"#utility.yul\":5388:5452   */\n  tag_153\n    /* \"#utility.yul\":5444:5451   */\n  dup13\n    /* \"#utility.yul\":5435:5441   */\n  dup3\n    /* \"#utility.yul\":5424:5433   */\n  dup14\n    /* \"#utility.yul\":5420:5442   */\n  add\n    /* \"#utility.yul\":5388:5452   */\n  tag_63\n  jump\t// in\ntag_153:\n    /* \"#utility.yul\":5378:5452   */\n  swap4\n  pop\n    /* \"#utility.yul\":5332:5462   */\n  pop\n    /* \"#utility.yul\":5501:5504   */\n  0xe0\n    /* \"#utility.yul\":5528:5592   */\n  tag_154\n    /* \"#utility.yul\":5584:5591   */\n  dup13\n    /* \"#utility.yul\":5575:5581   */\n  dup3\n    /* \"#utility.yul\":5564:5573   */\n  dup14\n    /* \"#utility.yul\":5560:5582   */\n  add\n    /* \"#utility.yul\":5528:5592   */\n  tag_59\n  jump\t// in\ntag_154:\n    /* \"#utility.yul\":5518:5592   */\n  swap3\n  pop\n    /* \"#utility.yul\":5472:5602   */\n  pop\n    /* \"#utility.yul\":5641:5644   */\n  0x0100\n    /* \"#utility.yul\":5668:5732   */\n  tag_155\n    /* \"#utility.yul\":5724:5731   */\n  dup13\n    /* \"#utility.yul\":5715:5721   */\n  dup3\n    /* \"#utility.yul\":5704:5713   */\n  dup14\n    /* \"#utility.yul\":5700:5722   */\n  add\n    /* \"#utility.yul\":5668:5732   */\n  tag_63\n  jump\t// in\ntag_155:\n    /* \"#utility.yul\":5658:5732   */\n  swap2\n  pop\n    /* \"#utility.yul\":5612:5742   */\n  pop\n    /* \"#utility.yul\":3802:5749   */\n  swap3\n  swap6\n  swap9\n  pop\n  swap3\n  swap6\n  swap9\n  pop\n  swap3\n  swap6\n  swap9\n  jump\t// out\n    /* \"#utility.yul\":5755:5854   */\ntag_64:\n    /* \"#utility.yul\":5807:5813   */\n  0x00\n    /* \"#utility.yul\":5841:5846   */\n  dup2\n    /* \"#utility.yul\":5835:5847   */\n  mload\n    /* \"#utility.yul\":5825:5847   */\n  swap1\n  pop\n    /* \"#utility.yul\":5755:5854   */\n  swap2\n  swap1\n  pop\n  jump\t// out\n    /* \"#utility.yul\":5860:6040   */\ntag_65:\n    /* \"#utility.yul\":5908:5985   */\n  0x4e487b7100000000000000000000000000000000000000000000000000000000\n    /* \"#utility.yul\":5905:5906   */\n  0x00\n    /* \"#utility.yul\":5898:5986   */\n  mstore\n    /* \"#utility.yul\":6005:6009   */\n  0x22\n    /* \"#utility.yul\":6002:6003   */\n  0x04\n    /* \"#utility.yul\":5995:6010   */\n  mstore\n    /* \"#utility.yul\":6029:6033   */\n  0x24\n    /* \"#utility.yul\":6026:6027   */\n  0x00\n    /* \"#utility.yul\":6019:6034   */\n  revert\n    /* \"#utility.yul\":6046:6366   */\ntag_66:\n    /* \"#utility.yul\":6090:6096   */\n  0x00\n    /* \"#utility.yul\":6127:6128   */\n  0x02\n    /* \"#utility.yul\":6121:6125   */\n  dup3\n    /* \"#utility.yul\":6117:6129   */\n  div\n    /* \"#utility.yul\":6107:6129   */\n  swap1\n  pop\n    /* \"#utility.yul\":6174:6175   */\n  0x01\n    /* \"#utility.yul\":6168:6172   */\n  dup3\n    /* \"#utility.yul\":6164:6176   */\n  and\n    /* \"#utility.yul\":6195:6213   */\n  dup1\n    /* \"#utility.yul\":6185:6266   */\n  tag_159\n  jumpi\n    /* \"#utility.yul\":6251:6255   */\n  0x7f\n    /* \"#utility.yul\":6243:6249   */\n  dup3\n    /* \"#utility.yul\":6239:6256   */\n  and\n    /* \"#utility.yul\":6229:6256   */\n  swap2\n  pop\n    /* \"#utility.yul\":6185:6266   */\ntag_159:\n    /* \"#utility.yul\":6313:6315   */\n  0x20\n    /* \"#utility.yul\":6305:6311   */\n  dup3\n    /* \"#utility.yul\":6302:6316   */\n  lt\n    /* \"#utility.yul\":6282:6300   */\n  dup2\n    /* \"#utility.yul\":6279:6317   */\n  sub\n    /* \"#utility.yul\":6276:6360   */\n  tag_160\n  jumpi\n    /* \"#utility.yul\":6332:6350   */\n  tag_161\n  tag_65\n  jump\t// in\ntag_161:\n    /* \"#utility.yul\":6276:6360   */\ntag_160:\n    /* \"#utility.yul\":6097:6366   */\n  pop\n    /* \"#utility.yul\":6046:6366   */\n  swap2\n  swap1\n  pop\n  jump\t// out\n    /* \"#utility.yul\":6372:6513   */\ntag_67:\n    /* \"#utility.yul\":6421:6425   */\n  0x00\n    /* \"#utility.yul\":6444:6447   */\n  dup2\n    /* \"#utility.yul\":6436:6447   */\n  swap1\n  pop\n    /* \"#utility.yul\":6467:6470   */\n  dup2\n    /* \"#utility.yul\":6464:6465   */\n  0x00\n    /* \"#utility.yul\":6457:6471   */\n  mstore\n    /* \"#utility.yul\":6501:6505   */\n  0x20\n    /* \"#utility.yul\":6498:6499   */\n  0x00\n    /* \"#utility.yul\":6488:6506   */\n  keccak256\n    /* \"#utility.yul\":6480:6506   */\n  swap1\n  pop\n    /* \"#utility.yul\":6372:6513   */\n  swap2\n  swap1\n  pop\n  jump\t// out\n    /* \"#utility.yul\":6519:6612   */\ntag_68:\n    /* \"#utility.yul\":6556:6562   */\n  0x00\n    /* \"#utility.yul\":6603:6605   */\n  0x20\n    /* \"#utility.yul\":6598:6600   */\n  0x1f\n    /* \"#utility.yul\":6591:6596   */\n  dup4\n    /* \"#utility.yul\":6587:6601   */\n  add\n    /* \"#utility.yul\":6583:6606   */\n  div\n    /* \"#utility.yul\":6573:6606   */\n  swap1\n  pop\n    /* \"#utility.yul\":6519:6612   */\n  swap2\n  swap1\n  pop\n  jump\t// out\n    /* \"#utility.yul\":6618:6725   */\ntag_69:\n    /* \"#utility.yul\":6662:6670   */\n  0x00\n    /* \"#utility.yul\":6712:6717   */\n  dup3\n    /* \"#utility.yul\":6706:6710   */\n  dup3\n    /* \"#utility.yul\":6702:6718   */\n  shl\n    /* \"#utility.yul\":6681:6718   */\n  swap1\n  pop\n    /* \"#utility.yul\":6618:6725   */\n  swap3\n  swap2\n  pop\n  pop\n  jump\t// out\n    /* \"#utility.yul\":6731:7124   */\ntag_70:\n    /* \"#utility.yul\":6800:6806   */\n  0x00\n    /* \"#utility.yul\":6850:6851   */\n  0x08\n    /* \"#utility.yul\":6838:6848   */\n  dup4\n    /* \"#utility.yul\":6834:6852   */\n  mul\n    /* \"#utility.yul\":6873:6970   */\n  tag_166\n    /* \"#utility.yul\":6903:6969   */\n  0xffffffffffffffffffffffffffffffffffffffffffffffffffffffffffffffff\n    /* \"#utility.yul\":6892:6901   */\n  dup3\n    /* \"#utility.yul\":6873:6970   */\n  tag_69\n  jump\t// in\ntag_166:\n    /* \"#utility.yul\":6991:7030   */\n  tag_167\n    /* \"#utility.yul\":7021:7029   */\n  dup7\n    /* \"#utility.yul\":7010:7019   */\n  dup4\n    /* \"#utility.yul\":6991:7030   */\n  tag_69\n  jump\t// in\ntag_167:\n    /* \"#utility.yul\":6979:7030   */\n  swap6\n  pop\n    /* \"#utility.yul\":7063:7067   */\n  dup1\n    /* \"#utility.yul\":7059:7068   */\n  not\n    /* \"#utility.yul\":7052:7057   */\n  dup5\n    /* \"#utility.yul\":7048:7069   */\n  and\n    /* \"#utility.yul\":7039:7069   */\n  swap4\n  pop\n    /* \"#utility.yul\":7112:7116   */\n  dup1\n    /* \"#utility.yul\":7102:7110   */\n  dup7\n    /* \"#utility.yul\":7098:7117   */\n  and\n    /* \"#utility.yul\":7091:7096   */\n  dup5\n    /* \"#utility.yul\":7088:7118   */\n  or\n    /* \"#utility.yul\":7078:7118   */\n  swap3\n  pop\n    /* \"#utility.yul\":6807:7124   */\n  pop\n  pop\n    /* \"#utility.yul\":6731:7124   */\n  swap4\n  swap3\n  pop\n  pop\n  pop\n  jump\t// out\n    /* \"#utility.yul\":7130:7190   */\ntag_71:\n    /* \"#utility.yul\":7158:7161   */\n  0x00\n    /* \"#utility.yul\":7179:7184   */\n  dup2\n    /* \"#utility.yul\":7172:7184   */\n  swap1\n  pop\n    /* \"#utility.yul\":7130:7190   */\n  swap2\n  swap1\n  pop\n  jump\t// out\n    /* \"#utility.yul\":7196:7338   */\ntag_72:\n    /* \"#utility.yul\":7246:7255   */\n  0x00\n    /* \"#utility.yul\":7279:7332   */\n  tag_170\n    /* \"#utility.yul\":7297:7331   */\n  tag_171\n    /* \"#utility.yul\":7306:7330   */\n  tag_172\n    /* \"#utility.yul\":7324:7329   */\n  dup5\n    /* \"#utility.yul\":7306:7330   */\n  tag_57\n  jump\t// in\ntag_172:\n    /* \"#utility.yul\":7297:7331   */\n  tag_71\n  jump\t// in\ntag_171:\n    /* \"#utility.yul\":7279:7332   */\n  tag_57\n  jump\t// in\ntag_170:\n    /* \"#utility.yul\":7266:7332   */\n  swap1\n  pop\n    /* \"#utility.yul\":7196:7338   */\n  swap2\n  swap1\n  pop\n  jump\t// out\n    /* \"#utility.yul\":7344:7419   */\ntag_73:\n    /* \"#utility.yul\":7387:7390   */\n  0x00\n    /* \"#utility.yul\":7408:7413   */\n  dup2\n    /* \"#utility.yul\":7401:7413   */\n  swap1\n  pop\n    /* \"#utility.yul\":7344:7419   */\n  swap2\n  swap1\n  pop\n  jump\t// out\n    /* \"#utility.yul\":7425:7694   */\ntag_74:\n    /* \"#utility.yul\":7535:7574   */\n  tag_175\n    /* \"#utility.yul\":7566:7573   */\n  dup4\n    /* \"#utility.yul\":7535:7574   */\n  tag_72\n  jump\t// in\ntag_175:\n    /* \"#utility.yul\":7596:7687   */\n  tag_176\n    /* \"#utility.yul\":7645:7686   */\n  tag_177\n    /* \"#utility.yul\":7669:7685   */\n  dup3\n    /* \"#utility.yul\":7645:7686   */\n  tag_73\n  jump\t// in\ntag_177:\n    /* \"#utility.yul\":7637:7643   */\n  dup5\n    /* \"#utility.yul\":7630:7634   */\n  dup5\n    /* \"#utility.yul\":7624:7635   */\n  sload\n    /* \"#utility.yul\":7596:7687   */\n  tag_70\n  jump\t// in\ntag_176:\n    /* \"#utility.yul\":7590:7594   */\n  dup3\n    /* \"#utility.yul\":7583:7688   */\n  sstore\n    /* \"#utility.yul\":7501:7694   */\n  pop\n    /* \"#utility.yul\":7425:7694   */\n  pop\n  pop\n  pop\n  jump\t// out\n    /* \"#utility.yul\":7700:7773   */\ntag_75:\n    /* \"#utility.yul\":7745:7748   */\n  0x00\n    /* \"#utility.yul\":7700:7773   */\n  swap1\n  jump\t// out\n    /* \"#utility.yul\":7779:7968   */\ntag_76:\n    /* \"#utility.yul\":7856:7888   */\n  tag_180\n  tag_75\n  jump\t// in\ntag_180:\n    /* \"#utility.yul\":7897:7962   */\n  tag_181\n    /* \"#utility.yul\":7955:7961   */\n  dup2\n    /* \"#utility.yul\":7947:7953   */\n  dup5\n    /* \"#utility.yul\":7941:7945   */\n  dup5\n    /* \"#utility.yul\":7897:7962   */\n  tag_74\n  jump\t// in\ntag_181:\n    /* \"#utility.yul\":7832:7968   */\n  pop\n    /* \"#utility.yul\":7779:7968   */\n  pop\n  pop\n  jump\t// out\n    /* \"#utility.yul\":7974:8160   */\ntag_77:\n    /* \"#utility.yul\":8034:8154   */\ntag_183:\n    /* \"#utility.yul\":8051:8054   */\n  dup2\n    /* \"#utility.yul\":8044:8049   */\n  dup2\n    /* \"#utility.yul\":8041:8055   */\n  lt\n    /* \"#utility.yul\":8034:8154   */\n  iszero\n  tag_185\n  jumpi\n    /* \"#utility.yul\":8105:8144   */\n  tag_186\n    /* \"#utility.yul\":8142:8143   */\n  0x00\n    /* \"#utility.yul\":8135:8140   */\n  dup3\n    /* \"#utility.yul\":8105:8144   */\n  tag_76\n  jump\t// in\ntag_186:\n    /* \"#utility.yul\":8078:8079   */\n  0x01\n    /* \"#utility.yul\":8071:8076   */\n  dup2\n    /* \"#utility.yul\":8067:8080   */\n  add\n    /* \"#utility.yul\":8058:8080   */\n  swap1\n  pop\n    /* \"#utility.yul\":8034:8154   */\n  jump(tag_183)\ntag_185:\n    /* \"#utility.yul\":7974:8160   */\n  pop\n  pop\n  jump\t// out\n    /* \"#utility.yul\":8166:8709   */\ntag_78:\n    /* \"#utility.yul\":8267:8269   */\n  0x1f\n    /* \"#utility.yul\":8262:8265   */\n  dup3\n    /* \"#utility.yul\":8259:8270   */\n  gt\n    /* \"#utility.yul\":8256:8702   */\n  iszero\n  tag_188\n  jumpi\n    /* \"#utility.yul\":8301:8339   */\n  tag_189\n    /* \"#utility.yul\":8333:8338   */\n  dup2\n    /* \"#utility.yul\":8301:8339   */\n  tag_67\n  jump\t// in\ntag_189:\n    /* \"#utility.yul\":8385:8414   */\n  tag_190\n    /* \"#utility.yul\":8403:8413   */\n  dup5\n    /* \"#utility.yul\":8385:8414   */\n  tag_68\n  jump\t// in\ntag_190:\n    /* \"#utility.yul\":8375:8383   */\n  dup2\n    /* \"#utility.yul\":8371:8415   */\n  add\n    /* \"#utility.yul\":8568:8570   */\n  0x20\n    /* \"#utility.yul\":8556:8566   */\n  dup6\n    /* \"#utility.yul\":8553:8571   */\n  lt\n    /* \"#utility.yul\":8550:8599   */\n  iszero\n  tag_191\n  jumpi\n    /* \"#utility.yul\":8589:8597   */\n  dup2\n    /* \"#utility.yul\":8574:8597   */\n  swap1\n  pop\n    /* \"#utility.yul\":8550:8599   */\ntag_191:\n    /* \"#utility.yul\":8612:8692   */\n  tag_192\n    /* \"#utility.yul\":8668:8690   */\n  tag_193\n    /* \"#utility.yul\":8686:8689   */\n  dup6\n    /* \"#utility.yul\":8668:8690   */\n  tag_68\n  jump\t// in\ntag_193:\n    /* \"#utility.yul\":8658:8666   */\n  dup4\n    /* \"#utility.yul\":8654:8691   */\n  add\n    /* \"#utility.yul\":8641:8652   */\n  dup3\n    /* \"#utility.yul\":8612:8692   */\n  tag_77\n  jump\t// in\ntag_192:\n    /* \"#utility.yul\":8271:8702   */\n  pop\n  pop\n    /* \"#utility.yul\":8256:8702   */\ntag_188:\n    /* \"#utility.yul\":8166:8709   */\n  pop\n  pop\n  pop\n  jump\t// out\n    /* \"#utility.yul\":8715:8832   */\ntag_79:\n    /* \"#utility.yul\":8769:8777   */\n  0x00\n    /* \"#utility.yul\":8819:8824   */\n  dup3\n    /* \"#utility.yul\":8813:8817   */\n  dup3\n    /* \"#utility.yul\":8809:8825   */\n  shr\n    /* \"#utility.yul\":8788:8825   */\n  swap1\n  pop\n    /* \"#utility.yul\":8715:8832   */\n  swap3\n  swap2\n  pop\n  pop\n  jump\t// out\n    /* \"#utility.yul\":8838:9007   */\ntag_80:\n    /* \"#utility.yul\":8882:8888   */\n  0x00\n    /* \"#utility.yul\":8915:8966   */\n  tag_196\n    /* \"#utility.yul\":8963:8964   */\n  0x00\n    /* \"#utility.yul\":8959:8965   */\n  not\n    /* \"#utility.yul\":8951:8956   */\n  dup5\n    /* \"#utility.yul\":8948:8949   */\n  0x08\n    /* \"#utility.yul\":8944:8957   */\n  mul\n    /* \"#utility.yul\":8915:8966   */\n  tag_79\n  jump\t// in\ntag_196:\n    /* \"#utility.yul\":8911:8967   */\n  not\n    /* \"#utility.yul\":8996:9000   */\n  dup1\n    /* \"#utility.yul\":8990:8994   */\n  dup4\n    /* \"#utility.yul\":8986:9001   */\n  and\n    /* \"#utility.yul\":8976:9001   */\n  swap2\n  pop\n    /* \"#utility.yul\":8889:9007   */\n  pop\n    /* \"#utility.yul\":8838:9007   */\n  swap3\n  swap2\n  pop\n  pop\n  jump\t// out\n    /* \"#utility.yul\":9012:9307   */\ntag_81:\n    /* \"#utility.yul\":9088:9092   */\n  0x00\n    /* \"#utility.yul\":9234:9263   */\n  tag_198\n    /* \"#utility.yul\":9259:9262   */\n  dup4\n    /* \"#utility.yul\":9253:9257   */\n  dup4\n    /* \"#utility.yul\":9234:9263   */\n  tag_80\n  jump\t// in\ntag_198:\n    /* \"#utility.yul\":9226:9263   */\n  swap2\n  pop\n    /* \"#utility.yul\":9296:9299   */\n  dup3\n    /* \"#utility.yul\":9293:9294   */\n  0x02\n    /* \"#utility.yul\":9289:9300   */\n  mul\n    /* \"#utility.yul\":9283:9287   */\n  dup3\n    /* \"#utility.yul\":9280:9301   */\n  or\n    /* \"#utility.yul\":9272:9301   */\n  swap1\n  pop\n    /* \"#utility.yul\":9012:9307   */\n  swap3\n  swap2\n  pop\n  pop\n  jump\t// out\n    /* \"#utility.yul\":9312:10707   */\ntag_8:\n    /* \"#utility.yul\":9429:9466   */\n  tag_200\n    /* \"#utility.yul\":9462:9465   */\n  dup3\n    /* \"#utility.yul\":9429:9466   */\n  tag_64\n  jump\t// in\ntag_200:\n    /* \"#utility.yul\":9531:9549   */\n  0xffffffffffffffff\n    /* \"#utility.yul\":9523:9529   */\n  dup2\n    /* \"#utility.yul\":9520:9550   */\n  gt\n    /* \"#utility.yul\":9517:9573   */\n  iszero\n  tag_201\n  jumpi\n    /* \"#utility.yul\":9553:9571   */\n  tag_202\n  tag_47\n  jump\t// in\ntag_202:\n    /* \"#utility.yul\":9517:9573   */\ntag_201:\n    /* \"#utility.yul\":9597:9635   */\n  tag_203\n    /* \"#utility.yul\":9629:9633   */\n  dup3\n    /* \"#utility.yul\":9623:9634   */\n  sload\n    /* \"#utility.yul\":9597:9635   */\n  tag_66\n  jump\t// in\ntag_203:\n    /* \"#utility.yul\":9682:9749   */\n  tag_204\n    /* \"#utility.yul\":9742:9748   */\n  dup3\n    /* \"#utility.yul\":9734:9740   */\n  dup3\n    /* \"#utility.yul\":9728:9732   */\n  dup6\n    /* \"#utility.yul\":9682:9749   */\n  tag_78\n  jump\t// in\ntag_204:\n    /* \"#utility.yul\":9776:9777   */\n  0x00\n    /* \"#utility.yul\":9800:9804   */\n  0x20\n    /* \"#utility.yul\":9787:9804   */\n  swap1\n  pop\n    /* \"#utility.yul\":9832:9834   */\n  0x1f\n    /* \"#utility.yul\":9824:9830   */\n  dup4\n    /* \"#utility.yul\":9821:9835   */\n  gt\n    /* \"#utility.yul\":9849:9850   */\n  0x01\n    /* \"#utility.yul\":9844:10462   */\n  dup2\n  eq\n  tag_206\n  jumpi\n    /* \"#utility.yul\":10506:10507   */\n  0x00\n    /* \"#utility.yul\":10523:10529   */\n  dup5\n    /* \"#utility.yul\":10520:10597   */\n  iszero\n  tag_207\n  jumpi\n    /* \"#utility.yul\":10572:10581   */\n  dup3\n    /* \"#utility.yul\":10567:10570   */\n  dup8\n    /* \"#utility.yul\":10563:10582   */\n  add\n    /* \"#utility.yul\":10557:10583   */\n  mload\n    /* \"#utility.yul\":10548:10583   */\n  swap1\n  pop\n    /* \"#utility.yul\":10520:10597   */\ntag_207:\n    /* \"#utility.yul\":10623:10690   */\n  tag_208\n    /* \"#utility.yul\":10683:10689   */\n  dup6\n    /* \"#utility.yul\":10676:10681   */\n  dup3\n    /* \"#utility.yul\":10623:10690   */\n  tag_81\n  jump\t// in\ntag_208:\n    /* \"#utility.yul\":10617:10621   */\n  dup7\n    /* \"#utility.yul\":10610:10691   */\n  sstore\n    /* \"#utility.yul\":10479:10701   */\n  pop\n    /* \"#utility.yul\":9814:10701   */\n  jump(tag_205)\n    /* \"#utility.yul\":9844:10462   */\ntag_206:\n    /* \"#utility.yul\":9896:9900   */\n  0x1f\n    /* \"#utility.yul\":9892:9901   */\n  not\n    /* \"#utility.yul\":9884:9890   */\n  dup5\n    /* \"#utility.yul\":9880:9902   */\n  and\n    /* \"#utility.yul\":9930:9967   */\n  tag_209\n    /* \"#utility.yul\":9962:9966   */\n  dup7\n    /* \"#utility.yul\":9930:9967   */\n  tag_67\n  jump\t// in\ntag_209:\n    /* \"#utility.yul\":9989:9990   */\n  0x00\n    /* \"#utility.yul\":10003:10211   */\ntag_210:\n    /* \"#utility.yul\":10017:10024   */\n  dup3\n    /* \"#utility.yul\":10014:10015   */\n  dup2\n    /* \"#utility.yul\":10011:10025   */\n  lt\n    /* \"#utility.yul\":10003:10211   */\n  iszero\n  tag_212\n  jumpi\n    /* \"#utility.yul\":10096:10105   */\n  dup5\n    /* \"#utility.yul\":10091:10094   */\n  dup10\n    /* \"#utility.yul\":10087:10106   */\n  add\n    /* \"#utility.yul\":10081:10107   */\n  mload\n    /* \"#utility.yul\":10073:10079   */\n  dup3\n    /* \"#utility.yul\":10066:10108   */\n  sstore\n    /* \"#utility.yul\":10147:10148   */\n  0x01\n    /* \"#utility.yul\":10139:10145   */\n  dup3\n    /* \"#utility.yul\":10135:10149   */\n  add\n    /* \"#utility.yul\":10125:10149   */\n  swap2\n  pop\n    /* \"#utility.yul\":10194:10196   */\n  0x20\n    /* \"#utility.yul\":10183:10192   */\n  dup6\n    /* \"#utility.yul\":10179:10197   */\n  add\n    /* \"#utility.yul\":10166:10197   */\n  swap5\n  pop\n    /* \"#utility.yul\":10040:10044   */\n  0x20\n    /* \"#utility.yul\":10037:10038   */\n  dup2\n    /* \"#utility.yul\":10033:10045   */\n  add\n    /* \"#utility.yul\":10028:10045   */\n  swap1\n  pop\n    /* \"#utility.yul\":10003:10211   */\n  jump(tag_210)\ntag_212:\n    /* \"#utility.yul\":10239:10245   */\n  dup7\n    /* \"#utility.yul\":10230:10237   */\n  dup4\n    /* \"#utility.yul\":10227:10246   */\n  lt\n    /* \"#utility.yul\":10224:10403   */\n  iszero\n  tag_213\n  jumpi\n    /* \"#utility.yul\":10297:10306   */\n  dup5\n    /* \"#utility.yul\":10292:10295   */\n  dup10\n    /* \"#utility.yul\":10288:10307   */\n  add\n    /* \"#utility.yul\":10282:10308   */\n  mload\n    /* \"#utility.yul\":10340:10388   */\n  tag_214\n    /* \"#utility.yul\":10382:10386   */\n  0x1f\n    /* \"#utility.yul\":10374:10380   */\n  dup10\n    /* \"#utility.yul\":10370:10387   */\n  and\n    /* \"#utility.yul\":10359:10368   */\n  dup3\n    /* \"#utility.yul\":10340:10388   */\n  tag_80\n  jump\t// in\ntag_214:\n    /* \"#utility.yul\":10332:10338   */\n  dup4\n    /* \"#utility.yul\":10325:10389   */\n  sstore\n    /* \"#utility.yul\":10247:10403   */\n  pop\n    /* \"#utility.yul\":10224:10403   */\ntag_213:\n    /* \"#utility.yul\":10449:10450   */\n  0x01\n    /* \"#utility.yul\":10445:10446   */\n  0x02\n    /* \"#utility.yul\":10437:10443   */\n  dup9\n    /* \"#utility.yul\":10433:10447   */\n  mul\n    /* \"#utility.yul\":10429:10451   */\n  add\n    /* \"#utility.yul\":10423:10427   */\n  dup9\n    /* \"#utility.yul\":10416:10452   */\n  sstore\n    /* \"#utility.yul\":9851:10462   */\n  pop\n  pop\n  pop\n    /* \"#utility.yul\":9814:10701   */\ntag_205:\n  pop\n    /* \"#utility.yul\":9404:10707   */\n  pop\n  pop\n  pop\n    /* \"#utility.yul\":9312:10707   */\n  pop\n  pop\n  jump\t// out\n    /* \"#utility.yul\":10713:10882   */\ntag_82:\n    /* \"#utility.yul\":10797:10808   */\n  0x00\n    /* \"#utility.yul\":10831:10837   */\n  dup3\n    /* \"#utility.yul\":10826:10829   */\n  dup3\n    /* \"#utility.yul\":10819:10838   */\n  mstore\n    /* \"#utility.yul\":10871:10875   */\n  0x20\n    /* \"#utility.yul\":10866:10869   */\n  dup3\n    /* \"#utility.yul\":10862:10876   */\n  add\n    /* \"#utility.yul\":10847:10876   */\n  swap1\n  pop\n    /* \"#utility.yul\":10713:10882   */\n  swap3\n  swap2\n  pop\n  pop\n  jump\t// out\n    /* \"#utility.yul\":10888:11057   */\ntag_83:\n    /* \"#utility.yul\":11028:11049   */\n  0x6d6178537570706c7920746f6f206c6172676500000000000000000000000000\n    /* \"#utility.yul\":11024:11025   */\n  0x00\n    /* \"#utility.yul\":11016:11022   */\n  dup3\n    /* \"#utility.yul\":11012:11026   */\n  add\n    /* \"#utility.yul\":11005:11050   */\n  mstore\n    /* \"#utility.yul\":10888:11057   */\n  pop\n  jump\t// out\n    /* \"#utility.yul\":11063:11429   */\ntag_84:\n    /* \"#utility.yul\":11205:11208   */\n  0x00\n    /* \"#utility.yul\":11226:11293   */\n  tag_218\n    /* \"#utility.yul\":11290:11292   */\n  0x13\n    /* \"#utility.yul\":11285:11288   */\n  dup4\n    /* \"#utility.yul\":11226:11293   */\n  tag_82\n  jump\t// in\ntag_218:\n    /* \"#utility.yul\":11219:11293   */\n  swap2\n  pop\n    /* \"#utility.yul\":11302:11395   */\n  tag_219\n    /* \"#utility.yul\":11391:11394   */\n  dup3\n    /* \"#utility.yul\":11302:11395   */\n  tag_83\n  jump\t// in\ntag_219:\n    /* \"#utility.yul\":11420:11422   */\n  0x20\n    /* \"#utility.yul\":11415:11418   */\n  dup3\n    /* \"#utility.yul\":11411:11423   */\n  add\n    /* \"#utility.yul\":11404:11423   */\n  swap1\n  pop\n    /* \"#utility.yul\":11063:11429   */\n  swap2\n  swap1\n  pop\n  jump\t// out\n    /* \"#utility.yul\":11435:11854   */\ntag_13:\n    /* \"#utility.yul\":11601:11605   */\n  0x00\n    /* \"#utility.yul\":11639:11641   */\n  0x20\n    /* \"#utility.yul\":11628:11637   */\n  dup3\n    /* \"#utility.yul\":11624:11642   */\n  add\n    /* \"#utility.yul\":11616:11642   */\n  swap1\n  pop\n    /* \"#utility.yul\":11688:11697   */\n  dup2\n    /* \"#utility.yul\":11682:11686   */\n  dup2\n    /* \"#utility.yul\":11678:11698   */\n  sub\n    /* \"#utility.yul\":11674:11675   */\n  0x00\n    /* \"#utility.yul\":11663:11672   */\n  dup4\n    /* \"#utility.yul\":11659:11676   */\n  add\n    /* \"#utility.yul\":11652:11699   */\n  mstore\n    /* \"#utility.yul\":11716:11847   */\n  tag_221\n    /* \"#utility.yul\":11842:11846   */\n  dup2\n    /* \"#utility.yul\":11716:11847   */\n  tag_84\n  jump\t// in\ntag_221:\n    /* \"#utility.yul\":11708:11847   */\n  swap1\n  pop\n    /* \"#utility.yul\":11435:11854   */\n  swap2\n  swap1\n  pop\n  jump\t// out\n    /* \"#utility.yul\":11860:12094   */\ntag_85:\n    /* \"#utility.yul\":12000:12034   */\n  0x696e697469616c20737570706c792073686f756c64206e6f7420657863656564\n    /* \"#utility.yul\":11996:11997   */\n  0x00\n    /* \"#utility.yul\":11988:11994   */\n  dup3\n    /* \"#utility.yul\":11984:11998   */\n  add\n    /* \"#utility.yul\":11977:12035   */\n  mstore\n    /* \"#utility.yul\":12069:12086   */\n  0x20746865206d617820737570706c790000000000000000000000000000000000\n    /* \"#utility.yul\":12064:12066   */\n  0x20\n    /* \"#utility.yul\":12056:12062   */\n  dup3\n    /* \"#utility.yul\":12052:12067   */\n  add\n    /* \"#utility.yul\":12045:12087   */\n  mstore\n    /* \"#utility.yul\":11860:12094   */\n  pop\n  jump\t// out\n    /* \"#utility.yul\":12100:12466   */\ntag_86:\n    /* \"#utility.yul\":12242:12245   */\n  0x00\n    /* \"#utility.yul\":12263:12330   */\n  tag_224\n    /* \"#utility.yul\":12327:12329   */\n  0x2f\n    /* \"#utility.yul\":12322:12325   */\n  dup4\n    /* \"#utility.yul\":12263:12330   */\n  tag_82\n  jump\t// in\ntag_224:\n    /* \"#utility.yul\":12256:12330   */\n  swap2\n  pop\n    /* \"#utility.yul\":12339:12432   */\n  tag_225\n    /* \"#utility.yul\":12428:12431   */\n  dup3\n    /* \"#utility.yul\":12339:12432   */\n  tag_85\n  jump\t// in\ntag_225:\n    /* \"#utility.yul\":12457:12459   */\n  0x40\n    /* \"#utility.yul\":12452:12455   */\n  dup3\n    /* \"#utility.yul\":12448:12460   */\n  add\n    /* \"#utility.yul\":12441:12460   */\n  swap1\n  pop\n    /* \"#utility.yul\":12100:12466   */\n  swap2\n  swap1\n  pop\n  jump\t// out\n    /* \"#utility.yul\":12472:12891   */\ntag_16:\n    /* \"#utility.yul\":12638:12642   */\n  0x00\n    /* \"#utility.yul\":12676:12678   */\n  0x20\n    /* \"#utility.yul\":12665:12674   */\n  dup3\n    /* \"#utility.yul\":12661:12679   */\n  add\n    /* \"#utility.yul\":12653:12679   */\n  swap1\n  pop\n    /* \"#utility.yul\":12725:12734   */\n  dup2\n    /* \"#utility.yul\":12719:12723   */\n  dup2\n    /* \"#utility.yul\":12715:12735   */\n  sub\n    /* \"#utility.yul\":12711:12712   */\n  0x00\n    /* \"#utility.yul\":12700:12709   */\n  dup4\n    /* \"#utility.yul\":12696:12713   */\n  add\n    /* \"#utility.yul\":12689:12736   */\n  mstore\n    /* \"#utility.yul\":12753:12884   */\n  tag_227\n    /* \"#utility.yul\":12879:12883   */\n  dup2\n    /* \"#utility.yul\":12753:12884   */\n  tag_86\n  jump\t// in\ntag_227:\n    /* \"#utility.yul\":12745:12884   */\n  swap1\n  pop\n    /* \"#utility.yul\":12472:12891   */\n  swap2\n  swap1\n  pop\n  jump\t// out\n    /* \"#utility.yul\":12897:13015   */\ntag_87:\n    /* \"#utility.yul\":12984:13008   */\n  tag_229\n    /* \"#utility.yul\":13002:13007   */\n  dup2\n    /* \"#utility.yul\":12984:13008   */\n  tag_61\n  jump\t// in\ntag_229:\n    /* \"#utility.yul\":12979:12982   */\n  dup3\n    /* \"#utility.yul\":12972:13009   */\n  mstore\n    /* \"#utility.yul\":12897:13015   */\n  pop\n  pop\n  jump\t// out\n    /* \"#utility.yul\":13021:13243   */\ntag_20:\n    /* \"#utility.yul\":13114:13118   */\n  0x00\n    /* \"#utility.yul\":13152:13154   */\n  0x20\n    /* \"#utility.yul\":13141:13150   */\n  dup3\n    /* \"#utility.yul\":13137:13155   */\n  add\n    /* \"#utility.yul\":13129:13155   */\n  swap1\n  pop\n    /* \"#utility.yul\":13165:13236   */\n  tag_231\n    /* \"#utility.yul\":13233:13234   */\n  0x00\n    /* \"#utility.yul\":13222:13231   */\n  dup4\n    /* \"#utility.yul\":13218:13235   */\n  add\n    /* \"#utility.yul\":13209:13215   */\n  dup5\n    /* \"#utility.yul\":13165:13236   */\n  tag_87\n  jump\t// in\ntag_231:\n    /* \"#utility.yul\":13021:13243   */\n  swap3\n  swap2\n  pop\n  pop\n  jump\t// out\n    /* \"#utility.yul\":13249:13367   */\ntag_88:\n    /* \"#utility.yul\":13336:13360   */\n  tag_233\n    /* \"#utility.yul\":13354:13359   */\n  dup2\n    /* \"#utility.yul\":13336:13360   */\n  tag_57\n  jump\t// in\ntag_233:\n    /* \"#utility.yul\":13331:13334   */\n  dup3\n    /* \"#utility.yul\":13324:13361   */\n  mstore\n    /* \"#utility.yul\":13249:13367   */\n  pop\n  pop\n  jump\t// out\n    /* \"#utility.yul\":13373:13595   */\ntag_23:\n    /* \"#utility.yul\":13466:13470   */\n  0x00\n    /* \"#utility.yul\":13504:13506   */\n  0x20\n    /* \"#utility.yul\":13493:13502   */\n  dup3\n    /* \"#utility.yul\":13489:13507   */\n  add\n    /* \"#utility.yul\":13481:13507   */\n  swap1\n  pop\n    /* \"#utility.yul\":13517:13588   */\n  tag_235\n    /* \"#utility.yul\":13585:13586   */\n  0x00\n    /* \"#utility.yul\":13574:13583   */\n  dup4\n    /* \"#utility.yul\":13570:13587   */\n  add\n    /* \"#utility.yul\":13561:13567   */\n  dup5\n    /* \"#utility.yul\":13517:13588   */\n  tag_88\n  jump\t// in\ntag_235:\n    /* \"#utility.yul\":13373:13595   */\n  swap3\n  swap2\n  pop\n  pop\n  jump\t// out\n    /* \"#utility.yul\":13601:13781   */\ntag_89:\n    /* \"#utility.yul\":13649:13726   */\n  0x4e487b7100000000000000000000000000000000000000000000000000000000\n    /* \"#utility.yul\":13646:13647   */\n  0x00\n    /* \"#utility.yul\":13639:13727   */\n  mstore\n    /* \"#utility.yul\":13746:13750   */\n  0x11\n    /* \"#utility.yul\":13743:13744   */\n  0x04\n    /* \"#utility.yul\":13736:13751   */\n  mstore\n    /* \"#utility.yul\":13770:13774   */\n  0x24\n    /* \"#utility.yul\":13767:13768   */\n  0x00\n    /* \"#utility.yul\":13760:13775   */\n  revert\n    /* \"#utility.yul\":13787:13978   */\ntag_33:\n    /* \"#utility.yul\":13827:13830   */\n  0x00\n    /* \"#utility.yul\":13846:13866   */\n  tag_238\n    /* \"#utility.yul\":13864:13865   */\n  dup3\n    /* \"#utility.yul\":13846:13866   */\n  tag_57\n  jump\t// in\ntag_238:\n    /* \"#utility.yul\":13841:13866   */\n  swap2\n  pop\n    /* \"#utility.yul\":13880:13900   */\n  tag_239\n    /* \"#utility.yul\":13898:13899   */\n  dup4\n    /* \"#utility.yul\":13880:13900   */\n  tag_57\n  jump\t// in\ntag_239:\n    /* \"#utility.yul\":13875:13900   */\n  swap3\n  pop\n    /* \"#utility.yul\":13923:13924   */\n  dup3\n    /* \"#utility.yul\":13920:13921   */\n  dup3\n    /* \"#utility.yul\":13916:13925   */\n  add\n    /* \"#utility.yul\":13909:13925   */\n  swap1\n  pop\n    /* \"#utility.yul\":13944:13947   */\n  dup1\n    /* \"#utility.yul\":13941:13942   */\n  dup3\n    /* \"#utility.yul\":13938:13948   */\n  gt\n    /* \"#utility.yul\":13935:13971   */\n  iszero\n  tag_240\n  jumpi\n    /* \"#utility.yul\":13951:13969   */\n  tag_241\n  tag_89\n  jump\t// in\ntag_241:\n    /* \"#utility.yul\":13935:13971   */\ntag_240:\n    /* \"#utility.yul\":13787:13978   */\n  swap3\n  swap2\n  pop\n  pop\n  jump\t// out\n    /* \"#utility.yul\":13984:14426   */\ntag_37:\n    /* \"#utility.yul\":14133:14137   */\n  0x00\n    /* \"#utility.yul\":14171:14173   */\n  0x60\n    /* \"#utility.yul\":14160:14169   */\n  dup3\n    /* \"#utility.yul\":14156:14174   */\n  add\n    /* \"#utility.yul\":14148:14174   */\n  swap1\n  pop\n    /* \"#utility.yul\":14184:14255   */\n  tag_243\n    /* \"#utility.yul\":14252:14253   */\n  0x00\n    /* \"#utility.yul\":14241:14250   */\n  dup4\n    /* \"#utility.yul\":14237:14254   */\n  add\n    /* \"#utility.yul\":14228:14234   */\n  dup7\n    /* \"#utility.yul\":14184:14255   */\n  tag_87\n  jump\t// in\ntag_243:\n    /* \"#utility.yul\":14265:14337   */\n  tag_244\n    /* \"#utility.yul\":14333:14335   */\n  0x20\n    /* \"#utility.yul\":14322:14331   */\n  dup4\n    /* \"#utility.yul\":14318:14336   */\n  add\n    /* \"#utility.yul\":14309:14315   */\n  dup6\n    /* \"#utility.yul\":14265:14337   */\n  tag_88\n  jump\t// in\ntag_244:\n    /* \"#utility.yul\":14347:14419   */\n  tag_245\n    /* \"#utility.yul\":14415:14417   */\n  0x40\n    /* \"#utility.yul\":14404:14413   */\n  dup4\n    /* \"#utility.yul\":14400:14418   */\n  add\n    /* \"#utility.yul\":14391:14397   */\n  dup5\n    /* \"#utility.yul\":14347:14419   */\n  tag_88\n  jump\t// in\ntag_245:\n    /* \"#utility.yul\":13984:14426   */\n  swap5\n  swap4\n  pop\n  pop\n  pop\n  pop\n  jump\t// out\n    /* \"contracts/govarnance/SubchainGovernanceToken.sol\":721:3810  contract SubchainGovernanceToken is ERC20 {... */\ntag_24:\n  dataSize(sub_0)\n  dup1\n  dataOffset(sub_0)\n  0x00\n  codecopy\n  0x00\n  return\nstop\n\nsub_0: assembly {\n        /* \"contracts/govarnance/SubchainGovernanceToken.sol\":721:3810  contract SubchainGovernanceToken is ERC20 {... */\n      mstore(0x40, 0x80)\n      callvalue\n      dup1\n      iszero\n      tag_1\n      jumpi\n      0x00\n      dup1\n      revert\n    tag_1:\n      pop\n      jumpi(tag_2, lt(calldatasize, 0x04))\n      shr(0xe0, calldataload(0x00))\n      dup1\n      0x4eb03f6e\n      gt\n      tag_20\n      jumpi\n      dup1\n      0xab8e786f\n      gt\n      tag_21\n      jumpi\n      dup1\n      0xab8e786f\n      eq\n      tag_15\n      jumpi\n      dup1\n      0xd5abeb01\n      eq\n      tag_16\n      jumpi\n      dup1\n      0xdd62ed3e\n      eq\n      tag_17\n      jumpi\n      dup1\n      0xe2f273bd\n      eq\n      tag_18\n      jumpi\n      dup1\n      0xf851a440\n      eq\n      tag_19\n      jumpi\n      jump(tag_2)\n    tag_21:\n      dup1\n      0x4eb03f6e\n      eq\n      tag_11\n      jumpi\n      dup1\n      0x70a08231\n      eq\n      tag_12\n      jumpi\n      dup1\n      0x95d89b41\n      eq\n      tag_13\n      jumpi\n      dup1\n      0xa9059cbb\n      eq\n      tag_14\n      jumpi\n      jump(tag_2)\n    tag_20:\n      dup1\n      0x23b872dd\n      gt\n      tag_22\n      jumpi\n      dup1\n      0x23b872dd\n      eq\n      tag_7\n      jumpi\n      dup1\n      0x24e770d0\n      eq\n      tag_8\n      jumpi\n      dup1\n      0x29fb7ef6\n      eq\n      tag_9\n      jumpi\n      dup1\n      0x313ce567\n      eq\n      tag_10\n      jumpi\n      jump(tag_2)\n    tag_22:\n      dup1\n      0x06fdde03\n      eq\n      tag_3\n      jumpi\n      dup1\n      0x07546172\n      eq\n      tag_4\n      jumpi\n      dup1\n      0x095ea7b3\n      eq\n      tag_5\n      jumpi\n      dup1\n      0x18160ddd\n      eq\n      tag_6\n      jumpi\n    tag_2:\n      0x00\n      dup1\n      revert\n        /* \"@openzeppelin/contracts/token/ERC20/ERC20.sol\":2074:2163  function name() public view virtual returns (string memory) {... */\n    tag_3:\n      tag_23\n      tag_24\n      jump\t// in\n    tag_23:\n      mload(0x40)\n      tag_25\n      swap2\n      swap1\n      tag_26\n      jump\t// in\n    tag_25:\n      mload(0x40)\n      dup1\n      swap2\n      sub\n      swap1\n      return\n        /* \"contracts/govarnance/SubchainGovernanceToken.sol\":1057:1078  address public minter */\n    tag_4:\n      tag_27\n      tag_28\n      jump\t// in\n    tag_27:\n      mload(0x40)\n      tag_29\n      swap2\n      swap1\n      tag_30\n      jump\t// in\n    tag_29:\n      mload(0x40)\n      dup1\n      swap2\n      sub\n      swap1\n      return\n        /* \"@openzeppelin/contracts/token/ERC20/ERC20.sol\":4293:4479  function approve(address spender, uint256 value) public virtual returns (bool) {... */\n    tag_5:\n      tag_31\n      0x04\n      dup1\n      calldatasize\n      sub\n      dup2\n      add\n      swap1\n      tag_32\n      swap2\n      swap1\n      tag_33\n      jump\t// in\n    tag_32:\n      tag_34\n      jump\t// in\n    tag_31:\n      mload(0x40)\n      tag_35\n      swap2\n      swap1\n      tag_36\n      jump\t// in\n    tag_35:\n      mload(0x40)\n      dup1\n      swap2\n      sub\n      swap1\n      return\n        /* \"@openzeppelin/contracts/token/ERC20/ERC20.sol\":3144:3241  function totalSupply() public view virtual returns (uint256) {... */\n    tag_6:\n      tag_37\n      tag_38\n      jump\t// in\n    tag_37:\n      mload(0x40)\n      tag_39\n      swap2\n      swap1\n      tag_40\n      jump\t// in\n    tag_39:\n      mload(0x40)\n      dup1\n      swap2\n      sub\n      swap1\n      return\n        /* \"@openzeppelin/contracts/token/ERC20/ERC20.sol\":5039:5283  function transferFrom(address from, address to, uint256 value) public virtual returns (bool) {... */\n    tag_7:\n      tag_41\n      0x04\n      dup1\n      calldatasize\n      sub\n      dup2\n      add\n      swap1\n      tag_42\n      swap2\n      swap1\n      tag_43\n      jump\t// in\n    tag_42:\n      tag_44\n      jump\t// in\n    tag_41:\n      mload(0x40)\n      tag_45\n      swap2\n      swap1\n      tag_36\n      jump\t// in\n    tag_45:\n      mload(0x40)\n      dup1\n      swap2\n      sub\n      swap1\n      return\n        /* \"contracts/govarnance/SubchainGovernanceToken.sol\":2974:3083  function stakerRewardPerBlock() external view returns (uint256) {... */\n    tag_8:\n      tag_46\n      tag_47\n      jump\t// in\n    tag_46:\n      mload(0x40)\n      tag_48\n      swap2\n      swap1\n      tag_40\n      jump\t// in\n    tag_48:\n      mload(0x40)\n      dup1\n      swap2\n      sub\n      swap1\n      return\n        /* \"contracts/govarnance/SubchainGovernanceToken.sol\":3089:3315  function updateStakerRewardPerBlock(... */\n    tag_9:\n      tag_49\n      0x04\n      dup1\n      calldatasize\n      sub\n      dup2\n      add\n      swap1\n      tag_50\n      swap2\n      swap1\n      tag_51\n      jump\t// in\n    tag_50:\n      tag_52\n      jump\t// in\n    tag_49:\n      stop\n        /* \"contracts/govarnance/SubchainGovernanceToken.sol\":2061:2159  function decimals() public view virtual override returns (uint8) {... */\n    tag_10:\n      tag_53\n      tag_54\n      jump\t// in\n    tag_53:\n      mload(0x40)\n      tag_55\n      swap2\n      swap1\n      tag_56\n      jump\t// in\n    tag_55:\n      mload(0x40)\n      dup1\n      swap2\n      sub\n      swap1\n      return\n        /* \"contracts/govarnance/SubchainGovernanceToken.sol\":3321:3447  function updateMinter(address minter_) external adminOnly {... */\n    tag_11:\n      tag_57\n      0x04\n      dup1\n      calldatasize\n      sub\n      dup2\n      add\n      swap1\n      tag_58\n      swap2\n      swap1\n      tag_59\n      jump\t// in\n    tag_58:\n      tag_60\n      jump\t// in\n    tag_57:\n      stop\n        /* \"@openzeppelin/contracts/token/ERC20/ERC20.sol\":3299:3415  function balanceOf(address account) public view virtual returns (uint256) {... */\n    tag_12:\n      tag_61\n      0x04\n      dup1\n      calldatasize\n      sub\n      dup2\n      add\n      swap1\n      tag_62\n      swap2\n      swap1\n      tag_59\n      jump\t// in\n    tag_62:\n      tag_63\n      jump\t// in\n    tag_61:\n      mload(0x40)\n      tag_64\n      swap2\n      swap1\n      tag_40\n      jump\t// in\n    tag_64:\n      mload(0x40)\n      dup1\n      swap2\n      sub\n      swap1\n      return\n        /* \"@openzeppelin/contracts/token/ERC20/ERC20.sol\":2276:2369  function symbol() public view virtual returns (string memory) {... */\n    tag_13:\n      tag_65\n      tag_66\n      jump\t// in\n    tag_65:\n      mload(0x40)\n      tag_67\n      swap2\n      swap1\n      tag_26\n      jump\t// in\n    tag_67:\n      mload(0x40)\n      dup1\n      swap2\n      sub\n      swap1\n      return\n        /* \"@openzeppelin/contracts/token/ERC20/ERC20.sol\":3610:3788  function transfer(address to, uint256 value) public virtual returns (bool) {... */\n    tag_14:\n      tag_68\n      0x04\n      dup1\n      calldatasize\n      sub\n      dup2\n      add\n      swap1\n      tag_69\n      swap2\n      swap1\n      tag_33\n      jump\t// in\n    tag_69:\n      tag_70\n      jump\t// in\n    tag_68:\n      mload(0x40)\n      tag_71\n      swap2\n      swap1\n      tag_36\n      jump\t// in\n    tag_71:\n      mload(0x40)\n      dup1\n      swap2\n      sub\n      swap1\n      return\n        /* \"contracts/govarnance/SubchainGovernanceToken.sol\":2310:2796  function mintStakerReward(... */\n    tag_15:\n      tag_72\n      0x04\n      dup1\n      calldatasize\n      sub\n      dup2\n      add\n      swap1\n      tag_73\n      swap2\n      swap1\n      tag_33\n      jump\t// in\n    tag_73:\n      tag_74\n      jump\t// in\n    tag_72:\n      mload(0x40)\n      tag_75\n      swap2\n      swap1\n      tag_36\n      jump\t// in\n    tag_75:\n      mload(0x40)\n      dup1\n      swap2\n      sub\n      swap1\n      return\n        /* \"contracts/govarnance/SubchainGovernanceToken.sol\":1027:1051  uint256 public maxSupply */\n    tag_16:\n      tag_76\n      tag_77\n      jump\t// in\n    tag_76:\n      mload(0x40)\n      tag_78\n      swap2\n      swap1\n      tag_40\n      jump\t// in\n    tag_78:\n      mload(0x40)\n      dup1\n      swap2\n      sub\n      swap1\n      return\n        /* \"@openzeppelin/contracts/token/ERC20/ERC20.sol\":3846:3986  function allowance(address owner, address spender) public view virtual returns (uint256) {... */\n    tag_17:\n      tag_79\n      0x04\n      dup1\n      calldatasize\n      sub\n      dup2\n      add\n      swap1\n      tag_80\n      swap2\n      swap1\n      tag_81\n      jump\t// in\n    tag_80:\n      tag_82\n      jump\t// in\n    tag_79:\n      mload(0x40)\n      tag_83\n      swap2\n      swap1\n      tag_40\n      jump\t// in\n    tag_83:\n      mload(0x40)\n      dup1\n      swap2\n      sub\n      swap1\n      return\n        /* \"contracts/govarnance/SubchainGovernanceToken.sol\":3453:3573  function updateAdmin(address admin_) external adminOnly {... */\n    tag_18:\n      tag_84\n      0x04\n      dup1\n      calldatasize\n      sub\n      dup2\n      add\n      swap1\n      tag_85\n      swap2\n      swap1\n      tag_59\n      jump\t// in\n    tag_85:\n      tag_86\n      jump\t// in\n    tag_84:\n      stop\n        /* \"contracts/govarnance/SubchainGovernanceToken.sol\":1084:1104  address public admin */\n    tag_19:\n      tag_87\n      tag_88\n      jump\t// in\n    tag_87:\n      mload(0x40)\n      tag_89\n      swap2\n      swap1\n      tag_30\n      jump\t// in\n    tag_89:\n      mload(0x40)\n      dup1\n      swap2\n      sub\n      swap1\n      return\n        /* \"@openzeppelin/contracts/token/ERC20/ERC20.sol\":2074:2163  function name() public view virtual returns (string memory) {... */\n    tag_24:\n        /* \"@openzeppelin/contracts/token/ERC20/ERC20.sol\":2119:2132  string memory */\n      0x60\n        /* \"@openzeppelin/contracts/token/ERC20/ERC20.sol\":2151:2156  _name */\n      0x03\n        /* \"@openzeppelin/contracts/token/ERC20/ERC20.sol\":2144:2156  return _name */\n      dup1\n      sload\n      tag_91\n      swap1\n      tag_92\n      jump\t// in\n    tag_91:\n      dup1\n      0x1f\n      add\n      0x20\n      dup1\n      swap2\n      div\n      mul\n      0x20\n      add\n      mload(0x40)\n      swap1\n      dup2\n      add\n      0x40\n      mstore\n      dup1\n      swap3\n      swap2\n      swap1\n      dup2\n      dup2\n      mstore\n      0x20\n      add\n      dup3\n      dup1\n      sload\n      tag_93\n      swap1\n      tag_92\n      jump\t// in\n    tag_93:\n      dup1\n      iszero\n      tag_94\n      jumpi\n      dup1\n      0x1f\n      lt\n      tag_95\n      jumpi\n      0x0100\n      dup1\n      dup4\n      sload\n      div\n      mul\n      dup4\n      mstore\n      swap2\n      0x20\n      add\n      swap2\n      jump(tag_94)\n    tag_95:\n      dup3\n      add\n      swap2\n      swap1\n      0x00\n      mstore\n      keccak256(0x00, 0x20)\n      swap1\n    tag_96:\n      dup2\n      sload\n      dup2\n      mstore\n      swap1\n      0x01\n      add\n      swap1\n      0x20\n      add\n      dup1\n      dup4\n      gt\n      tag_96\n      jumpi\n      dup3\n      swap1\n      sub\n      0x1f\n      and\n      dup3\n      add\n      swap2\n    tag_94:\n      pop\n      pop\n      pop\n      pop\n      pop\n      swap1\n      pop\n        /* \"@openzeppelin/contracts/token/ERC20/ERC20.sol\":2074:2163  function name() public view virtual returns (string memory) {... */\n      swap1\n      jump\t// out\n        /* \"contracts/govarnance/SubchainGovernanceToken.sol\":1057:1078  address public minter */\n    tag_28:\n      0x08\n      0x00\n      swap1\n      sload\n      swap1\n      0x0100\n      exp\n      swap1\n      div\n      0xffffffffffffffffffffffffffffffffffffffff\n      and\n      dup2\n      jump\t// out\n        /* \"@openzeppelin/contracts/token/ERC20/ERC20.sol\":4293:4479  function approve(address spender, uint256 value) public virtual returns (bool) {... */\n    tag_34:\n        /* \"@openzeppelin/contracts/token/ERC20/ERC20.sol\":4366:4370  bool */\n      0x00\n        /* \"@openzeppelin/contracts/token/ERC20/ERC20.sol\":4382:4395  address owner */\n      dup1\n        /* \"@openzeppelin/contracts/token/ERC20/ERC20.sol\":4398:4410  _msgSender() */\n      tag_98\n        /* \"@openzeppelin/contracts/token/ERC20/ERC20.sol\":4398:4408  _msgSender */\n      tag_99\n        /* \"@openzeppelin/contracts/token/ERC20/ERC20.sol\":4398:4410  _msgSender() */\n      jump\t// in\n    tag_98:\n        /* \"@openzeppelin/contracts/token/ERC20/ERC20.sol\":4382:4410  address owner = _msgSender() */\n      swap1\n      pop\n        /* \"@openzeppelin/contracts/token/ERC20/ERC20.sol\":4420:4451  _approve(owner, spender, value) */\n      tag_100\n        /* \"@openzeppelin/contracts/token/ERC20/ERC20.sol\":4429:4434  owner */\n      dup2\n        /* \"@openzeppelin/contracts/token/ERC20/ERC20.sol\":4436:4443  spender */\n      dup6\n        /* \"@openzeppelin/contracts/token/ERC20/ERC20.sol\":4445:4450  value */\n      dup6\n        /* \"@openzeppelin/contracts/token/ERC20/ERC20.sol\":4420:4428  _approve */\n      tag_101\n        /* \"@openzeppelin/contracts/token/ERC20/ERC20.sol\":4420:4451  _approve(owner, spender, value) */\n      jump\t// in\n    tag_100:\n        /* \"@openzeppelin/contracts/token/ERC20/ERC20.sol\":4468:4472  true */\n      0x01\n        /* \"@openzeppelin/contracts/token/ERC20/ERC20.sol\":4461:4472  return true */\n      swap2\n      pop\n      pop\n        /* \"@openzeppelin/contracts/token/ERC20/ERC20.sol\":4293:4479  function approve(address spender, uint256 value) public virtual returns (bool) {... */\n      swap3\n      swap2\n      pop\n      pop\n      jump\t// out\n        /* \"@openzeppelin/contracts/token/ERC20/ERC20.sol\":3144:3241  function totalSupply() public view virtual returns (uint256) {... */\n    tag_38:\n        /* \"@openzeppelin/contracts/token/ERC20/ERC20.sol\":3196:3203  uint256 */\n      0x00\n        /* \"@openzeppelin/contracts/token/ERC20/ERC20.sol\":3222:3234  _totalSupply */\n      sload(0x02)\n        /* \"@openzeppelin/contracts/token/ERC20/ERC20.sol\":3215:3234  return _totalSupply */\n      swap1\n      pop\n        /* \"@openzeppelin/contracts/token/ERC20/ERC20.sol\":3144:3241  function totalSupply() public view virtual returns (uint256) {... */\n      swap1\n      jump\t// out\n        /* \"@openzeppelin/contracts/token/ERC20/ERC20.sol\":5039:5283  function transferFrom(address from, address to, uint256 value) public virtual returns (bool) {... */\n    tag_44:\n        /* \"@openzeppelin/contracts/token/ERC20/ERC20.sol\":5126:5130  bool */\n      0x00\n        /* \"@openzeppelin/contracts/token/ERC20/ERC20.sol\":5142:5157  address spender */\n      dup1\n        /* \"@openzeppelin/contracts/token/ERC20/ERC20.sol\":5160:5172  _msgSender() */\n      tag_104\n        /* \"@openzeppelin/contracts/token/ERC20/ERC20.sol\":5160:5170  _msgSender */\n      tag_99\n        /* \"@openzeppelin/contracts/token/ERC20/ERC20.sol\":5160:5172  _msgSender() */\n      jump\t// in\n    tag_104:\n        /* \"@openzeppelin/contracts/token/ERC20/ERC20.sol\":5142:5172  address spender = _msgSender() */\n      swap1\n      pop\n        /* \"@openzeppelin/contracts/token/ERC20/ERC20.sol\":5182:5219  _spendAllowance(from, spender, value) */\n      tag_105\n        /* \"@openzeppelin/contracts/token/ERC20/ERC20.sol\":5198:5202  from */\n      dup6\n        /* \"@openzeppelin/contracts/token/ERC20/ERC20.sol\":5204:5211  spender */\n      dup3\n        /* \"@openzeppelin/contracts/token/ERC20/ERC20.sol\":5213:5218  value */\n      dup6\n        /* \"@openzeppelin/contracts/token/ERC20/ERC20.sol\":5182:5197  _spendAllowance */\n      tag_106\n        /* \"@openzeppelin/contracts/token/ERC20/ERC20.sol\":5182:5219  _spendAllowance(from, spender, value) */\n      jump\t// in\n    tag_105:\n        /* \"@openzeppelin/contracts/token/ERC20/ERC20.sol\":5229:5255  _transfer(from, to, value) */\n      tag_107\n        /* \"@openzeppelin/contracts/token/ERC20/ERC20.sol\":5239:5243  from */\n      dup6\n        /* \"@openzeppelin/contracts/token/ERC20/ERC20.sol\":5245:5247  to */\n      dup6\n        /* \"@openzeppelin/contracts/token/ERC20/ERC20.sol\":5249:5254  value */\n      dup6\n        /* \"@openzeppelin/contracts/token/ERC20/ERC20.sol\":5229:5238  _transfer */\n      tag_108\n        /* \"@openzeppelin/contracts/token/ERC20/ERC20.sol\":5229:5255  _transfer(from, to, value) */\n      jump\t// in\n    tag_107:\n        /* \"@openzeppelin/contracts/token/ERC20/ERC20.sol\":5272:5276  true */\n      0x01\n        /* \"@openzeppelin/contracts/token/ERC20/ERC20.sol\":5265:5276  return true */\n      swap2\n      pop\n      pop\n        /* \"@openzeppelin/contracts/token/ERC20/ERC20.sol\":5039:5283  function transferFrom(address from, address to, uint256 value) public virtual returns (bool) {... */\n      swap4\n      swap3\n      pop\n      pop\n      pop\n      jump\t// out\n        /* \"contracts/govarnance/SubchainGovernanceToken.sol\":2974:3083  function stakerRewardPerBlock() external view returns (uint256) {... */\n    tag_47:\n        /* \"contracts/govarnance/SubchainGovernanceToken.sol\":3029:3036  uint256 */\n      0x00\n        /* \"contracts/govarnance/SubchainGovernanceToken.sol\":3055:3076  _stakerRewardPerBlock */\n      sload(0x06)\n        /* \"contracts/govarnance/SubchainGovernanceToken.sol\":3048:3076  return _stakerRewardPerBlock */\n      swap1\n      pop\n        /* \"contracts/govarnance/SubchainGovernanceToken.sol\":2974:3083  function stakerRewardPerBlock() external view returns (uint256) {... */\n      swap1\n      jump\t// out\n        /* \"contracts/govarnance/SubchainGovernanceToken.sol\":3089:3315  function updateStakerRewardPerBlock(... */\n    tag_52:\n        /* \"contracts/govarnance/SubchainGovernanceToken.sol\":3632:3637  admin */\n      0x09\n      0x00\n      swap1\n      sload\n      swap1\n      0x0100\n      exp\n      swap1\n      div\n      0xffffffffffffffffffffffffffffffffffffffff\n      and\n        /* \"contracts/govarnance/SubchainGovernanceToken.sol\":3618:3637  msg.sender == admin */\n      0xffffffffffffffffffffffffffffffffffffffff\n      and\n        /* \"contracts/govarnance/SubchainGovernanceToken.sol\":3618:3628  msg.sender */\n      caller\n        /* \"contracts/govarnance/SubchainGovernanceToken.sol\":3618:3637  msg.sender == admin */\n      0xffffffffffffffffffffffffffffffffffffffff\n      and\n      eq\n        /* \"contracts/govarnance/SubchainGovernanceToken.sol\":3610:3671  require(msg.sender == admin, \"Only admin can make this call\") */\n      tag_111\n      jumpi\n      mload(0x40)\n      0x08c379a000000000000000000000000000000000000000000000000000000000\n      dup2\n      mstore\n      0x04\n      add\n      tag_112\n      swap1\n      tag_113\n      jump\t// in\n    tag_112:\n      mload(0x40)\n      dup1\n      swap2\n      sub\n      swap1\n      revert\n    tag_111:\n        /* \"contracts/govarnance/SubchainGovernanceToken.sol\":3223:3244  stakerRewardPerBlock_ */\n      dup1\n        /* \"contracts/govarnance/SubchainGovernanceToken.sol\":3199:3220  _stakerRewardPerBlock */\n      0x06\n        /* \"contracts/govarnance/SubchainGovernanceToken.sol\":3199:3244  _stakerRewardPerBlock = stakerRewardPerBlock_ */\n      dup2\n      swap1\n      sstore\n      pop\n        /* \"contracts/govarnance/SubchainGovernanceToken.sol\":3259:3308  UpdateStakerRewardPerBlock(_stakerRewardPerBlock) */\n      0xd65d781db82f0bd55f732ea1b96f4c6565750df815c18a70962cd8405274e243\n        /* \"contracts/govarnance/SubchainGovernanceToken.sol\":3286:3307  _stakerRewardPerBlock */\n      sload(0x06)\n        /* \"contracts/govarnance/SubchainGovernanceToken.sol\":3259:3308  UpdateStakerRewardPerBlock(_stakerRewardPerBlock) */\n      mload(0x40)\n      tag_115\n      swap2\n      swap1\n      tag_40\n      jump\t// in\n    tag_115:\n      mload(0x40)\n      dup1\n      swap2\n      sub\n      swap1\n      log1\n        /* \"contracts/govarnance/SubchainGovernanceToken.sol\":3089:3315  function updateStakerRewardPerBlock(... */\n      pop\n      jump\t// out\n        /* \"contracts/govarnance/SubchainGovernanceToken.sol\":2061:2159  function decimals() public view virtual override returns (uint8) {... */\n    tag_54:\n        /* \"contracts/govarnance/SubchainGovernanceToken.sol\":2119:2124  uint8 */\n      0x00\n        /* \"contracts/govarnance/SubchainGovernanceToken.sol\":2143:2152  _decimals */\n      0x05\n      0x00\n      swap1\n      sload\n      swap1\n      0x0100\n      exp\n      swap1\n      div\n      0xff\n      and\n        /* \"contracts/govarnance/SubchainGovernanceToken.sol\":2136:2152  return _decimals */\n      swap1\n      pop\n        /* \"contracts/govarnance/SubchainGovernanceToken.sol\":2061:2159  function decimals() public view virtual override returns (uint8) {... */\n      swap1\n      jump\t// out\n        /* \"contracts/govarnance/SubchainGovernanceToken.sol\":3321:3447  function updateMinter(address minter_) external adminOnly {... */\n    tag_60:\n        /* \"contracts/govarnance/SubchainGovernanceToken.sol\":3632:3637  admin */\n      0x09\n      0x00\n      swap1\n      sload\n      swap1\n      0x0100\n      exp\n      swap1\n      div\n      0xffffffffffffffffffffffffffffffffffffffff\n      and\n        /* \"contracts/govarnance/SubchainGovernanceToken.sol\":3618:3637  msg.sender == admin */\n      0xffffffffffffffffffffffffffffffffffffffff\n      and\n        /* \"contracts/govarnance/SubchainGovernanceToken.sol\":3618:3628  msg.sender */\n      caller\n        /* \"contracts/govarnance/SubchainGovernanceToken.sol\":3618:3637  msg.sender == admin */\n      0xffffffffffffffffffffffffffffffffffffffff\n      and\n      eq\n        /* \"contracts/govarnance/SubchainGovernanceToken.sol\":3610:3671  require(msg.sender == admin, \"Only admin can make this call\") */\n      tag_118\n      jumpi\n      mload(0x40)\n      0x08c379a000000000000000000000000000000000000000000000000000000000\n      dup2\n      mstore\n      0x04\n      add\n      tag_119\n      swap1\n      tag_113\n      jump\t// in\n    tag_119:\n      mload(0x40)\n      dup1\n      swap2\n      sub\n      swap1\n      revert\n    tag_118:\n        /* \"contracts/govarnance/SubchainGovernanceToken.sol\":3398:3405  minter_ */\n      dup1\n        /* \"contracts/govarnance/SubchainGovernanceToken.sol\":3389:3395  minter */\n      0x08\n      0x00\n        /* \"contracts/govarnance/SubchainGovernanceToken.sol\":3389:3405  minter = minter_ */\n      0x0100\n      exp\n      dup2\n      sload\n      dup2\n      0xffffffffffffffffffffffffffffffffffffffff\n      mul\n      not\n      and\n      swap1\n      dup4\n      0xffffffffffffffffffffffffffffffffffffffff\n      and\n      mul\n      or\n      swap1\n      sstore\n      pop\n        /* \"contracts/govarnance/SubchainGovernanceToken.sol\":3420:3440  UpdateMinter(minter) */\n      0x94a0a7c0a7a455351029a521046d4438bc63e58a1ee8d984d624eb3161583b2c\n        /* \"contracts/govarnance/SubchainGovernanceToken.sol\":3433:3439  minter */\n      0x08\n      0x00\n      swap1\n      sload\n      swap1\n      0x0100\n      exp\n      swap1\n      div\n      0xffffffffffffffffffffffffffffffffffffffff\n      and\n        /* \"contracts/govarnance/SubchainGovernanceToken.sol\":3420:3440  UpdateMinter(minter) */\n      mload(0x40)\n      tag_121\n      swap2\n      swap1\n      tag_30\n      jump\t// in\n    tag_121:\n      mload(0x40)\n      dup1\n      swap2\n      sub\n      swap1\n      log1\n        /* \"contracts/govarnance/SubchainGovernanceToken.sol\":3321:3447  function updateMinter(address minter_) external adminOnly {... */\n      pop\n      jump\t// out\n        /* \"@openzeppelin/contracts/token/ERC20/ERC20.sol\":3299:3415  function balanceOf(address account) public view virtual returns (uint256) {... */\n    tag_63:\n        /* \"@openzeppelin/contracts/token/ERC20/ERC20.sol\":3364:3371  uint256 */\n      0x00\n        /* \"@openzeppelin/contracts/token/ERC20/ERC20.sol\":3390:3399  _balances */\n      dup1\n        /* \"@openzeppelin/contracts/token/ERC20/ERC20.sol\":3390:3408  _balances[account] */\n      0x00\n        /* \"@openzeppelin/contracts/token/ERC20/ERC20.sol\":3400:3407  account */\n      dup4\n        /* \"@openzeppelin/contracts/token/ERC20/ERC20.sol\":3390:3408  _balances[account] */\n      0xffffffffffffffffffffffffffffffffffffffff\n      and\n      0xffffffffffffffffffffffffffffffffffffffff\n      and\n      dup2\n      mstore\n      0x20\n      add\n      swap1\n      dup2\n      mstore\n      0x20\n      add\n      0x00\n      keccak256\n      sload\n        /* \"@openzeppelin/contracts/token/ERC20/ERC20.sol\":3383:3408  return _balances[account] */\n      swap1\n      pop\n        /* \"@openzeppelin/contracts/token/ERC20/ERC20.sol\":3299:3415  function balanceOf(address account) public view virtual returns (uint256) {... */\n      swap2\n      swap1\n      pop\n      jump\t// out\n        /* \"@openzeppelin/contracts/token/ERC20/ERC20.sol\":2276:2369  function symbol() public view virtual returns (string memory) {... */\n    tag_66:\n        /* \"@openzeppelin/contracts/token/ERC20/ERC20.sol\":2323:2336  string memory */\n      0x60\n        /* \"@openzeppelin/contracts/token/ERC20/ERC20.sol\":2355:2362  _symbol */\n      0x04\n        /* \"@openzeppelin/contracts/token/ERC20/ERC20.sol\":2348:2362  return _symbol */\n      dup1\n      sload\n      tag_124\n      swap1\n      tag_92\n      jump\t// in\n    tag_124:\n      dup1\n      0x1f\n      add\n      0x20\n      dup1\n      swap2\n      div\n      mul\n      0x20\n      add\n      mload(0x40)\n      swap1\n      dup2\n      add\n      0x40\n      mstore\n      dup1\n      swap3\n      swap2\n      swap1\n      dup2\n      dup2\n      mstore\n      0x20\n      add\n      dup3\n      dup1\n      sload\n      tag_125\n      swap1\n      tag_92\n      jump\t// in\n    tag_125:\n      dup1\n      iszero\n      tag_126\n      jumpi\n      dup1\n      0x1f\n      lt\n      tag_127\n      jumpi\n      0x0100\n      dup1\n      dup4\n      sload\n      div\n      mul\n      dup4\n      mstore\n      swap2\n      0x20\n      add\n      swap2\n      jump(tag_126)\n    tag_127:\n      dup3\n      add\n      swap2\n      swap1\n      0x00\n      mstore\n      keccak256(0x00, 0x20)\n      swap1\n    tag_128:\n      dup2\n      sload\n      dup2\n      mstore\n      swap1\n      0x01\n      add\n      swap1\n      0x20\n      add\n      dup1\n      dup4\n      gt\n      tag_128\n      jumpi\n      dup3\n      swap1\n      sub\n      0x1f\n      and\n      dup3\n      add\n      swap2\n    tag_126:\n      pop\n      pop\n      pop\n      pop\n      pop\n      swap1\n      pop\n        /* \"@openzeppelin/contracts/token/ERC20/ERC20.sol\":2276:2369  function symbol() public view virtual returns (string memory) {... */\n      swap1\n      jump\t// out\n        /* \"@openzeppelin/contracts/token/ERC20/ERC20.sol\":3610:3788  function transfer(address to, uint256 value) public virtual returns (bool) {... */\n    tag_70:\n        /* \"@openzeppelin/contracts/token/ERC20/ERC20.sol\":3679:3683  bool */\n      0x00\n        /* \"@openzeppelin/contracts/token/ERC20/ERC20.sol\":3695:3708  address owner */\n      dup1\n        /* \"@openzeppelin/contracts/token/ERC20/ERC20.sol\":3711:3723  _msgSender() */\n      tag_130\n        /* \"@openzeppelin/contracts/token/ERC20/ERC20.sol\":3711:3721  _msgSender */\n      tag_99\n        /* \"@openzeppelin/contracts/token/ERC20/ERC20.sol\":3711:3723  _msgSender() */\n      jump\t// in\n    tag_130:\n        /* \"@openzeppelin/contracts/token/ERC20/ERC20.sol\":3695:3723  address owner = _msgSender() */\n      swap1\n      pop\n        /* \"@openzeppelin/contracts/token/ERC20/ERC20.sol\":3733:3760  _transfer(owner, to, value) */\n      tag_131\n        /* \"@openzeppelin/contracts/token/ERC20/ERC20.sol\":3743:3748  owner */\n      dup2\n        /* \"@openzeppelin/contracts/token/ERC20/ERC20.sol\":3750:3752  to */\n      dup6\n        /* \"@openzeppelin/contracts/token/ERC20/ERC20.sol\":3754:3759  value */\n      dup6\n        /* \"@openzeppelin/contracts/token/ERC20/ERC20.sol\":3733:3742  _transfer */\n      tag_108\n        /* \"@openzeppelin/contracts/token/ERC20/ERC20.sol\":3733:3760  _transfer(owner, to, value) */\n      jump\t// in\n    tag_131:\n        /* \"@openzeppelin/contracts/token/ERC20/ERC20.sol\":3777:3781  true */\n      0x01\n        /* \"@openzeppelin/contracts/token/ERC20/ERC20.sol\":3770:3781  return true */\n      swap2\n      pop\n      pop\n        /* \"@openzeppelin/contracts/token/ERC20/ERC20.sol\":3610:3788  function transfer(address to, uint256 value) public virtual returns (bool) {... */\n      swap3\n      swap2\n      pop\n      pop\n      jump\t// out\n        /* \"contracts/govarnance/SubchainGovernanceToken.sol\":2310:2796  function mintStakerReward(... */\n    tag_74:\n        /* \"contracts/govarnance/SubchainGovernanceToken.sol\":2420:2424  bool */\n      0x00\n        /* \"contracts/govarnance/SubchainGovernanceToken.sol\":3749:3755  minter */\n      0x08\n      0x00\n      swap1\n      sload\n      swap1\n      0x0100\n      exp\n      swap1\n      div\n      0xffffffffffffffffffffffffffffffffffffffff\n      and\n        /* \"contracts/govarnance/SubchainGovernanceToken.sol\":3735:3755  msg.sender == minter */\n      0xffffffffffffffffffffffffffffffffffffffff\n      and\n        /* \"contracts/govarnance/SubchainGovernanceToken.sol\":3735:3745  msg.sender */\n      caller\n        /* \"contracts/govarnance/SubchainGovernanceToken.sol\":3735:3755  msg.sender == minter */\n      0xffffffffffffffffffffffffffffffffffffffff\n      and\n      eq\n        /* \"contracts/govarnance/SubchainGovernanceToken.sol\":3727:3790  require(msg.sender == minter, \"Only minter can make this call\") */\n      tag_133\n      jumpi\n      mload(0x40)\n      0x08c379a000000000000000000000000000000000000000000000000000000000\n      dup2\n      mstore\n      0x04\n      add\n      tag_134\n      swap1\n      tag_135\n      jump\t// in\n    tag_134:\n      mload(0x40)\n      dup1\n      swap2\n      sub\n      swap1\n      revert\n    tag_133:\n        /* \"contracts/govarnance/SubchainGovernanceToken.sol\":2454:2460  minter */\n      0x08\n      0x00\n      swap1\n      sload\n      swap1\n      0x0100\n      exp\n      swap1\n      div\n      0xffffffffffffffffffffffffffffffffffffffff\n      and\n        /* \"contracts/govarnance/SubchainGovernanceToken.sol\":2440:2460  msg.sender != minter */\n      0xffffffffffffffffffffffffffffffffffffffff\n      and\n        /* \"contracts/govarnance/SubchainGovernanceToken.sol\":2440:2450  msg.sender */\n      caller\n        /* \"contracts/govarnance/SubchainGovernanceToken.sol\":2440:2460  msg.sender != minter */\n      0xffffffffffffffffffffffffffffffffffffffff\n      and\n      eq\n        /* \"contracts/govarnance/SubchainGovernanceToken.sol\":2436:2499  if (msg.sender != minter) {... */\n      tag_137\n      jumpi\n        /* \"contracts/govarnance/SubchainGovernanceToken.sol\":2483:2488  false */\n      0x00\n        /* \"contracts/govarnance/SubchainGovernanceToken.sol\":2476:2488  return false */\n      swap1\n      pop\n      jump(tag_136)\n        /* \"contracts/govarnance/SubchainGovernanceToken.sol\":2436:2499  if (msg.sender != minter) {... */\n    tag_137:\n        /* \"contracts/govarnance/SubchainGovernanceToken.sol\":2508:2529  uint256 currentSupply */\n      0x00\n        /* \"contracts/govarnance/SubchainGovernanceToken.sol\":2532:2536  this */\n      address\n        /* \"contracts/govarnance/SubchainGovernanceToken.sol\":2532:2548  this.totalSupply */\n      0xffffffffffffffffffffffffffffffffffffffff\n      and\n      0x18160ddd\n        /* \"contracts/govarnance/SubchainGovernanceToken.sol\":2532:2550  this.totalSupply() */\n      mload(0x40)\n      dup2\n      0xffffffff\n      and\n      0xe0\n      shl\n      dup2\n      mstore\n      0x04\n      add\n      0x20\n      mload(0x40)\n      dup1\n      dup4\n      sub\n      dup2\n      dup7\n      gas\n      staticcall\n      iszero\n      dup1\n      iszero\n      tag_139\n      jumpi\n      returndatasize\n      0x00\n      dup1\n      returndatacopy\n      revert(0x00, returndatasize)\n    tag_139:\n      pop\n      pop\n      pop\n      pop\n      mload(0x40)\n      returndatasize\n      not(0x1f)\n      0x1f\n      dup3\n      add\n      and\n      dup3\n      add\n      dup1\n      0x40\n      mstore\n      pop\n      dup2\n      add\n      swap1\n      tag_140\n      swap2\n      swap1\n      tag_141\n      jump\t// in\n    tag_140:\n        /* \"contracts/govarnance/SubchainGovernanceToken.sol\":2508:2550  uint256 currentSupply = this.totalSupply() */\n      swap1\n      pop\n        /* \"contracts/govarnance/SubchainGovernanceToken.sol\":2581:2590  maxSupply */\n      sload(0x07)\n        /* \"contracts/govarnance/SubchainGovernanceToken.sol\":2564:2577  currentSupply */\n      dup2\n        /* \"contracts/govarnance/SubchainGovernanceToken.sol\":2564:2590  currentSupply >= maxSupply */\n      lt\n        /* \"contracts/govarnance/SubchainGovernanceToken.sol\":2560:2629  if (currentSupply >= maxSupply) {... */\n      tag_142\n      jumpi\n        /* \"contracts/govarnance/SubchainGovernanceToken.sol\":2613:2618  false */\n      0x00\n        /* \"contracts/govarnance/SubchainGovernanceToken.sol\":2606:2618  return false */\n      swap2\n      pop\n      pop\n      jump(tag_136)\n        /* \"contracts/govarnance/SubchainGovernanceToken.sol\":2560:2629  if (currentSupply >= maxSupply) {... */\n    tag_142:\n        /* \"contracts/govarnance/SubchainGovernanceToken.sol\":2667:2676  maxSupply */\n      sload(0x07)\n        /* \"contracts/govarnance/SubchainGovernanceToken.sol\":2658:2664  amount */\n      dup4\n        /* \"contracts/govarnance/SubchainGovernanceToken.sol\":2642:2655  currentSupply */\n      dup3\n        /* \"contracts/govarnance/SubchainGovernanceToken.sol\":2642:2664  currentSupply + amount */\n      tag_143\n      swap2\n      swap1\n      tag_144\n      jump\t// in\n    tag_143:\n        /* \"contracts/govarnance/SubchainGovernanceToken.sol\":2642:2676  currentSupply + amount > maxSupply */\n      gt\n        /* \"contracts/govarnance/SubchainGovernanceToken.sol\":2638:2737  if (currentSupply + amount > maxSupply) {... */\n      iszero\n      tag_145\n      jumpi\n        /* \"contracts/govarnance/SubchainGovernanceToken.sol\":2713:2726  currentSupply */\n      dup1\n        /* \"contracts/govarnance/SubchainGovernanceToken.sol\":2701:2710  maxSupply */\n      sload(0x07)\n        /* \"contracts/govarnance/SubchainGovernanceToken.sol\":2701:2726  maxSupply - currentSupply */\n      tag_146\n      swap2\n      swap1\n      tag_147\n      jump\t// in\n    tag_146:\n        /* \"contracts/govarnance/SubchainGovernanceToken.sol\":2692:2726  amount = maxSupply - currentSupply */\n      swap3\n      pop\n        /* \"contracts/govarnance/SubchainGovernanceToken.sol\":2638:2737  if (currentSupply + amount > maxSupply) {... */\n    tag_145:\n        /* \"contracts/govarnance/SubchainGovernanceToken.sol\":2746:2768  _mint(account, amount) */\n      tag_148\n        /* \"contracts/govarnance/SubchainGovernanceToken.sol\":2752:2759  account */\n      dup5\n        /* \"contracts/govarnance/SubchainGovernanceToken.sol\":2761:2767  amount */\n      dup5\n        /* \"contracts/govarnance/SubchainGovernanceToken.sol\":2746:2751  _mint */\n      tag_149\n        /* \"contracts/govarnance/SubchainGovernanceToken.sol\":2746:2768  _mint(account, amount) */\n      jump\t// in\n    tag_148:\n        /* \"contracts/govarnance/SubchainGovernanceToken.sol\":2785:2789  true */\n      0x01\n        /* \"contracts/govarnance/SubchainGovernanceToken.sol\":2778:2789  return true */\n      swap2\n      pop\n      pop\n        /* \"contracts/govarnance/SubchainGovernanceToken.sol\":3800:3801  _ */\n    tag_136:\n        /* \"contracts/govarnance/SubchainGovernanceToken.sol\":2310:2796  function mintStakerReward(... */\n      swap3\n      swap2\n      pop\n      pop\n      jump\t// out\n        /* \"contracts/govarnance/SubchainGovernanceToken.sol\":1027:1051  uint256 public maxSupply */\n    tag_77:\n      sload(0x07)\n      dup2\n      jump\t// out\n        /* \"@openzeppelin/contracts/token/ERC20/ERC20.sol\":3846:3986  function allowance(address owner, address spender) public view virtual returns (uint256) {... */\n    tag_82:\n        /* \"@openzeppelin/contracts/token/ERC20/ERC20.sol\":3926:3933  uint256 */\n      0x00\n        /* \"@openzeppelin/contracts/token/ERC20/ERC20.sol\":3952:3963  _allowances */\n      0x01\n        /* \"@openzeppelin/contracts/token/ERC20/ERC20.sol\":3952:3970  _allowances[owner] */\n      0x00\n        /* \"@openzeppelin/contracts/token/ERC20/ERC20.sol\":3964:3969  owner */\n      dup5\n        /* \"@openzeppelin/contracts/token/ERC20/ERC20.sol\":3952:3970  _allowances[owner] */\n      0xffffffffffffffffffffffffffffffffffffffff\n      and\n      0xffffffffffffffffffffffffffffffffffffffff\n      and\n      dup2\n      mstore\n      0x20\n      add\n      swap1\n      dup2\n      mstore\n      0x20\n      add\n      0x00\n      keccak256\n        /* \"@openzeppelin/contracts/token/ERC20/ERC20.sol\":3952:3979  _allowances[owner][spender] */\n      0x00\n        /* \"@openzeppelin/contracts/token/ERC20/ERC20.sol\":3971:3978  spender */\n      dup4\n        /* \"@openzeppelin/contracts/token/ERC20/ERC20.sol\":3952:3979  _allowances[owner][spender] */\n      0xffffffffffffffffffffffffffffffffffffffff\n      and\n      0xffffffffffffffffffffffffffffffffffffffff\n      and\n      dup2\n      mstore\n      0x20\n      add\n      swap1\n      dup2\n      mstore\n      0x20\n      add\n      0x00\n      keccak256\n      sload\n        /* \"@openzeppelin/contracts/token/ERC20/ERC20.sol\":3945:3979  return _allowances[owner][spender] */\n      swap1\n      pop\n        /* \"@openzeppelin/contracts/token/ERC20/ERC20.sol\":3846:3986  function allowance(address owner, address spender) public view virtual returns (uint256) {... */\n      swap3\n      swap2\n      pop\n      pop\n      jump\t// out\n        /* \"contracts/govarnance/SubchainGovernanceToken.sol\":3453:3573  function updateAdmin(address admin_) external adminOnly {... */\n    tag_86:\n        /* \"contracts/govarnance/SubchainGovernanceToken.sol\":3632:3637  admin */\n      0x09\n      0x00\n      swap1\n      sload\n      swap1\n      0x0100\n      exp\n      swap1\n      div\n      0xffffffffffffffffffffffffffffffffffffffff\n      and\n        /* \"contracts/govarnance/SubchainGovernanceToken.sol\":3618:3637  msg.sender == admin */\n      0xffffffffffffffffffffffffffffffffffffffff\n      and\n        /* \"contracts/govarnance/SubchainGovernanceToken.sol\":3618:3628  msg.sender */\n      caller\n        /* \"contracts/govarnance/SubchainGovernanceToken.sol\":3618:3637  msg.sender == admin */\n      0xffffffffffffffffffffffffffffffffffffffff\n      and\n      eq\n        /* \"contracts/govarnance/SubchainGovernanceToken.sol\":3610:3671  require(msg.sender == admin, \"Only admin can make this call\") */\n      tag_152\n      jumpi\n      mload(0x40)\n      0x08c379a000000000000000000000000000000000000000000000000000000000\n      dup2\n      mstore\n      0x04\n      add\n      tag_153\n      swap1\n      tag_113\n      jump\t// in\n    tag_153:\n      mload(0x40)\n      dup1\n      swap2\n      sub\n      swap1\n      revert\n    tag_152:\n        /* \"contracts/govarnance/SubchainGovernanceToken.sol\":3527:3533  admin_ */\n      dup1\n        /* \"contracts/govarnance/SubchainGovernanceToken.sol\":3519:3524  admin */\n      0x09\n      0x00\n        /* \"contracts/govarnance/SubchainGovernanceToken.sol\":3519:3533  admin = admin_ */\n      0x0100\n      exp\n      dup2\n      sload\n      dup2\n      0xffffffffffffffffffffffffffffffffffffffff\n      mul\n      not\n      and\n      swap1\n      dup4\n      0xffffffffffffffffffffffffffffffffffffffff\n      and\n      mul\n      or\n      swap1\n      sstore\n      pop\n        /* \"contracts/govarnance/SubchainGovernanceToken.sol\":3548:3566  UpdateAdmin(admin) */\n      0xbfc8d7754fec5096becc28e0816011e8d0adcfe752ffa1c88924a7f88b00a41d\n        /* \"contracts/govarnance/SubchainGovernanceToken.sol\":3560:3565  admin */\n      0x09\n      0x00\n      swap1\n      sload\n      swap1\n      0x0100\n      exp\n      swap1\n      div\n      0xffffffffffffffffffffffffffffffffffffffff\n      and\n        /* \"contracts/govarnance/SubchainGovernanceToken.sol\":3548:3566  UpdateAdmin(admin) */\n      mload(0x40)\n      tag_155\n      swap2\n      swap1\n      tag_30\n      jump\t// in\n    tag_155:\n      mload(0x40)\n      dup1\n      swap2\n      sub\n      swap1\n      log1\n        /* \"contracts/govarnance/SubchainGovernanceToken.sol\":3453:3573  function updateAdmin(address admin_) external adminOnly {... */\n      pop\n      jump\t// out\n        /* \"contracts/govarnance/SubchainGovernanceToken.sol\":1084:1104  address public admin */\n    tag_88:\n      0x09\n      0x00\n      swap1\n      sload\n      swap1\n      0x0100\n      exp\n      swap1\n      div\n      0xffffffffffffffffffffffffffffffffffffffff\n      and\n      dup2\n      jump\t// out\n        /* \"@openzeppelin/contracts/utils/Context.sol\":656:752  function _msgSender() internal view virtual returns (address) {... */\n    tag_99:\n        /* \"@openzeppelin/contracts/utils/Context.sol\":709:716  address */\n      0x00\n        /* \"@openzeppelin/contracts/utils/Context.sol\":735:745  msg.sender */\n      caller\n        /* \"@openzeppelin/contracts/utils/Context.sol\":728:745  return msg.sender */\n      swap1\n      pop\n        /* \"@openzeppelin/contracts/utils/Context.sol\":656:752  function _msgSender() internal view virtual returns (address) {... */\n      swap1\n      jump\t// out\n        /* \"@openzeppelin/contracts/token/ERC20/ERC20.sol\":8989:9117  function _approve(address owner, address spender, uint256 value) internal {... */\n    tag_101:\n        /* \"@openzeppelin/contracts/token/ERC20/ERC20.sol\":9073:9110  _approve(owner, spender, value, true) */\n      tag_158\n        /* \"@openzeppelin/contracts/token/ERC20/ERC20.sol\":9082:9087  owner */\n      dup4\n        /* \"@openzeppelin/contracts/token/ERC20/ERC20.sol\":9089:9096  spender */\n      dup4\n        /* \"@openzeppelin/contracts/token/ERC20/ERC20.sol\":9098:9103  value */\n      dup4\n        /* \"@openzeppelin/contracts/token/ERC20/ERC20.sol\":9105:9109  true */\n      0x01\n        /* \"@openzeppelin/contracts/token/ERC20/ERC20.sol\":9073:9081  _approve */\n      tag_159\n        /* \"@openzeppelin/contracts/token/ERC20/ERC20.sol\":9073:9110  _approve(owner, spender, value, true) */\n      jump\t// in\n    tag_158:\n        /* \"@openzeppelin/contracts/token/ERC20/ERC20.sol\":8989:9117  function _approve(address owner, address spender, uint256 value) internal {... */\n      pop\n      pop\n      pop\n      jump\t// out\n        /* \"@openzeppelin/contracts/token/ERC20/ERC20.sol\":10663:11140  function _spendAllowance(address owner, address spender, uint256 value) internal virtual {... */\n    tag_106:\n        /* \"@openzeppelin/contracts/token/ERC20/ERC20.sol\":10762:10786  uint256 currentAllowance */\n      0x00\n        /* \"@openzeppelin/contracts/token/ERC20/ERC20.sol\":10789:10814  allowance(owner, spender) */\n      tag_161\n        /* \"@openzeppelin/contracts/token/ERC20/ERC20.sol\":10799:10804  owner */\n      dup5\n        /* \"@openzeppelin/contracts/token/ERC20/ERC20.sol\":10806:10813  spender */\n      dup5\n        /* \"@openzeppelin/contracts/token/ERC20/ERC20.sol\":10789:10798  allowance */\n      tag_82\n        /* \"@openzeppelin/contracts/token/ERC20/ERC20.sol\":10789:10814  allowance(owner, spender) */\n      jump\t// in\n    tag_161:\n        /* \"@openzeppelin/contracts/token/ERC20/ERC20.sol\":10762:10814  uint256 currentAllowance = allowance(owner, spender) */\n      swap1\n      pop\n        /* \"@openzeppelin/contracts/token/ERC20/ERC20.sol\":10848:10865  type(uint256).max */\n      0xffffffffffffffffffffffffffffffffffffffffffffffffffffffffffffffff\n        /* \"@openzeppelin/contracts/token/ERC20/ERC20.sol\":10828:10844  currentAllowance */\n      dup2\n        /* \"@openzeppelin/contracts/token/ERC20/ERC20.sol\":10828:10865  currentAllowance != type(uint256).max */\n      eq\n        /* \"@openzeppelin/contracts/token/ERC20/ERC20.sol\":10824:11134  if (currentAllowance != type(uint256).max) {... */\n      tag_162\n      jumpi\n        /* \"@openzeppelin/contracts/token/ERC20/ERC20.sol\":10904:10909  value */\n      dup2\n        /* \"@openzeppelin/contracts/token/ERC20/ERC20.sol\":10885:10901  currentAllowance */\n      dup2\n        /* \"@openzeppelin/contracts/token/ERC20/ERC20.sol\":10885:10909  currentAllowance < value */\n      lt\n        /* \"@openzeppelin/contracts/token/ERC20/ERC20.sol\":10881:11011  if (currentAllowance < value) {... */\n      iszero\n      tag_163\n      jumpi\n        /* \"@openzeppelin/contracts/token/ERC20/ERC20.sol\":10963:10970  spender */\n      dup3\n        /* \"@openzeppelin/contracts/token/ERC20/ERC20.sol\":10972:10988  currentAllowance */\n      dup2\n        /* \"@openzeppelin/contracts/token/ERC20/ERC20.sol\":10990:10995  value */\n      dup4\n        /* \"@openzeppelin/contracts/token/ERC20/ERC20.sol\":10936:10996  ERC20InsufficientAllowance(spender, currentAllowance, value) */\n      mload(0x40)\n      0xfb8f41b200000000000000000000000000000000000000000000000000000000\n      dup2\n      mstore\n      0x04\n      add\n      tag_164\n      swap4\n      swap3\n      swap2\n      swap1\n      tag_165\n      jump\t// in\n    tag_164:\n      mload(0x40)\n      dup1\n      swap2\n      sub\n      swap1\n      revert\n        /* \"@openzeppelin/contracts/token/ERC20/ERC20.sol\":10881:11011  if (currentAllowance < value) {... */\n    tag_163:\n        /* \"@openzeppelin/contracts/token/ERC20/ERC20.sol\":11052:11109  _approve(owner, spender, currentAllowance - value, false) */\n      tag_166\n        /* \"@openzeppelin/contracts/token/ERC20/ERC20.sol\":11061:11066  owner */\n      dup5\n        /* \"@openzeppelin/contracts/token/ERC20/ERC20.sol\":11068:11075  spender */\n      dup5\n        /* \"@openzeppelin/contracts/token/ERC20/ERC20.sol\":11096:11101  value */\n      dup5\n        /* \"@openzeppelin/contracts/token/ERC20/ERC20.sol\":11077:11093  currentAllowance */\n      dup5\n        /* \"@openzeppelin/contracts/token/ERC20/ERC20.sol\":11077:11101  currentAllowance - value */\n      sub\n        /* \"@openzeppelin/contracts/token/ERC20/ERC20.sol\":11103:11108  false */\n      0x00\n        /* \"@openzeppelin/contracts/token/ERC20/ERC20.sol\":11052:11060  _approve */\n      tag_159\n        /* \"@openzeppelin/contracts/token/ERC20/ERC20.sol\":11052:11109  _approve(owner, spender, currentAllowance - value, false) */\n      jump\t// in\n    tag_166:\n        /* \"@openzeppelin/contracts/token/ERC20/ERC20.sol\":10824:11134  if (currentAllowance != type(uint256).max) {... */\n    tag_162:\n        /* \"@openzeppelin/contracts/token/ERC20/ERC20.sol\":10752:11140  {... */\n      pop\n        /* \"@openzeppelin/contracts/token/ERC20/ERC20.sol\":10663:11140  function _spendAllowance(address owner, address spender, uint256 value) internal virtual {... */\n      pop\n      pop\n      pop\n      jump\t// out\n        /* \"@openzeppelin/contracts/token/ERC20/ERC20.sol\":5656:5956  function _transfer(address from, address to, uint256 value) internal {... */\n    tag_108:\n        /* \"@openzeppelin/contracts/token/ERC20/ERC20.sol\":5755:5756  0 */\n      0x00\n        /* \"@openzeppelin/contracts/token/ERC20/ERC20.sol\":5739:5757  from == address(0) */\n      0xffffffffffffffffffffffffffffffffffffffff\n      and\n        /* \"@openzeppelin/contracts/token/ERC20/ERC20.sol\":5739:5743  from */\n      dup4\n        /* \"@openzeppelin/contracts/token/ERC20/ERC20.sol\":5739:5757  from == address(0) */\n      0xffffffffffffffffffffffffffffffffffffffff\n      and\n      sub\n        /* \"@openzeppelin/contracts/token/ERC20/ERC20.sol\":5735:5821  if (from == address(0)) {... */\n      tag_168\n      jumpi\n        /* \"@openzeppelin/contracts/token/ERC20/ERC20.sol\":5807:5808  0 */\n      0x00\n        /* \"@openzeppelin/contracts/token/ERC20/ERC20.sol\":5780:5810  ERC20InvalidSender(address(0)) */\n      mload(0x40)\n      0x96c6fd1e00000000000000000000000000000000000000000000000000000000\n      dup2\n      mstore\n      0x04\n      add\n      tag_169\n      swap2\n      swap1\n      tag_30\n      jump\t// in\n    tag_169:\n      mload(0x40)\n      dup1\n      swap2\n      sub\n      swap1\n      revert\n        /* \"@openzeppelin/contracts/token/ERC20/ERC20.sol\":5735:5821  if (from == address(0)) {... */\n    tag_168:\n        /* \"@openzeppelin/contracts/token/ERC20/ERC20.sol\":5848:5849  0 */\n      0x00\n        /* \"@openzeppelin/contracts/token/ERC20/ERC20.sol\":5834:5850  to == address(0) */\n      0xffffffffffffffffffffffffffffffffffffffff\n      and\n        /* \"@openzeppelin/contracts/token/ERC20/ERC20.sol\":5834:5836  to */\n      dup3\n        /* \"@openzeppelin/contracts/token/ERC20/ERC20.sol\":5834:5850  to == address(0) */\n      0xffffffffffffffffffffffffffffffffffffffff\n      and\n      sub\n        /* \"@openzeppelin/contracts/token/ERC20/ERC20.sol\":5830:5916  if (to == address(0)) {... */\n      tag_170\n      jumpi\n        /* \"@openzeppelin/contracts/token/ERC20/ERC20.sol\":5902:5903  0 */\n      0x00\n        /* \"@openzeppelin/contracts/token/ERC20/ERC20.sol\":5873:5905  ERC20InvalidReceiver(address(0)) */\n      mload(0x40)\n      0xec442f0500000000000000000000000000000000000000000000000000000000\n      dup2\n      mstore\n      0x04\n      add\n      tag_171\n      swap2\n      swap1\n      tag_30\n      jump\t// in\n    tag_171:\n      mload(0x40)\n      dup1\n      swap2\n      sub\n      swap1\n      revert\n        /* \"@openzeppelin/contracts/token/ERC20/ERC20.sol\":5830:5916  if (to == address(0)) {... */\n    tag_170:\n        /* \"@openzeppelin/contracts/token/ERC20/ERC20.sol\":5925:5949  _update(from, to, value) */\n      tag_172\n        /* \"@openzeppelin/contracts/token/ERC20/ERC20.sol\":5933:5937  from */\n      dup4\n        /* \"@openzeppelin/contracts/token/ERC20/ERC20.sol\":5939:5941  to */\n      dup4\n        /* \"@openzeppelin/contracts/token/ERC20/ERC20.sol\":5943:5948  value */\n      dup4\n        /* \"@openzeppelin/contracts/token/ERC20/ERC20.sol\":5925:5932  _update */\n      tag_173\n        /* \"@openzeppelin/contracts/token/ERC20/ERC20.sol\":5925:5949  _update(from, to, value) */\n      jump\t// in\n    tag_172:\n        /* \"@openzeppelin/contracts/token/ERC20/ERC20.sol\":5656:5956  function _transfer(address from, address to, uint256 value) internal {... */\n      pop\n      pop\n      pop\n      jump\t// out\n        /* \"@openzeppelin/contracts/token/ERC20/ERC20.sol\":7721:7929  function _mint(address account, uint256 value) internal {... */\n    tag_149:\n        /* \"@openzeppelin/contracts/token/ERC20/ERC20.sol\":7810:7811  0 */\n      0x00\n        /* \"@openzeppelin/contracts/token/ERC20/ERC20.sol\":7791:7812  account == address(0) */\n      0xffffffffffffffffffffffffffffffffffffffff\n      and\n        /* \"@openzeppelin/contracts/token/ERC20/ERC20.sol\":7791:7798  account */\n      dup3\n        /* \"@openzeppelin/contracts/token/ERC20/ERC20.sol\":7791:7812  account == address(0) */\n      0xffffffffffffffffffffffffffffffffffffffff\n      and\n      sub\n        /* \"@openzeppelin/contracts/token/ERC20/ERC20.sol\":7787:7878  if (account == address(0)) {... */\n      tag_175\n      jumpi\n        /* \"@openzeppelin/contracts/token/ERC20/ERC20.sol\":7864:7865  0 */\n      0x00\n        /* \"@openzeppelin/contracts/token/ERC20/ERC20.sol\":7835:7867  ERC20InvalidReceiver(address(0)) */\n      mload(0x40)\n      0xec442f0500000000000000000000000000000000000000000000000000000000\n      dup2\n      mstore\n      0x04\n      add\n      tag_176\n      swap2\n      swap1\n      tag_30\n      jump\t// in\n    tag_176:\n      mload(0x40)\n      dup1\n      swap2\n      sub\n      swap1\n      revert\n        /* \"@openzeppelin/contracts/token/ERC20/ERC20.sol\":7787:7878  if (account == address(0)) {... */\n    tag_175:\n        /* \"@openzeppelin/contracts/token/ERC20/ERC20.sol\":7887:7922  _update(address(0), account, value) */\n      tag_177\n        /* \"@openzeppelin/contracts/token/ERC20/ERC20.sol\":7903:7904  0 */\n      0x00\n        /* \"@openzeppelin/contracts/token/ERC20/ERC20.sol\":7907:7914  account */\n      dup4\n        /* \"@openzeppelin/contracts/token/ERC20/ERC20.sol\":7916:7921  value */\n      dup4\n        /* \"@openzeppelin/contracts/token/ERC20/ERC20.sol\":7887:7894  _update */\n      tag_173\n        /* \"@openzeppelin/contracts/token/ERC20/ERC20.sol\":7887:7922  _update(address(0), account, value) */\n      jump\t// in\n    tag_177:\n        /* \"@openzeppelin/contracts/token/ERC20/ERC20.sol\":7721:7929  function _mint(address account, uint256 value) internal {... */\n      pop\n      pop\n      jump\t// out\n        /* \"@openzeppelin/contracts/token/ERC20/ERC20.sol\":9949:10381  function _approve(address owner, address spender, uint256 value, bool emitEvent) internal virtual {... */\n    tag_159:\n        /* \"@openzeppelin/contracts/token/ERC20/ERC20.sol\":10078:10079  0 */\n      0x00\n        /* \"@openzeppelin/contracts/token/ERC20/ERC20.sol\":10061:10080  owner == address(0) */\n      0xffffffffffffffffffffffffffffffffffffffff\n      and\n        /* \"@openzeppelin/contracts/token/ERC20/ERC20.sol\":10061:10066  owner */\n      dup5\n        /* \"@openzeppelin/contracts/token/ERC20/ERC20.sol\":10061:10080  owner == address(0) */\n      0xffffffffffffffffffffffffffffffffffffffff\n      and\n      sub\n        /* \"@openzeppelin/contracts/token/ERC20/ERC20.sol\":10057:10146  if (owner == address(0)) {... */\n      tag_179\n      jumpi\n        /* \"@openzeppelin/contracts/token/ERC20/ERC20.sol\":10132:10133  0 */\n      0x00\n        /* \"@openzeppelin/contracts/token/ERC20/ERC20.sol\":10103:10135  ERC20InvalidApprover(address(0)) */\n      mload(0x40)\n      0xe602df0500000000000000000000000000000000000000000000000000000000\n      dup2\n      mstore\n      0x04\n      add\n      tag_180\n      swap2\n      swap1\n      tag_30\n      jump\t// in\n    tag_180:\n      mload(0x40)\n      dup1\n      swap2\n      sub\n      swap1\n      revert\n        /* \"@openzeppelin/contracts/token/ERC20/ERC20.sol\":10057:10146  if (owner == address(0)) {... */\n    tag_179:\n        /* \"@openzeppelin/contracts/token/ERC20/ERC20.sol\":10178:10179  0 */\n      0x00\n        /* \"@openzeppelin/contracts/token/ERC20/ERC20.sol\":10159:10180  spender == address(0) */\n      0xffffffffffffffffffffffffffffffffffffffff\n      and\n        /* \"@openzeppelin/contracts/token/ERC20/ERC20.sol\":10159:10166  spender */\n      dup4\n        /* \"@openzeppelin/contracts/token/ERC20/ERC20.sol\":10159:10180  spender == address(0) */\n      0xffffffffffffffffffffffffffffffffffffffff\n      and\n      sub\n        /* \"@openzeppelin/contracts/token/ERC20/ERC20.sol\":10155:10245  if (spender == address(0)) {... */\n      tag_181\n      jumpi\n        /* \"@openzeppelin/contracts/token/ERC20/ERC20.sol\":10231:10232  0 */\n      0x00\n        /* \"@openzeppelin/contracts/token/ERC20/ERC20.sol\":10203:10234  ERC20InvalidSpender(address(0)) */\n      mload(0x40)\n      0x94280d6200000000000000000000000000000000000000000000000000000000\n      dup2\n      mstore\n      0x04\n      add\n      tag_182\n      swap2\n      swap1\n      tag_30\n      jump\t// in\n    tag_182:\n      mload(0x40)\n      dup1\n      swap2\n      sub\n      swap1\n      revert\n        /* \"@openzeppelin/contracts/token/ERC20/ERC20.sol\":10155:10245  if (spender == address(0)) {... */\n    tag_181:\n        /* \"@openzeppelin/contracts/token/ERC20/ERC20.sol\":10284:10289  value */\n      dup2\n        /* \"@openzeppelin/contracts/token/ERC20/ERC20.sol\":10254:10265  _allowances */\n      0x01\n        /* \"@openzeppelin/contracts/token/ERC20/ERC20.sol\":10254:10272  _allowances[owner] */\n      0x00\n        /* \"@openzeppelin/contracts/token/ERC20/ERC20.sol\":10266:10271  owner */\n      dup7\n        /* \"@openzeppelin/contracts/token/ERC20/ERC20.sol\":10254:10272  _allowances[owner] */\n      0xffffffffffffffffffffffffffffffffffffffff\n      and\n      0xffffffffffffffffffffffffffffffffffffffff\n      and\n      dup2\n      mstore\n      0x20\n      add\n      swap1\n      dup2\n      mstore\n      0x20\n      add\n      0x00\n      keccak256\n        /* \"@openzeppelin/contracts/token/ERC20/ERC20.sol\":10254:10281  _allowances[owner][spender] */\n      0x00\n        /* \"@openzeppelin/contracts/token/ERC20/ERC20.sol\":10273:10280  spender */\n      dup6\n        /* \"@openzeppelin/contracts/token/ERC20/ERC20.sol\":10254:10281  _allowances[owner][spender] */\n      0xffffffffffffffffffffffffffffffffffffffff\n      and\n      0xffffffffffffffffffffffffffffffffffffffff\n      and\n      dup2\n      mstore\n      0x20\n      add\n      swap1\n      dup2\n      mstore\n      0x20\n      add\n      0x00\n      keccak256\n        /* \"@openzeppelin/contracts/token/ERC20/ERC20.sol\":10254:10289  _allowances[owner][spender] = value */\n      dup2\n      swap1\n      sstore\n      pop\n        /* \"@openzeppelin/contracts/token/ERC20/ERC20.sol\":10303:10312  emitEvent */\n      dup1\n        /* \"@openzeppelin/contracts/token/ERC20/ERC20.sol\":10299:10375  if (emitEvent) {... */\n      iszero\n      tag_183\n      jumpi\n        /* \"@openzeppelin/contracts/token/ERC20/ERC20.sol\":10349:10356  spender */\n      dup3\n        /* \"@openzeppelin/contracts/token/ERC20/ERC20.sol\":10333:10364  Approval(owner, spender, value) */\n      0xffffffffffffffffffffffffffffffffffffffff\n      and\n        /* \"@openzeppelin/contracts/token/ERC20/ERC20.sol\":10342:10347  owner */\n      dup5\n        /* \"@openzeppelin/contracts/token/ERC20/ERC20.sol\":10333:10364  Approval(owner, spender, value) */\n      0xffffffffffffffffffffffffffffffffffffffff\n      and\n      0x8c5be1e5ebec7d5bd14f71427d1e84f3dd0314c0f7b2291e5b200ac8c7c3b925\n        /* \"@openzeppelin/contracts/token/ERC20/ERC20.sol\":10358:10363  value */\n      dup5\n        /* \"@openzeppelin/contracts/token/ERC20/ERC20.sol\":10333:10364  Approval(owner, spender, value) */\n      mload(0x40)\n      tag_184\n      swap2\n      swap1\n      tag_40\n      jump\t// in\n    tag_184:\n      mload(0x40)\n      dup1\n      swap2\n      sub\n      swap1\n      log3\n        /* \"@openzeppelin/contracts/token/ERC20/ERC20.sol\":10299:10375  if (emitEvent) {... */\n    tag_183:\n        /* \"@openzeppelin/contracts/token/ERC20/ERC20.sol\":9949:10381  function _approve(address owner, address spender, uint256 value, bool emitEvent) internal virtual {... */\n      pop\n      pop\n      pop\n      pop\n      jump\t// out\n        /* \"@openzeppelin/contracts/token/ERC20/ERC20.sol\":6271:7378  function _update(address from, address to, uint256 value) internal virtual {... */\n    tag_173:\n        /* \"@openzeppelin/contracts/token/ERC20/ERC20.sol\":6376:6377  0 */\n      0x00\n        /* \"@openzeppelin/contracts/token/ERC20/ERC20.sol\":6360:6378  from == address(0) */\n      0xffffffffffffffffffffffffffffffffffffffff\n      and\n        /* \"@openzeppelin/contracts/token/ERC20/ERC20.sol\":6360:6364  from */\n      dup4\n        /* \"@openzeppelin/contracts/token/ERC20/ERC20.sol\":6360:6378  from == address(0) */\n      0xffffffffffffffffffffffffffffffffffffffff\n      and\n      sub\n        /* \"@openzeppelin/contracts/token/ERC20/ERC20.sol\":6356:6896  if (from == address(0)) {... */\n      tag_186\n      jumpi\n        /* \"@openzeppelin/contracts/token/ERC20/ERC20.sol\":6512:6517  value */\n      dup1\n        /* \"@openzeppelin/contracts/token/ERC20/ERC20.sol\":6496:6508  _totalSupply */\n      0x02\n      0x00\n        /* \"@openzeppelin/contracts/token/ERC20/ERC20.sol\":6496:6517  _totalSupply += value */\n      dup3\n      dup3\n      sload\n      tag_187\n      swap2\n      swap1\n      tag_144\n      jump\t// in\n    tag_187:\n      swap3\n      pop\n      pop\n      dup2\n      swap1\n      sstore\n      pop\n        /* \"@openzeppelin/contracts/token/ERC20/ERC20.sol\":6356:6896  if (from == address(0)) {... */\n      jump(tag_188)\n    tag_186:\n        /* \"@openzeppelin/contracts/token/ERC20/ERC20.sol\":6548:6567  uint256 fromBalance */\n      0x00\n        /* \"@openzeppelin/contracts/token/ERC20/ERC20.sol\":6570:6579  _balances */\n      dup1\n        /* \"@openzeppelin/contracts/token/ERC20/ERC20.sol\":6570:6585  _balances[from] */\n      0x00\n        /* \"@openzeppelin/contracts/token/ERC20/ERC20.sol\":6580:6584  from */\n      dup6\n        /* \"@openzeppelin/contracts/token/ERC20/ERC20.sol\":6570:6585  _balances[from] */\n      0xffffffffffffffffffffffffffffffffffffffff\n      and\n      0xffffffffffffffffffffffffffffffffffffffff\n      and\n      dup2\n      mstore\n      0x20\n      add\n      swap1\n      dup2\n      mstore\n      0x20\n      add\n      0x00\n      keccak256\n      sload\n        /* \"@openzeppelin/contracts/token/ERC20/ERC20.sol\":6548:6585  uint256 fromBalance = _balances[from] */\n      swap1\n      pop\n        /* \"@openzeppelin/contracts/token/ERC20/ERC20.sol\":6617:6622  value */\n      dup2\n        /* \"@openzeppelin/contracts/token/ERC20/ERC20.sol\":6603:6614  fromBalance */\n      dup2\n        /* \"@openzeppelin/contracts/token/ERC20/ERC20.sol\":6603:6622  fromBalance < value */\n      lt\n        /* \"@openzeppelin/contracts/token/ERC20/ERC20.sol\":6599:6714  if (fromBalance < value) {... */\n      iszero\n      tag_189\n      jumpi\n        /* \"@openzeppelin/contracts/token/ERC20/ERC20.sol\":6674:6678  from */\n      dup4\n        /* \"@openzeppelin/contracts/token/ERC20/ERC20.sol\":6680:6691  fromBalance */\n      dup2\n        /* \"@openzeppelin/contracts/token/ERC20/ERC20.sol\":6693:6698  value */\n      dup4\n        /* \"@openzeppelin/contracts/token/ERC20/ERC20.sol\":6649:6699  ERC20InsufficientBalance(from, fromBalance, value) */\n      mload(0x40)\n      0xe450d38c00000000000000000000000000000000000000000000000000000000\n      dup2\n      mstore\n      0x04\n      add\n      tag_190\n      swap4\n      swap3\n      swap2\n      swap1\n      tag_165\n      jump\t// in\n    tag_190:\n      mload(0x40)\n      dup1\n      swap2\n      sub\n      swap1\n      revert\n        /* \"@openzeppelin/contracts/token/ERC20/ERC20.sol\":6599:6714  if (fromBalance < value) {... */\n    tag_189:\n        /* \"@openzeppelin/contracts/token/ERC20/ERC20.sol\":6866:6871  value */\n      dup2\n        /* \"@openzeppelin/contracts/token/ERC20/ERC20.sol\":6852:6863  fromBalance */\n      dup2\n        /* \"@openzeppelin/contracts/token/ERC20/ERC20.sol\":6852:6871  fromBalance - value */\n      sub\n        /* \"@openzeppelin/contracts/token/ERC20/ERC20.sol\":6834:6843  _balances */\n      0x00\n        /* \"@openzeppelin/contracts/token/ERC20/ERC20.sol\":6834:6849  _balances[from] */\n      dup1\n        /* \"@openzeppelin/contracts/token/ERC20/ERC20.sol\":6844:6848  from */\n      dup7\n        /* \"@openzeppelin/contracts/token/ERC20/ERC20.sol\":6834:6849  _balances[from] */\n      0xffffffffffffffffffffffffffffffffffffffff\n      and\n      0xffffffffffffffffffffffffffffffffffffffff\n      and\n      dup2\n      mstore\n      0x20\n      add\n      swap1\n      dup2\n      mstore\n      0x20\n      add\n      0x00\n      keccak256\n        /* \"@openzeppelin/contracts/token/ERC20/ERC20.sol\":6834:6871  _balances[from] = fromBalance - value */\n      dup2\n      swap1\n      sstore\n      pop\n        /* \"@openzeppelin/contracts/token/ERC20/ERC20.sol\":6534:6896  {... */\n      pop\n        /* \"@openzeppelin/contracts/token/ERC20/ERC20.sol\":6356:6896  if (from == address(0)) {... */\n    tag_188:\n        /* \"@openzeppelin/contracts/token/ERC20/ERC20.sol\":6924:6925  0 */\n      0x00\n        /* \"@openzeppelin/contracts/token/ERC20/ERC20.sol\":6910:6926  to == address(0) */\n      0xffffffffffffffffffffffffffffffffffffffff\n      and\n        /* \"@openzeppelin/contracts/token/ERC20/ERC20.sol\":6910:6912  to */\n      dup3\n        /* \"@openzeppelin/contracts/token/ERC20/ERC20.sol\":6910:6926  to == address(0) */\n      0xffffffffffffffffffffffffffffffffffffffff\n      and\n      sub\n        /* \"@openzeppelin/contracts/token/ERC20/ERC20.sol\":6906:7331  if (to == address(0)) {... */\n      tag_191\n      jumpi\n        /* \"@openzeppelin/contracts/token/ERC20/ERC20.sol\":7089:7094  value */\n      dup1\n        /* \"@openzeppelin/contracts/token/ERC20/ERC20.sol\":7073:7085  _totalSupply */\n      0x02\n      0x00\n        /* \"@openzeppelin/contracts/token/ERC20/ERC20.sol\":7073:7094  _totalSupply -= value */\n      dup3\n      dup3\n      sload\n      sub\n      swap3\n      pop\n      pop\n      dup2\n      swap1\n      sstore\n      pop\n        /* \"@openzeppelin/contracts/token/ERC20/ERC20.sol\":6906:7331  if (to == address(0)) {... */\n      jump(tag_192)\n    tag_191:\n        /* \"@openzeppelin/contracts/token/ERC20/ERC20.sol\":7301:7306  value */\n      dup1\n        /* \"@openzeppelin/contracts/token/ERC20/ERC20.sol\":7284:7293  _balances */\n      0x00\n        /* \"@openzeppelin/contracts/token/ERC20/ERC20.sol\":7284:7297  _balances[to] */\n      dup1\n        /* \"@openzeppelin/contracts/token/ERC20/ERC20.sol\":7294:7296  to */\n      dup5\n        /* \"@openzeppelin/contracts/token/ERC20/ERC20.sol\":7284:7297  _balances[to] */\n      0xffffffffffffffffffffffffffffffffffffffff\n      and\n      0xffffffffffffffffffffffffffffffffffffffff\n      and\n      dup2\n      mstore\n      0x20\n      add\n      swap1\n      dup2\n      mstore\n      0x20\n      add\n      0x00\n      keccak256\n      0x00\n        /* \"@openzeppelin/contracts/token/ERC20/ERC20.sol\":7284:7306  _balances[to] += value */\n      dup3\n      dup3\n      sload\n      add\n      swap3\n      pop\n      pop\n      dup2\n      swap1\n      sstore\n      pop\n        /* \"@openzeppelin/contracts/token/ERC20/ERC20.sol\":6906:7331  if (to == address(0)) {... */\n    tag_192:\n        /* \"@openzeppelin/contracts/token/ERC20/ERC20.sol\":7361:7363  to */\n      dup2\n        /* \"@openzeppelin/contracts/token/ERC20/ERC20.sol\":7346:7371  Transfer(from, to, value) */\n      0xffffffffffffffffffffffffffffffffffffffff\n      and\n        /* \"@openzeppelin/contracts/token/ERC20/ERC20.sol\":7355:7359  from */\n      dup4\n        /* \"@openzeppelin/contracts/token/ERC20/ERC20.sol\":7346:7371  Transfer(from, to, value) */\n      0xffffffffffffffffffffffffffffffffffffffff\n      and\n      0xddf252ad1be2c89b69c2b068fc378daa952ba7f163c4a11628f55a4df523b3ef\n        /* \"@openzeppelin/contracts/token/ERC20/ERC20.sol\":7365:7370  value */\n      dup4\n        /* \"@openzeppelin/contracts/token/ERC20/ERC20.sol\":7346:7371  Transfer(from, to, value) */\n      mload(0x40)\n      tag_193\n      swap2\n      swap1\n      tag_40\n      jump\t// in\n    tag_193:\n      mload(0x40)\n      dup1\n      swap2\n      sub\n      swap1\n      log3\n        /* \"@openzeppelin/contracts/token/ERC20/ERC20.sol\":6271:7378  function _update(address from, address to, uint256 value) internal virtual {... */\n      pop\n      pop\n      pop\n      jump\t// out\n        /* \"#utility.yul\":7:106   */\n    tag_194:\n        /* \"#utility.yul\":59:65   */\n      0x00\n        /* \"#utility.yul\":93:98   */\n      dup2\n        /* \"#utility.yul\":87:99   */\n      mload\n        /* \"#utility.yul\":77:99   */\n      swap1\n      pop\n        /* \"#utility.yul\":7:106   */\n      swap2\n      swap1\n      pop\n      jump\t// out\n        /* \"#utility.yul\":112:281   */\n    tag_195:\n        /* \"#utility.yul\":196:207   */\n      0x00\n        /* \"#utility.yul\":230:236   */\n      dup3\n        /* \"#utility.yul\":225:228   */\n      dup3\n        /* \"#utility.yul\":218:237   */\n      mstore\n        /* \"#utility.yul\":270:274   */\n      0x20\n        /* \"#utility.yul\":265:268   */\n      dup3\n        /* \"#utility.yul\":261:275   */\n      add\n        /* \"#utility.yul\":246:275   */\n      swap1\n      pop\n        /* \"#utility.yul\":112:281   */\n      swap3\n      swap2\n      pop\n      pop\n      jump\t// out\n        /* \"#utility.yul\":287:426   */\n    tag_196:\n        /* \"#utility.yul\":376:382   */\n      dup3\n        /* \"#utility.yul\":371:374   */\n      dup2\n        /* \"#utility.yul\":366:369   */\n      dup4\n        /* \"#utility.yul\":360:383   */\n      mcopy\n        /* \"#utility.yul\":417:418   */\n      0x00\n        /* \"#utility.yul\":408:414   */\n      dup4\n        /* \"#utility.yul\":403:406   */\n      dup4\n        /* \"#utility.yul\":399:415   */\n      add\n        /* \"#utility.yul\":392:419   */\n      mstore\n        /* \"#utility.yul\":287:426   */\n      pop\n      pop\n      pop\n      jump\t// out\n        /* \"#utility.yul\":432:534   */\n    tag_197:\n        /* \"#utility.yul\":473:479   */\n      0x00\n        /* \"#utility.yul\":524:526   */\n      0x1f\n        /* \"#utility.yul\":520:527   */\n      not\n        /* \"#utility.yul\":515:517   */\n      0x1f\n        /* \"#utility.yul\":508:513   */\n      dup4\n        /* \"#utility.yul\":504:518   */\n      add\n        /* \"#utility.yul\":500:528   */\n      and\n        /* \"#utility.yul\":490:528   */\n      swap1\n      pop\n        /* \"#utility.yul\":432:534   */\n      swap2\n      swap1\n      pop\n      jump\t// out\n        /* \"#utility.yul\":540:917   */\n    tag_198:\n        /* \"#utility.yul\":628:631   */\n      0x00\n        /* \"#utility.yul\":656:695   */\n      tag_228\n        /* \"#utility.yul\":689:694   */\n      dup3\n        /* \"#utility.yul\":656:695   */\n      tag_194\n      jump\t// in\n    tag_228:\n        /* \"#utility.yul\":711:782   */\n      tag_229\n        /* \"#utility.yul\":775:781   */\n      dup2\n        /* \"#utility.yul\":770:773   */\n      dup6\n        /* \"#utility.yul\":711:782   */\n      tag_195\n      jump\t// in\n    tag_229:\n        /* \"#utility.yul\":704:782   */\n      swap4\n      pop\n        /* \"#utility.yul\":791:856   */\n      tag_230\n        /* \"#utility.yul\":849:855   */\n      dup2\n        /* \"#utility.yul\":844:847   */\n      dup6\n        /* \"#utility.yul\":837:841   */\n      0x20\n        /* \"#utility.yul\":830:835   */\n      dup7\n        /* \"#utility.yul\":826:842   */\n      add\n        /* \"#utility.yul\":791:856   */\n      tag_196\n      jump\t// in\n    tag_230:\n        /* \"#utility.yul\":881:910   */\n      tag_231\n        /* \"#utility.yul\":903:909   */\n      dup2\n        /* \"#utility.yul\":881:910   */\n      tag_197\n      jump\t// in\n    tag_231:\n        /* \"#utility.yul\":876:879   */\n      dup5\n        /* \"#utility.yul\":872:911   */\n      add\n        /* \"#utility.yul\":865:911   */\n      swap2\n      pop\n        /* \"#utility.yul\":632:917   */\n      pop\n        /* \"#utility.yul\":540:917   */\n      swap3\n      swap2\n      pop\n      pop\n      jump\t// out\n        /* \"#utility.yul\":923:1236   */\n    tag_26:\n        /* \"#utility.yul\":1036:1040   */\n      0x00\n        /* \"#utility.yul\":1074:1076   */\n      0x20\n        /* \"#utility.yul\":1063:1072   */\n      dup3\n        /* \"#utility.yul\":1059:1077   */\n      add\n        /* \"#utility.yul\":1051:1077   */\n      swap1\n      pop\n        /* \"#utility.yul\":1123:1132   */\n      dup2\n        /* \"#utility.yul\":1117:1121   */\n      dup2\n        /* \"#utility.yul\":1113:1133   */\n      sub\n        /* \"#utility.yul\":1109:1110   */\n      0x00\n        /* \"#utility.yul\":1098:1107   */\n      dup4\n        /* \"#utility.yul\":1094:1111   */\n      add\n        /* \"#utility.yul\":1087:1134   */\n      mstore\n        /* \"#utility.yul\":1151:1229   */\n      tag_233\n        /* \"#utility.yul\":1224:1228   */\n      dup2\n        /* \"#utility.yul\":1215:1221   */\n      dup5\n        /* \"#utility.yul\":1151:1229   */\n      tag_198\n      jump\t// in\n    tag_233:\n        /* \"#utility.yul\":1143:1229   */\n      swap1\n      pop\n        /* \"#utility.yul\":923:1236   */\n      swap3\n      swap2\n      pop\n      pop\n      jump\t// out\n        /* \"#utility.yul\":1242:1368   */\n    tag_199:\n        /* \"#utility.yul\":1279:1286   */\n      0x00\n        /* \"#utility.yul\":1319:1361   */\n      0xffffffffffffffffffffffffffffffffffffffff\n        /* \"#utility.yul\":1312:1317   */\n      dup3\n        /* \"#utility.yul\":1308:1362   */\n      and\n        /* \"#utility.yul\":1297:1362   */\n      swap1\n      pop\n        /* \"#utility.yul\":1242:1368   */\n      swap2\n      swap1\n      pop\n      jump\t// out\n        /* \"#utility.yul\":1374:1470   */\n    tag_200:\n        /* \"#utility.yul\":1411:1418   */\n      0x00\n        /* \"#utility.yul\":1440:1464   */\n      tag_236\n        /* \"#utility.yul\":1458:1463   */\n      dup3\n        /* \"#utility.yul\":1440:1464   */\n      tag_199\n      jump\t// in\n    tag_236:\n        /* \"#utility.yul\":1429:1464   */\n      swap1\n      pop\n        /* \"#utility.yul\":1374:1470   */\n      swap2\n      swap1\n      pop\n      jump\t// out\n        /* \"#utility.yul\":1476:1594   */\n    tag_201:\n        /* \"#utility.yul\":1563:1587   */\n      tag_238\n        /* \"#utility.yul\":1581:1586   */\n      dup2\n        /* \"#utility.yul\":1563:1587   */\n      tag_200\n      jump\t// in\n    tag_238:\n        /* \"#utility.yul\":1558:1561   */\n      dup3\n        /* \"#utility.yul\":1551:1588   */\n      mstore\n        /* \"#utility.yul\":1476:1594   */\n      pop\n      pop\n      jump\t// out\n        /* \"#utility.yul\":1600:1822   */\n    tag_30:\n        /* \"#utility.yul\":1693:1697   */\n      0x00\n        /* \"#utility.yul\":1731:1733   */\n      0x20\n        /* \"#utility.yul\":1720:1729   */\n      dup3\n        /* \"#utility.yul\":1716:1734   */\n      add\n        /* \"#utility.yul\":1708:1734   */\n      swap1\n      pop\n        /* \"#utility.yul\":1744:1815   */\n      tag_240\n        /* \"#utility.yul\":1812:1813   */\n      0x00\n        /* \"#utility.yul\":1801:1810   */\n      dup4\n        /* \"#utility.yul\":1797:1814   */\n      add\n        /* \"#utility.yul\":1788:1794   */\n      dup5\n        /* \"#utility.yul\":1744:1815   */\n      tag_201\n      jump\t// in\n    tag_240:\n        /* \"#utility.yul\":1600:1822   */\n      swap3\n      swap2\n      pop\n      pop\n      jump\t// out\n        /* \"#utility.yul\":1909:2026   */\n    tag_203:\n        /* \"#utility.yul\":2018:2019   */\n      0x00\n        /* \"#utility.yul\":2015:2016   */\n      dup1\n        /* \"#utility.yul\":2008:2020   */\n      revert\n        /* \"#utility.yul\":2155:2277   */\n    tag_205:\n        /* \"#utility.yul\":2228:2252   */\n      tag_245\n        /* \"#utility.yul\":2246:2251   */\n      dup2\n        /* \"#utility.yul\":2228:2252   */\n      tag_200\n      jump\t// in\n    tag_245:\n        /* \"#utility.yul\":2221:2226   */\n      dup2\n        /* \"#utility.yul\":2218:2253   */\n      eq\n        /* \"#utility.yul\":2208:2271   */\n      tag_246\n      jumpi\n        /* \"#utility.yul\":2267:2268   */\n      0x00\n        /* \"#utility.yul\":2264:2265   */\n      dup1\n        /* \"#utility.yul\":2257:2269   */\n      revert\n        /* \"#utility.yul\":2208:2271   */\n    tag_246:\n        /* \"#utility.yul\":2155:2277   */\n      pop\n      jump\t// out\n        /* \"#utility.yul\":2283:2422   */\n    tag_206:\n        /* \"#utility.yul\":2329:2334   */\n      0x00\n        /* \"#utility.yul\":2367:2373   */\n      dup2\n        /* \"#utility.yul\":2354:2374   */\n      calldataload\n        /* \"#utility.yul\":2345:2374   */\n      swap1\n      pop\n        /* \"#utility.yul\":2383:2416   */\n      tag_248\n        /* \"#utility.yul\":2410:2415   */\n      dup2\n        /* \"#utility.yul\":2383:2416   */\n      tag_205\n      jump\t// in\n    tag_248:\n        /* \"#utility.yul\":2283:2422   */\n      swap3\n      swap2\n      pop\n      pop\n      jump\t// out\n        /* \"#utility.yul\":2428:2505   */\n    tag_207:\n        /* \"#utility.yul\":2465:2472   */\n      0x00\n        /* \"#utility.yul\":2494:2499   */\n      dup2\n        /* \"#utility.yul\":2483:2499   */\n      swap1\n      pop\n        /* \"#utility.yul\":2428:2505   */\n      swap2\n      swap1\n      pop\n      jump\t// out\n        /* \"#utility.yul\":2511:2633   */\n    tag_208:\n        /* \"#utility.yul\":2584:2608   */\n      tag_251\n        /* \"#utility.yul\":2602:2607   */\n      dup2\n        /* \"#utility.yul\":2584:2608   */\n      tag_207\n      jump\t// in\n    tag_251:\n        /* \"#utility.yul\":2577:2582   */\n      dup2\n        /* \"#utility.yul\":2574:2609   */\n      eq\n        /* \"#utility.yul\":2564:2627   */\n      tag_252\n      jumpi\n        /* \"#utility.yul\":2623:2624   */\n      0x00\n        /* \"#utility.yul\":2620:2621   */\n      dup1\n        /* \"#utility.yul\":2613:2625   */\n      revert\n        /* \"#utility.yul\":2564:2627   */\n    tag_252:\n        /* \"#utility.yul\":2511:2633   */\n      pop\n      jump\t// out\n        /* \"#utility.yul\":2639:2778   */\n    tag_209:\n        /* \"#utility.yul\":2685:2690   */\n      0x00\n        /* \"#utility.yul\":2723:2729   */\n      dup2\n        /* \"#utility.yul\":2710:2730   */\n      calldataload\n        /* \"#utility.yul\":2701:2730   */\n      swap1\n      pop\n        /* \"#utility.yul\":2739:2772   */\n      tag_254\n        /* \"#utility.yul\":2766:2771   */\n      dup2\n        /* \"#utility.yul\":2739:2772   */\n      tag_208\n      jump\t// in\n    tag_254:\n        /* \"#utility.yul\":2639:2778   */\n      swap3\n      swap2\n      pop\n      pop\n      jump\t// out\n        /* \"#utility.yul\":2784:3258   */\n    tag_33:\n        /* \"#utility.yul\":2852:2858   */\n      0x00\n        /* \"#utility.yul\":2860:2866   */\n      dup1\n        /* \"#utility.yul\":2909:2911   */\n      0x40\n        /* \"#utility.yul\":2897:2906   */\n      dup4\n        /* \"#utility.yul\":2888:2895   */\n      dup6\n        /* \"#utility.yul\":2884:2907   */\n      sub\n        /* \"#utility.yul\":2880:2912   */\n      slt\n        /* \"#utility.yul\":2877:2996   */\n      iszero\n      tag_256\n      jumpi\n        /* \"#utility.yul\":2915:2994   */\n      tag_257\n      tag_203\n      jump\t// in\n    tag_257:\n        /* \"#utility.yul\":2877:2996   */\n    tag_256:\n        /* \"#utility.yul\":3035:3036   */\n      0x00\n        /* \"#utility.yul\":3060:3113   */\n      tag_258\n        /* \"#utility.yul\":3105:3112   */\n      dup6\n        /* \"#utility.yul\":3096:3102   */\n      dup3\n        /* \"#utility.yul\":3085:3094   */\n      dup7\n        /* \"#utility.yul\":3081:3103   */\n      add\n        /* \"#utility.yul\":3060:3113   */\n      tag_206\n      jump\t// in\n    tag_258:\n        /* \"#utility.yul\":3050:3113   */\n      swap3\n      pop\n        /* \"#utility.yul\":3006:3123   */\n      pop\n        /* \"#utility.yul\":3162:3164   */\n      0x20\n        /* \"#utility.yul\":3188:3241   */\n      tag_259\n        /* \"#utility.yul\":3233:3240   */\n      dup6\n        /* \"#utility.yul\":3224:3230   */\n      dup3\n        /* \"#utility.yul\":3213:3222   */\n      dup7\n        /* \"#utility.yul\":3209:3231   */\n      add\n        /* \"#utility.yul\":3188:3241   */\n      tag_209\n      jump\t// in\n    tag_259:\n        /* \"#utility.yul\":3178:3241   */\n      swap2\n      pop\n        /* \"#utility.yul\":3133:3251   */\n      pop\n        /* \"#utility.yul\":2784:3258   */\n      swap3\n      pop\n      swap3\n      swap1\n      pop\n      jump\t// out\n        /* \"#utility.yul\":3264:3354   */\n    tag_210:\n        /* \"#utility.yul\":3298:3305   */\n      0x00\n        /* \"#utility.yul\":3341:3346   */\n      dup2\n        /* \"#utility.yul\":3334:3347   */\n      iszero\n        /* \"#utility.yul\":3327:3348   */\n      iszero\n        /* \"#utility.yul\":3316:3348   */\n      swap1\n      pop\n        /* \"#utility.yul\":3264:3354   */\n      swap2\n      swap1\n      pop\n      jump\t// out\n        /* \"#utility.yul\":3360:3469   */\n    tag_211:\n        /* \"#utility.yul\":3441:3462   */\n      tag_262\n        /* \"#utility.yul\":3456:3461   */\n      dup2\n        /* \"#utility.yul\":3441:3462   */\n      tag_210\n      jump\t// in\n    tag_262:\n        /* \"#utility.yul\":3436:3439   */\n      dup3\n        /* \"#utility.yul\":3429:3463   */\n      mstore\n        /* \"#utility.yul\":3360:3469   */\n      pop\n      pop\n      jump\t// out\n        /* \"#utility.yul\":3475:3685   */\n    tag_36:\n        /* \"#utility.yul\":3562:3566   */\n      0x00\n        /* \"#utility.yul\":3600:3602   */\n      0x20\n        /* \"#utility.yul\":3589:3598   */\n      dup3\n        /* \"#utility.yul\":3585:3603   */\n      add\n        /* \"#utility.yul\":3577:3603   */\n      swap1\n      pop\n        /* \"#utility.yul\":3613:3678   */\n      tag_264\n        /* \"#utility.yul\":3675:3676   */\n      0x00\n        /* \"#utility.yul\":3664:3673   */\n      dup4\n        /* \"#utility.yul\":3660:3677   */\n      add\n        /* \"#utility.yul\":3651:3657   */\n      dup5\n        /* \"#utility.yul\":3613:3678   */\n      tag_211\n      jump\t// in\n    tag_264:\n        /* \"#utility.yul\":3475:3685   */\n      swap3\n      swap2\n      pop\n      pop\n      jump\t// out\n        /* \"#utility.yul\":3691:3809   */\n    tag_212:\n        /* \"#utility.yul\":3778:3802   */\n      tag_266\n        /* \"#utility.yul\":3796:3801   */\n      dup2\n        /* \"#utility.yul\":3778:3802   */\n      tag_207\n      jump\t// in\n    tag_266:\n        /* \"#utility.yul\":3773:3776   */\n      dup3\n        /* \"#utility.yul\":3766:3803   */\n      mstore\n        /* \"#utility.yul\":3691:3809   */\n      pop\n      pop\n      jump\t// out\n        /* \"#utility.yul\":3815:4037   */\n    tag_40:\n        /* \"#utility.yul\":3908:3912   */\n      0x00\n        /* \"#utility.yul\":3946:3948   */\n      0x20\n        /* \"#utility.yul\":3935:3944   */\n      dup3\n        /* \"#utility.yul\":3931:3949   */\n      add\n        /* \"#utility.yul\":3923:3949   */\n      swap1\n      pop\n        /* \"#utility.yul\":3959:4030   */\n      tag_268\n        /* \"#utility.yul\":4027:4028   */\n      0x00\n        /* \"#utility.yul\":4016:4025   */\n      dup4\n        /* \"#utility.yul\":4012:4029   */\n      add\n        /* \"#utility.yul\":4003:4009   */\n      dup5\n        /* \"#utility.yul\":3959:4030   */\n      tag_212\n      jump\t// in\n    tag_268:\n        /* \"#utility.yul\":3815:4037   */\n      swap3\n      swap2\n      pop\n      pop\n      jump\t// out\n        /* \"#utility.yul\":4043:4662   */\n    tag_43:\n        /* \"#utility.yul\":4120:4126   */\n      0x00\n        /* \"#utility.yul\":4128:4134   */\n      dup1\n        /* \"#utility.yul\":4136:4142   */\n      0x00\n        /* \"#utility.yul\":4185:4187   */\n      0x60\n        /* \"#utility.yul\":4173:4182   */\n      dup5\n        /* \"#utility.yul\":4164:4171   */\n      dup7\n        /* \"#utility.yul\":4160:4183   */\n      sub\n        /* \"#utility.yul\":4156:4188   */\n      slt\n        /* \"#utility.yul\":4153:4272   */\n      iszero\n      tag_270\n      jumpi\n        /* \"#utility.yul\":4191:4270   */\n      tag_271\n      tag_203\n      jump\t// in\n    tag_271:\n        /* \"#utility.yul\":4153:4272   */\n    tag_270:\n        /* \"#utility.yul\":4311:4312   */\n      0x00\n        /* \"#utility.yul\":4336:4389   */\n      tag_272\n        /* \"#utility.yul\":4381:4388   */\n      dup7\n        /* \"#utility.yul\":4372:4378   */\n      dup3\n        /* \"#utility.yul\":4361:4370   */\n      dup8\n        /* \"#utility.yul\":4357:4379   */\n      add\n        /* \"#utility.yul\":4336:4389   */\n      tag_206\n      jump\t// in\n    tag_272:\n        /* \"#utility.yul\":4326:4389   */\n      swap4\n      pop\n        /* \"#utility.yul\":4282:4399   */\n      pop\n        /* \"#utility.yul\":4438:4440   */\n      0x20\n        /* \"#utility.yul\":4464:4517   */\n      tag_273\n        /* \"#utility.yul\":4509:4516   */\n      dup7\n        /* \"#utility.yul\":4500:4506   */\n      dup3\n        /* \"#utility.yul\":4489:4498   */\n      dup8\n        /* \"#utility.yul\":4485:4507   */\n      add\n        /* \"#utility.yul\":4464:4517   */\n      tag_206\n      jump\t// in\n    tag_273:\n        /* \"#utility.yul\":4454:4517   */\n      swap3\n      pop\n        /* \"#utility.yul\":4409:4527   */\n      pop\n        /* \"#utility.yul\":4566:4568   */\n      0x40\n        /* \"#utility.yul\":4592:4645   */\n      tag_274\n        /* \"#utility.yul\":4637:4644   */\n      dup7\n        /* \"#utility.yul\":4628:4634   */\n      dup3\n        /* \"#utility.yul\":4617:4626   */\n      dup8\n        /* \"#utility.yul\":4613:4635   */\n      add\n        /* \"#utility.yul\":4592:4645   */\n      tag_209\n      jump\t// in\n    tag_274:\n        /* \"#utility.yul\":4582:4645   */\n      swap2\n      pop\n        /* \"#utility.yul\":4537:4655   */\n      pop\n        /* \"#utility.yul\":4043:4662   */\n      swap3\n      pop\n      swap3\n      pop\n      swap3\n      jump\t// out\n        /* \"#utility.yul\":4668:4997   */\n    tag_51:\n        /* \"#utility.yul\":4727:4733   */\n      0x00\n        /* \"#utility.yul\":4776:4778   */\n      0x20\n        /* \"#utility.yul\":4764:4773   */\n      dup3\n        /* \"#utility.yul\":4755:4762   */\n      dup5\n        /* \"#utility.yul\":4751:4774   */\n      sub\n        /* \"#utility.yul\":4747:4779   */\n      slt\n        /* \"#utility.yul\":4744:4863   */\n      iszero\n      tag_276\n      jumpi\n        /* \"#utility.yul\":4782:4861   */\n      tag_277\n      tag_203\n      jump\t// in\n    tag_277:\n        /* \"#utility.yul\":4744:4863   */\n    tag_276:\n        /* \"#utility.yul\":4902:4903   */\n      0x00\n        /* \"#utility.yul\":4927:4980   */\n      tag_278\n        /* \"#utility.yul\":4972:4979   */\n      dup5\n        /* \"#utility.yul\":4963:4969   */\n      dup3\n        /* \"#utility.yul\":4952:4961   */\n      dup6\n        /* \"#utility.yul\":4948:4970   */\n      add\n        /* \"#utility.yul\":4927:4980   */\n      tag_209\n      jump\t// in\n    tag_278:\n        /* \"#utility.yul\":4917:4980   */\n      swap2\n      pop\n        /* \"#utility.yul\":4873:4990   */\n      pop\n        /* \"#utility.yul\":4668:4997   */\n      swap3\n      swap2\n      pop\n      pop\n      jump\t// out\n        /* \"#utility.yul\":5003:5089   */\n    tag_213:\n        /* \"#utility.yul\":5038:5045   */\n      0x00\n        /* \"#utility.yul\":5078:5082   */\n      0xff\n        /* \"#utility.yul\":5071:5076   */\n      dup3\n        /* \"#utility.yul\":5067:5083   */\n      and\n        /* \"#utility.yul\":5056:5083   */\n      swap1\n      pop\n        /* \"#utility.yul\":5003:5089   */\n      swap2\n      swap1\n      pop\n      jump\t// out\n        /* \"#utility.yul\":5095:5207   */\n    tag_214:\n        /* \"#utility.yul\":5178:5200   */\n      tag_281\n        /* \"#utility.yul\":5194:5199   */\n      dup2\n        /* \"#utility.yul\":5178:5200   */\n      tag_213\n      jump\t// in\n    tag_281:\n        /* \"#utility.yul\":5173:5176   */\n      dup3\n        /* \"#utility.yul\":5166:5201   */\n      mstore\n        /* \"#utility.yul\":5095:5207   */\n      pop\n      pop\n      jump\t// out\n        /* \"#utility.yul\":5213:5427   */\n    tag_56:\n        /* \"#utility.yul\":5302:5306   */\n      0x00\n        /* \"#utility.yul\":5340:5342   */\n      0x20\n        /* \"#utility.yul\":5329:5338   */\n      dup3\n        /* \"#utility.yul\":5325:5343   */\n      add\n        /* \"#utility.yul\":5317:5343   */\n      swap1\n      pop\n        /* \"#utility.yul\":5353:5420   */\n      tag_283\n        /* \"#utility.yul\":5417:5418   */\n      0x00\n        /* \"#utility.yul\":5406:5415   */\n      dup4\n        /* \"#utility.yul\":5402:5419   */\n      add\n        /* \"#utility.yul\":5393:5399   */\n      dup5\n        /* \"#utility.yul\":5353:5420   */\n      tag_214\n      jump\t// in\n    tag_283:\n        /* \"#utility.yul\":5213:5427   */\n      swap3\n      swap2\n      pop\n      pop\n      jump\t// out\n        /* \"#utility.yul\":5433:5762   */\n    tag_59:\n        /* \"#utility.yul\":5492:5498   */\n      0x00\n        /* \"#utility.yul\":5541:5543   */\n      0x20\n        /* \"#utility.yul\":5529:5538   */\n      dup3\n        /* \"#utility.yul\":5520:5527   */\n      dup5\n        /* \"#utility.yul\":5516:5539   */\n      sub\n        /* \"#utility.yul\":5512:5544   */\n      slt\n        /* \"#utility.yul\":5509:5628   */\n      iszero\n      tag_285\n      jumpi\n        /* \"#utility.yul\":5547:5626   */\n      tag_286\n      tag_203\n      jump\t// in\n    tag_286:\n        /* \"#utility.yul\":5509:5628   */\n    tag_285:\n        /* \"#utility.yul\":5667:5668   */\n      0x00\n        /* \"#utility.yul\":5692:5745   */\n      tag_287\n        /* \"#utility.yul\":5737:5744   */\n      dup5\n        /* \"#utility.yul\":5728:5734   */\n      dup3\n        /* \"#utility.yul\":5717:5726   */\n      dup6\n        /* \"#utility.yul\":5713:5735   */\n      add\n        /* \"#utility.yul\":5692:5745   */\n      tag_206\n      jump\t// in\n    tag_287:\n        /* \"#utility.yul\":5682:5745   */\n      swap2\n      pop\n        /* \"#utility.yul\":5638:5755   */\n      pop\n        /* \"#utility.yul\":5433:5762   */\n      swap3\n      swap2\n      pop\n      pop\n      jump\t// out\n        /* \"#utility.yul\":5768:6242   */\n    tag_81:\n        /* \"#utility.yul\":5836:5842   */\n      0x00\n        /* \"#utility.yul\":5844:5850   */\n      dup1\n        /* \"#utility.yul\":5893:5895   */\n      0x40\n        /* \"#utility.yul\":5881:5890   */\n      dup4\n        /* \"#utility.yul\":5872:5879   */\n      dup6\n        /* \"#utility.yul\":5868:5891   */\n      sub\n        /* \"#utility.yul\":5864:5896   */\n      slt\n        /* \"#utility.yul\":5861:5980   */\n      iszero\n      tag_289\n      jumpi\n        /* \"#utility.yul\":5899:5978   */\n      tag_290\n      tag_203\n      jump\t// in\n    tag_290:\n        /* \"#utility.yul\":5861:5980   */\n    tag_289:\n        /* \"#utility.yul\":6019:6020   */\n      0x00\n        /* \"#utility.yul\":6044:6097   */\n      tag_291\n        /* \"#utility.yul\":6089:6096   */\n      dup6\n        /* \"#utility.yul\":6080:6086   */\n      dup3\n        /* \"#utility.yul\":6069:6078   */\n      dup7\n        /* \"#utility.yul\":6065:6087   */\n      add\n        /* \"#utility.yul\":6044:6097   */\n      tag_206\n      jump\t// in\n    tag_291:\n        /* \"#utility.yul\":6034:6097   */\n      swap3\n      pop\n        /* \"#utility.yul\":5990:6107   */\n      pop\n        /* \"#utility.yul\":6146:6148   */\n      0x20\n        /* \"#utility.yul\":6172:6225   */\n      tag_292\n        /* \"#utility.yul\":6217:6224   */\n      dup6\n        /* \"#utility.yul\":6208:6214   */\n      dup3\n        /* \"#utility.yul\":6197:6206   */\n      dup7\n        /* \"#utility.yul\":6193:6215   */\n      add\n        /* \"#utility.yul\":6172:6225   */\n      tag_206\n      jump\t// in\n    tag_292:\n        /* \"#utility.yul\":6162:6225   */\n      swap2\n      pop\n        /* \"#utility.yul\":6117:6235   */\n      pop\n        /* \"#utility.yul\":5768:6242   */\n      swap3\n      pop\n      swap3\n      swap1\n      pop\n      jump\t// out\n        /* \"#utility.yul\":6248:6428   */\n    tag_215:\n        /* \"#utility.yul\":6296:6373   */\n      0x4e487b7100000000000000000000000000000000000000000000000000000000\n        /* \"#utility.yul\":6293:6294   */\n      0x00\n        /* \"#utility.yul\":6286:6374   */\n      mstore\n        /* \"#utility.yul\":6393:6397   */\n      0x22\n        /* \"#utility.yul\":6390:6391   */\n      0x04\n        /* \"#utility.yul\":6383:6398   */\n      mstore\n        /* \"#utility.yul\":6417:6421   */\n      0x24\n        /* \"#utility.yul\":6414:6415   */\n      0x00\n        /* \"#utility.yul\":6407:6422   */\n      revert\n        /* \"#utility.yul\":6434:6754   */\n    tag_92:\n        /* \"#utility.yul\":6478:6484   */\n      0x00\n        /* \"#utility.yul\":6515:6516   */\n      0x02\n        /* \"#utility.yul\":6509:6513   */\n      dup3\n        /* \"#utility.yul\":6505:6517   */\n      div\n        /* \"#utility.yul\":6495:6517   */\n      swap1\n      pop\n        /* \"#utility.yul\":6562:6563   */\n      0x01\n        /* \"#utility.yul\":6556:6560   */\n      dup3\n        /* \"#utility.yul\":6552:6564   */\n      and\n        /* \"#utility.yul\":6583:6601   */\n      dup1\n        /* \"#utility.yul\":6573:6654   */\n      tag_295\n      jumpi\n        /* \"#utility.yul\":6639:6643   */\n      0x7f\n        /* \"#utility.yul\":6631:6637   */\n      dup3\n        /* \"#utility.yul\":6627:6644   */\n      and\n        /* \"#utility.yul\":6617:6644   */\n      swap2\n      pop\n        /* \"#utility.yul\":6573:6654   */\n    tag_295:\n        /* \"#utility.yul\":6701:6703   */\n      0x20\n        /* \"#utility.yul\":6693:6699   */\n      dup3\n        /* \"#utility.yul\":6690:6704   */\n      lt\n        /* \"#utility.yul\":6670:6688   */\n      dup2\n        /* \"#utility.yul\":6667:6705   */\n      sub\n        /* \"#utility.yul\":6664:6748   */\n      tag_296\n      jumpi\n        /* \"#utility.yul\":6720:6738   */\n      tag_297\n      tag_215\n      jump\t// in\n    tag_297:\n        /* \"#utility.yul\":6664:6748   */\n    tag_296:\n        /* \"#utility.yul\":6485:6754   */\n      pop\n        /* \"#utility.yul\":6434:6754   */\n      swap2\n      swap1\n      pop\n      jump\t// out\n        /* \"#utility.yul\":6760:6939   */\n    tag_216:\n        /* \"#utility.yul\":6900:6931   */\n      0x4f6e6c792061646d696e2063616e206d616b6520746869732063616c6c000000\n        /* \"#utility.yul\":6896:6897   */\n      0x00\n        /* \"#utility.yul\":6888:6894   */\n      dup3\n        /* \"#utility.yul\":6884:6898   */\n      add\n        /* \"#utility.yul\":6877:6932   */\n      mstore\n        /* \"#utility.yul\":6760:6939   */\n      pop\n      jump\t// out\n        /* \"#utility.yul\":6945:7311   */\n    tag_217:\n        /* \"#utility.yul\":7087:7090   */\n      0x00\n        /* \"#utility.yul\":7108:7175   */\n      tag_300\n        /* \"#utility.yul\":7172:7174   */\n      0x1d\n        /* \"#utility.yul\":7167:7170   */\n      dup4\n        /* \"#utility.yul\":7108:7175   */\n      tag_195\n      jump\t// in\n    tag_300:\n        /* \"#utility.yul\":7101:7175   */\n      swap2\n      pop\n        /* \"#utility.yul\":7184:7277   */\n      tag_301\n        /* \"#utility.yul\":7273:7276   */\n      dup3\n        /* \"#utility.yul\":7184:7277   */\n      tag_216\n      jump\t// in\n    tag_301:\n        /* \"#utility.yul\":7302:7304   */\n      0x20\n        /* \"#utility.yul\":7297:7300   */\n      dup3\n        /* \"#utility.yul\":7293:7305   */\n      add\n        /* \"#utility.yul\":7286:7305   */\n      swap1\n      pop\n        /* \"#utility.yul\":6945:7311   */\n      swap2\n      swap1\n      pop\n      jump\t// out\n        /* \"#utility.yul\":7317:7736   */\n    tag_113:\n        /* \"#utility.yul\":7483:7487   */\n      0x00\n        /* \"#utility.yul\":7521:7523   */\n      0x20\n        /* \"#utility.yul\":7510:7519   */\n      dup3\n        /* \"#utility.yul\":7506:7524   */\n      add\n        /* \"#utility.yul\":7498:7524   */\n      swap1\n      pop\n        /* \"#utility.yul\":7570:7579   */\n      dup2\n        /* \"#utility.yul\":7564:7568   */\n      dup2\n        /* \"#utility.yul\":7560:7580   */\n      sub\n        /* \"#utility.yul\":7556:7557   */\n      0x00\n        /* \"#utility.yul\":7545:7554   */\n      dup4\n        /* \"#utility.yul\":7541:7558   */\n      add\n        /* \"#utility.yul\":7534:7581   */\n      mstore\n        /* \"#utility.yul\":7598:7729   */\n      tag_303\n        /* \"#utility.yul\":7724:7728   */\n      dup2\n        /* \"#utility.yul\":7598:7729   */\n      tag_217\n      jump\t// in\n    tag_303:\n        /* \"#utility.yul\":7590:7729   */\n      swap1\n      pop\n        /* \"#utility.yul\":7317:7736   */\n      swap2\n      swap1\n      pop\n      jump\t// out\n        /* \"#utility.yul\":7742:7922   */\n    tag_218:\n        /* \"#utility.yul\":7882:7914   */\n      0x4f6e6c79206d696e7465722063616e206d616b6520746869732063616c6c0000\n        /* \"#utility.yul\":7878:7879   */\n      0x00\n        /* \"#utility.yul\":7870:7876   */\n      dup3\n        /* \"#utility.yul\":7866:7880   */\n      add\n        /* \"#utility.yul\":7859:7915   */\n      mstore\n        /* \"#utility.yul\":7742:7922   */\n      pop\n      jump\t// out\n        /* \"#utility.yul\":7928:8294   */\n    tag_219:\n        /* \"#utility.yul\":8070:8073   */\n      0x00\n        /* \"#utility.yul\":8091:8158   */\n      tag_306\n        /* \"#utility.yul\":8155:8157   */\n      0x1e\n        /* \"#utility.yul\":8150:8153   */\n      dup4\n        /* \"#utility.yul\":8091:8158   */\n      tag_195\n      jump\t// in\n    tag_306:\n        /* \"#utility.yul\":8084:8158   */\n      swap2\n      pop\n        /* \"#utility.yul\":8167:8260   */\n      tag_307\n        /* \"#utility.yul\":8256:8259   */\n      dup3\n        /* \"#utility.yul\":8167:8260   */\n      tag_218\n      jump\t// in\n    tag_307:\n        /* \"#utility.yul\":8285:8287   */\n      0x20\n        /* \"#utility.yul\":8280:8283   */\n      dup3\n        /* \"#utility.yul\":8276:8288   */\n      add\n        /* \"#utility.yul\":8269:8288   */\n      swap1\n      pop\n        /* \"#utility.yul\":7928:8294   */\n      swap2\n      swap1\n      pop\n      jump\t// out\n        /* \"#utility.yul\":8300:8719   */\n    tag_135:\n        /* \"#utility.yul\":8466:8470   */\n      0x00\n        /* \"#utility.yul\":8504:8506   */\n      0x20\n        /* \"#utility.yul\":8493:8502   */\n      dup3\n        /* \"#utility.yul\":8489:8507   */\n      add\n        /* \"#utility.yul\":8481:8507   */\n      swap1\n      pop\n        /* \"#utility.yul\":8553:8562   */\n      dup2\n        /* \"#utility.yul\":8547:8551   */\n      dup2\n        /* \"#utility.yul\":8543:8563   */\n      sub\n        /* \"#utility.yul\":8539:8540   */\n      0x00\n        /* \"#utility.yul\":8528:8537   */\n      dup4\n        /* \"#utility.yul\":8524:8541   */\n      add\n        /* \"#utility.yul\":8517:8564   */\n      mstore\n        /* \"#utility.yul\":8581:8712   */\n      tag_309\n        /* \"#utility.yul\":8707:8711   */\n      dup2\n        /* \"#utility.yul\":8581:8712   */\n      tag_219\n      jump\t// in\n    tag_309:\n        /* \"#utility.yul\":8573:8712   */\n      swap1\n      pop\n        /* \"#utility.yul\":8300:8719   */\n      swap2\n      swap1\n      pop\n      jump\t// out\n        /* \"#utility.yul\":8725:8868   */\n    tag_220:\n        /* \"#utility.yul\":8782:8787   */\n      0x00\n        /* \"#utility.yul\":8813:8819   */\n      dup2\n        /* \"#utility.yul\":8807:8820   */\n      mload\n        /* \"#utility.yul\":8798:8820   */\n      swap1\n      pop\n        /* \"#utility.yul\":8829:8862   */\n      tag_311\n        /* \"#utility.yul\":8856:8861   */\n      dup2\n        /* \"#utility.yul\":8829:8862   */\n      tag_208\n      jump\t// in\n    tag_311:\n        /* \"#utility.yul\":8725:8868   */\n      swap3\n      swap2\n      pop\n      pop\n      jump\t// out\n        /* \"#utility.yul\":8874:9225   */\n    tag_141:\n        /* \"#utility.yul\":8944:8950   */\n      0x00\n        /* \"#utility.yul\":8993:8995   */\n      0x20\n        /* \"#utility.yul\":8981:8990   */\n      dup3\n        /* \"#utility.yul\":8972:8979   */\n      dup5\n        /* \"#utility.yul\":8968:8991   */\n      sub\n        /* \"#utility.yul\":8964:8996   */\n      slt\n        /* \"#utility.yul\":8961:9080   */\n      iszero\n      tag_313\n      jumpi\n        /* \"#utility.yul\":8999:9078   */\n      tag_314\n      tag_203\n      jump\t// in\n    tag_314:\n        /* \"#utility.yul\":8961:9080   */\n    tag_313:\n        /* \"#utility.yul\":9119:9120   */\n      0x00\n        /* \"#utility.yul\":9144:9208   */\n      tag_315\n        /* \"#utility.yul\":9200:9207   */\n      dup5\n        /* \"#utility.yul\":9191:9197   */\n      dup3\n        /* \"#utility.yul\":9180:9189   */\n      dup6\n        /* \"#utility.yul\":9176:9198   */\n      add\n        /* \"#utility.yul\":9144:9208   */\n      tag_220\n      jump\t// in\n    tag_315:\n        /* \"#utility.yul\":9134:9208   */\n      swap2\n      pop\n        /* \"#utility.yul\":9090:9218   */\n      pop\n        /* \"#utility.yul\":8874:9225   */\n      swap3\n      swap2\n      pop\n      pop\n      jump\t// out\n        /* \"#utility.yul\":9231:9411   */\n    tag_221:\n        /* \"#utility.yul\":9279:9356   */\n      0x4e487b7100000000000000000000000000000000000000000000000000000000\n        /* \"#utility.yul\":9276:9277   */\n      0x00\n        /* \"#utility.yul\":9269:9357   */\n      mstore\n        /* \"#utility.yul\":9376:9380   */\n      0x11\n        /* \"#utility.yul\":9373:9374   */\n      0x04\n        /* \"#utility.yul\":9366:9381   */\n      mstore\n        /* \"#utility.yul\":9400:9404   */\n      0x24\n        /* \"#utility.yul\":9397:9398   */\n      0x00\n        /* \"#utility.yul\":9390:9405   */\n      revert\n        /* \"#utility.yul\":9417:9608   */\n    tag_144:\n        /* \"#utility.yul\":9457:9460   */\n      0x00\n        /* \"#utility.yul\":9476:9496   */\n      tag_318\n        /* \"#utility.yul\":9494:9495   */\n      dup3\n        /* \"#utility.yul\":9476:9496   */\n      tag_207\n      jump\t// in\n    tag_318:\n        /* \"#utility.yul\":9471:9496   */\n      swap2\n      pop\n        /* \"#utility.yul\":9510:9530   */\n      tag_319\n        /* \"#utility.yul\":9528:9529   */\n      dup4\n        /* \"#utility.yul\":9510:9530   */\n      tag_207\n      jump\t// in\n    tag_319:\n        /* \"#utility.yul\":9505:9530   */\n      swap3\n      pop\n        /* \"#utility.yul\":9553:9554   */\n      dup3\n        /* \"#utility.yul\":9550:9551   */\n      dup3\n        /* \"#utility.yul\":9546:9555   */\n      add\n        /* \"#utility.yul\":9539:9555   */\n      swap1\n      pop\n        /* \"#utility.yul\":9574:9577   */\n      dup1\n        /* \"#utility.yul\":9571:9572   */\n      dup3\n        /* \"#utility.yul\":9568:9578   */\n      gt\n        /* \"#utility.yul\":9565:9601   */\n      iszero\n      tag_320\n      jumpi\n        /* \"#utility.yul\":9581:9599   */\n      tag_321\n      tag_221\n      jump\t// in\n    tag_321:\n        /* \"#utility.yul\":9565:9601   */\n    tag_320:\n        /* \"#utility.yul\":9417:9608   */\n      swap3\n      swap2\n      pop\n      pop\n      jump\t// out\n        /* \"#utility.yul\":9614:9808   */\n    tag_147:\n        /* \"#utility.yul\":9654:9658   */\n      0x00\n        /* \"#utility.yul\":9674:9694   */\n      tag_323\n        /* \"#utility.yul\":9692:9693   */\n      dup3\n        /* \"#utility.yul\":9674:9694   */\n      tag_207\n      jump\t// in\n    tag_323:\n        /* \"#utility.yul\":9669:9694   */\n      swap2\n      pop\n        /* \"#utility.yul\":9708:9728   */\n      tag_324\n        /* \"#utility.yul\":9726:9727   */\n      dup4\n        /* \"#utility.yul\":9708:9728   */\n      tag_207\n      jump\t// in\n    tag_324:\n        /* \"#utility.yul\":9703:9728   */\n      swap3\n      pop\n        /* \"#utility.yul\":9752:9753   */\n      dup3\n        /* \"#utility.yul\":9749:9750   */\n      dup3\n        /* \"#utility.yul\":9745:9754   */\n      sub\n        /* \"#utility.yul\":9737:9754   */\n      swap1\n      pop\n        /* \"#utility.yul\":9776:9777   */\n      dup2\n        /* \"#utility.yul\":9770:9774   */\n      dup2\n        /* \"#utility.yul\":9767:9778   */\n      gt\n        /* \"#utility.yul\":9764:9801   */\n      iszero\n      tag_325\n      jumpi\n        /* \"#utility.yul\":9781:9799   */\n      tag_326\n      tag_221\n      jump\t// in\n    tag_326:\n        /* \"#utility.yul\":9764:9801   */\n    tag_325:\n        /* \"#utility.yul\":9614:9808   */\n      swap3\n      swap2\n      pop\n      pop\n      jump\t// out\n        /* \"#utility.yul\":9814:10256   */\n    tag_165:\n        /* \"#utility.yul\":9963:9967   */\n      0x00\n        /* \"#utility.yul\":10001:10003   */\n      0x60\n        /* \"#utility.yul\":9990:9999   */\n      dup3\n        /* \"#utility.yul\":9986:10004   */\n      add\n        /* \"#utility.yul\":9978:10004   */\n      swap1\n      pop\n        /* \"#utility.yul\":10014:10085   */\n      tag_328\n        /* \"#utility.yul\":10082:10083   */\n      0x00\n        /* \"#utility.yul\":10071:10080   */\n      dup4\n        /* \"#utility.yul\":10067:10084   */\n      add\n        /* \"#utility.yul\":10058:10064   */\n      dup7\n        /* \"#utility.yul\":10014:10085   */\n      tag_201\n      jump\t// in\n    tag_328:\n        /* \"#utility.yul\":10095:10167   */\n      tag_329\n        /* \"#utility.yul\":10163:10165   */\n      0x20\n        /* \"#utility.yul\":10152:10161   */\n      dup4\n        /* \"#utility.yul\":10148:10166   */\n      add\n        /* \"#utility.yul\":10139:10145   */\n      dup6\n        /* \"#utility.yul\":10095:10167   */\n      tag_212\n      jump\t// in\n    tag_329:\n        /* \"#utility.yul\":10177:10249   */\n      tag_330\n        /* \"#utility.yul\":10245:10247   */\n      0x40\n        /* \"#utility.yul\":10234:10243   */\n      dup4\n        /* \"#utility.yul\":10230:10248   */\n      add\n        /* \"#utility.yul\":10221:10227   */\n      dup5\n        /* \"#utility.yul\":10177:10249   */\n      tag_212\n      jump\t// in\n    tag_330:\n        /* \"#utility.yul\":9814:10256   */\n      swap5\n      swap4\n      pop\n      pop\n      pop\n      pop\n      jump\t// out\n\n    auxdata: 0xa26469706673582212204633b8cdcafb9dd79d58abb12baa8c6946b31aafb390d14e92e17f009de5327564736f6c634300081a0033\n}\n",
				"bytecode": {
					"linkReferences": {},
					"object": "608060405234801561000f575f80fd5b5060405161238238038061238283398181016040528101906100319190610744565b888881600390816100429190610a44565b5080600490816100529190610a44565b5050506c0100000000000000000000000086106100a4576040517f08c379a000000000000000000000000000000000000000000000000000000000815260040161009b90610b6d565b60405180910390fd5b858211156100e7576040517f08c379a00000000000000000000000000000000000000000000000000000000081526004016100de90610bfb565b60405180910390fd5b8660055f6101000a81548160ff021916908360ff160217905550856007819055508460085f6101000a81548173ffffffffffffffffffffffffffffffffffffffff021916908373ffffffffffffffffffffffffffffffffffffffff160217905550836006819055508060095f6101000a81548173ffffffffffffffffffffffffffffffffffffffff021916908373ffffffffffffffffffffffffffffffffffffffff16021790555061019f838361029660201b60201c565b7f94a0a7c0a7a455351029a521046d4438bc63e58a1ee8d984d624eb3161583b2c60085f9054906101000a900473ffffffffffffffffffffffffffffffffffffffff166040516101ef9190610c28565b60405180910390a17fbfc8d7754fec5096becc28e0816011e8d0adcfe752ffa1c88924a7f88b00a41d60095f9054906101000a900473ffffffffffffffffffffffffffffffffffffffff166040516102479190610c28565b60405180910390a17fd65d781db82f0bd55f732ea1b96f4c6565750df815c18a70962cd8405274e2436006546040516102809190610c50565b60405180910390a1505050505050505050610cfe565b5f73ffffffffffffffffffffffffffffffffffffffff168273ffffffffffffffffffffffffffffffffffffffff1603610306575f6040517fec442f050000000000000000000000000000000000000000000000000000000081526004016102fd9190610c28565b60405180910390fd5b6103175f838361031b60201b60201c565b5050565b5f73ffffffffffffffffffffffffffffffffffffffff168373ffffffffffffffffffffffffffffffffffffffff160361036b578060025f82825461035f9190610c96565b92505081905550610439565b5f805f8573ffffffffffffffffffffffffffffffffffffffff1673ffffffffffffffffffffffffffffffffffffffff1681526020019081526020015f20549050818110156103f4578381836040517fe450d38c0000000000000000000000000000000000000000000000000000000081526004016103eb93929190610cc9565b60405180910390fd5b8181035f808673ffffffffffffffffffffffffffffffffffffffff1673ffffffffffffffffffffffffffffffffffffffff1681526020019081526020015f2081905550505b5f73ffffffffffffffffffffffffffffffffffffffff168273ffffffffffffffffffffffffffffffffffffffff1603610480578060025f82825403925050819055506104ca565b805f808473ffffffffffffffffffffffffffffffffffffffff1673ffffffffffffffffffffffffffffffffffffffff1681526020019081526020015f205f82825401925050819055505b8173ffffffffffffffffffffffffffffffffffffffff168373ffffffffffffffffffffffffffffffffffffffff167fddf252ad1be2c89b69c2b068fc378daa952ba7f163c4a11628f55a4df523b3ef836040516105279190610c50565b60405180910390a3505050565b5f604051905090565b5f80fd5b5f80fd5b5f80fd5b5f80fd5b5f601f19601f8301169050919050565b7f4e487b71000000000000000000000000000000000000000000000000000000005f52604160045260245ffd5b6105938261054d565b810181811067ffffffffffffffff821117156105b2576105b161055d565b5b80604052505050565b5f6105c4610534565b90506105d0828261058a565b919050565b5f67ffffffffffffffff8211156105ef576105ee61055d565b5b6105f88261054d565b9050602081019050919050565b8281835e5f83830152505050565b5f610625610620846105d5565b6105bb565b90508281526020810184848401111561064157610640610549565b5b61064c848285610605565b509392505050565b5f82601f83011261066857610667610545565b5b8151610678848260208601610613565b91505092915050565b5f60ff82169050919050565b61069681610681565b81146106a0575f80fd5b50565b5f815190506106b18161068d565b92915050565b5f819050919050565b6106c9816106b7565b81146106d3575f80fd5b50565b5f815190506106e4816106c0565b92915050565b5f73ffffffffffffffffffffffffffffffffffffffff82169050919050565b5f610713826106ea565b9050919050565b61072381610709565b811461072d575f80fd5b50565b5f8151905061073e8161071a565b92915050565b5f805f805f805f805f6101208a8c0312156107625761076161053d565b5b5f8a015167ffffffffffffffff81111561077f5761077e610541565b5b61078b8c828d01610654565b99505060208a015167ffffffffffffffff8111156107ac576107ab610541565b5b6107b88c828d01610654565b98505060406107c98c828d016106a3565b97505060606107da8c828d016106d6565b96505060806107eb8c828d01610730565b95505060a06107fc8c828d016106d6565b94505060c061080d8c828d01610730565b93505060e061081e8c828d016106d6565b9250506101006108308c828d01610730565b9150509295985092959850929598565b5f81519050919050565b7f4e487b71000000000000000000000000000000000000000000000000000000005f52602260045260245ffd5b5f600282049050600182168061088e57607f821691505b6020821081036108a1576108a061084a565b5b50919050565b5f819050815f5260205f209050919050565b5f6020601f8301049050919050565b5f82821b905092915050565b5f600883026109037fffffffffffffffffffffffffffffffffffffffffffffffffffffffffffffffff826108c8565b61090d86836108c8565b95508019841693508086168417925050509392505050565b5f819050919050565b5f61094861094361093e846106b7565b610925565b6106b7565b9050919050565b5f819050919050565b6109618361092e565b61097561096d8261094f565b8484546108d4565b825550505050565b5f90565b61098961097d565b610994818484610958565b505050565b5b818110156109b7576109ac5f82610981565b60018101905061099a565b5050565b601f8211156109fc576109cd816108a7565b6109d6846108b9565b810160208510156109e5578190505b6109f96109f1856108b9565b830182610999565b50505b505050565b5f82821c905092915050565b5f610a1c5f1984600802610a01565b1980831691505092915050565b5f610a348383610a0d565b9150826002028217905092915050565b610a4d82610840565b67ffffffffffffffff811115610a6657610a6561055d565b5b610a708254610877565b610a7b8282856109bb565b5f60209050601f831160018114610aac575f8415610a9a578287015190505b610aa48582610a29565b865550610b0b565b601f198416610aba866108a7565b5f5b82811015610ae157848901518255600182019150602085019450602081019050610abc565b86831015610afe5784890151610afa601f891682610a0d565b8355505b6001600288020188555050505b505050505050565b5f82825260208201905092915050565b7f6d6178537570706c7920746f6f206c61726765000000000000000000000000005f82015250565b5f610b57601383610b13565b9150610b6282610b23565b602082019050919050565b5f6020820190508181035f830152610b8481610b4b565b9050919050565b7f696e697469616c20737570706c792073686f756c64206e6f74206578636565645f8201527f20746865206d617820737570706c790000000000000000000000000000000000602082015250565b5f610be5602f83610b13565b9150610bf082610b8b565b604082019050919050565b5f6020820190508181035f830152610c1281610bd9565b9050919050565b610c2281610709565b82525050565b5f602082019050610c3b5f830184610c19565b92915050565b610c4a816106b7565b82525050565b5f602082019050610c635f830184610c41565b92915050565b7f4e487b71000000000000000000000000000000000000000000000000000000005f52601160045260245ffd5b5f610ca0826106b7565b9150610cab836106b7565b9250828201905080821115610cc357610cc2610c69565b5b92915050565b5f606082019050610cdc5f830186610c19565b610ce96020830185610c41565b610cf66040830184610c41565b949350505050565b61167780610d0b5f395ff3fe608060405234801561000f575f80fd5b5060043610610109575f3560e01c80634eb03f6e116100a0578063ab8e786f1161006f578063ab8e786f146102b9578063d5abeb01146102e9578063dd62ed3e14610307578063e2f273bd14610337578063f851a4401461035357610109565b80634eb03f6e1461021f57806370a082311461023b57806395d89b411461026b578063a9059cbb1461028957610109565b806323b872dd116100dc57806323b872dd1461019757806324e770d0146101c757806329fb7ef6146101e5578063313ce5671461020157610109565b806306fdde031461010d578063075461721461012b578063095ea7b31461014957806318160ddd14610179575b5f80fd5b610115610371565b6040516101229190611183565b60405180910390f35b610133610401565b60405161014091906111e2565b60405180910390f35b610163600480360381019061015e919061125c565b610426565b60405161017091906112b4565b60405180910390f35b610181610448565b60405161018e91906112dc565b60405180910390f35b6101b160048036038101906101ac91906112f5565b610451565b6040516101be91906112b4565b60405180910390f35b6101cf61047f565b6040516101dc91906112dc565b60405180910390f35b6101ff60048036038101906101fa9190611345565b610488565b005b61020961055a565b604051610216919061138b565b60405180910390f35b610239600480360381019061023491906113a4565b61056f565b005b610255600480360381019061025091906113a4565b610699565b60405161026291906112dc565b60405180910390f35b6102736106de565b6040516102809190611183565b60405180910390f35b6102a3600480360381019061029e919061125c565b61076e565b6040516102b091906112b4565b60405180910390f35b6102d360048036038101906102ce919061125c565b610790565b6040516102e091906112b4565b60405180910390f35b6102f161093a565b6040516102fe91906112dc565b60405180910390f35b610321600480360381019061031c91906113cf565b610940565b60405161032e91906112dc565b60405180910390f35b610351600480360381019061034c91906113a4565b6109c2565b005b61035b610aec565b60405161036891906111e2565b60405180910390f35b6060600380546103809061143a565b80601f01602080910402602001604051908101604052809291908181526020018280546103ac9061143a565b80156103f75780601f106103ce576101008083540402835291602001916103f7565b820191905f5260205f20905b8154815290600101906020018083116103da57829003601f168201915b5050505050905090565b60085f9054906101000a900473ffffffffffffffffffffffffffffffffffffffff1681565b5f80610430610b11565b905061043d818585610b18565b600191505092915050565b5f600254905090565b5f8061045b610b11565b9050610468858285610b2a565b610473858585610bbc565b60019150509392505050565b5f600654905090565b60095f9054906101000a900473ffffffffffffffffffffffffffffffffffffffff1673ffffffffffffffffffffffffffffffffffffffff163373ffffffffffffffffffffffffffffffffffffffff1614610517576040517f08c379a000000000000000000000000000000000000000000000000000000000815260040161050e906114b4565b60405180910390fd5b806006819055507fd65d781db82f0bd55f732ea1b96f4c6565750df815c18a70962cd8405274e24360065460405161054f91906112dc565b60405180910390a150565b5f60055f9054906101000a900460ff16905090565b60095f9054906101000a900473ffffffffffffffffffffffffffffffffffffffff1673ffffffffffffffffffffffffffffffffffffffff163373ffffffffffffffffffffffffffffffffffffffff16146105fe576040517f08c379a00000000000000000000000000000000000000000000000000000000081526004016105f5906114b4565b60405180910390fd5b8060085f6101000a81548173ffffffffffffffffffffffffffffffffffffffff021916908373ffffffffffffffffffffffffffffffffffffffff1602179055507f94a0a7c0a7a455351029a521046d4438bc63e58a1ee8d984d624eb3161583b2c60085f9054906101000a900473ffffffffffffffffffffffffffffffffffffffff1660405161068e91906111e2565b60405180910390a150565b5f805f8373ffffffffffffffffffffffffffffffffffffffff1673ffffffffffffffffffffffffffffffffffffffff1681526020019081526020015f20549050919050565b6060600480546106ed9061143a565b80601f01602080910402602001604051908101604052809291908181526020018280546107199061143a565b80156107645780601f1061073b57610100808354040283529160200191610764565b820191905f5260205f20905b81548152906001019060200180831161074757829003601f168201915b5050505050905090565b5f80610778610b11565b9050610785818585610bbc565b600191505092915050565b5f60085f9054906101000a900473ffffffffffffffffffffffffffffffffffffffff1673ffffffffffffffffffffffffffffffffffffffff163373ffffffffffffffffffffffffffffffffffffffff1614610820576040517f08c379a00000000000000000000000000000000000000000000000000000000081526004016108179061151c565b60405180910390fd5b60085f9054906101000a900473ffffffffffffffffffffffffffffffffffffffff1673ffffffffffffffffffffffffffffffffffffffff163373ffffffffffffffffffffffffffffffffffffffff161461087c575f9050610934565b5f3073ffffffffffffffffffffffffffffffffffffffff166318160ddd6040518163ffffffff1660e01b8152600401602060405180830381865afa1580156108c6573d5f803e3d5ffd5b505050506040513d601f19601f820116820180604052508101906108ea919061154e565b905060075481106108fe575f915050610934565b600754838261090d91906115a6565b1115610924578060075461092191906115d9565b92505b61092e8484610cac565b60019150505b92915050565b60075481565b5f60015f8473ffffffffffffffffffffffffffffffffffffffff1673ffffffffffffffffffffffffffffffffffffffff1681526020019081526020015f205f8373ffffffffffffffffffffffffffffffffffffffff1673ffffffffffffffffffffffffffffffffffffffff1681526020019081526020015f2054905092915050565b60095f9054906101000a900473ffffffffffffffffffffffffffffffffffffffff1673ffffffffffffffffffffffffffffffffffffffff163373ffffffffffffffffffffffffffffffffffffffff1614610a51576040517f08c379a0000000000000000000000000000000000000000000000000000000008152600401610a48906114b4565b60405180910390fd5b8060095f6101000a81548173ffffffffffffffffffffffffffffffffffffffff021916908373ffffffffffffffffffffffffffffffffffffffff1602179055507fbfc8d7754fec5096becc28e0816011e8d0adcfe752ffa1c88924a7f88b00a41d60095f9054906101000a900473ffffffffffffffffffffffffffffffffffffffff16604051610ae191906111e2565b60405180910390a150565b60095f9054906101000a900473ffffffffffffffffffffffffffffffffffffffff1681565b5f33905090565b610b258383836001610d2b565b505050565b5f610b358484610940565b90507fffffffffffffffffffffffffffffffffffffffffffffffffffffffffffffffff8114610bb65781811015610ba7578281836040517ffb8f41b2000000000000000000000000000000000000000000000000000000008152600401610b9e9392919061160c565b60405180910390fd5b610bb584848484035f610d2b565b5b50505050565b5f73ffffffffffffffffffffffffffffffffffffffff168373ffffffffffffffffffffffffffffffffffffffff1603610c2c575f6040517f96c6fd1e000000000000000000000000000000000000000000000000000000008152600401610c2391906111e2565b60405180910390fd5b5f73ffffffffffffffffffffffffffffffffffffffff168273ffffffffffffffffffffffffffffffffffffffff1603610c9c575f6040517fec442f05000000000000000000000000000000000000000000000000000000008152600401610c9391906111e2565b60405180910390fd5b610ca7838383610efa565b505050565b5f73ffffffffffffffffffffffffffffffffffffffff168273ffffffffffffffffffffffffffffffffffffffff1603610d1c575f6040517fec442f05000000000000000000000000000000000000000000000000000000008152600401610d1391906111e2565b60405180910390fd5b610d275f8383610efa565b5050565b5f73ffffffffffffffffffffffffffffffffffffffff168473ffffffffffffffffffffffffffffffffffffffff1603610d9b575f6040517fe602df05000000000000000000000000000000000000000000000000000000008152600401610d9291906111e2565b60405180910390fd5b5f73ffffffffffffffffffffffffffffffffffffffff168373ffffffffffffffffffffffffffffffffffffffff1603610e0b575f6040517f94280d62000000000000000000000000000000000000000000000000000000008152600401610e0291906111e2565b60405180910390fd5b8160015f8673ffffffffffffffffffffffffffffffffffffffff1673ffffffffffffffffffffffffffffffffffffffff1681526020019081526020015f205f8573ffffffffffffffffffffffffffffffffffffffff1673ffffffffffffffffffffffffffffffffffffffff1681526020019081526020015f20819055508015610ef4578273ffffffffffffffffffffffffffffffffffffffff168473ffffffffffffffffffffffffffffffffffffffff167f8c5be1e5ebec7d5bd14f71427d1e84f3dd0314c0f7b2291e5b200ac8c7c3b92584604051610eeb91906112dc565b60405180910390a35b50505050565b5f73ffffffffffffffffffffffffffffffffffffffff168373ffffffffffffffffffffffffffffffffffffffff1603610f4a578060025f828254610f3e91906115a6565b92505081905550611018565b5f805f8573ffffffffffffffffffffffffffffffffffffffff1673ffffffffffffffffffffffffffffffffffffffff1681526020019081526020015f2054905081811015610fd3578381836040517fe450d38c000000000000000000000000000000000000000000000000000000008152600401610fca9392919061160c565b60405180910390fd5b8181035f808673ffffffffffffffffffffffffffffffffffffffff1673ffffffffffffffffffffffffffffffffffffffff1681526020019081526020015f2081905550505b5f73ffffffffffffffffffffffffffffffffffffffff168273ffffffffffffffffffffffffffffffffffffffff160361105f578060025f82825403925050819055506110a9565b805f808473ffffffffffffffffffffffffffffffffffffffff1673ffffffffffffffffffffffffffffffffffffffff1681526020019081526020015f205f82825401925050819055505b8173ffffffffffffffffffffffffffffffffffffffff168373ffffffffffffffffffffffffffffffffffffffff167fddf252ad1be2c89b69c2b068fc378daa952ba7f163c4a11628f55a4df523b3ef8360405161110691906112dc565b60405180910390a3505050565b5f81519050919050565b5f82825260208201905092915050565b8281835e5f83830152505050565b5f601f19601f8301169050919050565b5f61115582611113565b61115f818561111d565b935061116f81856020860161112d565b6111788161113b565b840191505092915050565b5f6020820190508181035f83015261119b818461114b565b905092915050565b5f73ffffffffffffffffffffffffffffffffffffffff82169050919050565b5f6111cc826111a3565b9050919050565b6111dc816111c2565b82525050565b5f6020820190506111f55f8301846111d3565b92915050565b5f80fd5b611208816111c2565b8114611212575f80fd5b50565b5f81359050611223816111ff565b92915050565b5f819050919050565b61123b81611229565b8114611245575f80fd5b50565b5f8135905061125681611232565b92915050565b5f8060408385031215611272576112716111fb565b5b5f61127f85828601611215565b925050602061129085828601611248565b9150509250929050565b5f8115159050919050565b6112ae8161129a565b82525050565b5f6020820190506112c75f8301846112a5565b92915050565b6112d681611229565b82525050565b5f6020820190506112ef5f8301846112cd565b92915050565b5f805f6060848603121561130c5761130b6111fb565b5b5f61131986828701611215565b935050602061132a86828701611215565b925050604061133b86828701611248565b9150509250925092565b5f6020828403121561135a576113596111fb565b5b5f61136784828501611248565b91505092915050565b5f60ff82169050919050565b61138581611370565b82525050565b5f60208201905061139e5f83018461137c565b92915050565b5f602082840312156113b9576113b86111fb565b5b5f6113c684828501611215565b91505092915050565b5f80604083850312156113e5576113e46111fb565b5b5f6113f285828601611215565b925050602061140385828601611215565b9150509250929050565b7f4e487b71000000000000000000000000000000000000000000000000000000005f52602260045260245ffd5b5f600282049050600182168061145157607f821691505b6020821081036114645761146361140d565b5b50919050565b7f4f6e6c792061646d696e2063616e206d616b6520746869732063616c6c0000005f82015250565b5f61149e601d8361111d565b91506114a98261146a565b602082019050919050565b5f6020820190508181035f8301526114cb81611492565b9050919050565b7f4f6e6c79206d696e7465722063616e206d616b6520746869732063616c6c00005f82015250565b5f611506601e8361111d565b9150611511826114d2565b602082019050919050565b5f6020820190508181035f830152611533816114fa565b9050919050565b5f8151905061154881611232565b92915050565b5f60208284031215611563576115626111fb565b5b5f6115708482850161153a565b91505092915050565b7f4e487b71000000000000000000000000000000000000000000000000000000005f52601160045260245ffd5b5f6115b082611229565b91506115bb83611229565b92508282019050808211156115d3576115d2611579565b5b92915050565b5f6115e382611229565b91506115ee83611229565b925082820390508181111561160657611605611579565b5b92915050565b5f60608201905061161f5f8301866111d3565b61162c60208301856112cd565b61163960408301846112cd565b94935050505056fea26469706673582212204633b8cdcafb9dd79d58abb12baa8c6946b31aafb390d14e92e17f009de5327564736f6c634300081a0033",
					"opcodes": "PUSH1 0x80 PUSH1 0x40 MSTORE CALLVALUE DUP1 ISZERO PUSH2 0xF JUMPI PUSH0 DUP1 REVERT JUMPDEST POP PUSH1 0x40 MLOAD PUSH2 0x2382 CODESIZE SUB DUP1 PUSH2 0x2382 DUP4 CODECOPY DUP2 DUP2 ADD PUSH1 0x40 MSTORE DUP2 ADD SWAP1 PUSH2 0x31 SWAP2 SWAP1 PUSH2 0x744 JUMP JUMPDEST DUP9 DUP9 DUP2 PUSH1 0x3 SWAP1 DUP2 PUSH2 0x42 SWAP2 SWAP1 PUSH2 0xA44 JUMP JUMPDEST POP DUP1 PUSH1 0x4 SWAP1 DUP2 PUSH2 0x52 SWAP2 SWAP1 PUSH2 0xA44 JUMP JUMPDEST POP POP POP PUSH13 0x1000000000000000000000000 DUP7 LT PUSH2 0xA4 JUMPI PUSH1 0x40 MLOAD PUSH32 0x8C379A000000000000000000000000000000000000000000000000000000000 DUP2 MSTORE PUSH1 0x4 ADD PUSH2 0x9B SWAP1 PUSH2 0xB6D JUMP JUMPDEST PUSH1 0x40 MLOAD DUP1 SWAP2 SUB SWAP1 REVERT JUMPDEST DUP6 DUP3 GT ISZERO PUSH2 0xE7 JUMPI PUSH1 0x40 MLOAD PUSH32 0x8C379A000000000000000000000000000000000000000000000000000000000 DUP2 MSTORE PUSH1 0x4 ADD PUSH2 0xDE SWAP1 PUSH2 0xBFB JUMP JUMPDEST PUSH1 0x40 MLOAD DUP1 SWAP2 SUB SWAP1 REVERT JUMPDEST DUP7 PUSH1 0x5 PUSH0 PUSH2 0x100 EXP DUP2 SLOAD DUP2 PUSH1 0xFF MUL NOT AND SWAP1 DUP4 PUSH1 0xFF AND MUL OR SWAP1 SSTORE POP DUP6 PUSH1 0x7 DUP2 SWAP1 SSTORE POP DUP5 PUSH1 0x8 PUSH0 PUSH2 0x100 EXP DUP2 SLOAD DUP2 PUSH20 0xFFFFFFFFFFFFFFFFFFFFFFFFFFFFFFFFFFFFFFFF MUL NOT AND SWAP1 DUP4 PUSH20 0xFFFFFFFFFFFFFFFFFFFFFFFFFFFFFFFFFFFFFFFF AND MUL OR SWAP1 SSTORE POP DUP4 PUSH1 0x6 DUP2 SWAP1 SSTORE POP DUP1 PUSH1 0x9 PUSH0 PUSH2 0x100 EXP DUP2 SLOAD DUP2 PUSH20 0xFFFFFFFFFFFFFFFFFFFFFFFFFFFFFFFFFFFFFFFF MUL NOT AND SWAP1 DUP4 PUSH20 0xFFFFFFFFFFFFFFFFFFFFFFFFFFFFFFFFFFFFFFFF AND MUL OR SWAP1 SSTORE POP PUSH2 0x19F DUP4 DUP4 PUSH2 0x296 PUSH1 0x20 SHL PUSH1 0x20 SHR JUMP JUMPDEST PUSH32 0x94A0A7C0A7A455351029A521046D4438BC63E58A1EE8D984D624EB3161583B2C PUSH1 0x8 PUSH0 SWAP1 SLOAD SWAP1 PUSH2 0x100 EXP SWAP1 DIV PUSH20 0xFFFFFFFFFFFFFFFFFFFFFFFFFFFFFFFFFFFFFFFF AND PUSH1 0x40 MLOAD PUSH2 0x1EF SWAP2 SWAP1 PUSH2 0xC28 JUMP JUMPDEST PUSH1 0x40 MLOAD DUP1 SWAP2 SUB SWAP1 LOG1 PUSH32 0xBFC8D7754FEC5096BECC28E0816011E8D0ADCFE752FFA1C88924A7F88B00A41D PUSH1 0x9 PUSH0 SWAP1 SLOAD SWAP1 PUSH2 0x100 EXP SWAP1 DIV PUSH20 0xFFFFFFFFFFFFFFFFFFFFFFFFFFFFFFFFFFFFFFFF AND PUSH1 0x40 MLOAD PUSH2 0x247 SWAP2 SWAP1 PUSH2 0xC28 JUMP JUMPDEST PUSH1 0x40 MLOAD DUP1 SWAP2 SUB SWAP1 LOG1 PUSH32 0xD65D781DB82F0BD55F732EA1B96F4C6565750DF815C18A70962CD8405274E243 PUSH1 0x6 SLOAD PUSH1 0x40 MLOAD PUSH2 0x280 SWAP2 SWAP1 PUSH2 0xC50 JUMP JUMPDEST PUSH1 0x40 MLOAD DUP1 SWAP2 SUB SWAP1 LOG1 POP POP POP POP POP POP POP POP POP PUSH2 0xCFE JUMP JUMPDEST PUSH0 PUSH20 0xFFFFFFFFFFFFFFFFFFFFFFFFFFFFFFFFFFFFFFFF AND DUP3 PUSH20 0xFFFFFFFFFFFFFFFFFFFFFFFFFFFFFFFFFFFFFFFF AND SUB PUSH2 0x306 JUMPI PUSH0 PUSH1 0x40 MLOAD PUSH32 0xEC442F0500000000000000000000000000000000000000000000000000000000 DUP2 MSTORE PUSH1 0x4 ADD PUSH2 0x2FD SWAP2 SWAP1 PUSH2 0xC28 JUMP JUMPDEST PUSH1 0x40 MLOAD DUP1 SWAP2 SUB SWAP1 REVERT JUMPDEST PUSH2 0x317 PUSH0 DUP4 DUP4 PUSH2 0x31B PUSH1 0x20 SHL PUSH1 0x20 SHR JUMP JUMPDEST POP POP JUMP JUMPDEST PUSH0 PUSH20 0xFFFFFFFFFFFFFFFFFFFFFFFFFFFFFFFFFFFFFFFF AND DUP4 PUSH20 0xFFFFFFFFFFFFFFFFFFFFFFFFFFFFFFFFFFFFFFFF AND SUB PUSH2 0x36B JUMPI DUP1 PUSH1 0x2 PUSH0 DUP3 DUP3 SLOAD PUSH2 0x35F SWAP2 SWAP1 PUSH2 0xC96 JUMP JUMPDEST SWAP3 POP POP DUP2 SWAP1 SSTORE POP PUSH2 0x439 JUMP JUMPDEST PUSH0 DUP1 PUSH0 DUP6 PUSH20 0xFFFFFFFFFFFFFFFFFFFFFFFFFFFFFFFFFFFFFFFF AND PUSH20 0xFFFFFFFFFFFFFFFFFFFFFFFFFFFFFFFFFFFFFFFF AND DUP2 MSTORE PUSH1 0x20 ADD SWAP1 DUP2 MSTORE PUSH1 0x20 ADD PUSH0 KECCAK256 SLOAD SWAP1 POP DUP2 DUP2 LT ISZERO PUSH2 0x3F4 JUMPI DUP4 DUP2 DUP4 PUSH1 0x40 MLOAD PUSH32 0xE450D38C00000000000000000000000000000000000000000000000000000000 DUP2 MSTORE PUSH1 0x4 ADD PUSH2 0x3EB SWAP4 SWAP3 SWAP2 SWAP1 PUSH2 0xCC9 JUMP JUMPDEST PUSH1 0x40 MLOAD DUP1 SWAP2 SUB SWAP1 REVERT JUMPDEST DUP2 DUP2 SUB PUSH0 DUP1 DUP7 PUSH20 0xFFFFFFFFFFFFFFFFFFFFFFFFFFFFFFFFFFFFFFFF AND PUSH20 0xFFFFFFFFFFFFFFFFFFFFFFFFFFFFFFFFFFFFFFFF AND DUP2 MSTORE PUSH1 0x20 ADD SWAP1 DUP2 MSTORE PUSH1 0x20 ADD PUSH0 KECCAK256 DUP2 SWAP1 SSTORE POP POP JUMPDEST PUSH0 PUSH20 0xFFFFFFFFFFFFFFFFFFFFFFFFFFFFFFFFFFFFFFFF AND DUP3 PUSH20 0xFFFFFFFFFFFFFFFFFFFFFFFFFFFFFFFFFFFFFFFF AND SUB PUSH2 0x480 JUMPI DUP1 PUSH1 0x2 PUSH0 DUP3 DUP3 SLOAD SUB SWAP3 POP POP DUP2 SWAP1 SSTORE POP PUSH2 0x4CA JUMP JUMPDEST DUP1 PUSH0 DUP1 DUP5 PUSH20 0xFFFFFFFFFFFFFFFFFFFFFFFFFFFFFFFFFFFFFFFF AND PUSH20 0xFFFFFFFFFFFFFFFFFFFFFFFFFFFFFFFFFFFFFFFF AND DUP2 MSTORE PUSH1 0x20 ADD SWAP1 DUP2 MSTORE PUSH1 0x20 ADD PUSH0 KECCAK256 PUSH0 DUP3 DUP3 SLOAD ADD SWAP3 POP POP DUP2 SWAP1 SSTORE POP JUMPDEST DUP2 PUSH20 0xFFFFFFFFFFFFFFFFFFFFFFFFFFFFFFFFFFFFFFFF AND DUP4 PUSH20 0xFFFFFFFFFFFFFFFFFFFFFFFFFFFFFFFFFFFFFFFF AND PUSH32 0xDDF252AD1BE2C89B69C2B068FC378DAA952BA7F163C4A11628F55A4DF523B3EF DUP4 PUSH1 0x40 MLOAD PUSH2 0x527 SWAP2 SWAP1 PUSH2 0xC50 JUMP JUMPDEST PUSH1 0x40 MLOAD DUP1 SWAP2 SUB SWAP1 LOG3 POP POP POP JUMP JUMPDEST PUSH0 PUSH1 0x40 MLOAD SWAP1 POP SWAP1 JUMP JUMPDEST PUSH0 DUP1 REVERT JUMPDEST PUSH0 DUP1 REVERT JUMPDEST PUSH0 DUP1 REVERT JUMPDEST PUSH0 DUP1 REVERT JUMPDEST PUSH0 PUSH1 0x1F NOT PUSH1 0x1F DUP4 ADD AND SWAP1 POP SWAP2 SWAP1 POP JUMP JUMPDEST PUSH32 0x4E487B7100000000000000000000000000000000000000000000000000000000 PUSH0 MSTORE PUSH1 0x41 PUSH1 0x4 MSTORE PUSH1 0x24 PUSH0 REVERT JUMPDEST PUSH2 0x593 DUP3 PUSH2 0x54D JUMP JUMPDEST DUP2 ADD DUP2 DUP2 LT PUSH8 0xFFFFFFFFFFFFFFFF DUP3 GT OR ISZERO PUSH2 0x5B2 JUMPI PUSH2 0x5B1 PUSH2 0x55D JUMP JUMPDEST JUMPDEST DUP1 PUSH1 0x40 MSTORE POP POP POP JUMP JUMPDEST PUSH0 PUSH2 0x5C4 PUSH2 0x534 JUMP JUMPDEST SWAP1 POP PUSH2 0x5D0 DUP3 DUP3 PUSH2 0x58A JUMP JUMPDEST SWAP2 SWAP1 POP JUMP JUMPDEST PUSH0 PUSH8 0xFFFFFFFFFFFFFFFF DUP3 GT ISZERO PUSH2 0x5EF JUMPI PUSH2 0x5EE PUSH2 0x55D JUMP JUMPDEST JUMPDEST PUSH2 0x5F8 DUP3 PUSH2 0x54D JUMP JUMPDEST SWAP1 POP PUSH1 0x20 DUP2 ADD SWAP1 POP SWAP2 SWAP1 POP JUMP JUMPDEST DUP3 DUP2 DUP4 MCOPY PUSH0 DUP4 DUP4 ADD MSTORE POP POP POP JUMP JUMPDEST PUSH0 PUSH2 0x625 PUSH2 0x620 DUP5 PUSH2 0x5D5 JUMP JUMPDEST PUSH2 0x5BB JUMP JUMPDEST SWAP1 POP DUP3 DUP2 MSTORE PUSH1 0x20 DUP2 ADD DUP5 DUP5 DUP5 ADD GT ISZERO PUSH2 0x641 JUMPI PUSH2 0x640 PUSH2 0x549 JUMP JUMPDEST JUMPDEST PUSH2 0x64C DUP5 DUP3 DUP6 PUSH2 0x605 JUMP JUMPDEST POP SWAP4 SWAP3 POP POP POP JUMP JUMPDEST PUSH0 DUP3 PUSH1 0x1F DUP4 ADD SLT PUSH2 0x668 JUMPI PUSH2 0x667 PUSH2 0x545 JUMP JUMPDEST JUMPDEST DUP2 MLOAD PUSH2 0x678 DUP5 DUP3 PUSH1 0x20 DUP7 ADD PUSH2 0x613 JUMP JUMPDEST SWAP2 POP POP SWAP3 SWAP2 POP POP JUMP JUMPDEST PUSH0 PUSH1 0xFF DUP3 AND SWAP1 POP SWAP2 SWAP1 POP JUMP JUMPDEST PUSH2 0x696 DUP2 PUSH2 0x681 JUMP JUMPDEST DUP2 EQ PUSH2 0x6A0 JUMPI PUSH0 DUP1 REVERT JUMPDEST POP JUMP JUMPDEST PUSH0 DUP2 MLOAD SWAP1 POP PUSH2 0x6B1 DUP2 PUSH2 0x68D JUMP JUMPDEST SWAP3 SWAP2 POP POP JUMP JUMPDEST PUSH0 DUP2 SWAP1 POP SWAP2 SWAP1 POP JUMP JUMPDEST PUSH2 0x6C9 DUP2 PUSH2 0x6B7 JUMP JUMPDEST DUP2 EQ PUSH2 0x6D3 JUMPI PUSH0 DUP1 REVERT JUMPDEST POP JUMP JUMPDEST PUSH0 DUP2 MLOAD SWAP1 POP PUSH2 0x6E4 DUP2 PUSH2 0x6C0 JUMP JUMPDEST SWAP3 SWAP2 POP POP JUMP JUMPDEST PUSH0 PUSH20 0xFFFFFFFFFFFFFFFFFFFFFFFFFFFFFFFFFFFFFFFF DUP3 AND SWAP1 POP SWAP2 SWAP1 POP JUMP JUMPDEST PUSH0 PUSH2 0x713 DUP3 PUSH2 0x6EA JUMP JUMPDEST SWAP1 POP SWAP2 SWAP1 POP JUMP JUMPDEST PUSH2 0x723 DUP2 PUSH2 0x709 JUMP JUMPDEST DUP2 EQ PUSH2 0x72D JUMPI PUSH0 DUP1 REVERT JUMPDEST POP JUMP JUMPDEST PUSH0 DUP2 MLOAD SWAP1 POP PUSH2 0x73E DUP2 PUSH2 0x71A JUMP JUMPDEST SWAP3 SWAP2 POP POP JUMP JUMPDEST PUSH0 DUP1 PUSH0 DUP1 PUSH0 DUP1 PUSH0 DUP1 PUSH0 PUSH2 0x120 DUP11 DUP13 SUB SLT ISZERO PUSH2 0x762 JUMPI PUSH2 0x761 PUSH2 0x53D JUMP JUMPDEST JUMPDEST PUSH0 DUP11 ADD MLOAD PUSH8 0xFFFFFFFFFFFFFFFF DUP2 GT ISZERO PUSH2 0x77F JUMPI PUSH2 0x77E PUSH2 0x541 JUMP JUMPDEST JUMPDEST PUSH2 0x78B DUP13 DUP3 DUP14 ADD PUSH2 0x654 JUMP JUMPDEST SWAP10 POP POP PUSH1 0x20 DUP11 ADD MLOAD PUSH8 0xFFFFFFFFFFFFFFFF DUP2 GT ISZERO PUSH2 0x7AC JUMPI PUSH2 0x7AB PUSH2 0x541 JUMP JUMPDEST JUMPDEST PUSH2 0x7B8 DUP13 DUP3 DUP14 ADD PUSH2 0x654 JUMP JUMPDEST SWAP9 POP POP PUSH1 0x40 PUSH2 0x7C9 DUP13 DUP3 DUP14 ADD PUSH2 0x6A3 JUMP JUMPDEST SWAP8 POP POP PUSH1 0x60 PUSH2 0x7DA DUP13 DUP3 DUP14 ADD PUSH2 0x6D6 JUMP JUMPDEST SWAP7 POP POP PUSH1 0x80 PUSH2 0x7EB DUP13 DUP3 DUP14 ADD PUSH2 0x730 JUMP JUMPDEST SWAP6 POP POP PUSH1 0xA0 PUSH2 0x7FC DUP13 DUP3 DUP14 ADD PUSH2 0x6D6 JUMP JUMPDEST SWAP5 POP POP PUSH1 0xC0 PUSH2 0x80D DUP13 DUP3 DUP14 ADD PUSH2 0x730 JUMP JUMPDEST SWAP4 POP POP PUSH1 0xE0 PUSH2 0x81E DUP13 DUP3 DUP14 ADD PUSH2 0x6D6 JUMP JUMPDEST SWAP3 POP POP PUSH2 0x100 PUSH2 0x830 DUP13 DUP3 DUP14 ADD PUSH2 0x730 JUMP JUMPDEST SWAP2 POP POP SWAP3 SWAP6 SWAP9 POP SWAP3 SWAP6 SWAP9 POP SWAP3 SWAP6 SWAP9 JUMP JUMPDEST PUSH0 DUP2 MLOAD SWAP1 POP SWAP2 SWAP1 POP JUMP JUMPDEST PUSH32 0x4E487B7100000000000000000000000000000000000000000000000000000000 PUSH0 MSTORE PUSH1 0x22 PUSH1 0x4 MSTORE PUSH1 0x24 PUSH0 REVERT JUMPDEST PUSH0 PUSH1 0x2 DUP3 DIV SWAP1 POP PUSH1 0x1 DUP3 AND DUP1 PUSH2 0x88E JUMPI PUSH1 0x7F DUP3 AND SWAP2 POP JUMPDEST PUSH1 0x20 DUP3 LT DUP2 SUB PUSH2 0x8A1 JUMPI PUSH2 0x8A0 PUSH2 0x84A JUMP JUMPDEST JUMPDEST POP SWAP2 SWAP1 POP JUMP JUMPDEST PUSH0 DUP2 SWAP1 POP DUP2 PUSH0 MSTORE PUSH1 0x20 PUSH0 KECCAK256 SWAP1 POP SWAP2 SWAP1 POP JUMP JUMPDEST PUSH0 PUSH1 0x20 PUSH1 0x1F DUP4 ADD DIV SWAP1 POP SWAP2 SWAP1 POP JUMP JUMPDEST PUSH0 DUP3 DUP3 SHL SWAP1 POP SWAP3 SWAP2 POP POP JUMP JUMPDEST PUSH0 PUSH1 0x8 DUP4 MUL PUSH2 0x903 PUSH32 0xFFFFFFFFFFFFFFFFFFFFFFFFFFFFFFFFFFFFFFFFFFFFFFFFFFFFFFFFFFFFFFFF DUP3 PUSH2 0x8C8 JUMP JUMPDEST PUSH2 0x90D DUP7 DUP4 PUSH2 0x8C8 JUMP JUMPDEST SWAP6 POP DUP1 NOT DUP5 AND SWAP4 POP DUP1 DUP7 AND DUP5 OR SWAP3 POP POP POP SWAP4 SWAP3 POP POP POP JUMP JUMPDEST PUSH0 DUP2 SWAP1 POP SWAP2 SWAP1 POP JUMP JUMPDEST PUSH0 PUSH2 0x948 PUSH2 0x943 PUSH2 0x93E DUP5 PUSH2 0x6B7 JUMP JUMPDEST PUSH2 0x925 JUMP JUMPDEST PUSH2 0x6B7 JUMP JUMPDEST SWAP1 POP SWAP2 SWAP1 POP JUMP JUMPDEST PUSH0 DUP2 SWAP1 POP SWAP2 SWAP1 POP JUMP JUMPDEST PUSH2 0x961 DUP4 PUSH2 0x92E JUMP JUMPDEST PUSH2 0x975 PUSH2 0x96D DUP3 PUSH2 0x94F JUMP JUMPDEST DUP5 DUP5 SLOAD PUSH2 0x8D4 JUMP JUMPDEST DUP3 SSTORE POP POP POP POP JUMP JUMPDEST PUSH0 SWAP1 JUMP JUMPDEST PUSH2 0x989 PUSH2 0x97D JUMP JUMPDEST PUSH2 0x994 DUP2 DUP5 DUP5 PUSH2 0x958 JUMP JUMPDEST POP POP POP JUMP JUMPDEST JUMPDEST DUP2 DUP2 LT ISZERO PUSH2 0x9B7 JUMPI PUSH2 0x9AC PUSH0 DUP3 PUSH2 0x981 JUMP JUMPDEST PUSH1 0x1 DUP2 ADD SWAP1 POP PUSH2 0x99A JUMP JUMPDEST POP POP JUMP JUMPDEST PUSH1 0x1F DUP3 GT ISZERO PUSH2 0x9FC JUMPI PUSH2 0x9CD DUP2 PUSH2 0x8A7 JUMP JUMPDEST PUSH2 0x9D6 DUP5 PUSH2 0x8B9 JUMP JUMPDEST DUP2 ADD PUSH1 0x20 DUP6 LT ISZERO PUSH2 0x9E5 JUMPI DUP2 SWAP1 POP JUMPDEST PUSH2 0x9F9 PUSH2 0x9F1 DUP6 PUSH2 0x8B9 JUMP JUMPDEST DUP4 ADD DUP3 PUSH2 0x999 JUMP JUMPDEST POP POP JUMPDEST POP POP POP JUMP JUMPDEST PUSH0 DUP3 DUP3 SHR SWAP1 POP SWAP3 SWAP2 POP POP JUMP JUMPDEST PUSH0 PUSH2 0xA1C PUSH0 NOT DUP5 PUSH1 0x8 MUL PUSH2 0xA01 JUMP JUMPDEST NOT DUP1 DUP4 AND SWAP2 POP POP SWAP3 SWAP2 POP POP JUMP JUMPDEST PUSH0 PUSH2 0xA34 DUP4 DUP4 PUSH2 0xA0D JUMP JUMPDEST SWAP2 POP DUP3 PUSH1 0x2 MUL DUP3 OR SWAP1 POP SWAP3 SWAP2 POP POP JUMP JUMPDEST PUSH2 0xA4D DUP3 PUSH2 0x840 JUMP JUMPDEST PUSH8 0xFFFFFFFFFFFFFFFF DUP2 GT ISZERO PUSH2 0xA66 JUMPI PUSH2 0xA65 PUSH2 0x55D JUMP JUMPDEST JUMPDEST PUSH2 0xA70 DUP3 SLOAD PUSH2 0x877 JUMP JUMPDEST PUSH2 0xA7B DUP3 DUP3 DUP6 PUSH2 0x9BB JUMP JUMPDEST PUSH0 PUSH1 0x20 SWAP1 POP PUSH1 0x1F DUP4 GT PUSH1 0x1 DUP2 EQ PUSH2 0xAAC JUMPI PUSH0 DUP5 ISZERO PUSH2 0xA9A JUMPI DUP3 DUP8 ADD MLOAD SWAP1 POP JUMPDEST PUSH2 0xAA4 DUP6 DUP3 PUSH2 0xA29 JUMP JUMPDEST DUP7 SSTORE POP PUSH2 0xB0B JUMP JUMPDEST PUSH1 0x1F NOT DUP5 AND PUSH2 0xABA DUP7 PUSH2 0x8A7 JUMP JUMPDEST PUSH0 JUMPDEST DUP3 DUP2 LT ISZERO PUSH2 0xAE1 JUMPI DUP5 DUP10 ADD MLOAD DUP3 SSTORE PUSH1 0x1 DUP3 ADD SWAP2 POP PUSH1 0x20 DUP6 ADD SWAP5 POP PUSH1 0x20 DUP2 ADD SWAP1 POP PUSH2 0xABC JUMP JUMPDEST DUP7 DUP4 LT ISZERO PUSH2 0xAFE JUMPI DUP5 DUP10 ADD MLOAD PUSH2 0xAFA PUSH1 0x1F DUP10 AND DUP3 PUSH2 0xA0D JUMP JUMPDEST DUP4 SSTORE POP JUMPDEST PUSH1 0x1 PUSH1 0x2 DUP9 MUL ADD DUP9 SSTORE POP POP POP JUMPDEST POP POP POP POP POP POP JUMP JUMPDEST PUSH0 DUP3 DUP3 MSTORE PUSH1 0x20 DUP3 ADD SWAP1 POP SWAP3 SWAP2 POP POP JUMP JUMPDEST PUSH32 0x6D6178537570706C7920746F6F206C6172676500000000000000000000000000 PUSH0 DUP3 ADD MSTORE POP JUMP JUMPDEST PUSH0 PUSH2 0xB57 PUSH1 0x13 DUP4 PUSH2 0xB13 JUMP JUMPDEST SWAP2 POP PUSH2 0xB62 DUP3 PUSH2 0xB23 JUMP JUMPDEST PUSH1 0x20 DUP3 ADD SWAP1 POP SWAP2 SWAP1 POP JUMP JUMPDEST PUSH0 PUSH1 0x20 DUP3 ADD SWAP1 POP DUP2 DUP2 SUB PUSH0 DUP4 ADD MSTORE PUSH2 0xB84 DUP2 PUSH2 0xB4B JUMP JUMPDEST SWAP1 POP SWAP2 SWAP1 POP JUMP JUMPDEST PUSH32 0x696E697469616C20737570706C792073686F756C64206E6F7420657863656564 PUSH0 DUP3 ADD MSTORE PUSH32 0x20746865206D617820737570706C790000000000000000000000000000000000 PUSH1 0x20 DUP3 ADD MSTORE POP JUMP JUMPDEST PUSH0 PUSH2 0xBE5 PUSH1 0x2F DUP4 PUSH2 0xB13 JUMP JUMPDEST SWAP2 POP PUSH2 0xBF0 DUP3 PUSH2 0xB8B JUMP JUMPDEST PUSH1 0x40 DUP3 ADD SWAP1 POP SWAP2 SWAP1 POP JUMP JUMPDEST PUSH0 PUSH1 0x20 DUP3 ADD SWAP1 POP DUP2 DUP2 SUB PUSH0 DUP4 ADD MSTORE PUSH2 0xC12 DUP2 PUSH2 0xBD9 JUMP JUMPDEST SWAP1 POP SWAP2 SWAP1 POP JUMP JUMPDEST PUSH2 0xC22 DUP2 PUSH2 0x709 JUMP JUMPDEST DUP3 MSTORE POP POP JUMP JUMPDEST PUSH0 PUSH1 0x20 DUP3 ADD SWAP1 POP PUSH2 0xC3B PUSH0 DUP4 ADD DUP5 PUSH2 0xC19 JUMP JUMPDEST SWAP3 SWAP2 POP POP JUMP JUMPDEST PUSH2 0xC4A DUP2 PUSH2 0x6B7 JUMP JUMPDEST DUP3 MSTORE POP POP JUMP JUMPDEST PUSH0 PUSH1 0x20 DUP3 ADD SWAP1 POP PUSH2 0xC63 PUSH0 DUP4 ADD DUP5 PUSH2 0xC41 JUMP JUMPDEST SWAP3 SWAP2 POP POP JUMP JUMPDEST PUSH32 0x4E487B7100000000000000000000000000000000000000000000000000000000 PUSH0 MSTORE PUSH1 0x11 PUSH1 0x4 MSTORE PUSH1 0x24 PUSH0 REVERT JUMPDEST PUSH0 PUSH2 0xCA0 DUP3 PUSH2 0x6B7 JUMP JUMPDEST SWAP2 POP PUSH2 0xCAB DUP4 PUSH2 0x6B7 JUMP JUMPDEST SWAP3 POP DUP3 DUP3 ADD SWAP1 POP DUP1 DUP3 GT ISZERO PUSH2 0xCC3 JUMPI PUSH2 0xCC2 PUSH2 0xC69 JUMP JUMPDEST JUMPDEST SWAP3 SWAP2 POP POP JUMP JUMPDEST PUSH0 PUSH1 0x60 DUP3 ADD SWAP1 POP PUSH2 0xCDC PUSH0 DUP4 ADD DUP7 PUSH2 0xC19 JUMP JUMPDEST PUSH2 0xCE9 PUSH1 0x20 DUP4 ADD DUP6 PUSH2 0xC41 JUMP JUMPDEST PUSH2 0xCF6 PUSH1 0x40 DUP4 ADD DUP5 PUSH2 0xC41 JUMP JUMPDEST SWAP5 SWAP4 POP POP POP POP JUMP JUMPDEST PUSH2 0x1677 DUP1 PUSH2 0xD0B PUSH0 CODECOPY PUSH0 RETURN INVALID PUSH1 0x80 PUSH1 0x40 MSTORE CALLVALUE DUP1 ISZERO PUSH2 0xF JUMPI PUSH0 DUP1 REVERT JUMPDEST POP PUSH1 0x4 CALLDATASIZE LT PUSH2 0x109 JUMPI PUSH0 CALLDATALOAD PUSH1 0xE0 SHR DUP1 PUSH4 0x4EB03F6E GT PUSH2 0xA0 JUMPI DUP1 PUSH4 0xAB8E786F GT PUSH2 0x6F JUMPI DUP1 PUSH4 0xAB8E786F EQ PUSH2 0x2B9 JUMPI DUP1 PUSH4 0xD5ABEB01 EQ PUSH2 0x2E9 JUMPI DUP1 PUSH4 0xDD62ED3E EQ PUSH2 0x307 JUMPI DUP1 PUSH4 0xE2F273BD EQ PUSH2 0x337 JUMPI DUP1 PUSH4 0xF851A440 EQ PUSH2 0x353 JUMPI PUSH2 0x109 JUMP JUMPDEST DUP1 PUSH4 0x4EB03F6E EQ PUSH2 0x21F JUMPI DUP1 PUSH4 0x70A08231 EQ PUSH2 0x23B JUMPI DUP1 PUSH4 0x95D89B41 EQ PUSH2 0x26B JUMPI DUP1 PUSH4 0xA9059CBB EQ PUSH2 0x289 JUMPI PUSH2 0x109 JUMP JUMPDEST DUP1 PUSH4 0x23B872DD GT PUSH2 0xDC JUMPI DUP1 PUSH4 0x23B872DD EQ PUSH2 0x197 JUMPI DUP1 PUSH4 0x24E770D0 EQ PUSH2 0x1C7 JUMPI DUP1 PUSH4 0x29FB7EF6 EQ PUSH2 0x1E5 JUMPI DUP1 PUSH4 0x313CE567 EQ PUSH2 0x201 JUMPI PUSH2 0x109 JUMP JUMPDEST DUP1 PUSH4 0x6FDDE03 EQ PUSH2 0x10D JUMPI DUP1 PUSH4 0x7546172 EQ PUSH2 0x12B JUMPI DUP1 PUSH4 0x95EA7B3 EQ PUSH2 0x149 JUMPI DUP1 PUSH4 0x18160DDD EQ PUSH2 0x179 JUMPI JUMPDEST PUSH0 DUP1 REVERT JUMPDEST PUSH2 0x115 PUSH2 0x371 JUMP JUMPDEST PUSH1 0x40 MLOAD PUSH2 0x122 SWAP2 SWAP1 PUSH2 0x1183 JUMP JUMPDEST PUSH1 0x40 MLOAD DUP1 SWAP2 SUB SWAP1 RETURN JUMPDEST PUSH2 0x133 PUSH2 0x401 JUMP JUMPDEST PUSH1 0x40 MLOAD PUSH2 0x140 SWAP2 SWAP1 PUSH2 0x11E2 JUMP JUMPDEST PUSH1 0x40 MLOAD DUP1 SWAP2 SUB SWAP1 RETURN JUMPDEST PUSH2 0x163 PUSH1 0x4 DUP1 CALLDATASIZE SUB DUP2 ADD SWAP1 PUSH2 0x15E SWAP2 SWAP1 PUSH2 0x125C JUMP JUMPDEST PUSH2 0x426 JUMP JUMPDEST PUSH1 0x40 MLOAD PUSH2 0x170 SWAP2 SWAP1 PUSH2 0x12B4 JUMP JUMPDEST PUSH1 0x40 MLOAD DUP1 SWAP2 SUB SWAP1 RETURN JUMPDEST PUSH2 0x181 PUSH2 0x448 JUMP JUMPDEST PUSH1 0x40 MLOAD PUSH2 0x18E SWAP2 SWAP1 PUSH2 0x12DC JUMP JUMPDEST PUSH1 0x40 MLOAD DUP1 SWAP2 SUB SWAP1 RETURN JUMPDEST PUSH2 0x1B1 PUSH1 0x4 DUP1 CALLDATASIZE SUB DUP2 ADD SWAP1 PUSH2 0x1AC SWAP2 SWAP1 PUSH2 0x12F5 JUMP JUMPDEST PUSH2 0x451 JUMP JUMPDEST PUSH1 0x40 MLOAD PUSH2 0x1BE SWAP2 SWAP1 PUSH2 0x12B4 JUMP JUMPDEST PUSH1 0x40 MLOAD DUP1 SWAP2 SUB SWAP1 RETURN JUMPDEST PUSH2 0x1CF PUSH2 0x47F JUMP JUMPDEST PUSH1 0x40 MLOAD PUSH2 0x1DC SWAP2 SWAP1 PUSH2 0x12DC JUMP JUMPDEST PUSH1 0x40 MLOAD DUP1 SWAP2 SUB SWAP1 RETURN JUMPDEST PUSH2 0x1FF PUSH1 0x4 DUP1 CALLDATASIZE SUB DUP2 ADD SWAP1 PUSH2 0x1FA SWAP2 SWAP1 PUSH2 0x1345 JUMP JUMPDEST PUSH2 0x488 JUMP JUMPDEST STOP JUMPDEST PUSH2 0x209 PUSH2 0x55A JUMP JUMPDEST PUSH1 0x40 MLOAD PUSH2 0x216 SWAP2 SWAP1 PUSH2 0x138B JUMP JUMPDEST PUSH1 0x40 MLOAD DUP1 SWAP2 SUB SWAP1 RETURN JUMPDEST PUSH2 0x239 PUSH1 0x4 DUP1 CALLDATASIZE SUB DUP2 ADD SWAP1 PUSH2 0x234 SWAP2 SWAP1 PUSH2 0x13A4 JUMP JUMPDEST PUSH2 0x56F JUMP JUMPDEST STOP JUMPDEST PUSH2 0x255 PUSH1 0x4 DUP1 CALLDATASIZE SUB DUP2 ADD SWAP1 PUSH2 0x250 SWAP2 SWAP1 PUSH2 0x13A4 JUMP JUMPDEST PUSH2 0x699 JUMP JUMPDEST PUSH1 0x40 MLOAD PUSH2 0x262 SWAP2 SWAP1 PUSH2 0x12DC JUMP JUMPDEST PUSH1 0x40 MLOAD DUP1 SWAP2 SUB SWAP1 RETURN JUMPDEST PUSH2 0x273 PUSH2 0x6DE JUMP JUMPDEST PUSH1 0x40 MLOAD PUSH2 0x280 SWAP2 SWAP1 PUSH2 0x1183 JUMP JUMPDEST PUSH1 0x40 MLOAD DUP1 SWAP2 SUB SWAP1 RETURN JUMPDEST PUSH2 0x2A3 PUSH1 0x4 DUP1 CALLDATASIZE SUB DUP2 ADD SWAP1 PUSH2 0x29E SWAP2 SWAP1 PUSH2 0x125C JUMP JUMPDEST PUSH2 0x76E JUMP JUMPDEST PUSH1 0x40 MLOAD PUSH2 0x2B0 SWAP2 SWAP1 PUSH2 0x12B4 JUMP JUMPDEST PUSH1 0x40 MLOAD DUP1 SWAP2 SUB SWAP1 RETURN JUMPDEST PUSH2 0x2D3 PUSH1 0x4 DUP1 CALLDATASIZE SUB DUP2 ADD SWAP1 PUSH2 0x2CE SWAP2 SWAP1 PUSH2 0x125C JUMP JUMPDEST PUSH2 0x790 JUMP JUMPDEST PUSH1 0x40 MLOAD PUSH2 0x2E0 SWAP2 SWAP1 PUSH2 0x12B4 JUMP JUMPDEST PUSH1 0x40 MLOAD DUP1 SWAP2 SUB SWAP1 RETURN JUMPDEST PUSH2 0x2F1 PUSH2 0x93A JUMP JUMPDEST PUSH1 0x40 MLOAD PUSH2 0x2FE SWAP2 SWAP1 PUSH2 0x12DC JUMP JUMPDEST PUSH1 0x40 MLOAD DUP1 SWAP2 SUB SWAP1 RETURN JUMPDEST PUSH2 0x321 PUSH1 0x4 DUP1 CALLDATASIZE SUB DUP2 ADD SWAP1 PUSH2 0x31C SWAP2 SWAP1 PUSH2 0x13CF JUMP JUMPDEST PUSH2 0x940 JUMP JUMPDEST PUSH1 0x40 MLOAD PUSH2 0x32E SWAP2 SWAP1 PUSH2 0x12DC JUMP JUMPDEST PUSH1 0x40 MLOAD DUP1 SWAP2 SUB SWAP1 RETURN JUMPDEST PUSH2 0x351 PUSH1 0x4 DUP1 CALLDATASIZE SUB DUP2 ADD SWAP1 PUSH2 0x34C SWAP2 SWAP1 PUSH2 0x13A4 JUMP JUMPDEST PUSH2 0x9C2 JUMP JUMPDEST STOP JUMPDEST PUSH2 0x35B PUSH2 0xAEC JUMP JUMPDEST PUSH1 0x40 MLOAD PUSH2 0x368 SWAP2 SWAP1 PUSH2 0x11E2 JUMP JUMPDEST PUSH1 0x40 MLOAD DUP1 SWAP2 SUB SWAP1 RETURN JUMPDEST PUSH1 0x60 PUSH1 0x3 DUP1 SLOAD PUSH2 0x380 SWAP1 PUSH2 0x143A JUMP JUMPDEST DUP1 PUSH1 0x1F ADD PUSH1 0x20 DUP1 SWAP2 DIV MUL PUSH1 0x20 ADD PUSH1 0x40 MLOAD SWAP1 DUP2 ADD PUSH1 0x40 MSTORE DUP1 SWAP3 SWAP2 SWAP1 DUP2 DUP2 MSTORE PUSH1 0x20 ADD DUP3 DUP1 SLOAD PUSH2 0x3AC SWAP1 PUSH2 0x143A JUMP JUMPDEST DUP1 ISZERO PUSH2 0x3F7 JUMPI DUP1 PUSH1 0x1F LT PUSH2 0x3CE JUMPI PUSH2 0x100 DUP1 DUP4 SLOAD DIV MUL DUP4 MSTORE SWAP2 PUSH1 0x20 ADD SWAP2 PUSH2 0x3F7 JUMP JUMPDEST DUP3 ADD SWAP2 SWAP1 PUSH0 MSTORE PUSH1 0x20 PUSH0 KECCAK256 SWAP1 JUMPDEST DUP2 SLOAD DUP2 MSTORE SWAP1 PUSH1 0x1 ADD SWAP1 PUSH1 0x20 ADD DUP1 DUP4 GT PUSH2 0x3DA JUMPI DUP3 SWAP1 SUB PUSH1 0x1F AND DUP3 ADD SWAP2 JUMPDEST POP POP POP POP POP SWAP1 POP SWAP1 JUMP JUMPDEST PUSH1 0x8 PUSH0 SWAP1 SLOAD SWAP1 PUSH2 0x100 EXP SWAP1 DIV PUSH20 0xFFFFFFFFFFFFFFFFFFFFFFFFFFFFFFFFFFFFFFFF AND DUP2 JUMP JUMPDEST PUSH0 DUP1 PUSH2 0x430 PUSH2 0xB11 JUMP JUMPDEST SWAP1 POP PUSH2 0x43D DUP2 DUP6 DUP6 PUSH2 0xB18 JUMP JUMPDEST PUSH1 0x1 SWAP2 POP POP SWAP3 SWAP2 POP POP JUMP JUMPDEST PUSH0 PUSH1 0x2 SLOAD SWAP1 POP SWAP1 JUMP JUMPDEST PUSH0 DUP1 PUSH2 0x45B PUSH2 0xB11 JUMP JUMPDEST SWAP1 POP PUSH2 0x468 DUP6 DUP3 DUP6 PUSH2 0xB2A JUMP JUMPDEST PUSH2 0x473 DUP6 DUP6 DUP6 PUSH2 0xBBC JUMP JUMPDEST PUSH1 0x1 SWAP2 POP POP SWAP4 SWAP3 POP POP POP JUMP JUMPDEST PUSH0 PUSH1 0x6 SLOAD SWAP1 POP SWAP1 JUMP JUMPDEST PUSH1 0x9 PUSH0 SWAP1 SLOAD SWAP1 PUSH2 0x100 EXP SWAP1 DIV PUSH20 0xFFFFFFFFFFFFFFFFFFFFFFFFFFFFFFFFFFFFFFFF AND PUSH20 0xFFFFFFFFFFFFFFFFFFFFFFFFFFFFFFFFFFFFFFFF AND CALLER PUSH20 0xFFFFFFFFFFFFFFFFFFFFFFFFFFFFFFFFFFFFFFFF AND EQ PUSH2 0x517 JUMPI PUSH1 0x40 MLOAD PUSH32 0x8C379A000000000000000000000000000000000000000000000000000000000 DUP2 MSTORE PUSH1 0x4 ADD PUSH2 0x50E SWAP1 PUSH2 0x14B4 JUMP JUMPDEST PUSH1 0x40 MLOAD DUP1 SWAP2 SUB SWAP1 REVERT JUMPDEST DUP1 PUSH1 0x6 DUP2 SWAP1 SSTORE POP PUSH32 0xD65D781DB82F0BD55F732EA1B96F4C6565750DF815C18A70962CD8405274E243 PUSH1 0x6 SLOAD PUSH1 0x40 MLOAD PUSH2 0x54F SWAP2 SWAP1 PUSH2 0x12DC JUMP JUMPDEST PUSH1 0x40 MLOAD DUP1 SWAP2 SUB SWAP1 LOG1 POP JUMP JUMPDEST PUSH0 PUSH1 0x5 PUSH0 SWAP1 SLOAD SWAP1 PUSH2 0x100 EXP SWAP1 DIV PUSH1 0xFF AND SWAP1 POP SWAP1 JUMP JUMPDEST PUSH1 0x9 PUSH0 SWAP1 SLOAD SWAP1 PUSH2 0x100 EXP SWAP1 DIV PUSH20 0xFFFFFFFFFFFFFFFFFFFFFFFFFFFFFFFFFFFFFFFF AND PUSH20 0xFFFFFFFFFFFFFFFFFFFFFFFFFFFFFFFFFFFFFFFF AND CALLER PUSH20 0xFFFFFFFFFFFFFFFFFFFFFFFFFFFFFFFFFFFFFFFF AND EQ PUSH2 0x5FE JUMPI PUSH1 0x40 MLOAD PUSH32 0x8C379A000000000000000000000000000000000000000000000000000000000 DUP2 MSTORE PUSH1 0x4 ADD PUSH2 0x5F5 SWAP1 PUSH2 0x14B4 JUMP JUMPDEST PUSH1 0x40 MLOAD DUP1 SWAP2 SUB SWAP1 REVERT JUMPDEST DUP1 PUSH1 0x8 PUSH0 PUSH2 0x100 EXP DUP2 SLOAD DUP2 PUSH20 0xFFFFFFFFFFFFFFFFFFFFFFFFFFFFFFFFFFFFFFFF MUL NOT AND SWAP1 DUP4 PUSH20 0xFFFFFFFFFFFFFFFFFFFFFFFFFFFFFFFFFFFFFFFF AND MUL OR SWAP1 SSTORE POP PUSH32 0x94A0A7C0A7A455351029A521046D4438BC63E58A1EE8D984D624EB3161583B2C PUSH1 0x8 PUSH0 SWAP1 SLOAD SWAP1 PUSH2 0x100 EXP SWAP1 DIV PUSH20 0xFFFFFFFFFFFFFFFFFFFFFFFFFFFFFFFFFFFFFFFF AND PUSH1 0x40 MLOAD PUSH2 0x68E SWAP2 SWAP1 PUSH2 0x11E2 JUMP JUMPDEST PUSH1 0x40 MLOAD DUP1 SWAP2 SUB SWAP1 LOG1 POP JUMP JUMPDEST PUSH0 DUP1 PUSH0 DUP4 PUSH20 0xFFFFFFFFFFFFFFFFFFFFFFFFFFFFFFFFFFFFFFFF AND PUSH20 0xFFFFFFFFFFFFFFFFFFFFFFFFFFFFFFFFFFFFFFFF AND DUP2 MSTORE PUSH1 0x20 ADD SWAP1 DUP2 MSTORE PUSH1 0x20 ADD PUSH0 KECCAK256 SLOAD SWAP1 POP SWAP2 SWAP1 POP JUMP JUMPDEST PUSH1 0x60 PUSH1 0x4 DUP1 SLOAD PUSH2 0x6ED SWAP1 PUSH2 0x143A JUMP JUMPDEST DUP1 PUSH1 0x1F ADD PUSH1 0x20 DUP1 SWAP2 DIV MUL PUSH1 0x20 ADD PUSH1 0x40 MLOAD SWAP1 DUP2 ADD PUSH1 0x40 MSTORE DUP1 SWAP3 SWAP2 SWAP1 DUP2 DUP2 MSTORE PUSH1 0x20 ADD DUP3 DUP1 SLOAD PUSH2 0x719 SWAP1 PUSH2 0x143A JUMP JUMPDEST DUP1 ISZERO PUSH2 0x764 JUMPI DUP1 PUSH1 0x1F LT PUSH2 0x73B JUMPI PUSH2 0x100 DUP1 DUP4 SLOAD DIV MUL DUP4 MSTORE SWAP2 PUSH1 0x20 ADD SWAP2 PUSH2 0x764 JUMP JUMPDEST DUP3 ADD SWAP2 SWAP1 PUSH0 MSTORE PUSH1 0x20 PUSH0 KECCAK256 SWAP1 JUMPDEST DUP2 SLOAD DUP2 MSTORE SWAP1 PUSH1 0x1 ADD SWAP1 PUSH1 0x20 ADD DUP1 DUP4 GT PUSH2 0x747 JUMPI DUP3 SWAP1 SUB PUSH1 0x1F AND DUP3 ADD SWAP2 JUMPDEST POP POP POP POP POP SWAP1 POP SWAP1 JUMP JUMPDEST PUSH0 DUP1 PUSH2 0x778 PUSH2 0xB11 JUMP JUMPDEST SWAP1 POP PUSH2 0x785 DUP2 DUP6 DUP6 PUSH2 0xBBC JUMP JUMPDEST PUSH1 0x1 SWAP2 POP POP SWAP3 SWAP2 POP POP JUMP JUMPDEST PUSH0 PUSH1 0x8 PUSH0 SWAP1 SLOAD SWAP1 PUSH2 0x100 EXP SWAP1 DIV PUSH20 0xFFFFFFFFFFFFFFFFFFFFFFFFFFFFFFFFFFFFFFFF AND PUSH20 0xFFFFFFFFFFFFFFFFFFFFFFFFFFFFFFFFFFFFFFFF AND CALLER PUSH20 0xFFFFFFFFFFFFFFFFFFFFFFFFFFFFFFFFFFFFFFFF AND EQ PUSH2 0x820 JUMPI PUSH1 0x40 MLOAD PUSH32 0x8C379A000000000000000000000000000000000000000000000000000000000 DUP2 MSTORE PUSH1 0x4 ADD PUSH2 0x817 SWAP1 PUSH2 0x151C JUMP JUMPDEST PUSH1 0x40 MLOAD DUP1 SWAP2 SUB SWAP1 REVERT JUMPDEST PUSH1 0x8 PUSH0 SWAP1 SLOAD SWAP1 PUSH2 0x100 EXP SWAP1 DIV PUSH20 0xFFFFFFFFFFFFFFFFFFFFFFFFFFFFFFFFFFFFFFFF AND PUSH20 0xFFFFFFFFFFFFFFFFFFFFFFFFFFFFFFFFFFFFFFFF AND CALLER PUSH20 0xFFFFFFFFFFFFFFFFFFFFFFFFFFFFFFFFFFFFFFFF AND EQ PUSH2 0x87C JUMPI PUSH0 SWAP1 POP PUSH2 0x934 JUMP JUMPDEST PUSH0 ADDRESS PUSH20 0xFFFFFFFFFFFFFFFFFFFFFFFFFFFFFFFFFFFFFFFF AND PUSH4 0x18160DDD PUSH1 0x40 MLOAD DUP2 PUSH4 0xFFFFFFFF AND PUSH1 0xE0 SHL DUP2 MSTORE PUSH1 0x4 ADD PUSH1 0x20 PUSH1 0x40 MLOAD DUP1 DUP4 SUB DUP2 DUP7 GAS STATICCALL ISZERO DUP1 ISZERO PUSH2 0x8C6 JUMPI RETURNDATASIZE PUSH0 DUP1 RETURNDATACOPY RETURNDATASIZE PUSH0 REVERT JUMPDEST POP POP POP POP PUSH1 0x40 MLOAD RETURNDATASIZE PUSH1 0x1F NOT PUSH1 0x1F DUP3 ADD AND DUP3 ADD DUP1 PUSH1 0x40 MSTORE POP DUP2 ADD SWAP1 PUSH2 0x8EA SWAP2 SWAP1 PUSH2 0x154E JUMP JUMPDEST SWAP1 POP PUSH1 0x7 SLOAD DUP2 LT PUSH2 0x8FE JUMPI PUSH0 SWAP2 POP POP PUSH2 0x934 JUMP JUMPDEST PUSH1 0x7 SLOAD DUP4 DUP3 PUSH2 0x90D SWAP2 SWAP1 PUSH2 0x15A6 JUMP JUMPDEST GT ISZERO PUSH2 0x924 JUMPI DUP1 PUSH1 0x7 SLOAD PUSH2 0x921 SWAP2 SWAP1 PUSH2 0x15D9 JUMP JUMPDEST SWAP3 POP JUMPDEST PUSH2 0x92E DUP5 DUP5 PUSH2 0xCAC JUMP JUMPDEST PUSH1 0x1 SWAP2 POP POP JUMPDEST SWAP3 SWAP2 POP POP JUMP JUMPDEST PUSH1 0x7 SLOAD DUP2 JUMP JUMPDEST PUSH0 PUSH1 0x1 PUSH0 DUP5 PUSH20 0xFFFFFFFFFFFFFFFFFFFFFFFFFFFFFFFFFFFFFFFF AND PUSH20 0xFFFFFFFFFFFFFFFFFFFFFFFFFFFFFFFFFFFFFFFF AND DUP2 MSTORE PUSH1 0x20 ADD SWAP1 DUP2 MSTORE PUSH1 0x20 ADD PUSH0 KECCAK256 PUSH0 DUP4 PUSH20 0xFFFFFFFFFFFFFFFFFFFFFFFFFFFFFFFFFFFFFFFF AND PUSH20 0xFFFFFFFFFFFFFFFFFFFFFFFFFFFFFFFFFFFFFFFF AND DUP2 MSTORE PUSH1 0x20 ADD SWAP1 DUP2 MSTORE PUSH1 0x20 ADD PUSH0 KECCAK256 SLOAD SWAP1 POP SWAP3 SWAP2 POP POP JUMP JUMPDEST PUSH1 0x9 PUSH0 SWAP1 SLOAD SWAP1 PUSH2 0x100 EXP SWAP1 DIV PUSH20 0xFFFFFFFFFFFFFFFFFFFFFFFFFFFFFFFFFFFFFFFF AND PUSH20 0xFFFFFFFFFFFFFFFFFFFFFFFFFFFFFFFFFFFFFFFF AND CALLER PUSH20 0xFFFFFFFFFFFFFFFFFFFFFFFFFFFFFFFFFFFFFFFF AND EQ PUSH2 0xA51 JUMPI PUSH1 0x40 MLOAD PUSH32 0x8C379A000000000000000000000000000000000000000000000000000000000 DUP2 MSTORE PUSH1 0x4 ADD PUSH2 0xA48 SWAP1 PUSH2 0x14B4 JUMP JUMPDEST PUSH1 0x40 MLOAD DUP1 SWAP2 SUB SWAP1 REVERT JUMPDEST DUP1 PUSH1 0x9 PUSH0 PUSH2 0x100 EXP DUP2 SLOAD DUP2 PUSH20 0xFFFFFFFFFFFFFFFFFFFFFFFFFFFFFFFFFFFFFFFF MUL NOT AND SWAP1 DUP4 PUSH20 0xFFFFFFFFFFFFFFFFFFFFFFFFFFFFFFFFFFFFFFFF AND MUL OR SWAP1 SSTORE POP PUSH32 0xBFC8D7754FEC5096BECC28E0816011E8D0ADCFE752FFA1C88924A7F88B00A41D PUSH1 0x9 PUSH0 SWAP1 SLOAD SWAP1 PUSH2 0x100 EXP SWAP1 DIV PUSH20 0xFFFFFFFFFFFFFFFFFFFFFFFFFFFFFFFFFFFFFFFF AND PUSH1 0x40 MLOAD PUSH2 0xAE1 SWAP2 SWAP1 PUSH2 0x11E2 JUMP JUMPDEST PUSH1 0x40 MLOAD DUP1 SWAP2 SUB SWAP1 LOG1 POP JUMP JUMPDEST PUSH1 0x9 PUSH0 SWAP1 SLOAD SWAP1 PUSH2 0x100 EXP SWAP1 DIV PUSH20 0xFFFFFFFFFFFFFFFFFFFFFFFFFFFFFFFFFFFFFFFF AND DUP2 JUMP JUMPDEST PUSH0 CALLER SWAP1 POP SWAP1 JUMP JUMPDEST PUSH2 0xB25 DUP4 DUP4 DUP4 PUSH1 0x1 PUSH2 0xD2B JUMP JUMPDEST POP POP POP JUMP JUMPDEST PUSH0 PUSH2 0xB35 DUP5 DUP5 PUSH2 0x940 JUMP JUMPDEST SWAP1 POP PUSH32 0xFFFFFFFFFFFFFFFFFFFFFFFFFFFFFFFFFFFFFFFFFFFFFFFFFFFFFFFFFFFFFFFF DUP2 EQ PUSH2 0xBB6 JUMPI DUP2 DUP2 LT ISZERO PUSH2 0xBA7 JUMPI DUP3 DUP2 DUP4 PUSH1 0x40 MLOAD PUSH32 0xFB8F41B200000000000000000000000000000000000000000000000000000000 DUP2 MSTORE PUSH1 0x4 ADD PUSH2 0xB9E SWAP4 SWAP3 SWAP2 SWAP1 PUSH2 0x160C JUMP JUMPDEST PUSH1 0x40 MLOAD DUP1 SWAP2 SUB SWAP1 REVERT JUMPDEST PUSH2 0xBB5 DUP5 DUP5 DUP5 DUP5 SUB PUSH0 PUSH2 0xD2B JUMP JUMPDEST JUMPDEST POP POP POP POP JUMP JUMPDEST PUSH0 PUSH20 0xFFFFFFFFFFFFFFFFFFFFFFFFFFFFFFFFFFFFFFFF AND DUP4 PUSH20 0xFFFFFFFFFFFFFFFFFFFFFFFFFFFFFFFFFFFFFFFF AND SUB PUSH2 0xC2C JUMPI PUSH0 PUSH1 0x40 MLOAD PUSH32 0x96C6FD1E00000000000000000000000000000000000000000000000000000000 DUP2 MSTORE PUSH1 0x4 ADD PUSH2 0xC23 SWAP2 SWAP1 PUSH2 0x11E2 JUMP JUMPDEST PUSH1 0x40 MLOAD DUP1 SWAP2 SUB SWAP1 REVERT JUMPDEST PUSH0 PUSH20 0xFFFFFFFFFFFFFFFFFFFFFFFFFFFFFFFFFFFFFFFF AND DUP3 PUSH20 0xFFFFFFFFFFFFFFFFFFFFFFFFFFFFFFFFFFFFFFFF AND SUB PUSH2 0xC9C JUMPI PUSH0 PUSH1 0x40 MLOAD PUSH32 0xEC442F0500000000000000000000000000000000000000000000000000000000 DUP2 MSTORE PUSH1 0x4 ADD PUSH2 0xC93 SWAP2 SWAP1 PUSH2 0x11E2 JUMP JUMPDEST PUSH1 0x40 MLOAD DUP1 SWAP2 SUB SWAP1 REVERT JUMPDEST PUSH2 0xCA7 DUP4 DUP4 DUP4 PUSH2 0xEFA JUMP JUMPDEST POP POP POP JUMP JUMPDEST PUSH0 PUSH20 0xFFFFFFFFFFFFFFFFFFFFFFFFFFFFFFFFFFFFFFFF AND DUP3 PUSH20 0xFFFFFFFFFFFFFFFFFFFFFFFFFFFFFFFFFFFFFFFF AND SUB PUSH2 0xD1C JUMPI PUSH0 PUSH1 0x40 MLOAD PUSH32 0xEC442F0500000000000000000000000000000000000000000000000000000000 DUP2 MSTORE PUSH1 0x4 ADD PUSH2 0xD13 SWAP2 SWAP1 PUSH2 0x11E2 JUMP JUMPDEST PUSH1 0x40 MLOAD DUP1 SWAP2 SUB SWAP1 REVERT JUMPDEST PUSH2 0xD27 PUSH0 DUP4 DUP4 PUSH2 0xEFA JUMP JUMPDEST POP POP JUMP JUMPDEST PUSH0 PUSH20 0xFFFFFFFFFFFFFFFFFFFFFFFFFFFFFFFFFFFFFFFF AND DUP5 PUSH20 0xFFFFFFFFFFFFFFFFFFFFFFFFFFFFFFFFFFFFFFFF AND SUB PUSH2 0xD9B JUMPI PUSH0 PUSH1 0x40 MLOAD PUSH32 0xE602DF0500000000000000000000000000000000000000000000000000000000 DUP2 MSTORE PUSH1 0x4 ADD PUSH2 0xD92 SWAP2 SWAP1 PUSH2 0x11E2 JUMP JUMPDEST PUSH1 0x40 MLOAD DUP1 SWAP2 SUB SWAP1 REVERT JUMPDEST PUSH0 PUSH20 0xFFFFFFFFFFFFFFFFFFFFFFFFFFFFFFFFFFFFFFFF AND DUP4 PUSH20 0xFFFFFFFFFFFFFFFFFFFFFFFFFFFFFFFFFFFFFFFF AND SUB PUSH2 0xE0B JUMPI PUSH0 PUSH1 0x40 MLOAD PUSH32 0x94280D6200000000000000000000000000000000000000000000000000000000 DUP2 MSTORE PUSH1 0x4 ADD PUSH2 0xE02 SWAP2 SWAP1 PUSH2 0x11E2 JUMP JUMPDEST PUSH1 0x40 MLOAD DUP1 SWAP2 SUB SWAP1 REVERT JUMPDEST DUP2 PUSH1 0x1 PUSH0 DUP7 PUSH20 0xFFFFFFFFFFFFFFFFFFFFFFFFFFFFFFFFFFFFFFFF AND PUSH20 0xFFFFFFFFFFFFFFFFFFFFFFFFFFFFFFFFFFFFFFFF AND DUP2 MSTORE PUSH1 0x20 ADD SWAP1 DUP2 MSTORE PUSH1 0x20 ADD PUSH0 KECCAK256 PUSH0 DUP6 PUSH20 0xFFFFFFFFFFFFFFFFFFFFFFFFFFFFFFFFFFFFFFFF AND PUSH20 0xFFFFFFFFFFFFFFFFFFFFFFFFFFFFFFFFFFFFFFFF AND DUP2 MSTORE PUSH1 0x20 ADD SWAP1 DUP2 MSTORE PUSH1 0x20 ADD PUSH0 KECCAK256 DUP2 SWAP1 SSTORE POP DUP1 ISZERO PUSH2 0xEF4 JUMPI DUP3 PUSH20 0xFFFFFFFFFFFFFFFFFFFFFFFFFFFFFFFFFFFFFFFF AND DUP5 PUSH20 0xFFFFFFFFFFFFFFFFFFFFFFFFFFFFFFFFFFFFFFFF AND PUSH32 0x8C5BE1E5EBEC7D5BD14F71427D1E84F3DD0314C0F7B2291E5B200AC8C7C3B925 DUP5 PUSH1 0x40 MLOAD PUSH2 0xEEB SWAP2 SWAP1 PUSH2 0x12DC JUMP JUMPDEST PUSH1 0x40 MLOAD DUP1 SWAP2 SUB SWAP1 LOG3 JUMPDEST POP POP POP POP JUMP JUMPDEST PUSH0 PUSH20 0xFFFFFFFFFFFFFFFFFFFFFFFFFFFFFFFFFFFFFFFF AND DUP4 PUSH20 0xFFFFFFFFFFFFFFFFFFFFFFFFFFFFFFFFFFFFFFFF AND SUB PUSH2 0xF4A JUMPI DUP1 PUSH1 0x2 PUSH0 DUP3 DUP3 SLOAD PUSH2 0xF3E SWAP2 SWAP1 PUSH2 0x15A6 JUMP JUMPDEST SWAP3 POP POP DUP2 SWAP1 SSTORE POP PUSH2 0x1018 JUMP JUMPDEST PUSH0 DUP1 PUSH0 DUP6 PUSH20 0xFFFFFFFFFFFFFFFFFFFFFFFFFFFFFFFFFFFFFFFF AND PUSH20 0xFFFFFFFFFFFFFFFFFFFFFFFFFFFFFFFFFFFFFFFF AND DUP2 MSTORE PUSH1 0x20 ADD SWAP1 DUP2 MSTORE PUSH1 0x20 ADD PUSH0 KECCAK256 SLOAD SWAP1 POP DUP2 DUP2 LT ISZERO PUSH2 0xFD3 JUMPI DUP4 DUP2 DUP4 PUSH1 0x40 MLOAD PUSH32 0xE450D38C00000000000000000000000000000000000000000000000000000000 DUP2 MSTORE PUSH1 0x4 ADD PUSH2 0xFCA SWAP4 SWAP3 SWAP2 SWAP1 PUSH2 0x160C JUMP JUMPDEST PUSH1 0x40 MLOAD DUP1 SWAP2 SUB SWAP1 REVERT JUMPDEST DUP2 DUP2 SUB PUSH0 DUP1 DUP7 PUSH20 0xFFFFFFFFFFFFFFFFFFFFFFFFFFFFFFFFFFFFFFFF AND PUSH20 0xFFFFFFFFFFFFFFFFFFFFFFFFFFFFFFFFFFFFFFFF AND DUP2 MSTORE PUSH1 0x20 ADD SWAP1 DUP2 MSTORE PUSH1 0x20 ADD PUSH0 KECCAK256 DUP2 SWAP1 SSTORE POP POP JUMPDEST PUSH0 PUSH20 0xFFFFFFFFFFFFFFFFFFFFFFFFFFFFFFFFFFFFFFFF AND DUP3 PUSH20 0xFFFFFFFFFFFFFFFFFFFFFFFFFFFFFFFFFFFFFFFF AND SUB PUSH2 0x105F JUMPI DUP1 PUSH1 0x2 PUSH0 DUP3 DUP3 SLOAD SUB SWAP3 POP POP DUP2 SWAP1 SSTORE POP PUSH2 0x10A9 JUMP JUMPDEST DUP1 PUSH0 DUP1 DUP5 PUSH20 0xFFFFFFFFFFFFFFFFFFFFFFFFFFFFFFFFFFFFFFFF AND PUSH20 0xFFFFFFFFFFFFFFFFFFFFFFFFFFFFFFFFFFFFFFFF AND DUP2 MSTORE PUSH1 0x20 ADD SWAP1 DUP2 MSTORE PUSH1 0x20 ADD PUSH0 KECCAK256 PUSH0 DUP3 DUP3 SLOAD ADD SWAP3 POP POP DUP2 SWAP1 SSTORE POP JUMPDEST DUP2 PUSH20 0xFFFFFFFFFFFFFFFFFFFFFFFFFFFFFFFFFFFFFFFF AND DUP4 PUSH20 0xFFFFFFFFFFFFFFFFFFFFFFFFFFFFFFFFFFFFFFFF AND PUSH32 0xDDF252AD1BE2C89B69C2B068FC378DAA952BA7F163C4A11628F55A4DF523B3EF DUP4 PUSH1 0x40 MLOAD PUSH2 0x1106 SWAP2 SWAP1 PUSH2 0x12DC JUMP JUMPDEST PUSH1 0x40 MLOAD DUP1 SWAP2 SUB SWAP1 LOG3 POP POP POP JUMP JUMPDEST PUSH0 DUP2 MLOAD SWAP1 POP SWAP2 SWAP1 POP JUMP JUMPDEST PUSH0 DUP3 DUP3 MSTORE PUSH1 0x20 DUP3 ADD SWAP1 POP SWAP3 SWAP2 POP POP JUMP JUMPDEST DUP3 DUP2 DUP4 MCOPY PUSH0 DUP4 DUP4 ADD MSTORE POP POP POP JUMP JUMPDEST PUSH0 PUSH1 0x1F NOT PUSH1 0x1F DUP4 ADD AND SWAP1 POP SWAP2 SWAP1 POP JUMP JUMPDEST PUSH0 PUSH2 0x1155 DUP3 PUSH2 0x1113 JUMP JUMPDEST PUSH2 0x115F DUP2 DUP6 PUSH2 0x111D JUMP JUMPDEST SWAP4 POP PUSH2 0x116F DUP2 DUP6 PUSH1 0x20 DUP7 ADD PUSH2 0x112D JUMP JUMPDEST PUSH2 0x1178 DUP2 PUSH2 0x113B JUMP JUMPDEST DUP5 ADD SWAP2 POP POP SWAP3 SWAP2 POP POP JUMP JUMPDEST PUSH0 PUSH1 0x20 DUP3 ADD SWAP1 POP DUP2 DUP2 SUB PUSH0 DUP4 ADD MSTORE PUSH2 0x119B DUP2 DUP5 PUSH2 0x114B JUMP JUMPDEST SWAP1 POP SWAP3 SWAP2 POP POP JUMP JUMPDEST PUSH0 PUSH20 0xFFFFFFFFFFFFFFFFFFFFFFFFFFFFFFFFFFFFFFFF DUP3 AND SWAP1 POP SWAP2 SWAP1 POP JUMP JUMPDEST PUSH0 PUSH2 0x11CC DUP3 PUSH2 0x11A3 JUMP JUMPDEST SWAP1 POP SWAP2 SWAP1 POP JUMP JUMPDEST PUSH2 0x11DC DUP2 PUSH2 0x11C2 JUMP JUMPDEST DUP3 MSTORE POP POP JUMP JUMPDEST PUSH0 PUSH1 0x20 DUP3 ADD SWAP1 POP PUSH2 0x11F5 PUSH0 DUP4 ADD DUP5 PUSH2 0x11D3 JUMP JUMPDEST SWAP3 SWAP2 POP POP JUMP JUMPDEST PUSH0 DUP1 REVERT JUMPDEST PUSH2 0x1208 DUP2 PUSH2 0x11C2 JUMP JUMPDEST DUP2 EQ PUSH2 0x1212 JUMPI PUSH0 DUP1 REVERT JUMPDEST POP JUMP JUMPDEST PUSH0 DUP2 CALLDATALOAD SWAP1 POP PUSH2 0x1223 DUP2 PUSH2 0x11FF JUMP JUMPDEST SWAP3 SWAP2 POP POP JUMP JUMPDEST PUSH0 DUP2 SWAP1 POP SWAP2 SWAP1 POP JUMP JUMPDEST PUSH2 0x123B DUP2 PUSH2 0x1229 JUMP JUMPDEST DUP2 EQ PUSH2 0x1245 JUMPI PUSH0 DUP1 REVERT JUMPDEST POP JUMP JUMPDEST PUSH0 DUP2 CALLDATALOAD SWAP1 POP PUSH2 0x1256 DUP2 PUSH2 0x1232 JUMP JUMPDEST SWAP3 SWAP2 POP POP JUMP JUMPDEST PUSH0 DUP1 PUSH1 0x40 DUP4 DUP6 SUB SLT ISZERO PUSH2 0x1272 JUMPI PUSH2 0x1271 PUSH2 0x11FB JUMP JUMPDEST JUMPDEST PUSH0 PUSH2 0x127F DUP6 DUP3 DUP7 ADD PUSH2 0x1215 JUMP JUMPDEST SWAP3 POP POP PUSH1 0x20 PUSH2 0x1290 DUP6 DUP3 DUP7 ADD PUSH2 0x1248 JUMP JUMPDEST SWAP2 POP POP SWAP3 POP SWAP3 SWAP1 POP JUMP JUMPDEST PUSH0 DUP2 ISZERO ISZERO SWAP1 POP SWAP2 SWAP1 POP JUMP JUMPDEST PUSH2 0x12AE DUP2 PUSH2 0x129A JUMP JUMPDEST DUP3 MSTORE POP POP JUMP JUMPDEST PUSH0 PUSH1 0x20 DUP3 ADD SWAP1 POP PUSH2 0x12C7 PUSH0 DUP4 ADD DUP5 PUSH2 0x12A5 JUMP JUMPDEST SWAP3 SWAP2 POP POP JUMP JUMPDEST PUSH2 0x12D6 DUP2 PUSH2 0x1229 JUMP JUMPDEST DUP3 MSTORE POP POP JUMP JUMPDEST PUSH0 PUSH1 0x20 DUP3 ADD SWAP1 POP PUSH2 0x12EF PUSH0 DUP4 ADD DUP5 PUSH2 0x12CD JUMP JUMPDEST SWAP3 SWAP2 POP POP JUMP JUMPDEST PUSH0 DUP1 PUSH0 PUSH1 0x60 DUP5 DUP7 SUB SLT ISZERO PUSH2 0x130C JUMPI PUSH2 0x130B PUSH2 0x11FB JUMP JUMPDEST JUMPDEST PUSH0 PUSH2 0x1319 DUP7 DUP3 DUP8 ADD PUSH2 0x1215 JUMP JUMPDEST SWAP4 POP POP PUSH1 0x20 PUSH2 0x132A DUP7 DUP3 DUP8 ADD PUSH2 0x1215 JUMP JUMPDEST SWAP3 POP POP PUSH1 0x40 PUSH2 0x133B DUP7 DUP3 DUP8 ADD PUSH2 0x1248 JUMP JUMPDEST SWAP2 POP POP SWAP3 POP SWAP3 POP SWAP3 JUMP JUMPDEST PUSH0 PUSH1 0x20 DUP3 DUP5 SUB SLT ISZERO PUSH2 0x135A JUMPI PUSH2 0x1359 PUSH2 0x11FB JUMP JUMPDEST JUMPDEST PUSH0 PUSH2 0x1367 DUP5 DUP3 DUP6 ADD PUSH2 0x1248 JUMP JUMPDEST SWAP2 POP POP SWAP3 SWAP2 POP POP JUMP JUMPDEST PUSH0 PUSH1 0xFF DUP3 AND SWAP1 POP SWAP2 SWAP1 POP JUMP JUMPDEST PUSH2 0x1385 DUP2 PUSH2 0x1370 JUMP JUMPDEST DUP3 MSTORE POP POP JUMP JUMPDEST PUSH0 PUSH1 0x20 DUP3 ADD SWAP1 POP PUSH2 0x139E PUSH0 DUP4 ADD DUP5 PUSH2 0x137C JUMP JUMPDEST SWAP3 SWAP2 POP POP JUMP JUMPDEST PUSH0 PUSH1 0x20 DUP3 DUP5 SUB SLT ISZERO PUSH2 0x13B9 JUMPI PUSH2 0x13B8 PUSH2 0x11FB JUMP JUMPDEST JUMPDEST PUSH0 PUSH2 0x13C6 DUP5 DUP3 DUP6 ADD PUSH2 0x1215 JUMP JUMPDEST SWAP2 POP POP SWAP3 SWAP2 POP POP JUMP JUMPDEST PUSH0 DUP1 PUSH1 0x40 DUP4 DUP6 SUB SLT ISZERO PUSH2 0x13E5 JUMPI PUSH2 0x13E4 PUSH2 0x11FB JUMP JUMPDEST JUMPDEST PUSH0 PUSH2 0x13F2 DUP6 DUP3 DUP7 ADD PUSH2 0x1215 JUMP JUMPDEST SWAP3 POP POP PUSH1 0x20 PUSH2 0x1403 DUP6 DUP3 DUP7 ADD PUSH2 0x1215 JUMP JUMPDEST SWAP2 POP POP SWAP3 POP SWAP3 SWAP1 POP JUMP JUMPDEST PUSH32 0x4E487B7100000000000000000000000000000000000000000000000000000000 PUSH0 MSTORE PUSH1 0x22 PUSH1 0x4 MSTORE PUSH1 0x24 PUSH0 REVERT JUMPDEST PUSH0 PUSH1 0x2 DUP3 DIV SWAP1 POP PUSH1 0x1 DUP3 AND DUP1 PUSH2 0x1451 JUMPI PUSH1 0x7F DUP3 AND SWAP2 POP JUMPDEST PUSH1 0x20 DUP3 LT DUP2 SUB PUSH2 0x1464 JUMPI PUSH2 0x1463 PUSH2 0x140D JUMP JUMPDEST JUMPDEST POP SWAP2 SWAP1 POP JUMP JUMPDEST PUSH32 0x4F6E6C792061646D696E2063616E206D616B6520746869732063616C6C000000 PUSH0 DUP3 ADD MSTORE POP JUMP JUMPDEST PUSH0 PUSH2 0x149E PUSH1 0x1D DUP4 PUSH2 0x111D JUMP JUMPDEST SWAP2 POP PUSH2 0x14A9 DUP3 PUSH2 0x146A JUMP JUMPDEST PUSH1 0x20 DUP3 ADD SWAP1 POP SWAP2 SWAP1 POP JUMP JUMPDEST PUSH0 PUSH1 0x20 DUP3 ADD SWAP1 POP DUP2 DUP2 SUB PUSH0 DUP4 ADD MSTORE PUSH2 0x14CB DUP2 PUSH2 0x1492 JUMP JUMPDEST SWAP1 POP SWAP2 SWAP1 POP JUMP JUMPDEST PUSH32 0x4F6E6C79206D696E7465722063616E206D616B6520746869732063616C6C0000 PUSH0 DUP3 ADD MSTORE POP JUMP JUMPDEST PUSH0 PUSH2 0x1506 PUSH1 0x1E DUP4 PUSH2 0x111D JUMP JUMPDEST SWAP2 POP PUSH2 0x1511 DUP3 PUSH2 0x14D2 JUMP JUMPDEST PUSH1 0x20 DUP3 ADD SWAP1 POP SWAP2 SWAP1 POP JUMP JUMPDEST PUSH0 PUSH1 0x20 DUP3 ADD SWAP1 POP DUP2 DUP2 SUB PUSH0 DUP4 ADD MSTORE PUSH2 0x1533 DUP2 PUSH2 0x14FA JUMP JUMPDEST SWAP1 POP SWAP2 SWAP1 POP JUMP JUMPDEST PUSH0 DUP2 MLOAD SWAP1 POP PUSH2 0x1548 DUP2 PUSH2 0x1232 JUMP JUMPDEST SWAP3 SWAP2 POP POP JUMP JUMPDEST PUSH0 PUSH1 0x20 DUP3 DUP5 SUB SLT ISZERO PUSH2 0x1563 JUMPI PUSH2 0x1562 PUSH2 0x11FB JUMP JUMPDEST JUMPDEST PUSH0 PUSH2 0x1570 DUP5 DUP3 DUP6 ADD PUSH2 0x153A JUMP JUMPDEST SWAP2 POP POP SWAP3 SWAP2 POP POP JUMP JUMPDEST PUSH32 0x4E487B7100000000000000000000000000000000000000000000000000000000 PUSH0 MSTORE PUSH1 0x11 PUSH1 0x4 MSTORE PUSH1 0x24 PUSH0 REVERT JUMPDEST PUSH0 PUSH2 0x15B0 DUP3 PUSH2 0x1229 JUMP JUMPDEST SWAP2 POP PUSH2 0x15BB DUP4 PUSH2 0x1229 JUMP JUMPDEST SWAP3 POP DUP3 DUP3 ADD SWAP1 POP DUP1 DUP3 GT ISZERO PUSH2 0x15D3 JUMPI PUSH2 0x15D2 PUSH2 0x1579 JUMP JUMPDEST JUMPDEST SWAP3 SWAP2 POP POP JUMP JUMPDEST PUSH0 PUSH2 0x15E3 DUP3 PUSH2 0x1229 JUMP JUMPDEST SWAP2 POP PUSH2 0x15EE DUP4 PUSH2 0x1229 JUMP JUMPDEST SWAP3 POP DUP3 DUP3 SUB SWAP1 POP DUP2 DUP2 GT ISZERO PUSH2 0x1606 JUMPI PUSH2 0x1605 PUSH2 0x1579 JUMP JUMPDEST JUMPDEST SWAP3 SWAP2 POP POP JUMP JUMPDEST PUSH0 PUSH1 0x60 DUP3 ADD SWAP1 POP PUSH2 0x161F PUSH0 DUP4 ADD DUP7 PUSH2 0x11D3 JUMP JUMPDEST PUSH2 0x162C PUSH1 0x20 DUP4 ADD DUP6 PUSH2 0x12CD JUMP JUMPDEST PUSH2 0x1639 PUSH1 0x40 DUP4 ADD DUP5 PUSH2 0x12CD JUMP JUMPDEST SWAP5 SWAP4 POP POP POP POP JUMP INVALID LOG2 PUSH5 0x6970667358 0x22 SLT KECCAK256 CHAINID CALLER 0xB8 0xCD 0xCA 0xFB SWAP14 0xD7 SWAP14 PC 0xAB 0xB1 0x2B 0xAA DUP13 PUSH10 0x46B31AAFB390D14E92E1 PUSH32 0x9DE5327564736F6C634300081A003300000000000000000000000000000000 "
				},
				"gasEstimates": {
					"creation": {
						"codeDepositCost": "1150200",
						"executionCost": "infinite",
						"totalCost": "infinite"
					},
					"external": {
						"admin()": "2618",
						"allowance(address,address)": "infinite",
						"approve(address,uint256)": "infinite",
						"balanceOf(address)": "2874",
						"decimals()": "2562",
						"maxSupply()": "2469",
						"mintStakerReward(address,uint256)": "infinite",
						"minter()": "2554",
						"name()": "infinite",
						"stakerRewardPerBlock()": "2477",
						"symbol()": "infinite",
						"totalSupply()": "2522",
						"transfer(address,uint256)": "infinite",
						"transferFrom(address,address,uint256)": "infinite",
						"updateAdmin(address)": "infinite",
						"updateMinter(address)": "infinite",
						"updateStakerRewardPerBlock(uint256)": "infinite"
					}
				},
				"methodIdentifiers": {
					"admin()": "f851a440",
					"allowance(address,address)": "dd62ed3e",
					"approve(address,uint256)": "095ea7b3",
					"balanceOf(address)": "70a08231",
					"decimals()": "313ce567",
					"maxSupply()": "d5abeb01",
					"mintStakerReward(address,uint256)": "ab8e786f",
					"minter()": "07546172",
					"name()": "06fdde03",
					"stakerRewardPerBlock()": "24e770d0",
					"symbol()": "95d89b41",
					"totalSupply()": "18160ddd",
					"transfer(address,uint256)": "a9059cbb",
					"transferFrom(address,address,uint256)": "23b872dd",
					"updateAdmin(address)": "e2f273bd",
					"updateMinter(address)": "4eb03f6e",
					"updateStakerRewardPerBlock(uint256)": "29fb7ef6"
				}
			},
			"storageLayout": {
				"storage": [
					{
						"astId": 159,
						"contract": "contracts/govarnance/SubchainGovernanceToken.sol:SubchainGovernanceToken",
						"label": "_balances",
						"offset": 0,
						"slot": "0",
						"type": "t_mapping(t_address,t_uint256)"
					},
					{
						"astId": 165,
						"contract": "contracts/govarnance/SubchainGovernanceToken.sol:SubchainGovernanceToken",
						"label": "_allowances",
						"offset": 0,
						"slot": "1",
						"type": "t_mapping(t_address,t_mapping(t_address,t_uint256))"
					},
					{
						"astId": 167,
						"contract": "contracts/govarnance/SubchainGovernanceToken.sol:SubchainGovernanceToken",
						"label": "_totalSupply",
						"offset": 0,
						"slot": "2",
						"type": "t_uint256"
					},
					{
						"astId": 169,
						"contract": "contracts/govarnance/SubchainGovernanceToken.sol:SubchainGovernanceToken",
						"label": "_name",
						"offset": 0,
						"slot": "3",
						"type": "t_string_storage"
					},
					{
						"astId": 171,
						"contract": "contracts/govarnance/SubchainGovernanceToken.sol:SubchainGovernanceToken",
						"label": "_symbol",
						"offset": 0,
						"slot": "4",
						"type": "t_string_storage"
					},
					{
						"astId": 1862,
						"contract": "contracts/govarnance/SubchainGovernanceToken.sol:SubchainGovernanceToken",
						"label": "_decimals",
						"offset": 0,
						"slot": "5",
						"type": "t_uint8"
					},
					{
						"astId": 1864,
						"contract": "contracts/govarnance/SubchainGovernanceToken.sol:SubchainGovernanceToken",
						"label": "_stakerRewardPerBlock",
						"offset": 0,
						"slot": "6",
						"type": "t_uint256"
					},
					{
						"astId": 1866,
						"contract": "contracts/govarnance/SubchainGovernanceToken.sol:SubchainGovernanceToken",
						"label": "maxSupply",
						"offset": 0,
						"slot": "7",
						"type": "t_uint256"
					},
					{
						"astId": 1868,
						"contract": "contracts/govarnance/SubchainGovernanceToken.sol:SubchainGovernanceToken",
						"label": "minter",
						"offset": 0,
						"slot": "8",
						"type": "t_address"
					},
					{
						"astId": 1870,
						"contract": "contracts/govarnance/SubchainGovernanceToken.sol:SubchainGovernanceToken",
						"label": "admin",
						"offset": 0,
						"slot": "9",
						"type": "t_address"
					}
				],
				"types": {
					"t_address": {
						"encoding": "inplace",
						"label": "address",
						"numberOfBytes": "20"
					},
					"t_mapping(t_address,t_mapping(t_address,t_uint256))": {
						"encoding": "mapping",
						"key": "t_address",
						"label": "mapping(address => mapping(address => uint256))",
						"numberOfBytes": "32",
						"value": "t_mapping(t_address,t_uint256)"
					},
					"t_mapping(t_address,t_uint256)": {
						"encoding": "mapping",
						"key": "t_address",
						"label": "mapping(address => uint256)",
						"numberOfBytes": "32",
						"value": "t_uint256"
					},
					"t_string_storage": {
						"encoding": "bytes",
						"label": "string",
						"numberOfBytes": "32"
					},
					"t_uint256": {
						"encoding": "inplace",
						"label": "uint256",
						"numberOfBytes": "32"
					},
					"t_uint8": {
						"encoding": "inplace",
						"label": "uint8",
						"numberOfBytes": "1"
					}
				}
			},
			"userdoc": {
				"kind": "user",
				"methods": {},
				"version": 1
			}
		}
	}
}